{
	"contracts/DegenToken.sol": {
		"DegenToken": {
			"abi": [
				{
					"inputs": [],
					"stateMutability": "nonpayable",
					"type": "constructor"
				},
				{
					"anonymous": false,
					"inputs": [
						{
							"indexed": true,
							"internalType": "address",
							"name": "owner",
							"type": "address"
						},
						{
							"indexed": true,
							"internalType": "address",
							"name": "spender",
							"type": "address"
						},
						{
							"indexed": false,
							"internalType": "uint256",
							"name": "value",
							"type": "uint256"
						}
					],
					"name": "Approval",
					"type": "event"
				},
				{
					"anonymous": false,
					"inputs": [
						{
							"indexed": true,
							"internalType": "address",
							"name": "from",
							"type": "address"
						},
						{
							"indexed": true,
							"internalType": "address",
							"name": "to",
							"type": "address"
						},
						{
							"indexed": false,
							"internalType": "uint256",
							"name": "value",
							"type": "uint256"
						}
					],
					"name": "Transfer",
					"type": "event"
				},
				{
					"inputs": [
						{
							"internalType": "address",
							"name": "owner",
							"type": "address"
						},
						{
							"internalType": "address",
							"name": "spender",
							"type": "address"
						}
					],
					"name": "allowance",
					"outputs": [
						{
							"internalType": "uint256",
							"name": "",
							"type": "uint256"
						}
					],
					"stateMutability": "view",
					"type": "function"
				},
				{
					"inputs": [
						{
							"internalType": "address",
							"name": "spender",
							"type": "address"
						},
						{
							"internalType": "uint256",
							"name": "amount",
							"type": "uint256"
						}
					],
					"name": "approve",
					"outputs": [
						{
							"internalType": "bool",
							"name": "",
							"type": "bool"
						}
					],
					"stateMutability": "nonpayable",
					"type": "function"
				},
				{
					"inputs": [
						{
							"internalType": "address",
							"name": "account",
							"type": "address"
						}
					],
					"name": "balanceOf",
					"outputs": [
						{
							"internalType": "uint256",
							"name": "",
							"type": "uint256"
						}
					],
					"stateMutability": "view",
					"type": "function"
				},
				{
					"inputs": [
						{
							"internalType": "uint256",
							"name": "_tokens",
							"type": "uint256"
						}
					],
					"name": "burnTokens",
					"outputs": [],
					"stateMutability": "nonpayable",
					"type": "function"
				},
				{
					"inputs": [],
					"name": "checkTokenBalance",
					"outputs": [
						{
							"internalType": "uint256",
							"name": "",
							"type": "uint256"
						}
					],
					"stateMutability": "view",
					"type": "function"
				},
				{
					"inputs": [],
					"name": "decimals",
					"outputs": [
						{
							"internalType": "uint8",
							"name": "",
							"type": "uint8"
						}
					],
					"stateMutability": "view",
					"type": "function"
				},
				{
					"inputs": [
						{
							"internalType": "address",
							"name": "spender",
							"type": "address"
						},
						{
							"internalType": "uint256",
							"name": "subtractedValue",
							"type": "uint256"
						}
					],
					"name": "decreaseAllowance",
					"outputs": [
						{
							"internalType": "bool",
							"name": "",
							"type": "bool"
						}
					],
					"stateMutability": "nonpayable",
					"type": "function"
				},
				{
					"inputs": [],
					"name": "foodPurchases",
					"outputs": [
						{
							"internalType": "string[]",
							"name": "",
							"type": "string[]"
						},
						{
							"internalType": "uint256",
							"name": "",
							"type": "uint256"
						}
					],
					"stateMutability": "view",
					"type": "function"
				},
				{
					"inputs": [],
					"name": "foodShop",
					"outputs": [
						{
							"internalType": "string",
							"name": "",
							"type": "string"
						}
					],
					"stateMutability": "pure",
					"type": "function"
				},
				{
					"inputs": [
						{
							"internalType": "address",
							"name": "spender",
							"type": "address"
						},
						{
							"internalType": "uint256",
							"name": "addedValue",
							"type": "uint256"
						}
					],
					"name": "increaseAllowance",
					"outputs": [
						{
							"internalType": "bool",
							"name": "",
							"type": "bool"
						}
					],
					"stateMutability": "nonpayable",
					"type": "function"
				},
				{
					"inputs": [
						{
							"internalType": "address",
							"name": "_receiver",
							"type": "address"
						},
						{
							"internalType": "uint256",
							"name": "_tokens",
							"type": "uint256"
						}
					],
					"name": "mintTokens",
					"outputs": [],
					"stateMutability": "nonpayable",
					"type": "function"
				},
				{
					"inputs": [],
					"name": "name",
					"outputs": [
						{
							"internalType": "string",
							"name": "",
							"type": "string"
						}
					],
					"stateMutability": "view",
					"type": "function"
				},
				{
					"inputs": [],
					"name": "owner",
					"outputs": [
						{
							"internalType": "address",
							"name": "",
							"type": "address"
						}
					],
					"stateMutability": "view",
					"type": "function"
				},
				{
					"inputs": [
						{
							"internalType": "uint256",
							"name": "_ch",
							"type": "uint256"
						}
					],
					"name": "redeemTokens",
					"outputs": [],
					"stateMutability": "nonpayable",
					"type": "function"
				},
				{
					"inputs": [],
					"name": "symbol",
					"outputs": [
						{
							"internalType": "string",
							"name": "",
							"type": "string"
						}
					],
					"stateMutability": "view",
					"type": "function"
				},
				{
					"inputs": [],
					"name": "tokenName",
					"outputs": [
						{
							"internalType": "string",
							"name": "",
							"type": "string"
						}
					],
					"stateMutability": "view",
					"type": "function"
				},
				{
					"inputs": [],
					"name": "tokenSymbol",
					"outputs": [
						{
							"internalType": "string",
							"name": "",
							"type": "string"
						}
					],
					"stateMutability": "view",
					"type": "function"
				},
				{
					"inputs": [],
					"name": "totalSupply",
					"outputs": [
						{
							"internalType": "uint256",
							"name": "",
							"type": "uint256"
						}
					],
					"stateMutability": "view",
					"type": "function"
				},
				{
					"inputs": [
						{
							"internalType": "address",
							"name": "to",
							"type": "address"
						},
						{
							"internalType": "uint256",
							"name": "amount",
							"type": "uint256"
						}
					],
					"name": "transfer",
					"outputs": [
						{
							"internalType": "bool",
							"name": "",
							"type": "bool"
						}
					],
					"stateMutability": "nonpayable",
					"type": "function"
				},
				{
					"inputs": [
						{
							"internalType": "address",
							"name": "from",
							"type": "address"
						},
						{
							"internalType": "address",
							"name": "to",
							"type": "address"
						},
						{
							"internalType": "uint256",
							"name": "amount",
							"type": "uint256"
						}
					],
					"name": "transferFrom",
					"outputs": [
						{
							"internalType": "bool",
							"name": "",
							"type": "bool"
						}
					],
					"stateMutability": "nonpayable",
					"type": "function"
				},
				{
					"inputs": [
						{
							"internalType": "address",
							"name": "_reciever",
							"type": "address"
						},
						{
							"internalType": "uint256",
							"name": "_tokens",
							"type": "uint256"
						}
					],
					"name": "transferTokens",
					"outputs": [],
					"stateMutability": "nonpayable",
					"type": "function"
				}
			],
			"devdoc": {
				"events": {
					"Approval(address,address,uint256)": {
						"details": "Emitted when the allowance of a `spender` for an `owner` is set by a call to {approve}. `value` is the new allowance."
					},
					"Transfer(address,address,uint256)": {
						"details": "Emitted when `value` tokens are moved from one account (`from`) to another (`to`). Note that `value` may be zero."
					}
				},
				"kind": "dev",
				"methods": {
					"allowance(address,address)": {
						"details": "See {IERC20-allowance}."
					},
					"approve(address,uint256)": {
						"details": "See {IERC20-approve}. NOTE: If `amount` is the maximum `uint256`, the allowance is not updated on `transferFrom`. This is semantically equivalent to an infinite approval. Requirements: - `spender` cannot be the zero address."
					},
					"balanceOf(address)": {
						"details": "See {IERC20-balanceOf}."
					},
					"decimals()": {
						"details": "Returns the number of decimals used to get its user representation. For example, if `decimals` equals `2`, a balance of `505` tokens should be displayed to a user as `5.05` (`505 / 10 ** 2`). Tokens usually opt for a value of 18, imitating the relationship between Ether and Wei. This is the value {ERC20} uses, unless this function is overridden; NOTE: This information is only used for _display_ purposes: it in no way affects any of the arithmetic of the contract, including {IERC20-balanceOf} and {IERC20-transfer}."
					},
					"decreaseAllowance(address,uint256)": {
						"details": "Atomically decreases the allowance granted to `spender` by the caller. This is an alternative to {approve} that can be used as a mitigation for problems described in {IERC20-approve}. Emits an {Approval} event indicating the updated allowance. Requirements: - `spender` cannot be the zero address. - `spender` must have allowance for the caller of at least `subtractedValue`."
					},
					"increaseAllowance(address,uint256)": {
						"details": "Atomically increases the allowance granted to `spender` by the caller. This is an alternative to {approve} that can be used as a mitigation for problems described in {IERC20-approve}. Emits an {Approval} event indicating the updated allowance. Requirements: - `spender` cannot be the zero address."
					},
					"name()": {
						"details": "Returns the name of the token."
					},
					"symbol()": {
						"details": "Returns the symbol of the token, usually a shorter version of the name."
					},
					"totalSupply()": {
						"details": "See {IERC20-totalSupply}."
					},
					"transfer(address,uint256)": {
						"details": "See {IERC20-transfer}. Requirements: - `to` cannot be the zero address. - the caller must have a balance of at least `amount`."
					},
					"transferFrom(address,address,uint256)": {
						"details": "See {IERC20-transferFrom}. Emits an {Approval} event indicating the updated allowance. This is not required by the EIP. See the note at the beginning of {ERC20}. NOTE: Does not update the allowance if the current allowance is the maximum `uint256`. Requirements: - `from` and `to` cannot be the zero address. - `from` must have a balance of at least `amount`. - the caller must have allowance for ``from``'s tokens of at least `amount`."
					}
				},
				"version": 1
			},
			"evm": {
				"assembly": "    /* \"contracts/DegenToken.sol\":217:2909  contract DegenToken is ERC20 {... */\n  mstore(0x40, 0x80)\n    /* \"contracts/DegenToken.sol\":253:286  string public tokenName = \"DEGEN\" */\n  mload(0x40)\n  dup1\n  0x40\n  add\n  0x40\n  mstore\n  dup1\n  0x05\n  dup2\n  mstore\n  0x20\n  add\n  0x444547454e000000000000000000000000000000000000000000000000000000\n  dup2\n  mstore\n  pop\n  0x05\n  swap1\n  dup2\n  tag_1\n  swap2\n  swap1\n  tag_2\n  jump\t// in\ntag_1:\n  pop\n    /* \"contracts/DegenToken.sol\":292:325  string public tokenSymbol = \"REX\" */\n  mload(0x40)\n  dup1\n  0x40\n  add\n  0x40\n  mstore\n  dup1\n  0x03\n  dup2\n  mstore\n  0x20\n  add\n  0x5245580000000000000000000000000000000000000000000000000000000000\n  dup2\n  mstore\n  pop\n  0x06\n  swap1\n  dup2\n  tag_3\n  swap2\n  swap1\n  tag_2\n  jump\t// in\ntag_3:\n  pop\n    /* \"contracts/DegenToken.sol\":404:516  constructor() ERC20(tokenName, tokenSymbol){... */\n  callvalue\n  dup1\n  iszero\n  tag_4\n  jumpi\n  0x00\n  dup1\n  revert\ntag_4:\n  pop\n    /* \"contracts/DegenToken.sol\":424:433  tokenName */\n  0x05\n    /* \"@openzeppelin/contracts/token/ERC20/ERC20.sol\":1976:2089  constructor(string memory name_, string memory symbol_) {... */\n  dup1\n  sload\n  tag_6\n  swap1\n  tag_7\n  jump\t// in\ntag_6:\n  dup1\n  0x1f\n  add\n  0x20\n  dup1\n  swap2\n  div\n  mul\n  0x20\n  add\n  mload(0x40)\n  swap1\n  dup2\n  add\n  0x40\n  mstore\n  dup1\n  swap3\n  swap2\n  swap1\n  dup2\n  dup2\n  mstore\n  0x20\n  add\n  dup3\n  dup1\n  sload\n  tag_8\n  swap1\n  tag_7\n  jump\t// in\ntag_8:\n  dup1\n  iszero\n  tag_9\n  jumpi\n  dup1\n  0x1f\n  lt\n  tag_10\n  jumpi\n  0x0100\n  dup1\n  dup4\n  sload\n  div\n  mul\n  dup4\n  mstore\n  swap2\n  0x20\n  add\n  swap2\n  jump(tag_9)\ntag_10:\n  dup3\n  add\n  swap2\n  swap1\n  0x00\n  mstore\n  keccak256(0x00, 0x20)\n  swap1\ntag_11:\n  dup2\n  sload\n  dup2\n  mstore\n  swap1\n  0x01\n  add\n  swap1\n  0x20\n  add\n  dup1\n  dup4\n  gt\n  tag_11\n  jumpi\n  dup3\n  swap1\n  sub\n  0x1f\n  and\n  dup3\n  add\n  swap2\ntag_9:\n  pop\n  pop\n  pop\n  pop\n  pop\n    /* \"contracts/DegenToken.sol\":435:446  tokenSymbol */\n  0x06\n    /* \"@openzeppelin/contracts/token/ERC20/ERC20.sol\":1976:2089  constructor(string memory name_, string memory symbol_) {... */\n  dup1\n  sload\n  tag_12\n  swap1\n  tag_7\n  jump\t// in\ntag_12:\n  dup1\n  0x1f\n  add\n  0x20\n  dup1\n  swap2\n  div\n  mul\n  0x20\n  add\n  mload(0x40)\n  swap1\n  dup2\n  add\n  0x40\n  mstore\n  dup1\n  swap3\n  swap2\n  swap1\n  dup2\n  dup2\n  mstore\n  0x20\n  add\n  dup3\n  dup1\n  sload\n  tag_13\n  swap1\n  tag_7\n  jump\t// in\ntag_13:\n  dup1\n  iszero\n  tag_14\n  jumpi\n  dup1\n  0x1f\n  lt\n  tag_15\n  jumpi\n  0x0100\n  dup1\n  dup4\n  sload\n  div\n  mul\n  dup4\n  mstore\n  swap2\n  0x20\n  add\n  swap2\n  jump(tag_14)\ntag_15:\n  dup3\n  add\n  swap2\n  swap1\n  0x00\n  mstore\n  keccak256(0x00, 0x20)\n  swap1\ntag_16:\n  dup2\n  sload\n  dup2\n  mstore\n  swap1\n  0x01\n  add\n  swap1\n  0x20\n  add\n  dup1\n  dup4\n  gt\n  tag_16\n  jumpi\n  dup3\n  swap1\n  sub\n  0x1f\n  and\n  dup3\n  add\n  swap2\ntag_14:\n  pop\n  pop\n  pop\n  pop\n  pop\n    /* \"@openzeppelin/contracts/token/ERC20/ERC20.sol\":2050:2055  name_ */\n  dup2\n    /* \"@openzeppelin/contracts/token/ERC20/ERC20.sol\":2042:2047  _name */\n  0x03\n    /* \"@openzeppelin/contracts/token/ERC20/ERC20.sol\":2042:2055  _name = name_ */\n  swap1\n  dup2\n  tag_19\n  swap2\n  swap1\n  tag_2\n  jump\t// in\ntag_19:\n  pop\n    /* \"@openzeppelin/contracts/token/ERC20/ERC20.sol\":2075:2082  symbol_ */\n  dup1\n    /* \"@openzeppelin/contracts/token/ERC20/ERC20.sol\":2065:2072  _symbol */\n  0x04\n    /* \"@openzeppelin/contracts/token/ERC20/ERC20.sol\":2065:2082  _symbol = symbol_ */\n  swap1\n  dup2\n  tag_20\n  swap2\n  swap1\n  tag_2\n  jump\t// in\ntag_20:\n  pop\n    /* \"@openzeppelin/contracts/token/ERC20/ERC20.sol\":1976:2089  constructor(string memory name_, string memory symbol_) {... */\n  pop\n  pop\n    /* \"contracts/DegenToken.sol\":457:481  _mint(msg.sender, 10000) */\n  tag_22\n    /* \"contracts/DegenToken.sol\":463:473  msg.sender */\n  caller\n    /* \"contracts/DegenToken.sol\":475:480  10000 */\n  0x2710\n    /* \"contracts/DegenToken.sol\":457:462  _mint */\n  shl(0x20, tag_23)\n    /* \"contracts/DegenToken.sol\":457:481  _mint(msg.sender, 10000) */\n  0x20\n  shr\n  jump\t// in\ntag_22:\n    /* \"contracts/DegenToken.sol\":499:509  msg.sender */\n  caller\n    /* \"contracts/DegenToken.sol\":491:496  owner */\n  0x08\n  0x00\n    /* \"contracts/DegenToken.sol\":491:509  owner = msg.sender */\n  0x0100\n  exp\n  dup2\n  sload\n  dup2\n  0xffffffffffffffffffffffffffffffffffffffff\n  mul\n  not\n  and\n  swap1\n  dup4\n  0xffffffffffffffffffffffffffffffffffffffff\n  and\n  mul\n  or\n  swap1\n  sstore\n  pop\n    /* \"contracts/DegenToken.sol\":217:2909  contract DegenToken is ERC20 {... */\n  jump(tag_24)\n    /* \"@openzeppelin/contracts/token/ERC20/ERC20.sol\":8567:9102  function _mint(address account, uint256 amount) internal virtual {... */\ntag_23:\n    /* \"@openzeppelin/contracts/token/ERC20/ERC20.sol\":8669:8670  0 */\n  0x00\n    /* \"@openzeppelin/contracts/token/ERC20/ERC20.sol\":8650:8671  account != address(0) */\n  0xffffffffffffffffffffffffffffffffffffffff\n  and\n    /* \"@openzeppelin/contracts/token/ERC20/ERC20.sol\":8650:8657  account */\n  dup3\n    /* \"@openzeppelin/contracts/token/ERC20/ERC20.sol\":8650:8671  account != address(0) */\n  0xffffffffffffffffffffffffffffffffffffffff\n  and\n  sub\n    /* \"@openzeppelin/contracts/token/ERC20/ERC20.sol\":8642:8707  require(account != address(0), \"ERC20: mint to the zero address\") */\n  tag_26\n  jumpi\n  mload(0x40)\n  0x08c379a000000000000000000000000000000000000000000000000000000000\n  dup2\n  mstore\n  0x04\n  add\n  tag_27\n  swap1\n  tag_28\n  jump\t// in\ntag_27:\n  mload(0x40)\n  dup1\n  swap2\n  sub\n  swap1\n  revert\ntag_26:\n    /* \"@openzeppelin/contracts/token/ERC20/ERC20.sol\":8718:8767  _beforeTokenTransfer(address(0), account, amount) */\n  tag_29\n    /* \"@openzeppelin/contracts/token/ERC20/ERC20.sol\":8747:8748  0 */\n  0x00\n    /* \"@openzeppelin/contracts/token/ERC20/ERC20.sol\":8751:8758  account */\n  dup4\n    /* \"@openzeppelin/contracts/token/ERC20/ERC20.sol\":8760:8766  amount */\n  dup4\n    /* \"@openzeppelin/contracts/token/ERC20/ERC20.sol\":8718:8738  _beforeTokenTransfer */\n  shl(0x20, tag_30)\n    /* \"@openzeppelin/contracts/token/ERC20/ERC20.sol\":8718:8767  _beforeTokenTransfer(address(0), account, amount) */\n  0x20\n  shr\n  jump\t// in\ntag_29:\n    /* \"@openzeppelin/contracts/token/ERC20/ERC20.sol\":8794:8800  amount */\n  dup1\n    /* \"@openzeppelin/contracts/token/ERC20/ERC20.sol\":8778:8790  _totalSupply */\n  0x02\n  0x00\n    /* \"@openzeppelin/contracts/token/ERC20/ERC20.sol\":8778:8800  _totalSupply += amount */\n  dup3\n  dup3\n  sload\n  tag_31\n  swap2\n  swap1\n  tag_32\n  jump\t// in\ntag_31:\n  swap3\n  pop\n  pop\n  dup2\n  swap1\n  sstore\n  pop\n    /* \"@openzeppelin/contracts/token/ERC20/ERC20.sol\":8968:8974  amount */\n  dup1\n    /* \"@openzeppelin/contracts/token/ERC20/ERC20.sol\":8946:8955  _balances */\n  0x00\n    /* \"@openzeppelin/contracts/token/ERC20/ERC20.sol\":8946:8964  _balances[account] */\n  dup1\n    /* \"@openzeppelin/contracts/token/ERC20/ERC20.sol\":8956:8963  account */\n  dup5\n    /* \"@openzeppelin/contracts/token/ERC20/ERC20.sol\":8946:8964  _balances[account] */\n  0xffffffffffffffffffffffffffffffffffffffff\n  and\n  0xffffffffffffffffffffffffffffffffffffffff\n  and\n  dup2\n  mstore\n  0x20\n  add\n  swap1\n  dup2\n  mstore\n  0x20\n  add\n  0x00\n  keccak256\n  0x00\n    /* \"@openzeppelin/contracts/token/ERC20/ERC20.sol\":8946:8974  _balances[account] += amount */\n  dup3\n  dup3\n  sload\n  add\n  swap3\n  pop\n  pop\n  dup2\n  swap1\n  sstore\n  pop\n    /* \"@openzeppelin/contracts/token/ERC20/ERC20.sol\":9020:9027  account */\n  dup2\n    /* \"@openzeppelin/contracts/token/ERC20/ERC20.sol\":8999:9036  Transfer(address(0), account, amount) */\n  0xffffffffffffffffffffffffffffffffffffffff\n  and\n    /* \"@openzeppelin/contracts/token/ERC20/ERC20.sol\":9016:9017  0 */\n  0x00\n    /* \"@openzeppelin/contracts/token/ERC20/ERC20.sol\":8999:9036  Transfer(address(0), account, amount) */\n  0xffffffffffffffffffffffffffffffffffffffff\n  and\n  0xddf252ad1be2c89b69c2b068fc378daa952ba7f163c4a11628f55a4df523b3ef\n    /* \"@openzeppelin/contracts/token/ERC20/ERC20.sol\":9029:9035  amount */\n  dup4\n    /* \"@openzeppelin/contracts/token/ERC20/ERC20.sol\":8999:9036  Transfer(address(0), account, amount) */\n  mload(0x40)\n  tag_33\n  swap2\n  swap1\n  tag_34\n  jump\t// in\ntag_33:\n  mload(0x40)\n  dup1\n  swap2\n  sub\n  swap1\n  log3\n    /* \"@openzeppelin/contracts/token/ERC20/ERC20.sol\":9047:9095  _afterTokenTransfer(address(0), account, amount) */\n  tag_35\n    /* \"@openzeppelin/contracts/token/ERC20/ERC20.sol\":9075:9076  0 */\n  0x00\n    /* \"@openzeppelin/contracts/token/ERC20/ERC20.sol\":9079:9086  account */\n  dup4\n    /* \"@openzeppelin/contracts/token/ERC20/ERC20.sol\":9088:9094  amount */\n  dup4\n    /* \"@openzeppelin/contracts/token/ERC20/ERC20.sol\":9047:9066  _afterTokenTransfer */\n  shl(0x20, tag_36)\n    /* \"@openzeppelin/contracts/token/ERC20/ERC20.sol\":9047:9095  _afterTokenTransfer(address(0), account, amount) */\n  0x20\n  shr\n  jump\t// in\ntag_35:\n    /* \"@openzeppelin/contracts/token/ERC20/ERC20.sol\":8567:9102  function _mint(address account, uint256 amount) internal virtual {... */\n  pop\n  pop\n  jump\t// out\n    /* \"@openzeppelin/contracts/token/ERC20/ERC20.sol\":12180:12301  function _beforeTokenTransfer(... */\ntag_30:\n  pop\n  pop\n  pop\n  jump\t// out\n    /* \"@openzeppelin/contracts/token/ERC20/ERC20.sol\":12889:13009  function _afterTokenTransfer(... */\ntag_36:\n  pop\n  pop\n  pop\n  jump\t// out\n    /* \"#utility.yul\":7:106   */\ntag_39:\n    /* \"#utility.yul\":59:65   */\n  0x00\n    /* \"#utility.yul\":93:98   */\n  dup2\n    /* \"#utility.yul\":87:99   */\n  mload\n    /* \"#utility.yul\":77:99   */\n  swap1\n  pop\n    /* \"#utility.yul\":7:106   */\n  swap2\n  swap1\n  pop\n  jump\t// out\n    /* \"#utility.yul\":112:292   */\ntag_40:\n    /* \"#utility.yul\":160:237   */\n  0x4e487b7100000000000000000000000000000000000000000000000000000000\n    /* \"#utility.yul\":157:158   */\n  0x00\n    /* \"#utility.yul\":150:238   */\n  mstore\n    /* \"#utility.yul\":257:261   */\n  0x41\n    /* \"#utility.yul\":254:255   */\n  0x04\n    /* \"#utility.yul\":247:262   */\n  mstore\n    /* \"#utility.yul\":281:285   */\n  0x24\n    /* \"#utility.yul\":278:279   */\n  0x00\n    /* \"#utility.yul\":271:286   */\n  revert\n    /* \"#utility.yul\":298:478   */\ntag_41:\n    /* \"#utility.yul\":346:423   */\n  0x4e487b7100000000000000000000000000000000000000000000000000000000\n    /* \"#utility.yul\":343:344   */\n  0x00\n    /* \"#utility.yul\":336:424   */\n  mstore\n    /* \"#utility.yul\":443:447   */\n  0x22\n    /* \"#utility.yul\":440:441   */\n  0x04\n    /* \"#utility.yul\":433:448   */\n  mstore\n    /* \"#utility.yul\":467:471   */\n  0x24\n    /* \"#utility.yul\":464:465   */\n  0x00\n    /* \"#utility.yul\":457:472   */\n  revert\n    /* \"#utility.yul\":484:804   */\ntag_7:\n    /* \"#utility.yul\":528:534   */\n  0x00\n    /* \"#utility.yul\":565:566   */\n  0x02\n    /* \"#utility.yul\":559:563   */\n  dup3\n    /* \"#utility.yul\":555:567   */\n  div\n    /* \"#utility.yul\":545:567   */\n  swap1\n  pop\n    /* \"#utility.yul\":612:613   */\n  0x01\n    /* \"#utility.yul\":606:610   */\n  dup3\n    /* \"#utility.yul\":602:614   */\n  and\n    /* \"#utility.yul\":633:651   */\n  dup1\n    /* \"#utility.yul\":623:704   */\n  tag_68\n  jumpi\n    /* \"#utility.yul\":689:693   */\n  0x7f\n    /* \"#utility.yul\":681:687   */\n  dup3\n    /* \"#utility.yul\":677:694   */\n  and\n    /* \"#utility.yul\":667:694   */\n  swap2\n  pop\n    /* \"#utility.yul\":623:704   */\ntag_68:\n    /* \"#utility.yul\":751:753   */\n  0x20\n    /* \"#utility.yul\":743:749   */\n  dup3\n    /* \"#utility.yul\":740:754   */\n  lt\n    /* \"#utility.yul\":720:738   */\n  dup2\n    /* \"#utility.yul\":717:755   */\n  sub\n    /* \"#utility.yul\":714:798   */\n  tag_69\n  jumpi\n    /* \"#utility.yul\":770:788   */\n  tag_70\n  tag_41\n  jump\t// in\ntag_70:\n    /* \"#utility.yul\":714:798   */\ntag_69:\n    /* \"#utility.yul\":535:804   */\n  pop\n    /* \"#utility.yul\":484:804   */\n  swap2\n  swap1\n  pop\n  jump\t// out\n    /* \"#utility.yul\":810:951   */\ntag_42:\n    /* \"#utility.yul\":859:863   */\n  0x00\n    /* \"#utility.yul\":882:885   */\n  dup2\n    /* \"#utility.yul\":874:885   */\n  swap1\n  pop\n    /* \"#utility.yul\":905:908   */\n  dup2\n    /* \"#utility.yul\":902:903   */\n  0x00\n    /* \"#utility.yul\":895:909   */\n  mstore\n    /* \"#utility.yul\":939:943   */\n  0x20\n    /* \"#utility.yul\":936:937   */\n  0x00\n    /* \"#utility.yul\":926:944   */\n  keccak256\n    /* \"#utility.yul\":918:944   */\n  swap1\n  pop\n    /* \"#utility.yul\":810:951   */\n  swap2\n  swap1\n  pop\n  jump\t// out\n    /* \"#utility.yul\":957:1050   */\ntag_43:\n    /* \"#utility.yul\":994:1000   */\n  0x00\n    /* \"#utility.yul\":1041:1043   */\n  0x20\n    /* \"#utility.yul\":1036:1038   */\n  0x1f\n    /* \"#utility.yul\":1029:1034   */\n  dup4\n    /* \"#utility.yul\":1025:1039   */\n  add\n    /* \"#utility.yul\":1021:1044   */\n  div\n    /* \"#utility.yul\":1011:1044   */\n  swap1\n  pop\n    /* \"#utility.yul\":957:1050   */\n  swap2\n  swap1\n  pop\n  jump\t// out\n    /* \"#utility.yul\":1056:1163   */\ntag_44:\n    /* \"#utility.yul\":1100:1108   */\n  0x00\n    /* \"#utility.yul\":1150:1155   */\n  dup3\n    /* \"#utility.yul\":1144:1148   */\n  dup3\n    /* \"#utility.yul\":1140:1156   */\n  shl\n    /* \"#utility.yul\":1119:1156   */\n  swap1\n  pop\n    /* \"#utility.yul\":1056:1163   */\n  swap3\n  swap2\n  pop\n  pop\n  jump\t// out\n    /* \"#utility.yul\":1169:1562   */\ntag_45:\n    /* \"#utility.yul\":1238:1244   */\n  0x00\n    /* \"#utility.yul\":1288:1289   */\n  0x08\n    /* \"#utility.yul\":1276:1286   */\n  dup4\n    /* \"#utility.yul\":1272:1290   */\n  mul\n    /* \"#utility.yul\":1311:1408   */\n  tag_75\n    /* \"#utility.yul\":1341:1407   */\n  0xffffffffffffffffffffffffffffffffffffffffffffffffffffffffffffffff\n    /* \"#utility.yul\":1330:1339   */\n  dup3\n    /* \"#utility.yul\":1311:1408   */\n  tag_44\n  jump\t// in\ntag_75:\n    /* \"#utility.yul\":1429:1468   */\n  tag_76\n    /* \"#utility.yul\":1459:1467   */\n  dup7\n    /* \"#utility.yul\":1448:1457   */\n  dup4\n    /* \"#utility.yul\":1429:1468   */\n  tag_44\n  jump\t// in\ntag_76:\n    /* \"#utility.yul\":1417:1468   */\n  swap6\n  pop\n    /* \"#utility.yul\":1501:1505   */\n  dup1\n    /* \"#utility.yul\":1497:1506   */\n  not\n    /* \"#utility.yul\":1490:1495   */\n  dup5\n    /* \"#utility.yul\":1486:1507   */\n  and\n    /* \"#utility.yul\":1477:1507   */\n  swap4\n  pop\n    /* \"#utility.yul\":1550:1554   */\n  dup1\n    /* \"#utility.yul\":1540:1548   */\n  dup7\n    /* \"#utility.yul\":1536:1555   */\n  and\n    /* \"#utility.yul\":1529:1534   */\n  dup5\n    /* \"#utility.yul\":1526:1556   */\n  or\n    /* \"#utility.yul\":1516:1556   */\n  swap3\n  pop\n    /* \"#utility.yul\":1245:1562   */\n  pop\n  pop\n    /* \"#utility.yul\":1169:1562   */\n  swap4\n  swap3\n  pop\n  pop\n  pop\n  jump\t// out\n    /* \"#utility.yul\":1568:1645   */\ntag_46:\n    /* \"#utility.yul\":1605:1612   */\n  0x00\n    /* \"#utility.yul\":1634:1639   */\n  dup2\n    /* \"#utility.yul\":1623:1639   */\n  swap1\n  pop\n    /* \"#utility.yul\":1568:1645   */\n  swap2\n  swap1\n  pop\n  jump\t// out\n    /* \"#utility.yul\":1651:1711   */\ntag_47:\n    /* \"#utility.yul\":1679:1682   */\n  0x00\n    /* \"#utility.yul\":1700:1705   */\n  dup2\n    /* \"#utility.yul\":1693:1705   */\n  swap1\n  pop\n    /* \"#utility.yul\":1651:1711   */\n  swap2\n  swap1\n  pop\n  jump\t// out\n    /* \"#utility.yul\":1717:1859   */\ntag_48:\n    /* \"#utility.yul\":1767:1776   */\n  0x00\n    /* \"#utility.yul\":1800:1853   */\n  tag_80\n    /* \"#utility.yul\":1818:1852   */\n  tag_81\n    /* \"#utility.yul\":1827:1851   */\n  tag_82\n    /* \"#utility.yul\":1845:1850   */\n  dup5\n    /* \"#utility.yul\":1827:1851   */\n  tag_46\n  jump\t// in\ntag_82:\n    /* \"#utility.yul\":1818:1852   */\n  tag_47\n  jump\t// in\ntag_81:\n    /* \"#utility.yul\":1800:1853   */\n  tag_46\n  jump\t// in\ntag_80:\n    /* \"#utility.yul\":1787:1853   */\n  swap1\n  pop\n    /* \"#utility.yul\":1717:1859   */\n  swap2\n  swap1\n  pop\n  jump\t// out\n    /* \"#utility.yul\":1865:1940   */\ntag_49:\n    /* \"#utility.yul\":1908:1911   */\n  0x00\n    /* \"#utility.yul\":1929:1934   */\n  dup2\n    /* \"#utility.yul\":1922:1934   */\n  swap1\n  pop\n    /* \"#utility.yul\":1865:1940   */\n  swap2\n  swap1\n  pop\n  jump\t// out\n    /* \"#utility.yul\":1946:2215   */\ntag_50:\n    /* \"#utility.yul\":2056:2095   */\n  tag_85\n    /* \"#utility.yul\":2087:2094   */\n  dup4\n    /* \"#utility.yul\":2056:2095   */\n  tag_48\n  jump\t// in\ntag_85:\n    /* \"#utility.yul\":2117:2208   */\n  tag_86\n    /* \"#utility.yul\":2166:2207   */\n  tag_87\n    /* \"#utility.yul\":2190:2206   */\n  dup3\n    /* \"#utility.yul\":2166:2207   */\n  tag_49\n  jump\t// in\ntag_87:\n    /* \"#utility.yul\":2158:2164   */\n  dup5\n    /* \"#utility.yul\":2151:2155   */\n  dup5\n    /* \"#utility.yul\":2145:2156   */\n  sload\n    /* \"#utility.yul\":2117:2208   */\n  tag_45\n  jump\t// in\ntag_86:\n    /* \"#utility.yul\":2111:2115   */\n  dup3\n    /* \"#utility.yul\":2104:2209   */\n  sstore\n    /* \"#utility.yul\":2022:2215   */\n  pop\n    /* \"#utility.yul\":1946:2215   */\n  pop\n  pop\n  pop\n  jump\t// out\n    /* \"#utility.yul\":2221:2294   */\ntag_51:\n    /* \"#utility.yul\":2266:2269   */\n  0x00\n    /* \"#utility.yul\":2221:2294   */\n  swap1\n  jump\t// out\n    /* \"#utility.yul\":2300:2489   */\ntag_52:\n    /* \"#utility.yul\":2377:2409   */\n  tag_90\n  tag_51\n  jump\t// in\ntag_90:\n    /* \"#utility.yul\":2418:2483   */\n  tag_91\n    /* \"#utility.yul\":2476:2482   */\n  dup2\n    /* \"#utility.yul\":2468:2474   */\n  dup5\n    /* \"#utility.yul\":2462:2466   */\n  dup5\n    /* \"#utility.yul\":2418:2483   */\n  tag_50\n  jump\t// in\ntag_91:\n    /* \"#utility.yul\":2353:2489   */\n  pop\n    /* \"#utility.yul\":2300:2489   */\n  pop\n  pop\n  jump\t// out\n    /* \"#utility.yul\":2495:2681   */\ntag_53:\n    /* \"#utility.yul\":2555:2675   */\ntag_93:\n    /* \"#utility.yul\":2572:2575   */\n  dup2\n    /* \"#utility.yul\":2565:2570   */\n  dup2\n    /* \"#utility.yul\":2562:2576   */\n  lt\n    /* \"#utility.yul\":2555:2675   */\n  iszero\n  tag_95\n  jumpi\n    /* \"#utility.yul\":2626:2665   */\n  tag_96\n    /* \"#utility.yul\":2663:2664   */\n  0x00\n    /* \"#utility.yul\":2656:2661   */\n  dup3\n    /* \"#utility.yul\":2626:2665   */\n  tag_52\n  jump\t// in\ntag_96:\n    /* \"#utility.yul\":2599:2600   */\n  0x01\n    /* \"#utility.yul\":2592:2597   */\n  dup2\n    /* \"#utility.yul\":2588:2601   */\n  add\n    /* \"#utility.yul\":2579:2601   */\n  swap1\n  pop\n    /* \"#utility.yul\":2555:2675   */\n  jump(tag_93)\ntag_95:\n    /* \"#utility.yul\":2495:2681   */\n  pop\n  pop\n  jump\t// out\n    /* \"#utility.yul\":2687:3230   */\ntag_54:\n    /* \"#utility.yul\":2788:2790   */\n  0x1f\n    /* \"#utility.yul\":2783:2786   */\n  dup3\n    /* \"#utility.yul\":2780:2791   */\n  gt\n    /* \"#utility.yul\":2777:3223   */\n  iszero\n  tag_98\n  jumpi\n    /* \"#utility.yul\":2822:2860   */\n  tag_99\n    /* \"#utility.yul\":2854:2859   */\n  dup2\n    /* \"#utility.yul\":2822:2860   */\n  tag_42\n  jump\t// in\ntag_99:\n    /* \"#utility.yul\":2906:2935   */\n  tag_100\n    /* \"#utility.yul\":2924:2934   */\n  dup5\n    /* \"#utility.yul\":2906:2935   */\n  tag_43\n  jump\t// in\ntag_100:\n    /* \"#utility.yul\":2896:2904   */\n  dup2\n    /* \"#utility.yul\":2892:2936   */\n  add\n    /* \"#utility.yul\":3089:3091   */\n  0x20\n    /* \"#utility.yul\":3077:3087   */\n  dup6\n    /* \"#utility.yul\":3074:3092   */\n  lt\n    /* \"#utility.yul\":3071:3120   */\n  iszero\n  tag_101\n  jumpi\n    /* \"#utility.yul\":3110:3118   */\n  dup2\n    /* \"#utility.yul\":3095:3118   */\n  swap1\n  pop\n    /* \"#utility.yul\":3071:3120   */\ntag_101:\n    /* \"#utility.yul\":3133:3213   */\n  tag_102\n    /* \"#utility.yul\":3189:3211   */\n  tag_103\n    /* \"#utility.yul\":3207:3210   */\n  dup6\n    /* \"#utility.yul\":3189:3211   */\n  tag_43\n  jump\t// in\ntag_103:\n    /* \"#utility.yul\":3179:3187   */\n  dup4\n    /* \"#utility.yul\":3175:3212   */\n  add\n    /* \"#utility.yul\":3162:3173   */\n  dup3\n    /* \"#utility.yul\":3133:3213   */\n  tag_53\n  jump\t// in\ntag_102:\n    /* \"#utility.yul\":2792:3223   */\n  pop\n  pop\n    /* \"#utility.yul\":2777:3223   */\ntag_98:\n    /* \"#utility.yul\":2687:3230   */\n  pop\n  pop\n  pop\n  jump\t// out\n    /* \"#utility.yul\":3236:3353   */\ntag_55:\n    /* \"#utility.yul\":3290:3298   */\n  0x00\n    /* \"#utility.yul\":3340:3345   */\n  dup3\n    /* \"#utility.yul\":3334:3338   */\n  dup3\n    /* \"#utility.yul\":3330:3346   */\n  shr\n    /* \"#utility.yul\":3309:3346   */\n  swap1\n  pop\n    /* \"#utility.yul\":3236:3353   */\n  swap3\n  swap2\n  pop\n  pop\n  jump\t// out\n    /* \"#utility.yul\":3359:3528   */\ntag_56:\n    /* \"#utility.yul\":3403:3409   */\n  0x00\n    /* \"#utility.yul\":3436:3487   */\n  tag_106\n    /* \"#utility.yul\":3484:3485   */\n  0x00\n    /* \"#utility.yul\":3480:3486   */\n  not\n    /* \"#utility.yul\":3472:3477   */\n  dup5\n    /* \"#utility.yul\":3469:3470   */\n  0x08\n    /* \"#utility.yul\":3465:3478   */\n  mul\n    /* \"#utility.yul\":3436:3487   */\n  tag_55\n  jump\t// in\ntag_106:\n    /* \"#utility.yul\":3432:3488   */\n  not\n    /* \"#utility.yul\":3517:3521   */\n  dup1\n    /* \"#utility.yul\":3511:3515   */\n  dup4\n    /* \"#utility.yul\":3507:3522   */\n  and\n    /* \"#utility.yul\":3497:3522   */\n  swap2\n  pop\n    /* \"#utility.yul\":3410:3528   */\n  pop\n    /* \"#utility.yul\":3359:3528   */\n  swap3\n  swap2\n  pop\n  pop\n  jump\t// out\n    /* \"#utility.yul\":3533:3828   */\ntag_57:\n    /* \"#utility.yul\":3609:3613   */\n  0x00\n    /* \"#utility.yul\":3755:3784   */\n  tag_108\n    /* \"#utility.yul\":3780:3783   */\n  dup4\n    /* \"#utility.yul\":3774:3778   */\n  dup4\n    /* \"#utility.yul\":3755:3784   */\n  tag_56\n  jump\t// in\ntag_108:\n    /* \"#utility.yul\":3747:3784   */\n  swap2\n  pop\n    /* \"#utility.yul\":3817:3820   */\n  dup3\n    /* \"#utility.yul\":3814:3815   */\n  0x02\n    /* \"#utility.yul\":3810:3821   */\n  mul\n    /* \"#utility.yul\":3804:3808   */\n  dup3\n    /* \"#utility.yul\":3801:3822   */\n  or\n    /* \"#utility.yul\":3793:3822   */\n  swap1\n  pop\n    /* \"#utility.yul\":3533:3828   */\n  swap3\n  swap2\n  pop\n  pop\n  jump\t// out\n    /* \"#utility.yul\":3833:5228   */\ntag_2:\n    /* \"#utility.yul\":3950:3987   */\n  tag_110\n    /* \"#utility.yul\":3983:3986   */\n  dup3\n    /* \"#utility.yul\":3950:3987   */\n  tag_39\n  jump\t// in\ntag_110:\n    /* \"#utility.yul\":4052:4070   */\n  0xffffffffffffffff\n    /* \"#utility.yul\":4044:4050   */\n  dup2\n    /* \"#utility.yul\":4041:4071   */\n  gt\n    /* \"#utility.yul\":4038:4094   */\n  iszero\n  tag_111\n  jumpi\n    /* \"#utility.yul\":4074:4092   */\n  tag_112\n  tag_40\n  jump\t// in\ntag_112:\n    /* \"#utility.yul\":4038:4094   */\ntag_111:\n    /* \"#utility.yul\":4118:4156   */\n  tag_113\n    /* \"#utility.yul\":4150:4154   */\n  dup3\n    /* \"#utility.yul\":4144:4155   */\n  sload\n    /* \"#utility.yul\":4118:4156   */\n  tag_7\n  jump\t// in\ntag_113:\n    /* \"#utility.yul\":4203:4270   */\n  tag_114\n    /* \"#utility.yul\":4263:4269   */\n  dup3\n    /* \"#utility.yul\":4255:4261   */\n  dup3\n    /* \"#utility.yul\":4249:4253   */\n  dup6\n    /* \"#utility.yul\":4203:4270   */\n  tag_54\n  jump\t// in\ntag_114:\n    /* \"#utility.yul\":4297:4298   */\n  0x00\n    /* \"#utility.yul\":4321:4325   */\n  0x20\n    /* \"#utility.yul\":4308:4325   */\n  swap1\n  pop\n    /* \"#utility.yul\":4353:4355   */\n  0x1f\n    /* \"#utility.yul\":4345:4351   */\n  dup4\n    /* \"#utility.yul\":4342:4356   */\n  gt\n    /* \"#utility.yul\":4370:4371   */\n  0x01\n    /* \"#utility.yul\":4365:4983   */\n  dup2\n  eq\n  tag_116\n  jumpi\n    /* \"#utility.yul\":5027:5028   */\n  0x00\n    /* \"#utility.yul\":5044:5050   */\n  dup5\n    /* \"#utility.yul\":5041:5118   */\n  iszero\n  tag_117\n  jumpi\n    /* \"#utility.yul\":5093:5102   */\n  dup3\n    /* \"#utility.yul\":5088:5091   */\n  dup8\n    /* \"#utility.yul\":5084:5103   */\n  add\n    /* \"#utility.yul\":5078:5104   */\n  mload\n    /* \"#utility.yul\":5069:5104   */\n  swap1\n  pop\n    /* \"#utility.yul\":5041:5118   */\ntag_117:\n    /* \"#utility.yul\":5144:5211   */\n  tag_118\n    /* \"#utility.yul\":5204:5210   */\n  dup6\n    /* \"#utility.yul\":5197:5202   */\n  dup3\n    /* \"#utility.yul\":5144:5211   */\n  tag_57\n  jump\t// in\ntag_118:\n    /* \"#utility.yul\":5138:5142   */\n  dup7\n    /* \"#utility.yul\":5131:5212   */\n  sstore\n    /* \"#utility.yul\":5000:5222   */\n  pop\n    /* \"#utility.yul\":4335:5222   */\n  jump(tag_115)\n    /* \"#utility.yul\":4365:4983   */\ntag_116:\n    /* \"#utility.yul\":4417:4421   */\n  0x1f\n    /* \"#utility.yul\":4413:4422   */\n  not\n    /* \"#utility.yul\":4405:4411   */\n  dup5\n    /* \"#utility.yul\":4401:4423   */\n  and\n    /* \"#utility.yul\":4451:4488   */\n  tag_119\n    /* \"#utility.yul\":4483:4487   */\n  dup7\n    /* \"#utility.yul\":4451:4488   */\n  tag_42\n  jump\t// in\ntag_119:\n    /* \"#utility.yul\":4510:4511   */\n  0x00\n    /* \"#utility.yul\":4524:4732   */\ntag_120:\n    /* \"#utility.yul\":4538:4545   */\n  dup3\n    /* \"#utility.yul\":4535:4536   */\n  dup2\n    /* \"#utility.yul\":4532:4546   */\n  lt\n    /* \"#utility.yul\":4524:4732   */\n  iszero\n  tag_122\n  jumpi\n    /* \"#utility.yul\":4617:4626   */\n  dup5\n    /* \"#utility.yul\":4612:4615   */\n  dup10\n    /* \"#utility.yul\":4608:4627   */\n  add\n    /* \"#utility.yul\":4602:4628   */\n  mload\n    /* \"#utility.yul\":4594:4600   */\n  dup3\n    /* \"#utility.yul\":4587:4629   */\n  sstore\n    /* \"#utility.yul\":4668:4669   */\n  0x01\n    /* \"#utility.yul\":4660:4666   */\n  dup3\n    /* \"#utility.yul\":4656:4670   */\n  add\n    /* \"#utility.yul\":4646:4670   */\n  swap2\n  pop\n    /* \"#utility.yul\":4715:4717   */\n  0x20\n    /* \"#utility.yul\":4704:4713   */\n  dup6\n    /* \"#utility.yul\":4700:4718   */\n  add\n    /* \"#utility.yul\":4687:4718   */\n  swap5\n  pop\n    /* \"#utility.yul\":4561:4565   */\n  0x20\n    /* \"#utility.yul\":4558:4559   */\n  dup2\n    /* \"#utility.yul\":4554:4566   */\n  add\n    /* \"#utility.yul\":4549:4566   */\n  swap1\n  pop\n    /* \"#utility.yul\":4524:4732   */\n  jump(tag_120)\ntag_122:\n    /* \"#utility.yul\":4760:4766   */\n  dup7\n    /* \"#utility.yul\":4751:4758   */\n  dup4\n    /* \"#utility.yul\":4748:4767   */\n  lt\n    /* \"#utility.yul\":4745:4924   */\n  iszero\n  tag_123\n  jumpi\n    /* \"#utility.yul\":4818:4827   */\n  dup5\n    /* \"#utility.yul\":4813:4816   */\n  dup10\n    /* \"#utility.yul\":4809:4828   */\n  add\n    /* \"#utility.yul\":4803:4829   */\n  mload\n    /* \"#utility.yul\":4861:4909   */\n  tag_124\n    /* \"#utility.yul\":4903:4907   */\n  0x1f\n    /* \"#utility.yul\":4895:4901   */\n  dup10\n    /* \"#utility.yul\":4891:4908   */\n  and\n    /* \"#utility.yul\":4880:4889   */\n  dup3\n    /* \"#utility.yul\":4861:4909   */\n  tag_56\n  jump\t// in\ntag_124:\n    /* \"#utility.yul\":4853:4859   */\n  dup4\n    /* \"#utility.yul\":4846:4910   */\n  sstore\n    /* \"#utility.yul\":4768:4924   */\n  pop\n    /* \"#utility.yul\":4745:4924   */\ntag_123:\n    /* \"#utility.yul\":4970:4971   */\n  0x01\n    /* \"#utility.yul\":4966:4967   */\n  0x02\n    /* \"#utility.yul\":4958:4964   */\n  dup9\n    /* \"#utility.yul\":4954:4968   */\n  mul\n    /* \"#utility.yul\":4950:4972   */\n  add\n    /* \"#utility.yul\":4944:4948   */\n  dup9\n    /* \"#utility.yul\":4937:4973   */\n  sstore\n    /* \"#utility.yul\":4372:4983   */\n  pop\n  pop\n  pop\n    /* \"#utility.yul\":4335:5222   */\ntag_115:\n  pop\n    /* \"#utility.yul\":3925:5228   */\n  pop\n  pop\n  pop\n    /* \"#utility.yul\":3833:5228   */\n  pop\n  pop\n  jump\t// out\n    /* \"#utility.yul\":5234:5403   */\ntag_58:\n    /* \"#utility.yul\":5318:5329   */\n  0x00\n    /* \"#utility.yul\":5352:5358   */\n  dup3\n    /* \"#utility.yul\":5347:5350   */\n  dup3\n    /* \"#utility.yul\":5340:5359   */\n  mstore\n    /* \"#utility.yul\":5392:5396   */\n  0x20\n    /* \"#utility.yul\":5387:5390   */\n  dup3\n    /* \"#utility.yul\":5383:5397   */\n  add\n    /* \"#utility.yul\":5368:5397   */\n  swap1\n  pop\n    /* \"#utility.yul\":5234:5403   */\n  swap3\n  swap2\n  pop\n  pop\n  jump\t// out\n    /* \"#utility.yul\":5409:5590   */\ntag_59:\n    /* \"#utility.yul\":5549:5582   */\n  0x45524332303a206d696e7420746f20746865207a65726f206164647265737300\n    /* \"#utility.yul\":5545:5546   */\n  0x00\n    /* \"#utility.yul\":5537:5543   */\n  dup3\n    /* \"#utility.yul\":5533:5547   */\n  add\n    /* \"#utility.yul\":5526:5583   */\n  mstore\n    /* \"#utility.yul\":5409:5590   */\n  pop\n  jump\t// out\n    /* \"#utility.yul\":5596:5962   */\ntag_60:\n    /* \"#utility.yul\":5738:5741   */\n  0x00\n    /* \"#utility.yul\":5759:5826   */\n  tag_128\n    /* \"#utility.yul\":5823:5825   */\n  0x1f\n    /* \"#utility.yul\":5818:5821   */\n  dup4\n    /* \"#utility.yul\":5759:5826   */\n  tag_58\n  jump\t// in\ntag_128:\n    /* \"#utility.yul\":5752:5826   */\n  swap2\n  pop\n    /* \"#utility.yul\":5835:5928   */\n  tag_129\n    /* \"#utility.yul\":5924:5927   */\n  dup3\n    /* \"#utility.yul\":5835:5928   */\n  tag_59\n  jump\t// in\ntag_129:\n    /* \"#utility.yul\":5953:5955   */\n  0x20\n    /* \"#utility.yul\":5948:5951   */\n  dup3\n    /* \"#utility.yul\":5944:5956   */\n  add\n    /* \"#utility.yul\":5937:5956   */\n  swap1\n  pop\n    /* \"#utility.yul\":5596:5962   */\n  swap2\n  swap1\n  pop\n  jump\t// out\n    /* \"#utility.yul\":5968:6387   */\ntag_28:\n    /* \"#utility.yul\":6134:6138   */\n  0x00\n    /* \"#utility.yul\":6172:6174   */\n  0x20\n    /* \"#utility.yul\":6161:6170   */\n  dup3\n    /* \"#utility.yul\":6157:6175   */\n  add\n    /* \"#utility.yul\":6149:6175   */\n  swap1\n  pop\n    /* \"#utility.yul\":6221:6230   */\n  dup2\n    /* \"#utility.yul\":6215:6219   */\n  dup2\n    /* \"#utility.yul\":6211:6231   */\n  sub\n    /* \"#utility.yul\":6207:6208   */\n  0x00\n    /* \"#utility.yul\":6196:6205   */\n  dup4\n    /* \"#utility.yul\":6192:6209   */\n  add\n    /* \"#utility.yul\":6185:6232   */\n  mstore\n    /* \"#utility.yul\":6249:6380   */\n  tag_131\n    /* \"#utility.yul\":6375:6379   */\n  dup2\n    /* \"#utility.yul\":6249:6380   */\n  tag_60\n  jump\t// in\ntag_131:\n    /* \"#utility.yul\":6241:6380   */\n  swap1\n  pop\n    /* \"#utility.yul\":5968:6387   */\n  swap2\n  swap1\n  pop\n  jump\t// out\n    /* \"#utility.yul\":6393:6573   */\ntag_61:\n    /* \"#utility.yul\":6441:6518   */\n  0x4e487b7100000000000000000000000000000000000000000000000000000000\n    /* \"#utility.yul\":6438:6439   */\n  0x00\n    /* \"#utility.yul\":6431:6519   */\n  mstore\n    /* \"#utility.yul\":6538:6542   */\n  0x11\n    /* \"#utility.yul\":6535:6536   */\n  0x04\n    /* \"#utility.yul\":6528:6543   */\n  mstore\n    /* \"#utility.yul\":6562:6566   */\n  0x24\n    /* \"#utility.yul\":6559:6560   */\n  0x00\n    /* \"#utility.yul\":6552:6567   */\n  revert\n    /* \"#utility.yul\":6579:6770   */\ntag_32:\n    /* \"#utility.yul\":6619:6622   */\n  0x00\n    /* \"#utility.yul\":6638:6658   */\n  tag_134\n    /* \"#utility.yul\":6656:6657   */\n  dup3\n    /* \"#utility.yul\":6638:6658   */\n  tag_46\n  jump\t// in\ntag_134:\n    /* \"#utility.yul\":6633:6658   */\n  swap2\n  pop\n    /* \"#utility.yul\":6672:6692   */\n  tag_135\n    /* \"#utility.yul\":6690:6691   */\n  dup4\n    /* \"#utility.yul\":6672:6692   */\n  tag_46\n  jump\t// in\ntag_135:\n    /* \"#utility.yul\":6667:6692   */\n  swap3\n  pop\n    /* \"#utility.yul\":6715:6716   */\n  dup3\n    /* \"#utility.yul\":6712:6713   */\n  dup3\n    /* \"#utility.yul\":6708:6717   */\n  add\n    /* \"#utility.yul\":6701:6717   */\n  swap1\n  pop\n    /* \"#utility.yul\":6736:6739   */\n  dup1\n    /* \"#utility.yul\":6733:6734   */\n  dup3\n    /* \"#utility.yul\":6730:6740   */\n  gt\n    /* \"#utility.yul\":6727:6763   */\n  iszero\n  tag_136\n  jumpi\n    /* \"#utility.yul\":6743:6761   */\n  tag_137\n  tag_61\n  jump\t// in\ntag_137:\n    /* \"#utility.yul\":6727:6763   */\ntag_136:\n    /* \"#utility.yul\":6579:6770   */\n  swap3\n  swap2\n  pop\n  pop\n  jump\t// out\n    /* \"#utility.yul\":6776:6894   */\ntag_62:\n    /* \"#utility.yul\":6863:6887   */\n  tag_139\n    /* \"#utility.yul\":6881:6886   */\n  dup2\n    /* \"#utility.yul\":6863:6887   */\n  tag_46\n  jump\t// in\ntag_139:\n    /* \"#utility.yul\":6858:6861   */\n  dup3\n    /* \"#utility.yul\":6851:6888   */\n  mstore\n    /* \"#utility.yul\":6776:6894   */\n  pop\n  pop\n  jump\t// out\n    /* \"#utility.yul\":6900:7122   */\ntag_34:\n    /* \"#utility.yul\":6993:6997   */\n  0x00\n    /* \"#utility.yul\":7031:7033   */\n  0x20\n    /* \"#utility.yul\":7020:7029   */\n  dup3\n    /* \"#utility.yul\":7016:7034   */\n  add\n    /* \"#utility.yul\":7008:7034   */\n  swap1\n  pop\n    /* \"#utility.yul\":7044:7115   */\n  tag_141\n    /* \"#utility.yul\":7112:7113   */\n  0x00\n    /* \"#utility.yul\":7101:7110   */\n  dup4\n    /* \"#utility.yul\":7097:7114   */\n  add\n    /* \"#utility.yul\":7088:7094   */\n  dup5\n    /* \"#utility.yul\":7044:7115   */\n  tag_62\n  jump\t// in\ntag_141:\n    /* \"#utility.yul\":6900:7122   */\n  swap3\n  swap2\n  pop\n  pop\n  jump\t// out\n    /* \"contracts/DegenToken.sol\":217:2909  contract DegenToken is ERC20 {... */\ntag_24:\n  dataSize(sub_0)\n  dup1\n  dataOffset(sub_0)\n  0x00\n  codecopy\n  0x00\n  return\nstop\n\nsub_0: assembly {\n        /* \"contracts/DegenToken.sol\":217:2909  contract DegenToken is ERC20 {... */\n      mstore(0x40, 0x80)\n      callvalue\n      dup1\n      iszero\n      tag_1\n      jumpi\n      0x00\n      dup1\n      revert\n    tag_1:\n      pop\n      jumpi(tag_2, lt(calldatasize, 0x04))\n      shr(0xe0, calldataload(0x00))\n      dup1\n      0x7b61c320\n      gt\n      tag_24\n      jumpi\n      dup1\n      0xa9059cbb\n      gt\n      tag_25\n      jumpi\n      dup1\n      0xa9059cbb\n      eq\n      tag_18\n      jumpi\n      dup1\n      0xbec3fa17\n      eq\n      tag_19\n      jumpi\n      dup1\n      0xdd62ed3e\n      eq\n      tag_20\n      jumpi\n      dup1\n      0xe0229239\n      eq\n      tag_21\n      jumpi\n      dup1\n      0xe271c9e6\n      eq\n      tag_22\n      jumpi\n      dup1\n      0xf0dda65c\n      eq\n      tag_23\n      jumpi\n      jump(tag_2)\n    tag_25:\n      dup1\n      0x7b61c320\n      eq\n      tag_13\n      jumpi\n      dup1\n      0x8da5cb5b\n      eq\n      tag_14\n      jumpi\n      dup1\n      0x95d89b41\n      eq\n      tag_15\n      jumpi\n      dup1\n      0xa457c2d7\n      eq\n      tag_16\n      jumpi\n      dup1\n      0xa6e158f8\n      eq\n      tag_17\n      jumpi\n      jump(tag_2)\n    tag_24:\n      dup1\n      0x39509351\n      gt\n      tag_26\n      jumpi\n      dup1\n      0x39509351\n      eq\n      tag_8\n      jumpi\n      dup1\n      0x4f731087\n      eq\n      tag_9\n      jumpi\n      dup1\n      0x6c02a931\n      eq\n      tag_10\n      jumpi\n      dup1\n      0x6d1b229d\n      eq\n      tag_11\n      jumpi\n      dup1\n      0x70a08231\n      eq\n      tag_12\n      jumpi\n      jump(tag_2)\n    tag_26:\n      dup1\n      0x06fdde03\n      eq\n      tag_3\n      jumpi\n      dup1\n      0x095ea7b3\n      eq\n      tag_4\n      jumpi\n      dup1\n      0x18160ddd\n      eq\n      tag_5\n      jumpi\n      dup1\n      0x23b872dd\n      eq\n      tag_6\n      jumpi\n      dup1\n      0x313ce567\n      eq\n      tag_7\n      jumpi\n    tag_2:\n      0x00\n      dup1\n      revert\n        /* \"@openzeppelin/contracts/token/ERC20/ERC20.sol\":2154:2252  function name() public view virtual override returns (string memory) {... */\n    tag_3:\n      tag_27\n      tag_28\n      jump\t// in\n    tag_27:\n      mload(0x40)\n      tag_29\n      swap2\n      swap1\n      tag_30\n      jump\t// in\n    tag_29:\n      mload(0x40)\n      dup1\n      swap2\n      sub\n      swap1\n      return\n        /* \"@openzeppelin/contracts/token/ERC20/ERC20.sol\":4431:4628  function approve(address spender, uint256 amount) public virtual override returns (bool) {... */\n    tag_4:\n      tag_31\n      0x04\n      dup1\n      calldatasize\n      sub\n      dup2\n      add\n      swap1\n      tag_32\n      swap2\n      swap1\n      tag_33\n      jump\t// in\n    tag_32:\n      tag_34\n      jump\t// in\n    tag_31:\n      mload(0x40)\n      tag_35\n      swap2\n      swap1\n      tag_36\n      jump\t// in\n    tag_35:\n      mload(0x40)\n      dup1\n      swap2\n      sub\n      swap1\n      return\n        /* \"@openzeppelin/contracts/token/ERC20/ERC20.sol\":3242:3348  function totalSupply() public view virtual override returns (uint256) {... */\n    tag_5:\n      tag_37\n      tag_38\n      jump\t// in\n    tag_37:\n      mload(0x40)\n      tag_39\n      swap2\n      swap1\n      tag_40\n      jump\t// in\n    tag_39:\n      mload(0x40)\n      dup1\n      swap2\n      sub\n      swap1\n      return\n        /* \"@openzeppelin/contracts/token/ERC20/ERC20.sol\":5190:5476  function transferFrom(... */\n    tag_6:\n      tag_41\n      0x04\n      dup1\n      calldatasize\n      sub\n      dup2\n      add\n      swap1\n      tag_42\n      swap2\n      swap1\n      tag_43\n      jump\t// in\n    tag_42:\n      tag_44\n      jump\t// in\n    tag_41:\n      mload(0x40)\n      tag_45\n      swap2\n      swap1\n      tag_36\n      jump\t// in\n    tag_45:\n      mload(0x40)\n      dup1\n      swap2\n      sub\n      swap1\n      return\n        /* \"@openzeppelin/contracts/token/ERC20/ERC20.sol\":3091:3182  function decimals() public view virtual override returns (uint8) {... */\n    tag_7:\n      tag_46\n      tag_47\n      jump\t// in\n    tag_46:\n      mload(0x40)\n      tag_48\n      swap2\n      swap1\n      tag_49\n      jump\t// in\n    tag_48:\n      mload(0x40)\n      dup1\n      swap2\n      sub\n      swap1\n      return\n        /* \"@openzeppelin/contracts/token/ERC20/ERC20.sol\":5871:6105  function increaseAllowance(address spender, uint256 addedValue) public virtual returns (bool) {... */\n    tag_8:\n      tag_50\n      0x04\n      dup1\n      calldatasize\n      sub\n      dup2\n      add\n      swap1\n      tag_51\n      swap2\n      swap1\n      tag_33\n      jump\t// in\n    tag_51:\n      tag_52\n      jump\t// in\n    tag_50:\n      mload(0x40)\n      tag_53\n      swap2\n      swap1\n      tag_36\n      jump\t// in\n    tag_53:\n      mload(0x40)\n      dup1\n      swap2\n      sub\n      swap1\n      return\n        /* \"contracts/DegenToken.sol\":2603:2704  function checkTokenBalance() external view returns(uint){... */\n    tag_9:\n      tag_54\n      tag_55\n      jump\t// in\n    tag_54:\n      mload(0x40)\n      tag_56\n      swap2\n      swap1\n      tag_40\n      jump\t// in\n    tag_56:\n      mload(0x40)\n      dup1\n      swap2\n      sub\n      swap1\n      return\n        /* \"contracts/DegenToken.sol\":253:286  string public tokenName = \"DEGEN\" */\n    tag_10:\n      tag_57\n      tag_58\n      jump\t// in\n    tag_57:\n      mload(0x40)\n      tag_59\n      swap2\n      swap1\n      tag_30\n      jump\t// in\n    tag_59:\n      mload(0x40)\n      dup1\n      swap2\n      sub\n      swap1\n      return\n        /* \"contracts/DegenToken.sol\":2741:2906  function burnTokens(uint _tokens) external{... */\n    tag_11:\n      tag_60\n      0x04\n      dup1\n      calldatasize\n      sub\n      dup2\n      add\n      swap1\n      tag_61\n      swap2\n      swap1\n      tag_62\n      jump\t// in\n    tag_61:\n      tag_63\n      jump\t// in\n    tag_60:\n      stop\n        /* \"@openzeppelin/contracts/token/ERC20/ERC20.sol\":3406:3531  function balanceOf(address account) public view virtual override returns (uint256) {... */\n    tag_12:\n      tag_64\n      0x04\n      dup1\n      calldatasize\n      sub\n      dup2\n      add\n      swap1\n      tag_65\n      swap2\n      swap1\n      tag_66\n      jump\t// in\n    tag_65:\n      tag_67\n      jump\t// in\n    tag_64:\n      mload(0x40)\n      tag_68\n      swap2\n      swap1\n      tag_40\n      jump\t// in\n    tag_68:\n      mload(0x40)\n      dup1\n      swap2\n      sub\n      swap1\n      return\n        /* \"contracts/DegenToken.sol\":292:325  string public tokenSymbol = \"REX\" */\n    tag_13:\n      tag_69\n      tag_70\n      jump\t// in\n    tag_69:\n      mload(0x40)\n      tag_71\n      swap2\n      swap1\n      tag_30\n      jump\t// in\n    tag_71:\n      mload(0x40)\n      dup1\n      swap2\n      sub\n      swap1\n      return\n        /* \"contracts/DegenToken.sol\":376:396  address public owner */\n    tag_14:\n      tag_72\n      tag_73\n      jump\t// in\n    tag_72:\n      mload(0x40)\n      tag_74\n      swap2\n      swap1\n      tag_75\n      jump\t// in\n    tag_74:\n      mload(0x40)\n      dup1\n      swap2\n      sub\n      swap1\n      return\n        /* \"@openzeppelin/contracts/token/ERC20/ERC20.sol\":2365:2467  function symbol() public view virtual override returns (string memory) {... */\n    tag_15:\n      tag_76\n      tag_77\n      jump\t// in\n    tag_76:\n      mload(0x40)\n      tag_78\n      swap2\n      swap1\n      tag_30\n      jump\t// in\n    tag_78:\n      mload(0x40)\n      dup1\n      swap2\n      sub\n      swap1\n      return\n        /* \"@openzeppelin/contracts/token/ERC20/ERC20.sol\":6592:7019  function decreaseAllowance(address spender, uint256 subtractedValue) public virtual returns (bool) {... */\n    tag_16:\n      tag_79\n      0x04\n      dup1\n      calldatasize\n      sub\n      dup2\n      add\n      swap1\n      tag_80\n      swap2\n      swap1\n      tag_33\n      jump\t// in\n    tag_80:\n      tag_81\n      jump\t// in\n    tag_79:\n      mload(0x40)\n      tag_82\n      swap2\n      swap1\n      tag_36\n      jump\t// in\n    tag_82:\n      mload(0x40)\n      dup1\n      swap2\n      sub\n      swap1\n      return\n        /* \"contracts/DegenToken.sol\":1157:2060  function redeemTokens(uint _ch) external{... */\n    tag_17:\n      tag_83\n      0x04\n      dup1\n      calldatasize\n      sub\n      dup2\n      add\n      swap1\n      tag_84\n      swap2\n      swap1\n      tag_62\n      jump\t// in\n    tag_84:\n      tag_85\n      jump\t// in\n    tag_83:\n      stop\n        /* \"@openzeppelin/contracts/token/ERC20/ERC20.sol\":3727:3916  function transfer(address to, uint256 amount) public virtual override returns (bool) {... */\n    tag_18:\n      tag_86\n      0x04\n      dup1\n      calldatasize\n      sub\n      dup2\n      add\n      swap1\n      tag_87\n      swap2\n      swap1\n      tag_33\n      jump\t// in\n    tag_87:\n      tag_88\n      jump\t// in\n    tag_86:\n      mload(0x40)\n      tag_89\n      swap2\n      swap1\n      tag_36\n      jump\t// in\n    tag_89:\n      mload(0x40)\n      dup1\n      swap2\n      sub\n      swap1\n      return\n        /* \"contracts/DegenToken.sol\":2357:2558  function transferTokens(address _reciever, uint _tokens) external{... */\n    tag_19:\n      tag_90\n      0x04\n      dup1\n      calldatasize\n      sub\n      dup2\n      add\n      swap1\n      tag_91\n      swap2\n      swap1\n      tag_33\n      jump\t// in\n    tag_91:\n      tag_92\n      jump\t// in\n    tag_90:\n      stop\n        /* \"@openzeppelin/contracts/token/ERC20/ERC20.sol\":3974:4123  function allowance(address owner, address spender) public view virtual override returns (uint256) {... */\n    tag_20:\n      tag_93\n      0x04\n      dup1\n      calldatasize\n      sub\n      dup2\n      add\n      swap1\n      tag_94\n      swap2\n      swap1\n      tag_95\n      jump\t// in\n    tag_94:\n      tag_96\n      jump\t// in\n    tag_93:\n      mload(0x40)\n      tag_97\n      swap2\n      swap1\n      tag_40\n      jump\t// in\n    tag_97:\n      mload(0x40)\n      dup1\n      swap2\n      sub\n      swap1\n      return\n        /* \"contracts/DegenToken.sol\":2066:2315  function foodPurchases() public view returns (string[] memory, uint256){... */\n    tag_21:\n      tag_98\n      tag_99\n      jump\t// in\n    tag_98:\n      mload(0x40)\n      tag_100\n      swap3\n      swap2\n      swap1\n      tag_101\n      jump\t// in\n    tag_100:\n      mload(0x40)\n      dup1\n      swap2\n      sub\n      swap1\n      return\n        /* \"contracts/DegenToken.sol\":941:1121  function foodShop() public pure returns(string memory) {... */\n    tag_22:\n      tag_102\n      tag_103\n      jump\t// in\n    tag_102:\n      mload(0x40)\n      tag_104\n      swap2\n      swap1\n      tag_30\n      jump\t// in\n    tag_104:\n      mload(0x40)\n      dup1\n      swap2\n      sub\n      swap1\n      return\n        /* \"contracts/DegenToken.sol\":658:915  function mintTokens(address _receiver, uint256 _tokens) public onlyOwner{... */\n    tag_23:\n      tag_105\n      0x04\n      dup1\n      calldatasize\n      sub\n      dup2\n      add\n      swap1\n      tag_106\n      swap2\n      swap1\n      tag_33\n      jump\t// in\n    tag_106:\n      tag_107\n      jump\t// in\n    tag_105:\n      stop\n        /* \"@openzeppelin/contracts/token/ERC20/ERC20.sol\":2154:2252  function name() public view virtual override returns (string memory) {... */\n    tag_28:\n        /* \"@openzeppelin/contracts/token/ERC20/ERC20.sol\":2208:2221  string memory */\n      0x60\n        /* \"@openzeppelin/contracts/token/ERC20/ERC20.sol\":2240:2245  _name */\n      0x03\n        /* \"@openzeppelin/contracts/token/ERC20/ERC20.sol\":2233:2245  return _name */\n      dup1\n      sload\n      tag_109\n      swap1\n      tag_110\n      jump\t// in\n    tag_109:\n      dup1\n      0x1f\n      add\n      0x20\n      dup1\n      swap2\n      div\n      mul\n      0x20\n      add\n      mload(0x40)\n      swap1\n      dup2\n      add\n      0x40\n      mstore\n      dup1\n      swap3\n      swap2\n      swap1\n      dup2\n      dup2\n      mstore\n      0x20\n      add\n      dup3\n      dup1\n      sload\n      tag_111\n      swap1\n      tag_110\n      jump\t// in\n    tag_111:\n      dup1\n      iszero\n      tag_112\n      jumpi\n      dup1\n      0x1f\n      lt\n      tag_113\n      jumpi\n      0x0100\n      dup1\n      dup4\n      sload\n      div\n      mul\n      dup4\n      mstore\n      swap2\n      0x20\n      add\n      swap2\n      jump(tag_112)\n    tag_113:\n      dup3\n      add\n      swap2\n      swap1\n      0x00\n      mstore\n      keccak256(0x00, 0x20)\n      swap1\n    tag_114:\n      dup2\n      sload\n      dup2\n      mstore\n      swap1\n      0x01\n      add\n      swap1\n      0x20\n      add\n      dup1\n      dup4\n      gt\n      tag_114\n      jumpi\n      dup3\n      swap1\n      sub\n      0x1f\n      and\n      dup3\n      add\n      swap2\n    tag_112:\n      pop\n      pop\n      pop\n      pop\n      pop\n      swap1\n      pop\n        /* \"@openzeppelin/contracts/token/ERC20/ERC20.sol\":2154:2252  function name() public view virtual override returns (string memory) {... */\n      swap1\n      jump\t// out\n        /* \"@openzeppelin/contracts/token/ERC20/ERC20.sol\":4431:4628  function approve(address spender, uint256 amount) public virtual override returns (bool) {... */\n    tag_34:\n        /* \"@openzeppelin/contracts/token/ERC20/ERC20.sol\":4514:4518  bool */\n      0x00\n        /* \"@openzeppelin/contracts/token/ERC20/ERC20.sol\":4530:4543  address owner */\n      dup1\n        /* \"@openzeppelin/contracts/token/ERC20/ERC20.sol\":4546:4558  _msgSender() */\n      tag_116\n        /* \"@openzeppelin/contracts/token/ERC20/ERC20.sol\":4546:4556  _msgSender */\n      tag_117\n        /* \"@openzeppelin/contracts/token/ERC20/ERC20.sol\":4546:4558  _msgSender() */\n      jump\t// in\n    tag_116:\n        /* \"@openzeppelin/contracts/token/ERC20/ERC20.sol\":4530:4558  address owner = _msgSender() */\n      swap1\n      pop\n        /* \"@openzeppelin/contracts/token/ERC20/ERC20.sol\":4568:4600  _approve(owner, spender, amount) */\n      tag_118\n        /* \"@openzeppelin/contracts/token/ERC20/ERC20.sol\":4577:4582  owner */\n      dup2\n        /* \"@openzeppelin/contracts/token/ERC20/ERC20.sol\":4584:4591  spender */\n      dup6\n        /* \"@openzeppelin/contracts/token/ERC20/ERC20.sol\":4593:4599  amount */\n      dup6\n        /* \"@openzeppelin/contracts/token/ERC20/ERC20.sol\":4568:4576  _approve */\n      tag_119\n        /* \"@openzeppelin/contracts/token/ERC20/ERC20.sol\":4568:4600  _approve(owner, spender, amount) */\n      jump\t// in\n    tag_118:\n        /* \"@openzeppelin/contracts/token/ERC20/ERC20.sol\":4617:4621  true */\n      0x01\n        /* \"@openzeppelin/contracts/token/ERC20/ERC20.sol\":4610:4621  return true */\n      swap2\n      pop\n      pop\n        /* \"@openzeppelin/contracts/token/ERC20/ERC20.sol\":4431:4628  function approve(address spender, uint256 amount) public virtual override returns (bool) {... */\n      swap3\n      swap2\n      pop\n      pop\n      jump\t// out\n        /* \"@openzeppelin/contracts/token/ERC20/ERC20.sol\":3242:3348  function totalSupply() public view virtual override returns (uint256) {... */\n    tag_38:\n        /* \"@openzeppelin/contracts/token/ERC20/ERC20.sol\":3303:3310  uint256 */\n      0x00\n        /* \"@openzeppelin/contracts/token/ERC20/ERC20.sol\":3329:3341  _totalSupply */\n      sload(0x02)\n        /* \"@openzeppelin/contracts/token/ERC20/ERC20.sol\":3322:3341  return _totalSupply */\n      swap1\n      pop\n        /* \"@openzeppelin/contracts/token/ERC20/ERC20.sol\":3242:3348  function totalSupply() public view virtual override returns (uint256) {... */\n      swap1\n      jump\t// out\n        /* \"@openzeppelin/contracts/token/ERC20/ERC20.sol\":5190:5476  function transferFrom(... */\n    tag_44:\n        /* \"@openzeppelin/contracts/token/ERC20/ERC20.sol\":5317:5321  bool */\n      0x00\n        /* \"@openzeppelin/contracts/token/ERC20/ERC20.sol\":5333:5348  address spender */\n      dup1\n        /* \"@openzeppelin/contracts/token/ERC20/ERC20.sol\":5351:5363  _msgSender() */\n      tag_122\n        /* \"@openzeppelin/contracts/token/ERC20/ERC20.sol\":5351:5361  _msgSender */\n      tag_117\n        /* \"@openzeppelin/contracts/token/ERC20/ERC20.sol\":5351:5363  _msgSender() */\n      jump\t// in\n    tag_122:\n        /* \"@openzeppelin/contracts/token/ERC20/ERC20.sol\":5333:5363  address spender = _msgSender() */\n      swap1\n      pop\n        /* \"@openzeppelin/contracts/token/ERC20/ERC20.sol\":5373:5411  _spendAllowance(from, spender, amount) */\n      tag_123\n        /* \"@openzeppelin/contracts/token/ERC20/ERC20.sol\":5389:5393  from */\n      dup6\n        /* \"@openzeppelin/contracts/token/ERC20/ERC20.sol\":5395:5402  spender */\n      dup3\n        /* \"@openzeppelin/contracts/token/ERC20/ERC20.sol\":5404:5410  amount */\n      dup6\n        /* \"@openzeppelin/contracts/token/ERC20/ERC20.sol\":5373:5388  _spendAllowance */\n      tag_124\n        /* \"@openzeppelin/contracts/token/ERC20/ERC20.sol\":5373:5411  _spendAllowance(from, spender, amount) */\n      jump\t// in\n    tag_123:\n        /* \"@openzeppelin/contracts/token/ERC20/ERC20.sol\":5421:5448  _transfer(from, to, amount) */\n      tag_125\n        /* \"@openzeppelin/contracts/token/ERC20/ERC20.sol\":5431:5435  from */\n      dup6\n        /* \"@openzeppelin/contracts/token/ERC20/ERC20.sol\":5437:5439  to */\n      dup6\n        /* \"@openzeppelin/contracts/token/ERC20/ERC20.sol\":5441:5447  amount */\n      dup6\n        /* \"@openzeppelin/contracts/token/ERC20/ERC20.sol\":5421:5430  _transfer */\n      tag_126\n        /* \"@openzeppelin/contracts/token/ERC20/ERC20.sol\":5421:5448  _transfer(from, to, amount) */\n      jump\t// in\n    tag_125:\n        /* \"@openzeppelin/contracts/token/ERC20/ERC20.sol\":5465:5469  true */\n      0x01\n        /* \"@openzeppelin/contracts/token/ERC20/ERC20.sol\":5458:5469  return true */\n      swap2\n      pop\n      pop\n        /* \"@openzeppelin/contracts/token/ERC20/ERC20.sol\":5190:5476  function transferFrom(... */\n      swap4\n      swap3\n      pop\n      pop\n      pop\n      jump\t// out\n        /* \"@openzeppelin/contracts/token/ERC20/ERC20.sol\":3091:3182  function decimals() public view virtual override returns (uint8) {... */\n    tag_47:\n        /* \"@openzeppelin/contracts/token/ERC20/ERC20.sol\":3149:3154  uint8 */\n      0x00\n        /* \"@openzeppelin/contracts/token/ERC20/ERC20.sol\":3173:3175  18 */\n      0x12\n        /* \"@openzeppelin/contracts/token/ERC20/ERC20.sol\":3166:3175  return 18 */\n      swap1\n      pop\n        /* \"@openzeppelin/contracts/token/ERC20/ERC20.sol\":3091:3182  function decimals() public view virtual override returns (uint8) {... */\n      swap1\n      jump\t// out\n        /* \"@openzeppelin/contracts/token/ERC20/ERC20.sol\":5871:6105  function increaseAllowance(address spender, uint256 addedValue) public virtual returns (bool) {... */\n    tag_52:\n        /* \"@openzeppelin/contracts/token/ERC20/ERC20.sol\":5959:5963  bool */\n      0x00\n        /* \"@openzeppelin/contracts/token/ERC20/ERC20.sol\":5975:5988  address owner */\n      dup1\n        /* \"@openzeppelin/contracts/token/ERC20/ERC20.sol\":5991:6003  _msgSender() */\n      tag_129\n        /* \"@openzeppelin/contracts/token/ERC20/ERC20.sol\":5991:6001  _msgSender */\n      tag_117\n        /* \"@openzeppelin/contracts/token/ERC20/ERC20.sol\":5991:6003  _msgSender() */\n      jump\t// in\n    tag_129:\n        /* \"@openzeppelin/contracts/token/ERC20/ERC20.sol\":5975:6003  address owner = _msgSender() */\n      swap1\n      pop\n        /* \"@openzeppelin/contracts/token/ERC20/ERC20.sol\":6013:6077  _approve(owner, spender, allowance(owner, spender) + addedValue) */\n      tag_130\n        /* \"@openzeppelin/contracts/token/ERC20/ERC20.sol\":6022:6027  owner */\n      dup2\n        /* \"@openzeppelin/contracts/token/ERC20/ERC20.sol\":6029:6036  spender */\n      dup6\n        /* \"@openzeppelin/contracts/token/ERC20/ERC20.sol\":6066:6076  addedValue */\n      dup6\n        /* \"@openzeppelin/contracts/token/ERC20/ERC20.sol\":6038:6063  allowance(owner, spender) */\n      tag_131\n        /* \"@openzeppelin/contracts/token/ERC20/ERC20.sol\":6048:6053  owner */\n      dup6\n        /* \"@openzeppelin/contracts/token/ERC20/ERC20.sol\":6055:6062  spender */\n      dup10\n        /* \"@openzeppelin/contracts/token/ERC20/ERC20.sol\":6038:6047  allowance */\n      tag_96\n        /* \"@openzeppelin/contracts/token/ERC20/ERC20.sol\":6038:6063  allowance(owner, spender) */\n      jump\t// in\n    tag_131:\n        /* \"@openzeppelin/contracts/token/ERC20/ERC20.sol\":6038:6076  allowance(owner, spender) + addedValue */\n      tag_132\n      swap2\n      swap1\n      tag_133\n      jump\t// in\n    tag_132:\n        /* \"@openzeppelin/contracts/token/ERC20/ERC20.sol\":6013:6021  _approve */\n      tag_119\n        /* \"@openzeppelin/contracts/token/ERC20/ERC20.sol\":6013:6077  _approve(owner, spender, allowance(owner, spender) + addedValue) */\n      jump\t// in\n    tag_130:\n        /* \"@openzeppelin/contracts/token/ERC20/ERC20.sol\":6094:6098  true */\n      0x01\n        /* \"@openzeppelin/contracts/token/ERC20/ERC20.sol\":6087:6098  return true */\n      swap2\n      pop\n      pop\n        /* \"@openzeppelin/contracts/token/ERC20/ERC20.sol\":5871:6105  function increaseAllowance(address spender, uint256 addedValue) public virtual returns (bool) {... */\n      swap3\n      swap2\n      pop\n      pop\n      jump\t// out\n        /* \"contracts/DegenToken.sol\":2603:2704  function checkTokenBalance() external view returns(uint){... */\n    tag_55:\n        /* \"contracts/DegenToken.sol\":2654:2658  uint */\n      0x00\n        /* \"contracts/DegenToken.sol\":2676:2697  balanceOf(msg.sender) */\n      tag_135\n        /* \"contracts/DegenToken.sol\":2686:2696  msg.sender */\n      caller\n        /* \"contracts/DegenToken.sol\":2676:2685  balanceOf */\n      tag_67\n        /* \"contracts/DegenToken.sol\":2676:2697  balanceOf(msg.sender) */\n      jump\t// in\n    tag_135:\n        /* \"contracts/DegenToken.sol\":2669:2697  return balanceOf(msg.sender) */\n      swap1\n      pop\n        /* \"contracts/DegenToken.sol\":2603:2704  function checkTokenBalance() external view returns(uint){... */\n      swap1\n      jump\t// out\n        /* \"contracts/DegenToken.sol\":253:286  string public tokenName = \"DEGEN\" */\n    tag_58:\n      0x05\n      dup1\n      sload\n      tag_136\n      swap1\n      tag_110\n      jump\t// in\n    tag_136:\n      dup1\n      0x1f\n      add\n      0x20\n      dup1\n      swap2\n      div\n      mul\n      0x20\n      add\n      mload(0x40)\n      swap1\n      dup2\n      add\n      0x40\n      mstore\n      dup1\n      swap3\n      swap2\n      swap1\n      dup2\n      dup2\n      mstore\n      0x20\n      add\n      dup3\n      dup1\n      sload\n      tag_137\n      swap1\n      tag_110\n      jump\t// in\n    tag_137:\n      dup1\n      iszero\n      tag_138\n      jumpi\n      dup1\n      0x1f\n      lt\n      tag_139\n      jumpi\n      0x0100\n      dup1\n      dup4\n      sload\n      div\n      mul\n      dup4\n      mstore\n      swap2\n      0x20\n      add\n      swap2\n      jump(tag_138)\n    tag_139:\n      dup3\n      add\n      swap2\n      swap1\n      0x00\n      mstore\n      keccak256(0x00, 0x20)\n      swap1\n    tag_140:\n      dup2\n      sload\n      dup2\n      mstore\n      swap1\n      0x01\n      add\n      swap1\n      0x20\n      add\n      dup1\n      dup4\n      gt\n      tag_140\n      jumpi\n      dup3\n      swap1\n      sub\n      0x1f\n      and\n      dup3\n      add\n      swap2\n    tag_138:\n      pop\n      pop\n      pop\n      pop\n      pop\n      dup2\n      jump\t// out\n        /* \"contracts/DegenToken.sol\":2741:2906  function burnTokens(uint _tokens) external{... */\n    tag_63:\n        /* \"contracts/DegenToken.sol\":2825:2832  _tokens */\n      dup1\n        /* \"contracts/DegenToken.sol\":2801:2822  balanceOf(msg.sender) */\n      tag_142\n        /* \"contracts/DegenToken.sol\":2811:2821  msg.sender */\n      caller\n        /* \"contracts/DegenToken.sol\":2801:2810  balanceOf */\n      tag_67\n        /* \"contracts/DegenToken.sol\":2801:2822  balanceOf(msg.sender) */\n      jump\t// in\n    tag_142:\n        /* \"contracts/DegenToken.sol\":2801:2832  balanceOf(msg.sender)>= _tokens */\n      lt\n      iszero\n        /* \"contracts/DegenToken.sol\":2793:2863  require(balanceOf(msg.sender)>= _tokens, \"You don't have enough REX!\") */\n      tag_143\n      jumpi\n      mload(0x40)\n      0x08c379a000000000000000000000000000000000000000000000000000000000\n      dup2\n      mstore\n      0x04\n      add\n      tag_144\n      swap1\n      tag_145\n      jump\t// in\n    tag_144:\n      mload(0x40)\n      dup1\n      swap2\n      sub\n      swap1\n      revert\n    tag_143:\n        /* \"contracts/DegenToken.sol\":2873:2899  _burn(msg.sender, _tokens) */\n      tag_146\n        /* \"contracts/DegenToken.sol\":2879:2889  msg.sender */\n      caller\n        /* \"contracts/DegenToken.sol\":2891:2898  _tokens */\n      dup3\n        /* \"contracts/DegenToken.sol\":2873:2878  _burn */\n      tag_147\n        /* \"contracts/DegenToken.sol\":2873:2899  _burn(msg.sender, _tokens) */\n      jump\t// in\n    tag_146:\n        /* \"contracts/DegenToken.sol\":2741:2906  function burnTokens(uint _tokens) external{... */\n      pop\n      jump\t// out\n        /* \"@openzeppelin/contracts/token/ERC20/ERC20.sol\":3406:3531  function balanceOf(address account) public view virtual override returns (uint256) {... */\n    tag_67:\n        /* \"@openzeppelin/contracts/token/ERC20/ERC20.sol\":3480:3487  uint256 */\n      0x00\n        /* \"@openzeppelin/contracts/token/ERC20/ERC20.sol\":3506:3515  _balances */\n      dup1\n        /* \"@openzeppelin/contracts/token/ERC20/ERC20.sol\":3506:3524  _balances[account] */\n      0x00\n        /* \"@openzeppelin/contracts/token/ERC20/ERC20.sol\":3516:3523  account */\n      dup4\n        /* \"@openzeppelin/contracts/token/ERC20/ERC20.sol\":3506:3524  _balances[account] */\n      0xffffffffffffffffffffffffffffffffffffffff\n      and\n      0xffffffffffffffffffffffffffffffffffffffff\n      and\n      dup2\n      mstore\n      0x20\n      add\n      swap1\n      dup2\n      mstore\n      0x20\n      add\n      0x00\n      keccak256\n      sload\n        /* \"@openzeppelin/contracts/token/ERC20/ERC20.sol\":3499:3524  return _balances[account] */\n      swap1\n      pop\n        /* \"@openzeppelin/contracts/token/ERC20/ERC20.sol\":3406:3531  function balanceOf(address account) public view virtual override returns (uint256) {... */\n      swap2\n      swap1\n      pop\n      jump\t// out\n        /* \"contracts/DegenToken.sol\":292:325  string public tokenSymbol = \"REX\" */\n    tag_70:\n      0x06\n      dup1\n      sload\n      tag_149\n      swap1\n      tag_110\n      jump\t// in\n    tag_149:\n      dup1\n      0x1f\n      add\n      0x20\n      dup1\n      swap2\n      div\n      mul\n      0x20\n      add\n      mload(0x40)\n      swap1\n      dup2\n      add\n      0x40\n      mstore\n      dup1\n      swap3\n      swap2\n      swap1\n      dup2\n      dup2\n      mstore\n      0x20\n      add\n      dup3\n      dup1\n      sload\n      tag_150\n      swap1\n      tag_110\n      jump\t// in\n    tag_150:\n      dup1\n      iszero\n      tag_151\n      jumpi\n      dup1\n      0x1f\n      lt\n      tag_152\n      jumpi\n      0x0100\n      dup1\n      dup4\n      sload\n      div\n      mul\n      dup4\n      mstore\n      swap2\n      0x20\n      add\n      swap2\n      jump(tag_151)\n    tag_152:\n      dup3\n      add\n      swap2\n      swap1\n      0x00\n      mstore\n      keccak256(0x00, 0x20)\n      swap1\n    tag_153:\n      dup2\n      sload\n      dup2\n      mstore\n      swap1\n      0x01\n      add\n      swap1\n      0x20\n      add\n      dup1\n      dup4\n      gt\n      tag_153\n      jumpi\n      dup3\n      swap1\n      sub\n      0x1f\n      and\n      dup3\n      add\n      swap2\n    tag_151:\n      pop\n      pop\n      pop\n      pop\n      pop\n      dup2\n      jump\t// out\n        /* \"contracts/DegenToken.sol\":376:396  address public owner */\n    tag_73:\n      0x08\n      0x00\n      swap1\n      sload\n      swap1\n      0x0100\n      exp\n      swap1\n      div\n      0xffffffffffffffffffffffffffffffffffffffff\n      and\n      dup2\n      jump\t// out\n        /* \"@openzeppelin/contracts/token/ERC20/ERC20.sol\":2365:2467  function symbol() public view virtual override returns (string memory) {... */\n    tag_77:\n        /* \"@openzeppelin/contracts/token/ERC20/ERC20.sol\":2421:2434  string memory */\n      0x60\n        /* \"@openzeppelin/contracts/token/ERC20/ERC20.sol\":2453:2460  _symbol */\n      0x04\n        /* \"@openzeppelin/contracts/token/ERC20/ERC20.sol\":2446:2460  return _symbol */\n      dup1\n      sload\n      tag_155\n      swap1\n      tag_110\n      jump\t// in\n    tag_155:\n      dup1\n      0x1f\n      add\n      0x20\n      dup1\n      swap2\n      div\n      mul\n      0x20\n      add\n      mload(0x40)\n      swap1\n      dup2\n      add\n      0x40\n      mstore\n      dup1\n      swap3\n      swap2\n      swap1\n      dup2\n      dup2\n      mstore\n      0x20\n      add\n      dup3\n      dup1\n      sload\n      tag_156\n      swap1\n      tag_110\n      jump\t// in\n    tag_156:\n      dup1\n      iszero\n      tag_157\n      jumpi\n      dup1\n      0x1f\n      lt\n      tag_158\n      jumpi\n      0x0100\n      dup1\n      dup4\n      sload\n      div\n      mul\n      dup4\n      mstore\n      swap2\n      0x20\n      add\n      swap2\n      jump(tag_157)\n    tag_158:\n      dup3\n      add\n      swap2\n      swap1\n      0x00\n      mstore\n      keccak256(0x00, 0x20)\n      swap1\n    tag_159:\n      dup2\n      sload\n      dup2\n      mstore\n      swap1\n      0x01\n      add\n      swap1\n      0x20\n      add\n      dup1\n      dup4\n      gt\n      tag_159\n      jumpi\n      dup3\n      swap1\n      sub\n      0x1f\n      and\n      dup3\n      add\n      swap2\n    tag_157:\n      pop\n      pop\n      pop\n      pop\n      pop\n      swap1\n      pop\n        /* \"@openzeppelin/contracts/token/ERC20/ERC20.sol\":2365:2467  function symbol() public view virtual override returns (string memory) {... */\n      swap1\n      jump\t// out\n        /* \"@openzeppelin/contracts/token/ERC20/ERC20.sol\":6592:7019  function decreaseAllowance(address spender, uint256 subtractedValue) public virtual returns (bool) {... */\n    tag_81:\n        /* \"@openzeppelin/contracts/token/ERC20/ERC20.sol\":6685:6689  bool */\n      0x00\n        /* \"@openzeppelin/contracts/token/ERC20/ERC20.sol\":6701:6714  address owner */\n      dup1\n        /* \"@openzeppelin/contracts/token/ERC20/ERC20.sol\":6717:6729  _msgSender() */\n      tag_161\n        /* \"@openzeppelin/contracts/token/ERC20/ERC20.sol\":6717:6727  _msgSender */\n      tag_117\n        /* \"@openzeppelin/contracts/token/ERC20/ERC20.sol\":6717:6729  _msgSender() */\n      jump\t// in\n    tag_161:\n        /* \"@openzeppelin/contracts/token/ERC20/ERC20.sol\":6701:6729  address owner = _msgSender() */\n      swap1\n      pop\n        /* \"@openzeppelin/contracts/token/ERC20/ERC20.sol\":6739:6763  uint256 currentAllowance */\n      0x00\n        /* \"@openzeppelin/contracts/token/ERC20/ERC20.sol\":6766:6791  allowance(owner, spender) */\n      tag_162\n        /* \"@openzeppelin/contracts/token/ERC20/ERC20.sol\":6776:6781  owner */\n      dup3\n        /* \"@openzeppelin/contracts/token/ERC20/ERC20.sol\":6783:6790  spender */\n      dup7\n        /* \"@openzeppelin/contracts/token/ERC20/ERC20.sol\":6766:6775  allowance */\n      tag_96\n        /* \"@openzeppelin/contracts/token/ERC20/ERC20.sol\":6766:6791  allowance(owner, spender) */\n      jump\t// in\n    tag_162:\n        /* \"@openzeppelin/contracts/token/ERC20/ERC20.sol\":6739:6791  uint256 currentAllowance = allowance(owner, spender) */\n      swap1\n      pop\n        /* \"@openzeppelin/contracts/token/ERC20/ERC20.sol\":6829:6844  subtractedValue */\n      dup4\n        /* \"@openzeppelin/contracts/token/ERC20/ERC20.sol\":6809:6825  currentAllowance */\n      dup2\n        /* \"@openzeppelin/contracts/token/ERC20/ERC20.sol\":6809:6844  currentAllowance >= subtractedValue */\n      lt\n      iszero\n        /* \"@openzeppelin/contracts/token/ERC20/ERC20.sol\":6801:6886  require(currentAllowance >= subtractedValue, \"ERC20: decreased allowance below zero\") */\n      tag_163\n      jumpi\n      mload(0x40)\n      0x08c379a000000000000000000000000000000000000000000000000000000000\n      dup2\n      mstore\n      0x04\n      add\n      tag_164\n      swap1\n      tag_165\n      jump\t// in\n    tag_164:\n      mload(0x40)\n      dup1\n      swap2\n      sub\n      swap1\n      revert\n    tag_163:\n        /* \"@openzeppelin/contracts/token/ERC20/ERC20.sol\":6920:6980  _approve(owner, spender, currentAllowance - subtractedValue) */\n      tag_166\n        /* \"@openzeppelin/contracts/token/ERC20/ERC20.sol\":6929:6934  owner */\n      dup3\n        /* \"@openzeppelin/contracts/token/ERC20/ERC20.sol\":6936:6943  spender */\n      dup7\n        /* \"@openzeppelin/contracts/token/ERC20/ERC20.sol\":6964:6979  subtractedValue */\n      dup7\n        /* \"@openzeppelin/contracts/token/ERC20/ERC20.sol\":6945:6961  currentAllowance */\n      dup5\n        /* \"@openzeppelin/contracts/token/ERC20/ERC20.sol\":6945:6979  currentAllowance - subtractedValue */\n      sub\n        /* \"@openzeppelin/contracts/token/ERC20/ERC20.sol\":6920:6928  _approve */\n      tag_119\n        /* \"@openzeppelin/contracts/token/ERC20/ERC20.sol\":6920:6980  _approve(owner, spender, currentAllowance - subtractedValue) */\n      jump\t// in\n    tag_166:\n        /* \"@openzeppelin/contracts/token/ERC20/ERC20.sol\":7008:7012  true */\n      0x01\n        /* \"@openzeppelin/contracts/token/ERC20/ERC20.sol\":7001:7012  return true */\n      swap3\n      pop\n      pop\n      pop\n        /* \"@openzeppelin/contracts/token/ERC20/ERC20.sol\":6592:7019  function decreaseAllowance(address spender, uint256 subtractedValue) public virtual returns (bool) {... */\n      swap3\n      swap2\n      pop\n      pop\n      jump\t// out\n        /* \"contracts/DegenToken.sol\":1157:2060  function redeemTokens(uint _ch) external{... */\n    tag_85:\n        /* \"contracts/DegenToken.sol\":1222:1223  4 */\n      0x04\n        /* \"contracts/DegenToken.sol\":1215:1218  _ch */\n      dup2\n        /* \"contracts/DegenToken.sol\":1215:1223  _ch <= 4 */\n      gt\n      iszero\n        /* \"contracts/DegenToken.sol\":1207:1249  require(_ch <= 4,\"Wrong option selected!\") */\n      tag_168\n      jumpi\n      mload(0x40)\n      0x08c379a000000000000000000000000000000000000000000000000000000000\n      dup2\n      mstore\n      0x04\n      add\n      tag_169\n      swap1\n      tag_170\n      jump\t// in\n    tag_169:\n      mload(0x40)\n      dup1\n      swap2\n      sub\n      swap1\n      revert\n    tag_168:\n        /* \"contracts/DegenToken.sol\":1270:1271  1 */\n      0x01\n        /* \"contracts/DegenToken.sol\":1263:1266  _ch */\n      dup2\n        /* \"contracts/DegenToken.sol\":1263:1271  _ch == 1 */\n      sub\n        /* \"contracts/DegenToken.sol\":1260:2053  if(_ch == 1){... */\n      tag_171\n      jumpi\n        /* \"contracts/DegenToken.sol\":1317:1320  150 */\n      0x96\n        /* \"contracts/DegenToken.sol\":1294:1315  balanceOf(msg.sender) */\n      tag_172\n        /* \"contracts/DegenToken.sol\":1304:1314  msg.sender */\n      caller\n        /* \"contracts/DegenToken.sol\":1294:1303  balanceOf */\n      tag_67\n        /* \"contracts/DegenToken.sol\":1294:1315  balanceOf(msg.sender) */\n      jump\t// in\n    tag_172:\n        /* \"contracts/DegenToken.sol\":1294:1320  balanceOf(msg.sender)>=150 */\n      lt\n      iszero\n        /* \"contracts/DegenToken.sol\":1286:1347  require(balanceOf(msg.sender)>=150, \"Oops! Insufficient REX\") */\n      tag_173\n      jumpi\n      mload(0x40)\n      0x08c379a000000000000000000000000000000000000000000000000000000000\n      dup2\n      mstore\n      0x04\n      add\n      tag_174\n      swap1\n      tag_175\n      jump\t// in\n    tag_174:\n      mload(0x40)\n      dup1\n      swap2\n      sub\n      swap1\n      revert\n    tag_173:\n        /* \"contracts/DegenToken.sol\":1361:1383  _burn(msg.sender, 150) */\n      tag_176\n        /* \"contracts/DegenToken.sol\":1367:1377  msg.sender */\n      caller\n        /* \"contracts/DegenToken.sol\":1379:1382  150 */\n      0x96\n        /* \"contracts/DegenToken.sol\":1361:1366  _burn */\n      tag_147\n        /* \"contracts/DegenToken.sol\":1361:1383  _burn(msg.sender, 150) */\n      jump\t// in\n    tag_176:\n        /* \"contracts/DegenToken.sol\":1397:1406  purchases */\n      0x07\n        /* \"contracts/DegenToken.sol\":1397:1418  purchases[msg.sender] */\n      0x00\n        /* \"contracts/DegenToken.sol\":1407:1417  msg.sender */\n      caller\n        /* \"contracts/DegenToken.sol\":1397:1418  purchases[msg.sender] */\n      0xffffffffffffffffffffffffffffffffffffffff\n      and\n      0xffffffffffffffffffffffffffffffffffffffff\n      and\n      dup2\n      mstore\n      0x20\n      add\n      swap1\n      dup2\n      mstore\n      0x20\n      add\n      0x00\n      keccak256\n        /* \"contracts/DegenToken.sol\":1397:1434  purchases[msg.sender].push(\"Biryani\") */\n      dup1\n      0x01\n      dup2\n      sload\n      add\n      dup1\n      dup3\n      sstore\n      dup1\n      swap2\n      pop\n      pop\n      0x01\n      swap1\n      sub\n      swap1\n      0x00\n      mstore\n      keccak256(0x00, 0x20)\n      add\n      0x00\n      mload(0x40)\n      dup1\n      0x40\n      add\n      0x40\n      mstore\n      dup1\n      0x07\n      dup2\n      mstore\n      0x20\n      add\n      0x42697279616e6900000000000000000000000000000000000000000000000000\n      dup2\n      mstore\n      pop\n      swap1\n      swap2\n      swap1\n      swap2\n      pop\n      swap1\n      dup2\n      tag_178\n      swap2\n      swap1\n      tag_179\n      jump\t// in\n    tag_178:\n      pop\n        /* \"contracts/DegenToken.sol\":1260:2053  if(_ch == 1){... */\n      jump(tag_180)\n    tag_171:\n        /* \"contracts/DegenToken.sol\":1469:1470  2 */\n      0x02\n        /* \"contracts/DegenToken.sol\":1463:1466  _ch */\n      dup2\n        /* \"contracts/DegenToken.sol\":1463:1470  _ch ==2 */\n      sub\n        /* \"contracts/DegenToken.sol\":1460:2053  if(_ch ==2){... */\n      tag_181\n      jumpi\n        /* \"contracts/DegenToken.sol\":1518:1521  250 */\n      0xfa\n        /* \"contracts/DegenToken.sol\":1493:1514  balanceOf(msg.sender) */\n      tag_182\n        /* \"contracts/DegenToken.sol\":1503:1513  msg.sender */\n      caller\n        /* \"contracts/DegenToken.sol\":1493:1502  balanceOf */\n      tag_67\n        /* \"contracts/DegenToken.sol\":1493:1514  balanceOf(msg.sender) */\n      jump\t// in\n    tag_182:\n        /* \"contracts/DegenToken.sol\":1493:1521  balanceOf(msg.sender) >= 250 */\n      lt\n      iszero\n        /* \"contracts/DegenToken.sol\":1485:1548  require(balanceOf(msg.sender) >= 250, \"Oops! Insufficient REX\") */\n      tag_183\n      jumpi\n      mload(0x40)\n      0x08c379a000000000000000000000000000000000000000000000000000000000\n      dup2\n      mstore\n      0x04\n      add\n      tag_184\n      swap1\n      tag_175\n      jump\t// in\n    tag_184:\n      mload(0x40)\n      dup1\n      swap2\n      sub\n      swap1\n      revert\n    tag_183:\n        /* \"contracts/DegenToken.sol\":1562:1584  _burn(msg.sender, 250) */\n      tag_185\n        /* \"contracts/DegenToken.sol\":1568:1578  msg.sender */\n      caller\n        /* \"contracts/DegenToken.sol\":1580:1583  250 */\n      0xfa\n        /* \"contracts/DegenToken.sol\":1562:1567  _burn */\n      tag_147\n        /* \"contracts/DegenToken.sol\":1562:1584  _burn(msg.sender, 250) */\n      jump\t// in\n    tag_185:\n        /* \"contracts/DegenToken.sol\":1598:1607  purchases */\n      0x07\n        /* \"contracts/DegenToken.sol\":1598:1619  purchases[msg.sender] */\n      0x00\n        /* \"contracts/DegenToken.sol\":1608:1618  msg.sender */\n      caller\n        /* \"contracts/DegenToken.sol\":1598:1619  purchases[msg.sender] */\n      0xffffffffffffffffffffffffffffffffffffffff\n      and\n      0xffffffffffffffffffffffffffffffffffffffff\n      and\n      dup2\n      mstore\n      0x20\n      add\n      swap1\n      dup2\n      mstore\n      0x20\n      add\n      0x00\n      keccak256\n        /* \"contracts/DegenToken.sol\":1598:1644  purchases[msg.sender].push(\"Tandoori Chicken\") */\n      dup1\n      0x01\n      dup2\n      sload\n      add\n      dup1\n      dup3\n      sstore\n      dup1\n      swap2\n      pop\n      pop\n      0x01\n      swap1\n      sub\n      swap1\n      0x00\n      mstore\n      keccak256(0x00, 0x20)\n      add\n      0x00\n      mload(0x40)\n      dup1\n      0x40\n      add\n      0x40\n      mstore\n      dup1\n      0x10\n      dup2\n      mstore\n      0x20\n      add\n      0x54616e646f6f726920436869636b656e00000000000000000000000000000000\n      dup2\n      mstore\n      pop\n      swap1\n      swap2\n      swap1\n      swap2\n      pop\n      swap1\n      dup2\n      tag_187\n      swap2\n      swap1\n      tag_179\n      jump\t// in\n    tag_187:\n      pop\n        /* \"contracts/DegenToken.sol\":1460:2053  if(_ch ==2){... */\n      jump(tag_188)\n    tag_181:\n        /* \"contracts/DegenToken.sol\":1680:1681  3 */\n      0x03\n        /* \"contracts/DegenToken.sol\":1673:1676  _ch */\n      dup2\n        /* \"contracts/DegenToken.sol\":1673:1681  _ch == 3 */\n      sub\n        /* \"contracts/DegenToken.sol\":1670:2053  if(_ch == 3){... */\n      tag_189\n      jumpi\n        /* \"contracts/DegenToken.sol\":1729:1732  200 */\n      0xc8\n        /* \"contracts/DegenToken.sol\":1704:1725  balanceOf(msg.sender) */\n      tag_190\n        /* \"contracts/DegenToken.sol\":1714:1724  msg.sender */\n      caller\n        /* \"contracts/DegenToken.sol\":1704:1713  balanceOf */\n      tag_67\n        /* \"contracts/DegenToken.sol\":1704:1725  balanceOf(msg.sender) */\n      jump\t// in\n    tag_190:\n        /* \"contracts/DegenToken.sol\":1704:1732  balanceOf(msg.sender) >= 200 */\n      lt\n      iszero\n        /* \"contracts/DegenToken.sol\":1696:1759  require(balanceOf(msg.sender) >= 200, \"Oops! Insufficient REX\") */\n      tag_191\n      jumpi\n      mload(0x40)\n      0x08c379a000000000000000000000000000000000000000000000000000000000\n      dup2\n      mstore\n      0x04\n      add\n      tag_192\n      swap1\n      tag_175\n      jump\t// in\n    tag_192:\n      mload(0x40)\n      dup1\n      swap2\n      sub\n      swap1\n      revert\n    tag_191:\n        /* \"contracts/DegenToken.sol\":1773:1795  _burn(msg.sender, 200) */\n      tag_193\n        /* \"contracts/DegenToken.sol\":1779:1789  msg.sender */\n      caller\n        /* \"contracts/DegenToken.sol\":1791:1794  200 */\n      0xc8\n        /* \"contracts/DegenToken.sol\":1773:1778  _burn */\n      tag_147\n        /* \"contracts/DegenToken.sol\":1773:1795  _burn(msg.sender, 200) */\n      jump\t// in\n    tag_193:\n        /* \"contracts/DegenToken.sol\":1809:1818  purchases */\n      0x07\n        /* \"contracts/DegenToken.sol\":1809:1830  purchases[msg.sender] */\n      0x00\n        /* \"contracts/DegenToken.sol\":1819:1829  msg.sender */\n      caller\n        /* \"contracts/DegenToken.sol\":1809:1830  purchases[msg.sender] */\n      0xffffffffffffffffffffffffffffffffffffffff\n      and\n      0xffffffffffffffffffffffffffffffffffffffff\n      and\n      dup2\n      mstore\n      0x20\n      add\n      swap1\n      dup2\n      mstore\n      0x20\n      add\n      0x00\n      keccak256\n        /* \"contracts/DegenToken.sol\":1809:1853  purchases[msg.sender].push(\"Butter Chicken\") */\n      dup1\n      0x01\n      dup2\n      sload\n      add\n      dup1\n      dup3\n      sstore\n      dup1\n      swap2\n      pop\n      pop\n      0x01\n      swap1\n      sub\n      swap1\n      0x00\n      mstore\n      keccak256(0x00, 0x20)\n      add\n      0x00\n      mload(0x40)\n      dup1\n      0x40\n      add\n      0x40\n      mstore\n      dup1\n      0x0e\n      dup2\n      mstore\n      0x20\n      add\n      0x42757474657220436869636b656e000000000000000000000000000000000000\n      dup2\n      mstore\n      pop\n      swap1\n      swap2\n      swap1\n      swap2\n      pop\n      swap1\n      dup2\n      tag_195\n      swap2\n      swap1\n      tag_179\n      jump\t// in\n    tag_195:\n      pop\n        /* \"contracts/DegenToken.sol\":1670:2053  if(_ch == 3){... */\n      jump(tag_196)\n    tag_189:\n        /* \"contracts/DegenToken.sol\":1925:1928  110 */\n      0x6e\n        /* \"contracts/DegenToken.sol\":1900:1921  balanceOf(msg.sender) */\n      tag_197\n        /* \"contracts/DegenToken.sol\":1910:1920  msg.sender */\n      caller\n        /* \"contracts/DegenToken.sol\":1900:1909  balanceOf */\n      tag_67\n        /* \"contracts/DegenToken.sol\":1900:1921  balanceOf(msg.sender) */\n      jump\t// in\n    tag_197:\n        /* \"contracts/DegenToken.sol\":1900:1928  balanceOf(msg.sender) >= 110 */\n      lt\n      iszero\n        /* \"contracts/DegenToken.sol\":1892:1955  require(balanceOf(msg.sender) >= 110, \"Oops! Insufficient REX\") */\n      tag_198\n      jumpi\n      mload(0x40)\n      0x08c379a000000000000000000000000000000000000000000000000000000000\n      dup2\n      mstore\n      0x04\n      add\n      tag_199\n      swap1\n      tag_175\n      jump\t// in\n    tag_199:\n      mload(0x40)\n      dup1\n      swap2\n      sub\n      swap1\n      revert\n    tag_198:\n        /* \"contracts/DegenToken.sol\":1969:1991  _burn(msg.sender, 110) */\n      tag_200\n        /* \"contracts/DegenToken.sol\":1975:1985  msg.sender */\n      caller\n        /* \"contracts/DegenToken.sol\":1987:1990  110 */\n      0x6e\n        /* \"contracts/DegenToken.sol\":1969:1974  _burn */\n      tag_147\n        /* \"contracts/DegenToken.sol\":1969:1991  _burn(msg.sender, 110) */\n      jump\t// in\n    tag_200:\n        /* \"contracts/DegenToken.sol\":2005:2014  purchases */\n      0x07\n        /* \"contracts/DegenToken.sol\":2005:2026  purchases[msg.sender] */\n      0x00\n        /* \"contracts/DegenToken.sol\":2015:2025  msg.sender */\n      caller\n        /* \"contracts/DegenToken.sol\":2005:2026  purchases[msg.sender] */\n      0xffffffffffffffffffffffffffffffffffffffff\n      and\n      0xffffffffffffffffffffffffffffffffffffffff\n      and\n      dup2\n      mstore\n      0x20\n      add\n      swap1\n      dup2\n      mstore\n      0x20\n      add\n      0x00\n      keccak256\n        /* \"contracts/DegenToken.sol\":2005:2042  purchases[msg.sender].push(\"Noodles\") */\n      dup1\n      0x01\n      dup2\n      sload\n      add\n      dup1\n      dup3\n      sstore\n      dup1\n      swap2\n      pop\n      pop\n      0x01\n      swap1\n      sub\n      swap1\n      0x00\n      mstore\n      keccak256(0x00, 0x20)\n      add\n      0x00\n      mload(0x40)\n      dup1\n      0x40\n      add\n      0x40\n      mstore\n      dup1\n      0x07\n      dup2\n      mstore\n      0x20\n      add\n      0x4e6f6f646c657300000000000000000000000000000000000000000000000000\n      dup2\n      mstore\n      pop\n      swap1\n      swap2\n      swap1\n      swap2\n      pop\n      swap1\n      dup2\n      tag_202\n      swap2\n      swap1\n      tag_179\n      jump\t// in\n    tag_202:\n      pop\n        /* \"contracts/DegenToken.sol\":1670:2053  if(_ch == 3){... */\n    tag_196:\n        /* \"contracts/DegenToken.sol\":1460:2053  if(_ch ==2){... */\n    tag_188:\n        /* \"contracts/DegenToken.sol\":1260:2053  if(_ch == 1){... */\n    tag_180:\n        /* \"contracts/DegenToken.sol\":1157:2060  function redeemTokens(uint _ch) external{... */\n      pop\n      jump\t// out\n        /* \"@openzeppelin/contracts/token/ERC20/ERC20.sol\":3727:3916  function transfer(address to, uint256 amount) public virtual override returns (bool) {... */\n    tag_88:\n        /* \"@openzeppelin/contracts/token/ERC20/ERC20.sol\":3806:3810  bool */\n      0x00\n        /* \"@openzeppelin/contracts/token/ERC20/ERC20.sol\":3822:3835  address owner */\n      dup1\n        /* \"@openzeppelin/contracts/token/ERC20/ERC20.sol\":3838:3850  _msgSender() */\n      tag_204\n        /* \"@openzeppelin/contracts/token/ERC20/ERC20.sol\":3838:3848  _msgSender */\n      tag_117\n        /* \"@openzeppelin/contracts/token/ERC20/ERC20.sol\":3838:3850  _msgSender() */\n      jump\t// in\n    tag_204:\n        /* \"@openzeppelin/contracts/token/ERC20/ERC20.sol\":3822:3850  address owner = _msgSender() */\n      swap1\n      pop\n        /* \"@openzeppelin/contracts/token/ERC20/ERC20.sol\":3860:3888  _transfer(owner, to, amount) */\n      tag_205\n        /* \"@openzeppelin/contracts/token/ERC20/ERC20.sol\":3870:3875  owner */\n      dup2\n        /* \"@openzeppelin/contracts/token/ERC20/ERC20.sol\":3877:3879  to */\n      dup6\n        /* \"@openzeppelin/contracts/token/ERC20/ERC20.sol\":3881:3887  amount */\n      dup6\n        /* \"@openzeppelin/contracts/token/ERC20/ERC20.sol\":3860:3869  _transfer */\n      tag_126\n        /* \"@openzeppelin/contracts/token/ERC20/ERC20.sol\":3860:3888  _transfer(owner, to, amount) */\n      jump\t// in\n    tag_205:\n        /* \"@openzeppelin/contracts/token/ERC20/ERC20.sol\":3905:3909  true */\n      0x01\n        /* \"@openzeppelin/contracts/token/ERC20/ERC20.sol\":3898:3909  return true */\n      swap2\n      pop\n      pop\n        /* \"@openzeppelin/contracts/token/ERC20/ERC20.sol\":3727:3916  function transfer(address to, uint256 amount) public virtual override returns (bool) {... */\n      swap3\n      swap2\n      pop\n      pop\n      jump\t// out\n        /* \"contracts/DegenToken.sol\":2357:2558  function transferTokens(address _reciever, uint _tokens) external{... */\n    tag_92:\n        /* \"contracts/DegenToken.sol\":2465:2472  _tokens */\n      dup1\n        /* \"contracts/DegenToken.sol\":2440:2461  balanceOf(msg.sender) */\n      tag_207\n        /* \"contracts/DegenToken.sol\":2450:2460  msg.sender */\n      caller\n        /* \"contracts/DegenToken.sol\":2440:2449  balanceOf */\n      tag_67\n        /* \"contracts/DegenToken.sol\":2440:2461  balanceOf(msg.sender) */\n      jump\t// in\n    tag_207:\n        /* \"contracts/DegenToken.sol\":2440:2472  balanceOf(msg.sender) >= _tokens */\n      lt\n      iszero\n        /* \"contracts/DegenToken.sol\":2432:2513  require(balanceOf(msg.sender) >= _tokens, \"Sorry, not enough balance in wallet.\") */\n      tag_208\n      jumpi\n      mload(0x40)\n      0x08c379a000000000000000000000000000000000000000000000000000000000\n      dup2\n      mstore\n      0x04\n      add\n      tag_209\n      swap1\n      tag_210\n      jump\t// in\n    tag_209:\n      mload(0x40)\n      dup1\n      swap2\n      sub\n      swap1\n      revert\n    tag_208:\n        /* \"contracts/DegenToken.sol\":2523:2551  transfer(_reciever, _tokens) */\n      tag_211\n        /* \"contracts/DegenToken.sol\":2532:2541  _reciever */\n      dup3\n        /* \"contracts/DegenToken.sol\":2543:2550  _tokens */\n      dup3\n        /* \"contracts/DegenToken.sol\":2523:2531  transfer */\n      tag_88\n        /* \"contracts/DegenToken.sol\":2523:2551  transfer(_reciever, _tokens) */\n      jump\t// in\n    tag_211:\n      pop\n        /* \"contracts/DegenToken.sol\":2357:2558  function transferTokens(address _reciever, uint _tokens) external{... */\n      pop\n      pop\n      jump\t// out\n        /* \"@openzeppelin/contracts/token/ERC20/ERC20.sol\":3974:4123  function allowance(address owner, address spender) public view virtual override returns (uint256) {... */\n    tag_96:\n        /* \"@openzeppelin/contracts/token/ERC20/ERC20.sol\":4063:4070  uint256 */\n      0x00\n        /* \"@openzeppelin/contracts/token/ERC20/ERC20.sol\":4089:4100  _allowances */\n      0x01\n        /* \"@openzeppelin/contracts/token/ERC20/ERC20.sol\":4089:4107  _allowances[owner] */\n      0x00\n        /* \"@openzeppelin/contracts/token/ERC20/ERC20.sol\":4101:4106  owner */\n      dup5\n        /* \"@openzeppelin/contracts/token/ERC20/ERC20.sol\":4089:4107  _allowances[owner] */\n      0xffffffffffffffffffffffffffffffffffffffff\n      and\n      0xffffffffffffffffffffffffffffffffffffffff\n      and\n      dup2\n      mstore\n      0x20\n      add\n      swap1\n      dup2\n      mstore\n      0x20\n      add\n      0x00\n      keccak256\n        /* \"@openzeppelin/contracts/token/ERC20/ERC20.sol\":4089:4116  _allowances[owner][spender] */\n      0x00\n        /* \"@openzeppelin/contracts/token/ERC20/ERC20.sol\":4108:4115  spender */\n      dup4\n        /* \"@openzeppelin/contracts/token/ERC20/ERC20.sol\":4089:4116  _allowances[owner][spender] */\n      0xffffffffffffffffffffffffffffffffffffffff\n      and\n      0xffffffffffffffffffffffffffffffffffffffff\n      and\n      dup2\n      mstore\n      0x20\n      add\n      swap1\n      dup2\n      mstore\n      0x20\n      add\n      0x00\n      keccak256\n      sload\n        /* \"@openzeppelin/contracts/token/ERC20/ERC20.sol\":4082:4116  return _allowances[owner][spender] */\n      swap1\n      pop\n        /* \"@openzeppelin/contracts/token/ERC20/ERC20.sol\":3974:4123  function allowance(address owner, address spender) public view virtual override returns (uint256) {... */\n      swap3\n      swap2\n      pop\n      pop\n      jump\t// out\n        /* \"contracts/DegenToken.sol\":2066:2315  function foodPurchases() public view returns (string[] memory, uint256){... */\n    tag_99:\n        /* \"contracts/DegenToken.sol\":2112:2127  string[] memory */\n      0x60\n        /* \"contracts/DegenToken.sol\":2129:2136  uint256 */\n      0x00\n        /* \"contracts/DegenToken.sol\":2147:2161  uint256 length */\n      dup1\n        /* \"contracts/DegenToken.sol\":2164:2173  purchases */\n      0x07\n        /* \"contracts/DegenToken.sol\":2164:2185  purchases[msg.sender] */\n      0x00\n        /* \"contracts/DegenToken.sol\":2174:2184  msg.sender */\n      caller\n        /* \"contracts/DegenToken.sol\":2164:2185  purchases[msg.sender] */\n      0xffffffffffffffffffffffffffffffffffffffff\n      and\n      0xffffffffffffffffffffffffffffffffffffffff\n      and\n      dup2\n      mstore\n      0x20\n      add\n      swap1\n      dup2\n      mstore\n      0x20\n      add\n      0x00\n      keccak256\n        /* \"contracts/DegenToken.sol\":2164:2192  purchases[msg.sender].length */\n      dup1\n      sload\n      swap1\n      pop\n        /* \"contracts/DegenToken.sol\":2147:2192  uint256 length = purchases[msg.sender].length */\n      swap1\n      pop\n        /* \"contracts/DegenToken.sol\":2219:2220  0 */\n      0x00\n        /* \"contracts/DegenToken.sol\":2210:2216  length */\n      dup2\n        /* \"contracts/DegenToken.sol\":2210:2220  length > 0 */\n      gt\n        /* \"contracts/DegenToken.sol\":2202:2260  require(length > 0, \"No purchases found for this address\") */\n      tag_214\n      jumpi\n      mload(0x40)\n      0x08c379a000000000000000000000000000000000000000000000000000000000\n      dup2\n      mstore\n      0x04\n      add\n      tag_215\n      swap1\n      tag_216\n      jump\t// in\n    tag_215:\n      mload(0x40)\n      dup1\n      swap2\n      sub\n      swap1\n      revert\n    tag_214:\n        /* \"contracts/DegenToken.sol\":2278:2287  purchases */\n      0x07\n        /* \"contracts/DegenToken.sol\":2278:2299  purchases[msg.sender] */\n      0x00\n        /* \"contracts/DegenToken.sol\":2288:2298  msg.sender */\n      caller\n        /* \"contracts/DegenToken.sol\":2278:2299  purchases[msg.sender] */\n      0xffffffffffffffffffffffffffffffffffffffff\n      and\n      0xffffffffffffffffffffffffffffffffffffffff\n      and\n      dup2\n      mstore\n      0x20\n      add\n      swap1\n      dup2\n      mstore\n      0x20\n      add\n      0x00\n      keccak256\n        /* \"contracts/DegenToken.sol\":2301:2307  length */\n      dup2\n        /* \"contracts/DegenToken.sol\":2270:2308  return (purchases[msg.sender], length) */\n      dup2\n      dup1\n      sload\n      dup1\n      0x20\n      mul\n      0x20\n      add\n      mload(0x40)\n      swap1\n      dup2\n      add\n      0x40\n      mstore\n      dup1\n      swap3\n      swap2\n      swap1\n      dup2\n      dup2\n      mstore\n      0x20\n      add\n      0x00\n      swap1\n    tag_217:\n      dup3\n      dup3\n      lt\n      iszero\n      tag_218\n      jumpi\n      dup4\n      dup3\n      swap1\n      0x00\n      mstore\n      keccak256(0x00, 0x20)\n      add\n      dup1\n      sload\n      tag_220\n      swap1\n      tag_110\n      jump\t// in\n    tag_220:\n      dup1\n      0x1f\n      add\n      0x20\n      dup1\n      swap2\n      div\n      mul\n      0x20\n      add\n      mload(0x40)\n      swap1\n      dup2\n      add\n      0x40\n      mstore\n      dup1\n      swap3\n      swap2\n      swap1\n      dup2\n      dup2\n      mstore\n      0x20\n      add\n      dup3\n      dup1\n      sload\n      tag_221\n      swap1\n      tag_110\n      jump\t// in\n    tag_221:\n      dup1\n      iszero\n      tag_222\n      jumpi\n      dup1\n      0x1f\n      lt\n      tag_223\n      jumpi\n      0x0100\n      dup1\n      dup4\n      sload\n      div\n      mul\n      dup4\n      mstore\n      swap2\n      0x20\n      add\n      swap2\n      jump(tag_222)\n    tag_223:\n      dup3\n      add\n      swap2\n      swap1\n      0x00\n      mstore\n      keccak256(0x00, 0x20)\n      swap1\n    tag_224:\n      dup2\n      sload\n      dup2\n      mstore\n      swap1\n      0x01\n      add\n      swap1\n      0x20\n      add\n      dup1\n      dup4\n      gt\n      tag_224\n      jumpi\n      dup3\n      swap1\n      sub\n      0x1f\n      and\n      dup3\n      add\n      swap2\n    tag_222:\n      pop\n      pop\n      pop\n      pop\n      pop\n      dup2\n      mstore\n      0x20\n      add\n      swap1\n      0x01\n      add\n      swap1\n      jump(tag_217)\n    tag_218:\n      pop\n      pop\n      pop\n      pop\n      swap2\n      pop\n      swap3\n      pop\n      swap3\n      pop\n      pop\n        /* \"contracts/DegenToken.sol\":2066:2315  function foodPurchases() public view returns (string[] memory, uint256){... */\n      swap1\n      swap2\n      jump\t// out\n        /* \"contracts/DegenToken.sol\":941:1121  function foodShop() public pure returns(string memory) {... */\n    tag_103:\n        /* \"contracts/DegenToken.sol\":981:994  string memory */\n      0x60\n        /* \"contracts/DegenToken.sol\":1006:1114  return \"1. Biryani [150 REX] 2. Tandoori Chicken [250 REX] 3. Butter Chicken [200 REX] 4. Noodles [110 REX]\" */\n      mload(0x40)\n      dup1\n      0xa0\n      add\n      0x40\n      mstore\n      dup1\n      0x63\n      dup2\n      mstore\n      0x20\n      add\n      data_845b13d2263216d4c380190c0d4a7bdc9881d187d76b6728d5b9033af4f34067\n      0x63\n      swap2\n      codecopy\n      swap1\n      pop\n        /* \"contracts/DegenToken.sol\":941:1121  function foodShop() public pure returns(string memory) {... */\n      swap1\n      jump\t// out\n        /* \"contracts/DegenToken.sol\":658:915  function mintTokens(address _receiver, uint256 _tokens) public onlyOwner{... */\n    tag_107:\n        /* \"contracts/DegenToken.sol\":572:577  owner */\n      0x08\n      0x00\n      swap1\n      sload\n      swap1\n      0x0100\n      exp\n      swap1\n      div\n      0xffffffffffffffffffffffffffffffffffffffff\n      and\n        /* \"contracts/DegenToken.sol\":558:577  msg.sender == owner */\n      0xffffffffffffffffffffffffffffffffffffffff\n      and\n        /* \"contracts/DegenToken.sol\":558:568  msg.sender */\n      caller\n        /* \"contracts/DegenToken.sol\":558:577  msg.sender == owner */\n      0xffffffffffffffffffffffffffffffffffffffff\n      and\n      eq\n        /* \"contracts/DegenToken.sol\":550:613  require(msg.sender == owner, \"Sorry! only owner can mint REX!\") */\n      tag_227\n      jumpi\n      mload(0x40)\n      0x08c379a000000000000000000000000000000000000000000000000000000000\n      dup2\n      mstore\n      0x04\n      add\n      tag_228\n      swap1\n      tag_229\n      jump\t// in\n    tag_228:\n      mload(0x40)\n      dup1\n      swap2\n      sub\n      swap1\n      revert\n    tag_227:\n        /* \"contracts/DegenToken.sol\":769:770  0 */\n      0x00\n        /* \"contracts/DegenToken.sol\":748:771  _receiver != address(0) */\n      0xffffffffffffffffffffffffffffffffffffffff\n      and\n        /* \"contracts/DegenToken.sol\":748:757  _receiver */\n      dup3\n        /* \"contracts/DegenToken.sol\":748:771  _receiver != address(0) */\n      0xffffffffffffffffffffffffffffffffffffffff\n      and\n      sub\n        /* \"contracts/DegenToken.sol\":740:802  require(_receiver != address(0), \"This address doesn't exist\") */\n      tag_231\n      jumpi\n      mload(0x40)\n      0x08c379a000000000000000000000000000000000000000000000000000000000\n      dup2\n      mstore\n      0x04\n      add\n      tag_232\n      swap1\n      tag_233\n      jump\t// in\n    tag_232:\n      mload(0x40)\n      dup1\n      swap2\n      sub\n      swap1\n      revert\n    tag_231:\n        /* \"contracts/DegenToken.sol\":830:831  0 */\n      0x00\n        /* \"contracts/DegenToken.sol\":820:827  _tokens */\n      dup2\n        /* \"contracts/DegenToken.sol\":820:831  _tokens > 0 */\n      gt\n        /* \"contracts/DegenToken.sol\":812:873  require(_tokens > 0, \"You can't mint negative number of REX\") */\n      tag_234\n      jumpi\n      mload(0x40)\n      0x08c379a000000000000000000000000000000000000000000000000000000000\n      dup2\n      mstore\n      0x04\n      add\n      tag_235\n      swap1\n      tag_236\n      jump\t// in\n    tag_235:\n      mload(0x40)\n      dup1\n      swap2\n      sub\n      swap1\n      revert\n    tag_234:\n        /* \"contracts/DegenToken.sol\":883:908  _mint(_receiver, _tokens) */\n      tag_237\n        /* \"contracts/DegenToken.sol\":889:898  _receiver */\n      dup3\n        /* \"contracts/DegenToken.sol\":900:907  _tokens */\n      dup3\n        /* \"contracts/DegenToken.sol\":883:888  _mint */\n      tag_238\n        /* \"contracts/DegenToken.sol\":883:908  _mint(_receiver, _tokens) */\n      jump\t// in\n    tag_237:\n        /* \"contracts/DegenToken.sol\":658:915  function mintTokens(address _receiver, uint256 _tokens) public onlyOwner{... */\n      pop\n      pop\n      jump\t// out\n        /* \"@openzeppelin/contracts/utils/Context.sol\":640:736  function _msgSender() internal view virtual returns (address) {... */\n    tag_117:\n        /* \"@openzeppelin/contracts/utils/Context.sol\":693:700  address */\n      0x00\n        /* \"@openzeppelin/contracts/utils/Context.sol\":719:729  msg.sender */\n      caller\n        /* \"@openzeppelin/contracts/utils/Context.sol\":712:729  return msg.sender */\n      swap1\n      pop\n        /* \"@openzeppelin/contracts/utils/Context.sol\":640:736  function _msgSender() internal view virtual returns (address) {... */\n      swap1\n      jump\t// out\n        /* \"@openzeppelin/contracts/token/ERC20/ERC20.sol\":10504:10874  function _approve(... */\n    tag_119:\n        /* \"@openzeppelin/contracts/token/ERC20/ERC20.sol\":10652:10653  0 */\n      0x00\n        /* \"@openzeppelin/contracts/token/ERC20/ERC20.sol\":10635:10654  owner != address(0) */\n      0xffffffffffffffffffffffffffffffffffffffff\n      and\n        /* \"@openzeppelin/contracts/token/ERC20/ERC20.sol\":10635:10640  owner */\n      dup4\n        /* \"@openzeppelin/contracts/token/ERC20/ERC20.sol\":10635:10654  owner != address(0) */\n      0xffffffffffffffffffffffffffffffffffffffff\n      and\n      sub\n        /* \"@openzeppelin/contracts/token/ERC20/ERC20.sol\":10627:10695  require(owner != address(0), \"ERC20: approve from the zero address\") */\n      tag_241\n      jumpi\n      mload(0x40)\n      0x08c379a000000000000000000000000000000000000000000000000000000000\n      dup2\n      mstore\n      0x04\n      add\n      tag_242\n      swap1\n      tag_243\n      jump\t// in\n    tag_242:\n      mload(0x40)\n      dup1\n      swap2\n      sub\n      swap1\n      revert\n    tag_241:\n        /* \"@openzeppelin/contracts/token/ERC20/ERC20.sol\":10732:10733  0 */\n      0x00\n        /* \"@openzeppelin/contracts/token/ERC20/ERC20.sol\":10713:10734  spender != address(0) */\n      0xffffffffffffffffffffffffffffffffffffffff\n      and\n        /* \"@openzeppelin/contracts/token/ERC20/ERC20.sol\":10713:10720  spender */\n      dup3\n        /* \"@openzeppelin/contracts/token/ERC20/ERC20.sol\":10713:10734  spender != address(0) */\n      0xffffffffffffffffffffffffffffffffffffffff\n      and\n      sub\n        /* \"@openzeppelin/contracts/token/ERC20/ERC20.sol\":10705:10773  require(spender != address(0), \"ERC20: approve to the zero address\") */\n      tag_244\n      jumpi\n      mload(0x40)\n      0x08c379a000000000000000000000000000000000000000000000000000000000\n      dup2\n      mstore\n      0x04\n      add\n      tag_245\n      swap1\n      tag_246\n      jump\t// in\n    tag_245:\n      mload(0x40)\n      dup1\n      swap2\n      sub\n      swap1\n      revert\n    tag_244:\n        /* \"@openzeppelin/contracts/token/ERC20/ERC20.sol\":10814:10820  amount */\n      dup1\n        /* \"@openzeppelin/contracts/token/ERC20/ERC20.sol\":10784:10795  _allowances */\n      0x01\n        /* \"@openzeppelin/contracts/token/ERC20/ERC20.sol\":10784:10802  _allowances[owner] */\n      0x00\n        /* \"@openzeppelin/contracts/token/ERC20/ERC20.sol\":10796:10801  owner */\n      dup6\n        /* \"@openzeppelin/contracts/token/ERC20/ERC20.sol\":10784:10802  _allowances[owner] */\n      0xffffffffffffffffffffffffffffffffffffffff\n      and\n      0xffffffffffffffffffffffffffffffffffffffff\n      and\n      dup2\n      mstore\n      0x20\n      add\n      swap1\n      dup2\n      mstore\n      0x20\n      add\n      0x00\n      keccak256\n        /* \"@openzeppelin/contracts/token/ERC20/ERC20.sol\":10784:10811  _allowances[owner][spender] */\n      0x00\n        /* \"@openzeppelin/contracts/token/ERC20/ERC20.sol\":10803:10810  spender */\n      dup5\n        /* \"@openzeppelin/contracts/token/ERC20/ERC20.sol\":10784:10811  _allowances[owner][spender] */\n      0xffffffffffffffffffffffffffffffffffffffff\n      and\n      0xffffffffffffffffffffffffffffffffffffffff\n      and\n      dup2\n      mstore\n      0x20\n      add\n      swap1\n      dup2\n      mstore\n      0x20\n      add\n      0x00\n      keccak256\n        /* \"@openzeppelin/contracts/token/ERC20/ERC20.sol\":10784:10820  _allowances[owner][spender] = amount */\n      dup2\n      swap1\n      sstore\n      pop\n        /* \"@openzeppelin/contracts/token/ERC20/ERC20.sol\":10851:10858  spender */\n      dup2\n        /* \"@openzeppelin/contracts/token/ERC20/ERC20.sol\":10835:10867  Approval(owner, spender, amount) */\n      0xffffffffffffffffffffffffffffffffffffffff\n      and\n        /* \"@openzeppelin/contracts/token/ERC20/ERC20.sol\":10844:10849  owner */\n      dup4\n        /* \"@openzeppelin/contracts/token/ERC20/ERC20.sol\":10835:10867  Approval(owner, spender, amount) */\n      0xffffffffffffffffffffffffffffffffffffffff\n      and\n      0x8c5be1e5ebec7d5bd14f71427d1e84f3dd0314c0f7b2291e5b200ac8c7c3b925\n        /* \"@openzeppelin/contracts/token/ERC20/ERC20.sol\":10860:10866  amount */\n      dup4\n        /* \"@openzeppelin/contracts/token/ERC20/ERC20.sol\":10835:10867  Approval(owner, spender, amount) */\n      mload(0x40)\n      tag_247\n      swap2\n      swap1\n      tag_40\n      jump\t// in\n    tag_247:\n      mload(0x40)\n      dup1\n      swap2\n      sub\n      swap1\n      log3\n        /* \"@openzeppelin/contracts/token/ERC20/ERC20.sol\":10504:10874  function _approve(... */\n      pop\n      pop\n      pop\n      jump\t// out\n        /* \"@openzeppelin/contracts/token/ERC20/ERC20.sol\":11155:11596  function _spendAllowance(... */\n    tag_124:\n        /* \"@openzeppelin/contracts/token/ERC20/ERC20.sol\":11285:11309  uint256 currentAllowance */\n      0x00\n        /* \"@openzeppelin/contracts/token/ERC20/ERC20.sol\":11312:11337  allowance(owner, spender) */\n      tag_249\n        /* \"@openzeppelin/contracts/token/ERC20/ERC20.sol\":11322:11327  owner */\n      dup5\n        /* \"@openzeppelin/contracts/token/ERC20/ERC20.sol\":11329:11336  spender */\n      dup5\n        /* \"@openzeppelin/contracts/token/ERC20/ERC20.sol\":11312:11321  allowance */\n      tag_96\n        /* \"@openzeppelin/contracts/token/ERC20/ERC20.sol\":11312:11337  allowance(owner, spender) */\n      jump\t// in\n    tag_249:\n        /* \"@openzeppelin/contracts/token/ERC20/ERC20.sol\":11285:11337  uint256 currentAllowance = allowance(owner, spender) */\n      swap1\n      pop\n        /* \"@openzeppelin/contracts/token/ERC20/ERC20.sol\":11371:11388  type(uint256).max */\n      0xffffffffffffffffffffffffffffffffffffffffffffffffffffffffffffffff\n        /* \"@openzeppelin/contracts/token/ERC20/ERC20.sol\":11351:11367  currentAllowance */\n      dup2\n        /* \"@openzeppelin/contracts/token/ERC20/ERC20.sol\":11351:11388  currentAllowance != type(uint256).max */\n      eq\n        /* \"@openzeppelin/contracts/token/ERC20/ERC20.sol\":11347:11590  if (currentAllowance != type(uint256).max) {... */\n      tag_250\n      jumpi\n        /* \"@openzeppelin/contracts/token/ERC20/ERC20.sol\":11432:11438  amount */\n      dup2\n        /* \"@openzeppelin/contracts/token/ERC20/ERC20.sol\":11412:11428  currentAllowance */\n      dup2\n        /* \"@openzeppelin/contracts/token/ERC20/ERC20.sol\":11412:11438  currentAllowance >= amount */\n      lt\n      iszero\n        /* \"@openzeppelin/contracts/token/ERC20/ERC20.sol\":11404:11472  require(currentAllowance >= amount, \"ERC20: insufficient allowance\") */\n      tag_251\n      jumpi\n      mload(0x40)\n      0x08c379a000000000000000000000000000000000000000000000000000000000\n      dup2\n      mstore\n      0x04\n      add\n      tag_252\n      swap1\n      tag_253\n      jump\t// in\n    tag_252:\n      mload(0x40)\n      dup1\n      swap2\n      sub\n      swap1\n      revert\n    tag_251:\n        /* \"@openzeppelin/contracts/token/ERC20/ERC20.sol\":11514:11565  _approve(owner, spender, currentAllowance - amount) */\n      tag_254\n        /* \"@openzeppelin/contracts/token/ERC20/ERC20.sol\":11523:11528  owner */\n      dup5\n        /* \"@openzeppelin/contracts/token/ERC20/ERC20.sol\":11530:11537  spender */\n      dup5\n        /* \"@openzeppelin/contracts/token/ERC20/ERC20.sol\":11558:11564  amount */\n      dup5\n        /* \"@openzeppelin/contracts/token/ERC20/ERC20.sol\":11539:11555  currentAllowance */\n      dup5\n        /* \"@openzeppelin/contracts/token/ERC20/ERC20.sol\":11539:11564  currentAllowance - amount */\n      sub\n        /* \"@openzeppelin/contracts/token/ERC20/ERC20.sol\":11514:11522  _approve */\n      tag_119\n        /* \"@openzeppelin/contracts/token/ERC20/ERC20.sol\":11514:11565  _approve(owner, spender, currentAllowance - amount) */\n      jump\t// in\n    tag_254:\n        /* \"@openzeppelin/contracts/token/ERC20/ERC20.sol\":11347:11590  if (currentAllowance != type(uint256).max) {... */\n    tag_250:\n        /* \"@openzeppelin/contracts/token/ERC20/ERC20.sol\":11275:11596  {... */\n      pop\n        /* \"@openzeppelin/contracts/token/ERC20/ERC20.sol\":11155:11596  function _spendAllowance(... */\n      pop\n      pop\n      pop\n      jump\t// out\n        /* \"@openzeppelin/contracts/token/ERC20/ERC20.sol\":7473:8291  function _transfer(... */\n    tag_126:\n        /* \"@openzeppelin/contracts/token/ERC20/ERC20.sol\":7615:7616  0 */\n      0x00\n        /* \"@openzeppelin/contracts/token/ERC20/ERC20.sol\":7599:7617  from != address(0) */\n      0xffffffffffffffffffffffffffffffffffffffff\n      and\n        /* \"@openzeppelin/contracts/token/ERC20/ERC20.sol\":7599:7603  from */\n      dup4\n        /* \"@openzeppelin/contracts/token/ERC20/ERC20.sol\":7599:7617  from != address(0) */\n      0xffffffffffffffffffffffffffffffffffffffff\n      and\n      sub\n        /* \"@openzeppelin/contracts/token/ERC20/ERC20.sol\":7591:7659  require(from != address(0), \"ERC20: transfer from the zero address\") */\n      tag_256\n      jumpi\n      mload(0x40)\n      0x08c379a000000000000000000000000000000000000000000000000000000000\n      dup2\n      mstore\n      0x04\n      add\n      tag_257\n      swap1\n      tag_258\n      jump\t// in\n    tag_257:\n      mload(0x40)\n      dup1\n      swap2\n      sub\n      swap1\n      revert\n    tag_256:\n        /* \"@openzeppelin/contracts/token/ERC20/ERC20.sol\":7691:7692  0 */\n      0x00\n        /* \"@openzeppelin/contracts/token/ERC20/ERC20.sol\":7677:7693  to != address(0) */\n      0xffffffffffffffffffffffffffffffffffffffff\n      and\n        /* \"@openzeppelin/contracts/token/ERC20/ERC20.sol\":7677:7679  to */\n      dup3\n        /* \"@openzeppelin/contracts/token/ERC20/ERC20.sol\":7677:7693  to != address(0) */\n      0xffffffffffffffffffffffffffffffffffffffff\n      and\n      sub\n        /* \"@openzeppelin/contracts/token/ERC20/ERC20.sol\":7669:7733  require(to != address(0), \"ERC20: transfer to the zero address\") */\n      tag_259\n      jumpi\n      mload(0x40)\n      0x08c379a000000000000000000000000000000000000000000000000000000000\n      dup2\n      mstore\n      0x04\n      add\n      tag_260\n      swap1\n      tag_261\n      jump\t// in\n    tag_260:\n      mload(0x40)\n      dup1\n      swap2\n      sub\n      swap1\n      revert\n    tag_259:\n        /* \"@openzeppelin/contracts/token/ERC20/ERC20.sol\":7744:7782  _beforeTokenTransfer(from, to, amount) */\n      tag_262\n        /* \"@openzeppelin/contracts/token/ERC20/ERC20.sol\":7765:7769  from */\n      dup4\n        /* \"@openzeppelin/contracts/token/ERC20/ERC20.sol\":7771:7773  to */\n      dup4\n        /* \"@openzeppelin/contracts/token/ERC20/ERC20.sol\":7775:7781  amount */\n      dup4\n        /* \"@openzeppelin/contracts/token/ERC20/ERC20.sol\":7744:7764  _beforeTokenTransfer */\n      tag_263\n        /* \"@openzeppelin/contracts/token/ERC20/ERC20.sol\":7744:7782  _beforeTokenTransfer(from, to, amount) */\n      jump\t// in\n    tag_262:\n        /* \"@openzeppelin/contracts/token/ERC20/ERC20.sol\":7793:7812  uint256 fromBalance */\n      0x00\n        /* \"@openzeppelin/contracts/token/ERC20/ERC20.sol\":7815:7824  _balances */\n      dup1\n        /* \"@openzeppelin/contracts/token/ERC20/ERC20.sol\":7815:7830  _balances[from] */\n      0x00\n        /* \"@openzeppelin/contracts/token/ERC20/ERC20.sol\":7825:7829  from */\n      dup6\n        /* \"@openzeppelin/contracts/token/ERC20/ERC20.sol\":7815:7830  _balances[from] */\n      0xffffffffffffffffffffffffffffffffffffffff\n      and\n      0xffffffffffffffffffffffffffffffffffffffff\n      and\n      dup2\n      mstore\n      0x20\n      add\n      swap1\n      dup2\n      mstore\n      0x20\n      add\n      0x00\n      keccak256\n      sload\n        /* \"@openzeppelin/contracts/token/ERC20/ERC20.sol\":7793:7830  uint256 fromBalance = _balances[from] */\n      swap1\n      pop\n        /* \"@openzeppelin/contracts/token/ERC20/ERC20.sol\":7863:7869  amount */\n      dup2\n        /* \"@openzeppelin/contracts/token/ERC20/ERC20.sol\":7848:7859  fromBalance */\n      dup2\n        /* \"@openzeppelin/contracts/token/ERC20/ERC20.sol\":7848:7869  fromBalance >= amount */\n      lt\n      iszero\n        /* \"@openzeppelin/contracts/token/ERC20/ERC20.sol\":7840:7912  require(fromBalance >= amount, \"ERC20: transfer amount exceeds balance\") */\n      tag_264\n      jumpi\n      mload(0x40)\n      0x08c379a000000000000000000000000000000000000000000000000000000000\n      dup2\n      mstore\n      0x04\n      add\n      tag_265\n      swap1\n      tag_266\n      jump\t// in\n    tag_265:\n      mload(0x40)\n      dup1\n      swap2\n      sub\n      swap1\n      revert\n    tag_264:\n        /* \"@openzeppelin/contracts/token/ERC20/ERC20.sol\":7978:7984  amount */\n      dup2\n        /* \"@openzeppelin/contracts/token/ERC20/ERC20.sol\":7964:7975  fromBalance */\n      dup2\n        /* \"@openzeppelin/contracts/token/ERC20/ERC20.sol\":7964:7984  fromBalance - amount */\n      sub\n        /* \"@openzeppelin/contracts/token/ERC20/ERC20.sol\":7946:7955  _balances */\n      0x00\n        /* \"@openzeppelin/contracts/token/ERC20/ERC20.sol\":7946:7961  _balances[from] */\n      dup1\n        /* \"@openzeppelin/contracts/token/ERC20/ERC20.sol\":7956:7960  from */\n      dup7\n        /* \"@openzeppelin/contracts/token/ERC20/ERC20.sol\":7946:7961  _balances[from] */\n      0xffffffffffffffffffffffffffffffffffffffff\n      and\n      0xffffffffffffffffffffffffffffffffffffffff\n      and\n      dup2\n      mstore\n      0x20\n      add\n      swap1\n      dup2\n      mstore\n      0x20\n      add\n      0x00\n      keccak256\n        /* \"@openzeppelin/contracts/token/ERC20/ERC20.sol\":7946:7984  _balances[from] = fromBalance - amount */\n      dup2\n      swap1\n      sstore\n      pop\n        /* \"@openzeppelin/contracts/token/ERC20/ERC20.sol\":8178:8184  amount */\n      dup2\n        /* \"@openzeppelin/contracts/token/ERC20/ERC20.sol\":8161:8170  _balances */\n      0x00\n        /* \"@openzeppelin/contracts/token/ERC20/ERC20.sol\":8161:8174  _balances[to] */\n      dup1\n        /* \"@openzeppelin/contracts/token/ERC20/ERC20.sol\":8171:8173  to */\n      dup6\n        /* \"@openzeppelin/contracts/token/ERC20/ERC20.sol\":8161:8174  _balances[to] */\n      0xffffffffffffffffffffffffffffffffffffffff\n      and\n      0xffffffffffffffffffffffffffffffffffffffff\n      and\n      dup2\n      mstore\n      0x20\n      add\n      swap1\n      dup2\n      mstore\n      0x20\n      add\n      0x00\n      keccak256\n      0x00\n        /* \"@openzeppelin/contracts/token/ERC20/ERC20.sol\":8161:8184  _balances[to] += amount */\n      dup3\n      dup3\n      sload\n      add\n      swap3\n      pop\n      pop\n      dup2\n      swap1\n      sstore\n      pop\n        /* \"@openzeppelin/contracts/token/ERC20/ERC20.sol\":8225:8227  to */\n      dup3\n        /* \"@openzeppelin/contracts/token/ERC20/ERC20.sol\":8210:8236  Transfer(from, to, amount) */\n      0xffffffffffffffffffffffffffffffffffffffff\n      and\n        /* \"@openzeppelin/contracts/token/ERC20/ERC20.sol\":8219:8223  from */\n      dup5\n        /* \"@openzeppelin/contracts/token/ERC20/ERC20.sol\":8210:8236  Transfer(from, to, amount) */\n      0xffffffffffffffffffffffffffffffffffffffff\n      and\n      0xddf252ad1be2c89b69c2b068fc378daa952ba7f163c4a11628f55a4df523b3ef\n        /* \"@openzeppelin/contracts/token/ERC20/ERC20.sol\":8229:8235  amount */\n      dup5\n        /* \"@openzeppelin/contracts/token/ERC20/ERC20.sol\":8210:8236  Transfer(from, to, amount) */\n      mload(0x40)\n      tag_267\n      swap2\n      swap1\n      tag_40\n      jump\t// in\n    tag_267:\n      mload(0x40)\n      dup1\n      swap2\n      sub\n      swap1\n      log3\n        /* \"@openzeppelin/contracts/token/ERC20/ERC20.sol\":8247:8284  _afterTokenTransfer(from, to, amount) */\n      tag_268\n        /* \"@openzeppelin/contracts/token/ERC20/ERC20.sol\":8267:8271  from */\n      dup5\n        /* \"@openzeppelin/contracts/token/ERC20/ERC20.sol\":8273:8275  to */\n      dup5\n        /* \"@openzeppelin/contracts/token/ERC20/ERC20.sol\":8277:8283  amount */\n      dup5\n        /* \"@openzeppelin/contracts/token/ERC20/ERC20.sol\":8247:8266  _afterTokenTransfer */\n      tag_269\n        /* \"@openzeppelin/contracts/token/ERC20/ERC20.sol\":8247:8284  _afterTokenTransfer(from, to, amount) */\n      jump\t// in\n    tag_268:\n        /* \"@openzeppelin/contracts/token/ERC20/ERC20.sol\":7581:8291  {... */\n      pop\n        /* \"@openzeppelin/contracts/token/ERC20/ERC20.sol\":7473:8291  function _transfer(... */\n      pop\n      pop\n      pop\n      jump\t// out\n        /* \"@openzeppelin/contracts/token/ERC20/ERC20.sol\":9422:10081  function _burn(address account, uint256 amount) internal virtual {... */\n    tag_147:\n        /* \"@openzeppelin/contracts/token/ERC20/ERC20.sol\":9524:9525  0 */\n      0x00\n        /* \"@openzeppelin/contracts/token/ERC20/ERC20.sol\":9505:9526  account != address(0) */\n      0xffffffffffffffffffffffffffffffffffffffff\n      and\n        /* \"@openzeppelin/contracts/token/ERC20/ERC20.sol\":9505:9512  account */\n      dup3\n        /* \"@openzeppelin/contracts/token/ERC20/ERC20.sol\":9505:9526  account != address(0) */\n      0xffffffffffffffffffffffffffffffffffffffff\n      and\n      sub\n        /* \"@openzeppelin/contracts/token/ERC20/ERC20.sol\":9497:9564  require(account != address(0), \"ERC20: burn from the zero address\") */\n      tag_271\n      jumpi\n      mload(0x40)\n      0x08c379a000000000000000000000000000000000000000000000000000000000\n      dup2\n      mstore\n      0x04\n      add\n      tag_272\n      swap1\n      tag_273\n      jump\t// in\n    tag_272:\n      mload(0x40)\n      dup1\n      swap2\n      sub\n      swap1\n      revert\n    tag_271:\n        /* \"@openzeppelin/contracts/token/ERC20/ERC20.sol\":9575:9624  _beforeTokenTransfer(account, address(0), amount) */\n      tag_274\n        /* \"@openzeppelin/contracts/token/ERC20/ERC20.sol\":9596:9603  account */\n      dup3\n        /* \"@openzeppelin/contracts/token/ERC20/ERC20.sol\":9613:9614  0 */\n      0x00\n        /* \"@openzeppelin/contracts/token/ERC20/ERC20.sol\":9617:9623  amount */\n      dup4\n        /* \"@openzeppelin/contracts/token/ERC20/ERC20.sol\":9575:9595  _beforeTokenTransfer */\n      tag_263\n        /* \"@openzeppelin/contracts/token/ERC20/ERC20.sol\":9575:9624  _beforeTokenTransfer(account, address(0), amount) */\n      jump\t// in\n    tag_274:\n        /* \"@openzeppelin/contracts/token/ERC20/ERC20.sol\":9635:9657  uint256 accountBalance */\n      0x00\n        /* \"@openzeppelin/contracts/token/ERC20/ERC20.sol\":9660:9669  _balances */\n      dup1\n        /* \"@openzeppelin/contracts/token/ERC20/ERC20.sol\":9660:9678  _balances[account] */\n      0x00\n        /* \"@openzeppelin/contracts/token/ERC20/ERC20.sol\":9670:9677  account */\n      dup5\n        /* \"@openzeppelin/contracts/token/ERC20/ERC20.sol\":9660:9678  _balances[account] */\n      0xffffffffffffffffffffffffffffffffffffffff\n      and\n      0xffffffffffffffffffffffffffffffffffffffff\n      and\n      dup2\n      mstore\n      0x20\n      add\n      swap1\n      dup2\n      mstore\n      0x20\n      add\n      0x00\n      keccak256\n      sload\n        /* \"@openzeppelin/contracts/token/ERC20/ERC20.sol\":9635:9678  uint256 accountBalance = _balances[account] */\n      swap1\n      pop\n        /* \"@openzeppelin/contracts/token/ERC20/ERC20.sol\":9714:9720  amount */\n      dup2\n        /* \"@openzeppelin/contracts/token/ERC20/ERC20.sol\":9696:9710  accountBalance */\n      dup2\n        /* \"@openzeppelin/contracts/token/ERC20/ERC20.sol\":9696:9720  accountBalance >= amount */\n      lt\n      iszero\n        /* \"@openzeppelin/contracts/token/ERC20/ERC20.sol\":9688:9759  require(accountBalance >= amount, \"ERC20: burn amount exceeds balance\") */\n      tag_275\n      jumpi\n      mload(0x40)\n      0x08c379a000000000000000000000000000000000000000000000000000000000\n      dup2\n      mstore\n      0x04\n      add\n      tag_276\n      swap1\n      tag_277\n      jump\t// in\n    tag_276:\n      mload(0x40)\n      dup1\n      swap2\n      sub\n      swap1\n      revert\n    tag_275:\n        /* \"@openzeppelin/contracts/token/ERC20/ERC20.sol\":9831:9837  amount */\n      dup2\n        /* \"@openzeppelin/contracts/token/ERC20/ERC20.sol\":9814:9828  accountBalance */\n      dup2\n        /* \"@openzeppelin/contracts/token/ERC20/ERC20.sol\":9814:9837  accountBalance - amount */\n      sub\n        /* \"@openzeppelin/contracts/token/ERC20/ERC20.sol\":9793:9802  _balances */\n      0x00\n        /* \"@openzeppelin/contracts/token/ERC20/ERC20.sol\":9793:9811  _balances[account] */\n      dup1\n        /* \"@openzeppelin/contracts/token/ERC20/ERC20.sol\":9803:9810  account */\n      dup6\n        /* \"@openzeppelin/contracts/token/ERC20/ERC20.sol\":9793:9811  _balances[account] */\n      0xffffffffffffffffffffffffffffffffffffffff\n      and\n      0xffffffffffffffffffffffffffffffffffffffff\n      and\n      dup2\n      mstore\n      0x20\n      add\n      swap1\n      dup2\n      mstore\n      0x20\n      add\n      0x00\n      keccak256\n        /* \"@openzeppelin/contracts/token/ERC20/ERC20.sol\":9793:9837  _balances[account] = accountBalance - amount */\n      dup2\n      swap1\n      sstore\n      pop\n        /* \"@openzeppelin/contracts/token/ERC20/ERC20.sol\":9946:9952  amount */\n      dup2\n        /* \"@openzeppelin/contracts/token/ERC20/ERC20.sol\":9930:9942  _totalSupply */\n      0x02\n      0x00\n        /* \"@openzeppelin/contracts/token/ERC20/ERC20.sol\":9930:9952  _totalSupply -= amount */\n      dup3\n      dup3\n      sload\n      sub\n      swap3\n      pop\n      pop\n      dup2\n      swap1\n      sstore\n      pop\n        /* \"@openzeppelin/contracts/token/ERC20/ERC20.sol\":10004:10005  0 */\n      0x00\n        /* \"@openzeppelin/contracts/token/ERC20/ERC20.sol\":9978:10015  Transfer(account, address(0), amount) */\n      0xffffffffffffffffffffffffffffffffffffffff\n      and\n        /* \"@openzeppelin/contracts/token/ERC20/ERC20.sol\":9987:9994  account */\n      dup4\n        /* \"@openzeppelin/contracts/token/ERC20/ERC20.sol\":9978:10015  Transfer(account, address(0), amount) */\n      0xffffffffffffffffffffffffffffffffffffffff\n      and\n      0xddf252ad1be2c89b69c2b068fc378daa952ba7f163c4a11628f55a4df523b3ef\n        /* \"@openzeppelin/contracts/token/ERC20/ERC20.sol\":10008:10014  amount */\n      dup5\n        /* \"@openzeppelin/contracts/token/ERC20/ERC20.sol\":9978:10015  Transfer(account, address(0), amount) */\n      mload(0x40)\n      tag_278\n      swap2\n      swap1\n      tag_40\n      jump\t// in\n    tag_278:\n      mload(0x40)\n      dup1\n      swap2\n      sub\n      swap1\n      log3\n        /* \"@openzeppelin/contracts/token/ERC20/ERC20.sol\":10026:10074  _afterTokenTransfer(account, address(0), amount) */\n      tag_279\n        /* \"@openzeppelin/contracts/token/ERC20/ERC20.sol\":10046:10053  account */\n      dup4\n        /* \"@openzeppelin/contracts/token/ERC20/ERC20.sol\":10063:10064  0 */\n      0x00\n        /* \"@openzeppelin/contracts/token/ERC20/ERC20.sol\":10067:10073  amount */\n      dup5\n        /* \"@openzeppelin/contracts/token/ERC20/ERC20.sol\":10026:10045  _afterTokenTransfer */\n      tag_269\n        /* \"@openzeppelin/contracts/token/ERC20/ERC20.sol\":10026:10074  _afterTokenTransfer(account, address(0), amount) */\n      jump\t// in\n    tag_279:\n        /* \"@openzeppelin/contracts/token/ERC20/ERC20.sol\":9487:10081  {... */\n      pop\n        /* \"@openzeppelin/contracts/token/ERC20/ERC20.sol\":9422:10081  function _burn(address account, uint256 amount) internal virtual {... */\n      pop\n      pop\n      jump\t// out\n        /* \"@openzeppelin/contracts/token/ERC20/ERC20.sol\":8567:9102  function _mint(address account, uint256 amount) internal virtual {... */\n    tag_238:\n        /* \"@openzeppelin/contracts/token/ERC20/ERC20.sol\":8669:8670  0 */\n      0x00\n        /* \"@openzeppelin/contracts/token/ERC20/ERC20.sol\":8650:8671  account != address(0) */\n      0xffffffffffffffffffffffffffffffffffffffff\n      and\n        /* \"@openzeppelin/contracts/token/ERC20/ERC20.sol\":8650:8657  account */\n      dup3\n        /* \"@openzeppelin/contracts/token/ERC20/ERC20.sol\":8650:8671  account != address(0) */\n      0xffffffffffffffffffffffffffffffffffffffff\n      and\n      sub\n        /* \"@openzeppelin/contracts/token/ERC20/ERC20.sol\":8642:8707  require(account != address(0), \"ERC20: mint to the zero address\") */\n      tag_281\n      jumpi\n      mload(0x40)\n      0x08c379a000000000000000000000000000000000000000000000000000000000\n      dup2\n      mstore\n      0x04\n      add\n      tag_282\n      swap1\n      tag_283\n      jump\t// in\n    tag_282:\n      mload(0x40)\n      dup1\n      swap2\n      sub\n      swap1\n      revert\n    tag_281:\n        /* \"@openzeppelin/contracts/token/ERC20/ERC20.sol\":8718:8767  _beforeTokenTransfer(address(0), account, amount) */\n      tag_284\n        /* \"@openzeppelin/contracts/token/ERC20/ERC20.sol\":8747:8748  0 */\n      0x00\n        /* \"@openzeppelin/contracts/token/ERC20/ERC20.sol\":8751:8758  account */\n      dup4\n        /* \"@openzeppelin/contracts/token/ERC20/ERC20.sol\":8760:8766  amount */\n      dup4\n        /* \"@openzeppelin/contracts/token/ERC20/ERC20.sol\":8718:8738  _beforeTokenTransfer */\n      tag_263\n        /* \"@openzeppelin/contracts/token/ERC20/ERC20.sol\":8718:8767  _beforeTokenTransfer(address(0), account, amount) */\n      jump\t// in\n    tag_284:\n        /* \"@openzeppelin/contracts/token/ERC20/ERC20.sol\":8794:8800  amount */\n      dup1\n        /* \"@openzeppelin/contracts/token/ERC20/ERC20.sol\":8778:8790  _totalSupply */\n      0x02\n      0x00\n        /* \"@openzeppelin/contracts/token/ERC20/ERC20.sol\":8778:8800  _totalSupply += amount */\n      dup3\n      dup3\n      sload\n      tag_285\n      swap2\n      swap1\n      tag_133\n      jump\t// in\n    tag_285:\n      swap3\n      pop\n      pop\n      dup2\n      swap1\n      sstore\n      pop\n        /* \"@openzeppelin/contracts/token/ERC20/ERC20.sol\":8968:8974  amount */\n      dup1\n        /* \"@openzeppelin/contracts/token/ERC20/ERC20.sol\":8946:8955  _balances */\n      0x00\n        /* \"@openzeppelin/contracts/token/ERC20/ERC20.sol\":8946:8964  _balances[account] */\n      dup1\n        /* \"@openzeppelin/contracts/token/ERC20/ERC20.sol\":8956:8963  account */\n      dup5\n        /* \"@openzeppelin/contracts/token/ERC20/ERC20.sol\":8946:8964  _balances[account] */\n      0xffffffffffffffffffffffffffffffffffffffff\n      and\n      0xffffffffffffffffffffffffffffffffffffffff\n      and\n      dup2\n      mstore\n      0x20\n      add\n      swap1\n      dup2\n      mstore\n      0x20\n      add\n      0x00\n      keccak256\n      0x00\n        /* \"@openzeppelin/contracts/token/ERC20/ERC20.sol\":8946:8974  _balances[account] += amount */\n      dup3\n      dup3\n      sload\n      add\n      swap3\n      pop\n      pop\n      dup2\n      swap1\n      sstore\n      pop\n        /* \"@openzeppelin/contracts/token/ERC20/ERC20.sol\":9020:9027  account */\n      dup2\n        /* \"@openzeppelin/contracts/token/ERC20/ERC20.sol\":8999:9036  Transfer(address(0), account, amount) */\n      0xffffffffffffffffffffffffffffffffffffffff\n      and\n        /* \"@openzeppelin/contracts/token/ERC20/ERC20.sol\":9016:9017  0 */\n      0x00\n        /* \"@openzeppelin/contracts/token/ERC20/ERC20.sol\":8999:9036  Transfer(address(0), account, amount) */\n      0xffffffffffffffffffffffffffffffffffffffff\n      and\n      0xddf252ad1be2c89b69c2b068fc378daa952ba7f163c4a11628f55a4df523b3ef\n        /* \"@openzeppelin/contracts/token/ERC20/ERC20.sol\":9029:9035  amount */\n      dup4\n        /* \"@openzeppelin/contracts/token/ERC20/ERC20.sol\":8999:9036  Transfer(address(0), account, amount) */\n      mload(0x40)\n      tag_286\n      swap2\n      swap1\n      tag_40\n      jump\t// in\n    tag_286:\n      mload(0x40)\n      dup1\n      swap2\n      sub\n      swap1\n      log3\n        /* \"@openzeppelin/contracts/token/ERC20/ERC20.sol\":9047:9095  _afterTokenTransfer(address(0), account, amount) */\n      tag_287\n        /* \"@openzeppelin/contracts/token/ERC20/ERC20.sol\":9075:9076  0 */\n      0x00\n        /* \"@openzeppelin/contracts/token/ERC20/ERC20.sol\":9079:9086  account */\n      dup4\n        /* \"@openzeppelin/contracts/token/ERC20/ERC20.sol\":9088:9094  amount */\n      dup4\n        /* \"@openzeppelin/contracts/token/ERC20/ERC20.sol\":9047:9066  _afterTokenTransfer */\n      tag_269\n        /* \"@openzeppelin/contracts/token/ERC20/ERC20.sol\":9047:9095  _afterTokenTransfer(address(0), account, amount) */\n      jump\t// in\n    tag_287:\n        /* \"@openzeppelin/contracts/token/ERC20/ERC20.sol\":8567:9102  function _mint(address account, uint256 amount) internal virtual {... */\n      pop\n      pop\n      jump\t// out\n        /* \"@openzeppelin/contracts/token/ERC20/ERC20.sol\":12180:12301  function _beforeTokenTransfer(... */\n    tag_263:\n      pop\n      pop\n      pop\n      jump\t// out\n        /* \"@openzeppelin/contracts/token/ERC20/ERC20.sol\":12889:13009  function _afterTokenTransfer(... */\n    tag_269:\n      pop\n      pop\n      pop\n      jump\t// out\n        /* \"#utility.yul\":7:106   */\n    tag_290:\n        /* \"#utility.yul\":59:65   */\n      0x00\n        /* \"#utility.yul\":93:98   */\n      dup2\n        /* \"#utility.yul\":87:99   */\n      mload\n        /* \"#utility.yul\":77:99   */\n      swap1\n      pop\n        /* \"#utility.yul\":7:106   */\n      swap2\n      swap1\n      pop\n      jump\t// out\n        /* \"#utility.yul\":112:281   */\n    tag_291:\n        /* \"#utility.yul\":196:207   */\n      0x00\n        /* \"#utility.yul\":230:236   */\n      dup3\n        /* \"#utility.yul\":225:228   */\n      dup3\n        /* \"#utility.yul\":218:237   */\n      mstore\n        /* \"#utility.yul\":270:274   */\n      0x20\n        /* \"#utility.yul\":265:268   */\n      dup3\n        /* \"#utility.yul\":261:275   */\n      add\n        /* \"#utility.yul\":246:275   */\n      swap1\n      pop\n        /* \"#utility.yul\":112:281   */\n      swap3\n      swap2\n      pop\n      pop\n      jump\t// out\n        /* \"#utility.yul\":287:533   */\n    tag_292:\n        /* \"#utility.yul\":368:369   */\n      0x00\n        /* \"#utility.yul\":378:491   */\n    tag_377:\n        /* \"#utility.yul\":392:398   */\n      dup4\n        /* \"#utility.yul\":389:390   */\n      dup2\n        /* \"#utility.yul\":386:399   */\n      lt\n        /* \"#utility.yul\":378:491   */\n      iszero\n      tag_379\n      jumpi\n        /* \"#utility.yul\":477:478   */\n      dup1\n        /* \"#utility.yul\":472:475   */\n      dup3\n        /* \"#utility.yul\":468:479   */\n      add\n        /* \"#utility.yul\":462:480   */\n      mload\n        /* \"#utility.yul\":458:459   */\n      dup2\n        /* \"#utility.yul\":453:456   */\n      dup5\n        /* \"#utility.yul\":449:460   */\n      add\n        /* \"#utility.yul\":442:481   */\n      mstore\n        /* \"#utility.yul\":414:416   */\n      0x20\n        /* \"#utility.yul\":411:412   */\n      dup2\n        /* \"#utility.yul\":407:417   */\n      add\n        /* \"#utility.yul\":402:417   */\n      swap1\n      pop\n        /* \"#utility.yul\":378:491   */\n      jump(tag_377)\n    tag_379:\n        /* \"#utility.yul\":525:526   */\n      0x00\n        /* \"#utility.yul\":516:522   */\n      dup5\n        /* \"#utility.yul\":511:514   */\n      dup5\n        /* \"#utility.yul\":507:523   */\n      add\n        /* \"#utility.yul\":500:527   */\n      mstore\n        /* \"#utility.yul\":349:533   */\n      pop\n        /* \"#utility.yul\":287:533   */\n      pop\n      pop\n      pop\n      jump\t// out\n        /* \"#utility.yul\":539:641   */\n    tag_293:\n        /* \"#utility.yul\":580:586   */\n      0x00\n        /* \"#utility.yul\":631:633   */\n      0x1f\n        /* \"#utility.yul\":627:634   */\n      not\n        /* \"#utility.yul\":622:624   */\n      0x1f\n        /* \"#utility.yul\":615:620   */\n      dup4\n        /* \"#utility.yul\":611:625   */\n      add\n        /* \"#utility.yul\":607:635   */\n      and\n        /* \"#utility.yul\":597:635   */\n      swap1\n      pop\n        /* \"#utility.yul\":539:641   */\n      swap2\n      swap1\n      pop\n      jump\t// out\n        /* \"#utility.yul\":647:1024   */\n    tag_294:\n        /* \"#utility.yul\":735:738   */\n      0x00\n        /* \"#utility.yul\":763:802   */\n      tag_382\n        /* \"#utility.yul\":796:801   */\n      dup3\n        /* \"#utility.yul\":763:802   */\n      tag_290\n      jump\t// in\n    tag_382:\n        /* \"#utility.yul\":818:889   */\n      tag_383\n        /* \"#utility.yul\":882:888   */\n      dup2\n        /* \"#utility.yul\":877:880   */\n      dup6\n        /* \"#utility.yul\":818:889   */\n      tag_291\n      jump\t// in\n    tag_383:\n        /* \"#utility.yul\":811:889   */\n      swap4\n      pop\n        /* \"#utility.yul\":898:963   */\n      tag_384\n        /* \"#utility.yul\":956:962   */\n      dup2\n        /* \"#utility.yul\":951:954   */\n      dup6\n        /* \"#utility.yul\":944:948   */\n      0x20\n        /* \"#utility.yul\":937:942   */\n      dup7\n        /* \"#utility.yul\":933:949   */\n      add\n        /* \"#utility.yul\":898:963   */\n      tag_292\n      jump\t// in\n    tag_384:\n        /* \"#utility.yul\":988:1017   */\n      tag_385\n        /* \"#utility.yul\":1010:1016   */\n      dup2\n        /* \"#utility.yul\":988:1017   */\n      tag_293\n      jump\t// in\n    tag_385:\n        /* \"#utility.yul\":983:986   */\n      dup5\n        /* \"#utility.yul\":979:1018   */\n      add\n        /* \"#utility.yul\":972:1018   */\n      swap2\n      pop\n        /* \"#utility.yul\":739:1024   */\n      pop\n        /* \"#utility.yul\":647:1024   */\n      swap3\n      swap2\n      pop\n      pop\n      jump\t// out\n        /* \"#utility.yul\":1030:1343   */\n    tag_30:\n        /* \"#utility.yul\":1143:1147   */\n      0x00\n        /* \"#utility.yul\":1181:1183   */\n      0x20\n        /* \"#utility.yul\":1170:1179   */\n      dup3\n        /* \"#utility.yul\":1166:1184   */\n      add\n        /* \"#utility.yul\":1158:1184   */\n      swap1\n      pop\n        /* \"#utility.yul\":1230:1239   */\n      dup2\n        /* \"#utility.yul\":1224:1228   */\n      dup2\n        /* \"#utility.yul\":1220:1240   */\n      sub\n        /* \"#utility.yul\":1216:1217   */\n      0x00\n        /* \"#utility.yul\":1205:1214   */\n      dup4\n        /* \"#utility.yul\":1201:1218   */\n      add\n        /* \"#utility.yul\":1194:1241   */\n      mstore\n        /* \"#utility.yul\":1258:1336   */\n      tag_387\n        /* \"#utility.yul\":1331:1335   */\n      dup2\n        /* \"#utility.yul\":1322:1328   */\n      dup5\n        /* \"#utility.yul\":1258:1336   */\n      tag_294\n      jump\t// in\n    tag_387:\n        /* \"#utility.yul\":1250:1336   */\n      swap1\n      pop\n        /* \"#utility.yul\":1030:1343   */\n      swap3\n      swap2\n      pop\n      pop\n      jump\t// out\n        /* \"#utility.yul\":1430:1547   */\n    tag_296:\n        /* \"#utility.yul\":1539:1540   */\n      0x00\n        /* \"#utility.yul\":1536:1537   */\n      dup1\n        /* \"#utility.yul\":1529:1541   */\n      revert\n        /* \"#utility.yul\":1676:1802   */\n    tag_298:\n        /* \"#utility.yul\":1713:1720   */\n      0x00\n        /* \"#utility.yul\":1753:1795   */\n      0xffffffffffffffffffffffffffffffffffffffff\n        /* \"#utility.yul\":1746:1751   */\n      dup3\n        /* \"#utility.yul\":1742:1796   */\n      and\n        /* \"#utility.yul\":1731:1796   */\n      swap1\n      pop\n        /* \"#utility.yul\":1676:1802   */\n      swap2\n      swap1\n      pop\n      jump\t// out\n        /* \"#utility.yul\":1808:1904   */\n    tag_299:\n        /* \"#utility.yul\":1845:1852   */\n      0x00\n        /* \"#utility.yul\":1874:1898   */\n      tag_393\n        /* \"#utility.yul\":1892:1897   */\n      dup3\n        /* \"#utility.yul\":1874:1898   */\n      tag_298\n      jump\t// in\n    tag_393:\n        /* \"#utility.yul\":1863:1898   */\n      swap1\n      pop\n        /* \"#utility.yul\":1808:1904   */\n      swap2\n      swap1\n      pop\n      jump\t// out\n        /* \"#utility.yul\":1910:2032   */\n    tag_300:\n        /* \"#utility.yul\":1983:2007   */\n      tag_395\n        /* \"#utility.yul\":2001:2006   */\n      dup2\n        /* \"#utility.yul\":1983:2007   */\n      tag_299\n      jump\t// in\n    tag_395:\n        /* \"#utility.yul\":1976:1981   */\n      dup2\n        /* \"#utility.yul\":1973:2008   */\n      eq\n        /* \"#utility.yul\":1963:2026   */\n      tag_396\n      jumpi\n        /* \"#utility.yul\":2022:2023   */\n      0x00\n        /* \"#utility.yul\":2019:2020   */\n      dup1\n        /* \"#utility.yul\":2012:2024   */\n      revert\n        /* \"#utility.yul\":1963:2026   */\n    tag_396:\n        /* \"#utility.yul\":1910:2032   */\n      pop\n      jump\t// out\n        /* \"#utility.yul\":2038:2177   */\n    tag_301:\n        /* \"#utility.yul\":2084:2089   */\n      0x00\n        /* \"#utility.yul\":2122:2128   */\n      dup2\n        /* \"#utility.yul\":2109:2129   */\n      calldataload\n        /* \"#utility.yul\":2100:2129   */\n      swap1\n      pop\n        /* \"#utility.yul\":2138:2171   */\n      tag_398\n        /* \"#utility.yul\":2165:2170   */\n      dup2\n        /* \"#utility.yul\":2138:2171   */\n      tag_300\n      jump\t// in\n    tag_398:\n        /* \"#utility.yul\":2038:2177   */\n      swap3\n      swap2\n      pop\n      pop\n      jump\t// out\n        /* \"#utility.yul\":2183:2260   */\n    tag_302:\n        /* \"#utility.yul\":2220:2227   */\n      0x00\n        /* \"#utility.yul\":2249:2254   */\n      dup2\n        /* \"#utility.yul\":2238:2254   */\n      swap1\n      pop\n        /* \"#utility.yul\":2183:2260   */\n      swap2\n      swap1\n      pop\n      jump\t// out\n        /* \"#utility.yul\":2266:2388   */\n    tag_303:\n        /* \"#utility.yul\":2339:2363   */\n      tag_401\n        /* \"#utility.yul\":2357:2362   */\n      dup2\n        /* \"#utility.yul\":2339:2363   */\n      tag_302\n      jump\t// in\n    tag_401:\n        /* \"#utility.yul\":2332:2337   */\n      dup2\n        /* \"#utility.yul\":2329:2364   */\n      eq\n        /* \"#utility.yul\":2319:2382   */\n      tag_402\n      jumpi\n        /* \"#utility.yul\":2378:2379   */\n      0x00\n        /* \"#utility.yul\":2375:2376   */\n      dup1\n        /* \"#utility.yul\":2368:2380   */\n      revert\n        /* \"#utility.yul\":2319:2382   */\n    tag_402:\n        /* \"#utility.yul\":2266:2388   */\n      pop\n      jump\t// out\n        /* \"#utility.yul\":2394:2533   */\n    tag_304:\n        /* \"#utility.yul\":2440:2445   */\n      0x00\n        /* \"#utility.yul\":2478:2484   */\n      dup2\n        /* \"#utility.yul\":2465:2485   */\n      calldataload\n        /* \"#utility.yul\":2456:2485   */\n      swap1\n      pop\n        /* \"#utility.yul\":2494:2527   */\n      tag_404\n        /* \"#utility.yul\":2521:2526   */\n      dup2\n        /* \"#utility.yul\":2494:2527   */\n      tag_303\n      jump\t// in\n    tag_404:\n        /* \"#utility.yul\":2394:2533   */\n      swap3\n      swap2\n      pop\n      pop\n      jump\t// out\n        /* \"#utility.yul\":2539:3013   */\n    tag_33:\n        /* \"#utility.yul\":2607:2613   */\n      0x00\n        /* \"#utility.yul\":2615:2621   */\n      dup1\n        /* \"#utility.yul\":2664:2666   */\n      0x40\n        /* \"#utility.yul\":2652:2661   */\n      dup4\n        /* \"#utility.yul\":2643:2650   */\n      dup6\n        /* \"#utility.yul\":2639:2662   */\n      sub\n        /* \"#utility.yul\":2635:2667   */\n      slt\n        /* \"#utility.yul\":2632:2751   */\n      iszero\n      tag_406\n      jumpi\n        /* \"#utility.yul\":2670:2749   */\n      tag_407\n      tag_296\n      jump\t// in\n    tag_407:\n        /* \"#utility.yul\":2632:2751   */\n    tag_406:\n        /* \"#utility.yul\":2790:2791   */\n      0x00\n        /* \"#utility.yul\":2815:2868   */\n      tag_408\n        /* \"#utility.yul\":2860:2867   */\n      dup6\n        /* \"#utility.yul\":2851:2857   */\n      dup3\n        /* \"#utility.yul\":2840:2849   */\n      dup7\n        /* \"#utility.yul\":2836:2858   */\n      add\n        /* \"#utility.yul\":2815:2868   */\n      tag_301\n      jump\t// in\n    tag_408:\n        /* \"#utility.yul\":2805:2868   */\n      swap3\n      pop\n        /* \"#utility.yul\":2761:2878   */\n      pop\n        /* \"#utility.yul\":2917:2919   */\n      0x20\n        /* \"#utility.yul\":2943:2996   */\n      tag_409\n        /* \"#utility.yul\":2988:2995   */\n      dup6\n        /* \"#utility.yul\":2979:2985   */\n      dup3\n        /* \"#utility.yul\":2968:2977   */\n      dup7\n        /* \"#utility.yul\":2964:2986   */\n      add\n        /* \"#utility.yul\":2943:2996   */\n      tag_304\n      jump\t// in\n    tag_409:\n        /* \"#utility.yul\":2933:2996   */\n      swap2\n      pop\n        /* \"#utility.yul\":2888:3006   */\n      pop\n        /* \"#utility.yul\":2539:3013   */\n      swap3\n      pop\n      swap3\n      swap1\n      pop\n      jump\t// out\n        /* \"#utility.yul\":3019:3109   */\n    tag_305:\n        /* \"#utility.yul\":3053:3060   */\n      0x00\n        /* \"#utility.yul\":3096:3101   */\n      dup2\n        /* \"#utility.yul\":3089:3102   */\n      iszero\n        /* \"#utility.yul\":3082:3103   */\n      iszero\n        /* \"#utility.yul\":3071:3103   */\n      swap1\n      pop\n        /* \"#utility.yul\":3019:3109   */\n      swap2\n      swap1\n      pop\n      jump\t// out\n        /* \"#utility.yul\":3115:3224   */\n    tag_306:\n        /* \"#utility.yul\":3196:3217   */\n      tag_412\n        /* \"#utility.yul\":3211:3216   */\n      dup2\n        /* \"#utility.yul\":3196:3217   */\n      tag_305\n      jump\t// in\n    tag_412:\n        /* \"#utility.yul\":3191:3194   */\n      dup3\n        /* \"#utility.yul\":3184:3218   */\n      mstore\n        /* \"#utility.yul\":3115:3224   */\n      pop\n      pop\n      jump\t// out\n        /* \"#utility.yul\":3230:3440   */\n    tag_36:\n        /* \"#utility.yul\":3317:3321   */\n      0x00\n        /* \"#utility.yul\":3355:3357   */\n      0x20\n        /* \"#utility.yul\":3344:3353   */\n      dup3\n        /* \"#utility.yul\":3340:3358   */\n      add\n        /* \"#utility.yul\":3332:3358   */\n      swap1\n      pop\n        /* \"#utility.yul\":3368:3433   */\n      tag_414\n        /* \"#utility.yul\":3430:3431   */\n      0x00\n        /* \"#utility.yul\":3419:3428   */\n      dup4\n        /* \"#utility.yul\":3415:3432   */\n      add\n        /* \"#utility.yul\":3406:3412   */\n      dup5\n        /* \"#utility.yul\":3368:3433   */\n      tag_306\n      jump\t// in\n    tag_414:\n        /* \"#utility.yul\":3230:3440   */\n      swap3\n      swap2\n      pop\n      pop\n      jump\t// out\n        /* \"#utility.yul\":3446:3564   */\n    tag_307:\n        /* \"#utility.yul\":3533:3557   */\n      tag_416\n        /* \"#utility.yul\":3551:3556   */\n      dup2\n        /* \"#utility.yul\":3533:3557   */\n      tag_302\n      jump\t// in\n    tag_416:\n        /* \"#utility.yul\":3528:3531   */\n      dup3\n        /* \"#utility.yul\":3521:3558   */\n      mstore\n        /* \"#utility.yul\":3446:3564   */\n      pop\n      pop\n      jump\t// out\n        /* \"#utility.yul\":3570:3792   */\n    tag_40:\n        /* \"#utility.yul\":3663:3667   */\n      0x00\n        /* \"#utility.yul\":3701:3703   */\n      0x20\n        /* \"#utility.yul\":3690:3699   */\n      dup3\n        /* \"#utility.yul\":3686:3704   */\n      add\n        /* \"#utility.yul\":3678:3704   */\n      swap1\n      pop\n        /* \"#utility.yul\":3714:3785   */\n      tag_418\n        /* \"#utility.yul\":3782:3783   */\n      0x00\n        /* \"#utility.yul\":3771:3780   */\n      dup4\n        /* \"#utility.yul\":3767:3784   */\n      add\n        /* \"#utility.yul\":3758:3764   */\n      dup5\n        /* \"#utility.yul\":3714:3785   */\n      tag_307\n      jump\t// in\n    tag_418:\n        /* \"#utility.yul\":3570:3792   */\n      swap3\n      swap2\n      pop\n      pop\n      jump\t// out\n        /* \"#utility.yul\":3798:4417   */\n    tag_43:\n        /* \"#utility.yul\":3875:3881   */\n      0x00\n        /* \"#utility.yul\":3883:3889   */\n      dup1\n        /* \"#utility.yul\":3891:3897   */\n      0x00\n        /* \"#utility.yul\":3940:3942   */\n      0x60\n        /* \"#utility.yul\":3928:3937   */\n      dup5\n        /* \"#utility.yul\":3919:3926   */\n      dup7\n        /* \"#utility.yul\":3915:3938   */\n      sub\n        /* \"#utility.yul\":3911:3943   */\n      slt\n        /* \"#utility.yul\":3908:4027   */\n      iszero\n      tag_420\n      jumpi\n        /* \"#utility.yul\":3946:4025   */\n      tag_421\n      tag_296\n      jump\t// in\n    tag_421:\n        /* \"#utility.yul\":3908:4027   */\n    tag_420:\n        /* \"#utility.yul\":4066:4067   */\n      0x00\n        /* \"#utility.yul\":4091:4144   */\n      tag_422\n        /* \"#utility.yul\":4136:4143   */\n      dup7\n        /* \"#utility.yul\":4127:4133   */\n      dup3\n        /* \"#utility.yul\":4116:4125   */\n      dup8\n        /* \"#utility.yul\":4112:4134   */\n      add\n        /* \"#utility.yul\":4091:4144   */\n      tag_301\n      jump\t// in\n    tag_422:\n        /* \"#utility.yul\":4081:4144   */\n      swap4\n      pop\n        /* \"#utility.yul\":4037:4154   */\n      pop\n        /* \"#utility.yul\":4193:4195   */\n      0x20\n        /* \"#utility.yul\":4219:4272   */\n      tag_423\n        /* \"#utility.yul\":4264:4271   */\n      dup7\n        /* \"#utility.yul\":4255:4261   */\n      dup3\n        /* \"#utility.yul\":4244:4253   */\n      dup8\n        /* \"#utility.yul\":4240:4262   */\n      add\n        /* \"#utility.yul\":4219:4272   */\n      tag_301\n      jump\t// in\n    tag_423:\n        /* \"#utility.yul\":4209:4272   */\n      swap3\n      pop\n        /* \"#utility.yul\":4164:4282   */\n      pop\n        /* \"#utility.yul\":4321:4323   */\n      0x40\n        /* \"#utility.yul\":4347:4400   */\n      tag_424\n        /* \"#utility.yul\":4392:4399   */\n      dup7\n        /* \"#utility.yul\":4383:4389   */\n      dup3\n        /* \"#utility.yul\":4372:4381   */\n      dup8\n        /* \"#utility.yul\":4368:4390   */\n      add\n        /* \"#utility.yul\":4347:4400   */\n      tag_304\n      jump\t// in\n    tag_424:\n        /* \"#utility.yul\":4337:4400   */\n      swap2\n      pop\n        /* \"#utility.yul\":4292:4410   */\n      pop\n        /* \"#utility.yul\":3798:4417   */\n      swap3\n      pop\n      swap3\n      pop\n      swap3\n      jump\t// out\n        /* \"#utility.yul\":4423:4509   */\n    tag_308:\n        /* \"#utility.yul\":4458:4465   */\n      0x00\n        /* \"#utility.yul\":4498:4502   */\n      0xff\n        /* \"#utility.yul\":4491:4496   */\n      dup3\n        /* \"#utility.yul\":4487:4503   */\n      and\n        /* \"#utility.yul\":4476:4503   */\n      swap1\n      pop\n        /* \"#utility.yul\":4423:4509   */\n      swap2\n      swap1\n      pop\n      jump\t// out\n        /* \"#utility.yul\":4515:4627   */\n    tag_309:\n        /* \"#utility.yul\":4598:4620   */\n      tag_427\n        /* \"#utility.yul\":4614:4619   */\n      dup2\n        /* \"#utility.yul\":4598:4620   */\n      tag_308\n      jump\t// in\n    tag_427:\n        /* \"#utility.yul\":4593:4596   */\n      dup3\n        /* \"#utility.yul\":4586:4621   */\n      mstore\n        /* \"#utility.yul\":4515:4627   */\n      pop\n      pop\n      jump\t// out\n        /* \"#utility.yul\":4633:4847   */\n    tag_49:\n        /* \"#utility.yul\":4722:4726   */\n      0x00\n        /* \"#utility.yul\":4760:4762   */\n      0x20\n        /* \"#utility.yul\":4749:4758   */\n      dup3\n        /* \"#utility.yul\":4745:4763   */\n      add\n        /* \"#utility.yul\":4737:4763   */\n      swap1\n      pop\n        /* \"#utility.yul\":4773:4840   */\n      tag_429\n        /* \"#utility.yul\":4837:4838   */\n      0x00\n        /* \"#utility.yul\":4826:4835   */\n      dup4\n        /* \"#utility.yul\":4822:4839   */\n      add\n        /* \"#utility.yul\":4813:4819   */\n      dup5\n        /* \"#utility.yul\":4773:4840   */\n      tag_309\n      jump\t// in\n    tag_429:\n        /* \"#utility.yul\":4633:4847   */\n      swap3\n      swap2\n      pop\n      pop\n      jump\t// out\n        /* \"#utility.yul\":4853:5182   */\n    tag_62:\n        /* \"#utility.yul\":4912:4918   */\n      0x00\n        /* \"#utility.yul\":4961:4963   */\n      0x20\n        /* \"#utility.yul\":4949:4958   */\n      dup3\n        /* \"#utility.yul\":4940:4947   */\n      dup5\n        /* \"#utility.yul\":4936:4959   */\n      sub\n        /* \"#utility.yul\":4932:4964   */\n      slt\n        /* \"#utility.yul\":4929:5048   */\n      iszero\n      tag_431\n      jumpi\n        /* \"#utility.yul\":4967:5046   */\n      tag_432\n      tag_296\n      jump\t// in\n    tag_432:\n        /* \"#utility.yul\":4929:5048   */\n    tag_431:\n        /* \"#utility.yul\":5087:5088   */\n      0x00\n        /* \"#utility.yul\":5112:5165   */\n      tag_433\n        /* \"#utility.yul\":5157:5164   */\n      dup5\n        /* \"#utility.yul\":5148:5154   */\n      dup3\n        /* \"#utility.yul\":5137:5146   */\n      dup6\n        /* \"#utility.yul\":5133:5155   */\n      add\n        /* \"#utility.yul\":5112:5165   */\n      tag_304\n      jump\t// in\n    tag_433:\n        /* \"#utility.yul\":5102:5165   */\n      swap2\n      pop\n        /* \"#utility.yul\":5058:5175   */\n      pop\n        /* \"#utility.yul\":4853:5182   */\n      swap3\n      swap2\n      pop\n      pop\n      jump\t// out\n        /* \"#utility.yul\":5188:5517   */\n    tag_66:\n        /* \"#utility.yul\":5247:5253   */\n      0x00\n        /* \"#utility.yul\":5296:5298   */\n      0x20\n        /* \"#utility.yul\":5284:5293   */\n      dup3\n        /* \"#utility.yul\":5275:5282   */\n      dup5\n        /* \"#utility.yul\":5271:5294   */\n      sub\n        /* \"#utility.yul\":5267:5299   */\n      slt\n        /* \"#utility.yul\":5264:5383   */\n      iszero\n      tag_435\n      jumpi\n        /* \"#utility.yul\":5302:5381   */\n      tag_436\n      tag_296\n      jump\t// in\n    tag_436:\n        /* \"#utility.yul\":5264:5383   */\n    tag_435:\n        /* \"#utility.yul\":5422:5423   */\n      0x00\n        /* \"#utility.yul\":5447:5500   */\n      tag_437\n        /* \"#utility.yul\":5492:5499   */\n      dup5\n        /* \"#utility.yul\":5483:5489   */\n      dup3\n        /* \"#utility.yul\":5472:5481   */\n      dup6\n        /* \"#utility.yul\":5468:5490   */\n      add\n        /* \"#utility.yul\":5447:5500   */\n      tag_301\n      jump\t// in\n    tag_437:\n        /* \"#utility.yul\":5437:5500   */\n      swap2\n      pop\n        /* \"#utility.yul\":5393:5510   */\n      pop\n        /* \"#utility.yul\":5188:5517   */\n      swap3\n      swap2\n      pop\n      pop\n      jump\t// out\n        /* \"#utility.yul\":5523:5641   */\n    tag_310:\n        /* \"#utility.yul\":5610:5634   */\n      tag_439\n        /* \"#utility.yul\":5628:5633   */\n      dup2\n        /* \"#utility.yul\":5610:5634   */\n      tag_299\n      jump\t// in\n    tag_439:\n        /* \"#utility.yul\":5605:5608   */\n      dup3\n        /* \"#utility.yul\":5598:5635   */\n      mstore\n        /* \"#utility.yul\":5523:5641   */\n      pop\n      pop\n      jump\t// out\n        /* \"#utility.yul\":5647:5869   */\n    tag_75:\n        /* \"#utility.yul\":5740:5744   */\n      0x00\n        /* \"#utility.yul\":5778:5780   */\n      0x20\n        /* \"#utility.yul\":5767:5776   */\n      dup3\n        /* \"#utility.yul\":5763:5781   */\n      add\n        /* \"#utility.yul\":5755:5781   */\n      swap1\n      pop\n        /* \"#utility.yul\":5791:5862   */\n      tag_441\n        /* \"#utility.yul\":5859:5860   */\n      0x00\n        /* \"#utility.yul\":5848:5857   */\n      dup4\n        /* \"#utility.yul\":5844:5861   */\n      add\n        /* \"#utility.yul\":5835:5841   */\n      dup5\n        /* \"#utility.yul\":5791:5862   */\n      tag_310\n      jump\t// in\n    tag_441:\n        /* \"#utility.yul\":5647:5869   */\n      swap3\n      swap2\n      pop\n      pop\n      jump\t// out\n        /* \"#utility.yul\":5875:6349   */\n    tag_95:\n        /* \"#utility.yul\":5943:5949   */\n      0x00\n        /* \"#utility.yul\":5951:5957   */\n      dup1\n        /* \"#utility.yul\":6000:6002   */\n      0x40\n        /* \"#utility.yul\":5988:5997   */\n      dup4\n        /* \"#utility.yul\":5979:5986   */\n      dup6\n        /* \"#utility.yul\":5975:5998   */\n      sub\n        /* \"#utility.yul\":5971:6003   */\n      slt\n        /* \"#utility.yul\":5968:6087   */\n      iszero\n      tag_443\n      jumpi\n        /* \"#utility.yul\":6006:6085   */\n      tag_444\n      tag_296\n      jump\t// in\n    tag_444:\n        /* \"#utility.yul\":5968:6087   */\n    tag_443:\n        /* \"#utility.yul\":6126:6127   */\n      0x00\n        /* \"#utility.yul\":6151:6204   */\n      tag_445\n        /* \"#utility.yul\":6196:6203   */\n      dup6\n        /* \"#utility.yul\":6187:6193   */\n      dup3\n        /* \"#utility.yul\":6176:6185   */\n      dup7\n        /* \"#utility.yul\":6172:6194   */\n      add\n        /* \"#utility.yul\":6151:6204   */\n      tag_301\n      jump\t// in\n    tag_445:\n        /* \"#utility.yul\":6141:6204   */\n      swap3\n      pop\n        /* \"#utility.yul\":6097:6214   */\n      pop\n        /* \"#utility.yul\":6253:6255   */\n      0x20\n        /* \"#utility.yul\":6279:6332   */\n      tag_446\n        /* \"#utility.yul\":6324:6331   */\n      dup6\n        /* \"#utility.yul\":6315:6321   */\n      dup3\n        /* \"#utility.yul\":6304:6313   */\n      dup7\n        /* \"#utility.yul\":6300:6322   */\n      add\n        /* \"#utility.yul\":6279:6332   */\n      tag_301\n      jump\t// in\n    tag_446:\n        /* \"#utility.yul\":6269:6332   */\n      swap2\n      pop\n        /* \"#utility.yul\":6224:6342   */\n      pop\n        /* \"#utility.yul\":5875:6349   */\n      swap3\n      pop\n      swap3\n      swap1\n      pop\n      jump\t// out\n        /* \"#utility.yul\":6355:6479   */\n    tag_311:\n        /* \"#utility.yul\":6432:6438   */\n      0x00\n        /* \"#utility.yul\":6466:6471   */\n      dup2\n        /* \"#utility.yul\":6460:6472   */\n      mload\n        /* \"#utility.yul\":6450:6472   */\n      swap1\n      pop\n        /* \"#utility.yul\":6355:6479   */\n      swap2\n      swap1\n      pop\n      jump\t// out\n        /* \"#utility.yul\":6485:6679   */\n    tag_312:\n        /* \"#utility.yul\":6594:6605   */\n      0x00\n        /* \"#utility.yul\":6628:6634   */\n      dup3\n        /* \"#utility.yul\":6623:6626   */\n      dup3\n        /* \"#utility.yul\":6616:6635   */\n      mstore\n        /* \"#utility.yul\":6668:6672   */\n      0x20\n        /* \"#utility.yul\":6663:6666   */\n      dup3\n        /* \"#utility.yul\":6659:6673   */\n      add\n        /* \"#utility.yul\":6644:6673   */\n      swap1\n      pop\n        /* \"#utility.yul\":6485:6679   */\n      swap3\n      swap2\n      pop\n      pop\n      jump\t// out\n        /* \"#utility.yul\":6685:6827   */\n    tag_313:\n        /* \"#utility.yul\":6762:6766   */\n      0x00\n        /* \"#utility.yul\":6785:6788   */\n      dup2\n        /* \"#utility.yul\":6777:6788   */\n      swap1\n      pop\n        /* \"#utility.yul\":6815:6819   */\n      0x20\n        /* \"#utility.yul\":6810:6813   */\n      dup3\n        /* \"#utility.yul\":6806:6820   */\n      add\n        /* \"#utility.yul\":6798:6820   */\n      swap1\n      pop\n        /* \"#utility.yul\":6685:6827   */\n      swap2\n      swap1\n      pop\n      jump\t// out\n        /* \"#utility.yul\":6833:6992   */\n    tag_314:\n        /* \"#utility.yul\":6907:6918   */\n      0x00\n        /* \"#utility.yul\":6941:6947   */\n      dup3\n        /* \"#utility.yul\":6936:6939   */\n      dup3\n        /* \"#utility.yul\":6929:6948   */\n      mstore\n        /* \"#utility.yul\":6981:6985   */\n      0x20\n        /* \"#utility.yul\":6976:6979   */\n      dup3\n        /* \"#utility.yul\":6972:6986   */\n      add\n        /* \"#utility.yul\":6957:6986   */\n      swap1\n      pop\n        /* \"#utility.yul\":6833:6992   */\n      swap3\n      swap2\n      pop\n      pop\n      jump\t// out\n        /* \"#utility.yul\":6998:7355   */\n    tag_315:\n        /* \"#utility.yul\":7076:7079   */\n      0x00\n        /* \"#utility.yul\":7104:7143   */\n      tag_452\n        /* \"#utility.yul\":7137:7142   */\n      dup3\n        /* \"#utility.yul\":7104:7143   */\n      tag_290\n      jump\t// in\n    tag_452:\n        /* \"#utility.yul\":7159:7220   */\n      tag_453\n        /* \"#utility.yul\":7213:7219   */\n      dup2\n        /* \"#utility.yul\":7208:7211   */\n      dup6\n        /* \"#utility.yul\":7159:7220   */\n      tag_314\n      jump\t// in\n    tag_453:\n        /* \"#utility.yul\":7152:7220   */\n      swap4\n      pop\n        /* \"#utility.yul\":7229:7294   */\n      tag_454\n        /* \"#utility.yul\":7287:7293   */\n      dup2\n        /* \"#utility.yul\":7282:7285   */\n      dup6\n        /* \"#utility.yul\":7275:7279   */\n      0x20\n        /* \"#utility.yul\":7268:7273   */\n      dup7\n        /* \"#utility.yul\":7264:7280   */\n      add\n        /* \"#utility.yul\":7229:7294   */\n      tag_292\n      jump\t// in\n    tag_454:\n        /* \"#utility.yul\":7319:7348   */\n      tag_455\n        /* \"#utility.yul\":7341:7347   */\n      dup2\n        /* \"#utility.yul\":7319:7348   */\n      tag_293\n      jump\t// in\n    tag_455:\n        /* \"#utility.yul\":7314:7317   */\n      dup5\n        /* \"#utility.yul\":7310:7349   */\n      add\n        /* \"#utility.yul\":7303:7349   */\n      swap2\n      pop\n        /* \"#utility.yul\":7080:7355   */\n      pop\n        /* \"#utility.yul\":6998:7355   */\n      swap3\n      swap2\n      pop\n      pop\n      jump\t// out\n        /* \"#utility.yul\":7361:7557   */\n    tag_316:\n        /* \"#utility.yul\":7450:7460   */\n      0x00\n        /* \"#utility.yul\":7485:7551   */\n      tag_457\n        /* \"#utility.yul\":7547:7550   */\n      dup4\n        /* \"#utility.yul\":7539:7545   */\n      dup4\n        /* \"#utility.yul\":7485:7551   */\n      tag_315\n      jump\t// in\n    tag_457:\n        /* \"#utility.yul\":7471:7551   */\n      swap1\n      pop\n        /* \"#utility.yul\":7361:7557   */\n      swap3\n      swap2\n      pop\n      pop\n      jump\t// out\n        /* \"#utility.yul\":7563:7686   */\n    tag_317:\n        /* \"#utility.yul\":7643:7647   */\n      0x00\n        /* \"#utility.yul\":7675:7679   */\n      0x20\n        /* \"#utility.yul\":7670:7673   */\n      dup3\n        /* \"#utility.yul\":7666:7680   */\n      add\n        /* \"#utility.yul\":7658:7680   */\n      swap1\n      pop\n        /* \"#utility.yul\":7563:7686   */\n      swap2\n      swap1\n      pop\n      jump\t// out\n        /* \"#utility.yul\":7720:8711   */\n    tag_318:\n        /* \"#utility.yul\":7859:7862   */\n      0x00\n        /* \"#utility.yul\":7888:7952   */\n      tag_460\n        /* \"#utility.yul\":7946:7951   */\n      dup3\n        /* \"#utility.yul\":7888:7952   */\n      tag_311\n      jump\t// in\n    tag_460:\n        /* \"#utility.yul\":7968:8064   */\n      tag_461\n        /* \"#utility.yul\":8057:8063   */\n      dup2\n        /* \"#utility.yul\":8052:8055   */\n      dup6\n        /* \"#utility.yul\":7968:8064   */\n      tag_312\n      jump\t// in\n    tag_461:\n        /* \"#utility.yul\":7961:8064   */\n      swap4\n      pop\n        /* \"#utility.yul\":8090:8093   */\n      dup4\n        /* \"#utility.yul\":8135:8139   */\n      0x20\n        /* \"#utility.yul\":8127:8133   */\n      dup3\n        /* \"#utility.yul\":8123:8140   */\n      mul\n        /* \"#utility.yul\":8118:8121   */\n      dup6\n        /* \"#utility.yul\":8114:8141   */\n      add\n        /* \"#utility.yul\":8165:8231   */\n      tag_462\n        /* \"#utility.yul\":8225:8230   */\n      dup6\n        /* \"#utility.yul\":8165:8231   */\n      tag_313\n      jump\t// in\n    tag_462:\n        /* \"#utility.yul\":8254:8261   */\n      dup1\n        /* \"#utility.yul\":8285:8286   */\n      0x00\n        /* \"#utility.yul\":8270:8666   */\n    tag_463:\n        /* \"#utility.yul\":8295:8301   */\n      dup6\n        /* \"#utility.yul\":8292:8293   */\n      dup2\n        /* \"#utility.yul\":8289:8302   */\n      lt\n        /* \"#utility.yul\":8270:8666   */\n      iszero\n      tag_465\n      jumpi\n        /* \"#utility.yul\":8366:8375   */\n      dup5\n        /* \"#utility.yul\":8360:8364   */\n      dup5\n        /* \"#utility.yul\":8356:8376   */\n      sub\n        /* \"#utility.yul\":8351:8354   */\n      dup10\n        /* \"#utility.yul\":8344:8377   */\n      mstore\n        /* \"#utility.yul\":8417:8423   */\n      dup2\n        /* \"#utility.yul\":8411:8424   */\n      mload\n        /* \"#utility.yul\":8445:8529   */\n      tag_466\n        /* \"#utility.yul\":8524:8528   */\n      dup6\n        /* \"#utility.yul\":8509:8522   */\n      dup3\n        /* \"#utility.yul\":8445:8529   */\n      tag_316\n      jump\t// in\n    tag_466:\n        /* \"#utility.yul\":8437:8529   */\n      swap5\n      pop\n        /* \"#utility.yul\":8552:8622   */\n      tag_467\n        /* \"#utility.yul\":8615:8621   */\n      dup4\n        /* \"#utility.yul\":8552:8622   */\n      tag_317\n      jump\t// in\n    tag_467:\n        /* \"#utility.yul\":8542:8622   */\n      swap3\n      pop\n        /* \"#utility.yul\":8651:8655   */\n      0x20\n        /* \"#utility.yul\":8646:8649   */\n      dup11\n        /* \"#utility.yul\":8642:8656   */\n      add\n        /* \"#utility.yul\":8635:8656   */\n      swap10\n      pop\n        /* \"#utility.yul\":8330:8666   */\n      pop\n        /* \"#utility.yul\":8317:8318   */\n      0x01\n        /* \"#utility.yul\":8314:8315   */\n      dup2\n        /* \"#utility.yul\":8310:8319   */\n      add\n        /* \"#utility.yul\":8305:8319   */\n      swap1\n      pop\n        /* \"#utility.yul\":8270:8666   */\n      jump(tag_463)\n    tag_465:\n        /* \"#utility.yul\":8274:8288   */\n      pop\n        /* \"#utility.yul\":8682:8686   */\n      dup3\n        /* \"#utility.yul\":8675:8686   */\n      swap8\n      pop\n        /* \"#utility.yul\":8702:8705   */\n      dup8\n        /* \"#utility.yul\":8695:8705   */\n      swap6\n      pop\n        /* \"#utility.yul\":7864:8711   */\n      pop\n      pop\n      pop\n      pop\n      pop\n        /* \"#utility.yul\":7720:8711   */\n      swap3\n      swap2\n      pop\n      pop\n      jump\t// out\n        /* \"#utility.yul\":8717:9240   */\n    tag_101:\n        /* \"#utility.yul\":8908:8912   */\n      0x00\n        /* \"#utility.yul\":8946:8948   */\n      0x40\n        /* \"#utility.yul\":8935:8944   */\n      dup3\n        /* \"#utility.yul\":8931:8949   */\n      add\n        /* \"#utility.yul\":8923:8949   */\n      swap1\n      pop\n        /* \"#utility.yul\":8995:9004   */\n      dup2\n        /* \"#utility.yul\":8989:8993   */\n      dup2\n        /* \"#utility.yul\":8985:9005   */\n      sub\n        /* \"#utility.yul\":8981:8982   */\n      0x00\n        /* \"#utility.yul\":8970:8979   */\n      dup4\n        /* \"#utility.yul\":8966:8983   */\n      add\n        /* \"#utility.yul\":8959:9006   */\n      mstore\n        /* \"#utility.yul\":9023:9151   */\n      tag_469\n        /* \"#utility.yul\":9146:9150   */\n      dup2\n        /* \"#utility.yul\":9137:9143   */\n      dup6\n        /* \"#utility.yul\":9023:9151   */\n      tag_318\n      jump\t// in\n    tag_469:\n        /* \"#utility.yul\":9015:9151   */\n      swap1\n      pop\n        /* \"#utility.yul\":9161:9233   */\n      tag_470\n        /* \"#utility.yul\":9229:9231   */\n      0x20\n        /* \"#utility.yul\":9218:9227   */\n      dup4\n        /* \"#utility.yul\":9214:9232   */\n      add\n        /* \"#utility.yul\":9205:9211   */\n      dup5\n        /* \"#utility.yul\":9161:9233   */\n      tag_307\n      jump\t// in\n    tag_470:\n        /* \"#utility.yul\":8717:9240   */\n      swap4\n      swap3\n      pop\n      pop\n      pop\n      jump\t// out\n        /* \"#utility.yul\":9246:9426   */\n    tag_319:\n        /* \"#utility.yul\":9294:9371   */\n      0x4e487b7100000000000000000000000000000000000000000000000000000000\n        /* \"#utility.yul\":9291:9292   */\n      0x00\n        /* \"#utility.yul\":9284:9372   */\n      mstore\n        /* \"#utility.yul\":9391:9395   */\n      0x22\n        /* \"#utility.yul\":9388:9389   */\n      0x04\n        /* \"#utility.yul\":9381:9396   */\n      mstore\n        /* \"#utility.yul\":9415:9419   */\n      0x24\n        /* \"#utility.yul\":9412:9413   */\n      0x00\n        /* \"#utility.yul\":9405:9420   */\n      revert\n        /* \"#utility.yul\":9432:9752   */\n    tag_110:\n        /* \"#utility.yul\":9476:9482   */\n      0x00\n        /* \"#utility.yul\":9513:9514   */\n      0x02\n        /* \"#utility.yul\":9507:9511   */\n      dup3\n        /* \"#utility.yul\":9503:9515   */\n      div\n        /* \"#utility.yul\":9493:9515   */\n      swap1\n      pop\n        /* \"#utility.yul\":9560:9561   */\n      0x01\n        /* \"#utility.yul\":9554:9558   */\n      dup3\n        /* \"#utility.yul\":9550:9562   */\n      and\n        /* \"#utility.yul\":9581:9599   */\n      dup1\n        /* \"#utility.yul\":9571:9652   */\n      tag_473\n      jumpi\n        /* \"#utility.yul\":9637:9641   */\n      0x7f\n        /* \"#utility.yul\":9629:9635   */\n      dup3\n        /* \"#utility.yul\":9625:9642   */\n      and\n        /* \"#utility.yul\":9615:9642   */\n      swap2\n      pop\n        /* \"#utility.yul\":9571:9652   */\n    tag_473:\n        /* \"#utility.yul\":9699:9701   */\n      0x20\n        /* \"#utility.yul\":9691:9697   */\n      dup3\n        /* \"#utility.yul\":9688:9702   */\n      lt\n        /* \"#utility.yul\":9668:9686   */\n      dup2\n        /* \"#utility.yul\":9665:9703   */\n      sub\n        /* \"#utility.yul\":9662:9746   */\n      tag_474\n      jumpi\n        /* \"#utility.yul\":9718:9736   */\n      tag_475\n      tag_319\n      jump\t// in\n    tag_475:\n        /* \"#utility.yul\":9662:9746   */\n    tag_474:\n        /* \"#utility.yul\":9483:9752   */\n      pop\n        /* \"#utility.yul\":9432:9752   */\n      swap2\n      swap1\n      pop\n      jump\t// out\n        /* \"#utility.yul\":9758:9938   */\n    tag_320:\n        /* \"#utility.yul\":9806:9883   */\n      0x4e487b7100000000000000000000000000000000000000000000000000000000\n        /* \"#utility.yul\":9803:9804   */\n      0x00\n        /* \"#utility.yul\":9796:9884   */\n      mstore\n        /* \"#utility.yul\":9903:9907   */\n      0x11\n        /* \"#utility.yul\":9900:9901   */\n      0x04\n        /* \"#utility.yul\":9893:9908   */\n      mstore\n        /* \"#utility.yul\":9927:9931   */\n      0x24\n        /* \"#utility.yul\":9924:9925   */\n      0x00\n        /* \"#utility.yul\":9917:9932   */\n      revert\n        /* \"#utility.yul\":9944:10135   */\n    tag_133:\n        /* \"#utility.yul\":9984:9987   */\n      0x00\n        /* \"#utility.yul\":10003:10023   */\n      tag_478\n        /* \"#utility.yul\":10021:10022   */\n      dup3\n        /* \"#utility.yul\":10003:10023   */\n      tag_302\n      jump\t// in\n    tag_478:\n        /* \"#utility.yul\":9998:10023   */\n      swap2\n      pop\n        /* \"#utility.yul\":10037:10057   */\n      tag_479\n        /* \"#utility.yul\":10055:10056   */\n      dup4\n        /* \"#utility.yul\":10037:10057   */\n      tag_302\n      jump\t// in\n    tag_479:\n        /* \"#utility.yul\":10032:10057   */\n      swap3\n      pop\n        /* \"#utility.yul\":10080:10081   */\n      dup3\n        /* \"#utility.yul\":10077:10078   */\n      dup3\n        /* \"#utility.yul\":10073:10082   */\n      add\n        /* \"#utility.yul\":10066:10082   */\n      swap1\n      pop\n        /* \"#utility.yul\":10101:10104   */\n      dup1\n        /* \"#utility.yul\":10098:10099   */\n      dup3\n        /* \"#utility.yul\":10095:10105   */\n      gt\n        /* \"#utility.yul\":10092:10128   */\n      iszero\n      tag_480\n      jumpi\n        /* \"#utility.yul\":10108:10126   */\n      tag_481\n      tag_320\n      jump\t// in\n    tag_481:\n        /* \"#utility.yul\":10092:10128   */\n    tag_480:\n        /* \"#utility.yul\":9944:10135   */\n      swap3\n      swap2\n      pop\n      pop\n      jump\t// out\n        /* \"#utility.yul\":10141:10317   */\n    tag_321:\n        /* \"#utility.yul\":10281:10309   */\n      0x596f7520646f6e2774206861766520656e6f7567682052455821000000000000\n        /* \"#utility.yul\":10277:10278   */\n      0x00\n        /* \"#utility.yul\":10269:10275   */\n      dup3\n        /* \"#utility.yul\":10265:10279   */\n      add\n        /* \"#utility.yul\":10258:10310   */\n      mstore\n        /* \"#utility.yul\":10141:10317   */\n      pop\n      jump\t// out\n        /* \"#utility.yul\":10323:10689   */\n    tag_322:\n        /* \"#utility.yul\":10465:10468   */\n      0x00\n        /* \"#utility.yul\":10486:10553   */\n      tag_484\n        /* \"#utility.yul\":10550:10552   */\n      0x1a\n        /* \"#utility.yul\":10545:10548   */\n      dup4\n        /* \"#utility.yul\":10486:10553   */\n      tag_291\n      jump\t// in\n    tag_484:\n        /* \"#utility.yul\":10479:10553   */\n      swap2\n      pop\n        /* \"#utility.yul\":10562:10655   */\n      tag_485\n        /* \"#utility.yul\":10651:10654   */\n      dup3\n        /* \"#utility.yul\":10562:10655   */\n      tag_321\n      jump\t// in\n    tag_485:\n        /* \"#utility.yul\":10680:10682   */\n      0x20\n        /* \"#utility.yul\":10675:10678   */\n      dup3\n        /* \"#utility.yul\":10671:10683   */\n      add\n        /* \"#utility.yul\":10664:10683   */\n      swap1\n      pop\n        /* \"#utility.yul\":10323:10689   */\n      swap2\n      swap1\n      pop\n      jump\t// out\n        /* \"#utility.yul\":10695:11114   */\n    tag_145:\n        /* \"#utility.yul\":10861:10865   */\n      0x00\n        /* \"#utility.yul\":10899:10901   */\n      0x20\n        /* \"#utility.yul\":10888:10897   */\n      dup3\n        /* \"#utility.yul\":10884:10902   */\n      add\n        /* \"#utility.yul\":10876:10902   */\n      swap1\n      pop\n        /* \"#utility.yul\":10948:10957   */\n      dup2\n        /* \"#utility.yul\":10942:10946   */\n      dup2\n        /* \"#utility.yul\":10938:10958   */\n      sub\n        /* \"#utility.yul\":10934:10935   */\n      0x00\n        /* \"#utility.yul\":10923:10932   */\n      dup4\n        /* \"#utility.yul\":10919:10936   */\n      add\n        /* \"#utility.yul\":10912:10959   */\n      mstore\n        /* \"#utility.yul\":10976:11107   */\n      tag_487\n        /* \"#utility.yul\":11102:11106   */\n      dup2\n        /* \"#utility.yul\":10976:11107   */\n      tag_322\n      jump\t// in\n    tag_487:\n        /* \"#utility.yul\":10968:11107   */\n      swap1\n      pop\n        /* \"#utility.yul\":10695:11114   */\n      swap2\n      swap1\n      pop\n      jump\t// out\n        /* \"#utility.yul\":11120:11344   */\n    tag_323:\n        /* \"#utility.yul\":11260:11294   */\n      0x45524332303a2064656372656173656420616c6c6f77616e63652062656c6f77\n        /* \"#utility.yul\":11256:11257   */\n      0x00\n        /* \"#utility.yul\":11248:11254   */\n      dup3\n        /* \"#utility.yul\":11244:11258   */\n      add\n        /* \"#utility.yul\":11237:11295   */\n      mstore\n        /* \"#utility.yul\":11329:11336   */\n      0x207a65726f000000000000000000000000000000000000000000000000000000\n        /* \"#utility.yul\":11324:11326   */\n      0x20\n        /* \"#utility.yul\":11316:11322   */\n      dup3\n        /* \"#utility.yul\":11312:11327   */\n      add\n        /* \"#utility.yul\":11305:11337   */\n      mstore\n        /* \"#utility.yul\":11120:11344   */\n      pop\n      jump\t// out\n        /* \"#utility.yul\":11350:11716   */\n    tag_324:\n        /* \"#utility.yul\":11492:11495   */\n      0x00\n        /* \"#utility.yul\":11513:11580   */\n      tag_490\n        /* \"#utility.yul\":11577:11579   */\n      0x25\n        /* \"#utility.yul\":11572:11575   */\n      dup4\n        /* \"#utility.yul\":11513:11580   */\n      tag_291\n      jump\t// in\n    tag_490:\n        /* \"#utility.yul\":11506:11580   */\n      swap2\n      pop\n        /* \"#utility.yul\":11589:11682   */\n      tag_491\n        /* \"#utility.yul\":11678:11681   */\n      dup3\n        /* \"#utility.yul\":11589:11682   */\n      tag_323\n      jump\t// in\n    tag_491:\n        /* \"#utility.yul\":11707:11709   */\n      0x40\n        /* \"#utility.yul\":11702:11705   */\n      dup3\n        /* \"#utility.yul\":11698:11710   */\n      add\n        /* \"#utility.yul\":11691:11710   */\n      swap1\n      pop\n        /* \"#utility.yul\":11350:11716   */\n      swap2\n      swap1\n      pop\n      jump\t// out\n        /* \"#utility.yul\":11722:12141   */\n    tag_165:\n        /* \"#utility.yul\":11888:11892   */\n      0x00\n        /* \"#utility.yul\":11926:11928   */\n      0x20\n        /* \"#utility.yul\":11915:11924   */\n      dup3\n        /* \"#utility.yul\":11911:11929   */\n      add\n        /* \"#utility.yul\":11903:11929   */\n      swap1\n      pop\n        /* \"#utility.yul\":11975:11984   */\n      dup2\n        /* \"#utility.yul\":11969:11973   */\n      dup2\n        /* \"#utility.yul\":11965:11985   */\n      sub\n        /* \"#utility.yul\":11961:11962   */\n      0x00\n        /* \"#utility.yul\":11950:11959   */\n      dup4\n        /* \"#utility.yul\":11946:11963   */\n      add\n        /* \"#utility.yul\":11939:11986   */\n      mstore\n        /* \"#utility.yul\":12003:12134   */\n      tag_493\n        /* \"#utility.yul\":12129:12133   */\n      dup2\n        /* \"#utility.yul\":12003:12134   */\n      tag_324\n      jump\t// in\n    tag_493:\n        /* \"#utility.yul\":11995:12134   */\n      swap1\n      pop\n        /* \"#utility.yul\":11722:12141   */\n      swap2\n      swap1\n      pop\n      jump\t// out\n        /* \"#utility.yul\":12147:12319   */\n    tag_325:\n        /* \"#utility.yul\":12287:12311   */\n      0x57726f6e67206f7074696f6e2073656c65637465642100000000000000000000\n        /* \"#utility.yul\":12283:12284   */\n      0x00\n        /* \"#utility.yul\":12275:12281   */\n      dup3\n        /* \"#utility.yul\":12271:12285   */\n      add\n        /* \"#utility.yul\":12264:12312   */\n      mstore\n        /* \"#utility.yul\":12147:12319   */\n      pop\n      jump\t// out\n        /* \"#utility.yul\":12325:12691   */\n    tag_326:\n        /* \"#utility.yul\":12467:12470   */\n      0x00\n        /* \"#utility.yul\":12488:12555   */\n      tag_496\n        /* \"#utility.yul\":12552:12554   */\n      0x16\n        /* \"#utility.yul\":12547:12550   */\n      dup4\n        /* \"#utility.yul\":12488:12555   */\n      tag_291\n      jump\t// in\n    tag_496:\n        /* \"#utility.yul\":12481:12555   */\n      swap2\n      pop\n        /* \"#utility.yul\":12564:12657   */\n      tag_497\n        /* \"#utility.yul\":12653:12656   */\n      dup3\n        /* \"#utility.yul\":12564:12657   */\n      tag_325\n      jump\t// in\n    tag_497:\n        /* \"#utility.yul\":12682:12684   */\n      0x20\n        /* \"#utility.yul\":12677:12680   */\n      dup3\n        /* \"#utility.yul\":12673:12685   */\n      add\n        /* \"#utility.yul\":12666:12685   */\n      swap1\n      pop\n        /* \"#utility.yul\":12325:12691   */\n      swap2\n      swap1\n      pop\n      jump\t// out\n        /* \"#utility.yul\":12697:13116   */\n    tag_170:\n        /* \"#utility.yul\":12863:12867   */\n      0x00\n        /* \"#utility.yul\":12901:12903   */\n      0x20\n        /* \"#utility.yul\":12890:12899   */\n      dup3\n        /* \"#utility.yul\":12886:12904   */\n      add\n        /* \"#utility.yul\":12878:12904   */\n      swap1\n      pop\n        /* \"#utility.yul\":12950:12959   */\n      dup2\n        /* \"#utility.yul\":12944:12948   */\n      dup2\n        /* \"#utility.yul\":12940:12960   */\n      sub\n        /* \"#utility.yul\":12936:12937   */\n      0x00\n        /* \"#utility.yul\":12925:12934   */\n      dup4\n        /* \"#utility.yul\":12921:12938   */\n      add\n        /* \"#utility.yul\":12914:12961   */\n      mstore\n        /* \"#utility.yul\":12978:13109   */\n      tag_499\n        /* \"#utility.yul\":13104:13108   */\n      dup2\n        /* \"#utility.yul\":12978:13109   */\n      tag_326\n      jump\t// in\n    tag_499:\n        /* \"#utility.yul\":12970:13109   */\n      swap1\n      pop\n        /* \"#utility.yul\":12697:13116   */\n      swap2\n      swap1\n      pop\n      jump\t// out\n        /* \"#utility.yul\":13122:13294   */\n    tag_327:\n        /* \"#utility.yul\":13262:13286   */\n      0x4f6f70732120496e73756666696369656e742052455800000000000000000000\n        /* \"#utility.yul\":13258:13259   */\n      0x00\n        /* \"#utility.yul\":13250:13256   */\n      dup3\n        /* \"#utility.yul\":13246:13260   */\n      add\n        /* \"#utility.yul\":13239:13287   */\n      mstore\n        /* \"#utility.yul\":13122:13294   */\n      pop\n      jump\t// out\n        /* \"#utility.yul\":13300:13666   */\n    tag_328:\n        /* \"#utility.yul\":13442:13445   */\n      0x00\n        /* \"#utility.yul\":13463:13530   */\n      tag_502\n        /* \"#utility.yul\":13527:13529   */\n      0x16\n        /* \"#utility.yul\":13522:13525   */\n      dup4\n        /* \"#utility.yul\":13463:13530   */\n      tag_291\n      jump\t// in\n    tag_502:\n        /* \"#utility.yul\":13456:13530   */\n      swap2\n      pop\n        /* \"#utility.yul\":13539:13632   */\n      tag_503\n        /* \"#utility.yul\":13628:13631   */\n      dup3\n        /* \"#utility.yul\":13539:13632   */\n      tag_327\n      jump\t// in\n    tag_503:\n        /* \"#utility.yul\":13657:13659   */\n      0x20\n        /* \"#utility.yul\":13652:13655   */\n      dup3\n        /* \"#utility.yul\":13648:13660   */\n      add\n        /* \"#utility.yul\":13641:13660   */\n      swap1\n      pop\n        /* \"#utility.yul\":13300:13666   */\n      swap2\n      swap1\n      pop\n      jump\t// out\n        /* \"#utility.yul\":13672:14091   */\n    tag_175:\n        /* \"#utility.yul\":13838:13842   */\n      0x00\n        /* \"#utility.yul\":13876:13878   */\n      0x20\n        /* \"#utility.yul\":13865:13874   */\n      dup3\n        /* \"#utility.yul\":13861:13879   */\n      add\n        /* \"#utility.yul\":13853:13879   */\n      swap1\n      pop\n        /* \"#utility.yul\":13925:13934   */\n      dup2\n        /* \"#utility.yul\":13919:13923   */\n      dup2\n        /* \"#utility.yul\":13915:13935   */\n      sub\n        /* \"#utility.yul\":13911:13912   */\n      0x00\n        /* \"#utility.yul\":13900:13909   */\n      dup4\n        /* \"#utility.yul\":13896:13913   */\n      add\n        /* \"#utility.yul\":13889:13936   */\n      mstore\n        /* \"#utility.yul\":13953:14084   */\n      tag_505\n        /* \"#utility.yul\":14079:14083   */\n      dup2\n        /* \"#utility.yul\":13953:14084   */\n      tag_328\n      jump\t// in\n    tag_505:\n        /* \"#utility.yul\":13945:14084   */\n      swap1\n      pop\n        /* \"#utility.yul\":13672:14091   */\n      swap2\n      swap1\n      pop\n      jump\t// out\n        /* \"#utility.yul\":14097:14277   */\n    tag_329:\n        /* \"#utility.yul\":14145:14222   */\n      0x4e487b7100000000000000000000000000000000000000000000000000000000\n        /* \"#utility.yul\":14142:14143   */\n      0x00\n        /* \"#utility.yul\":14135:14223   */\n      mstore\n        /* \"#utility.yul\":14242:14246   */\n      0x41\n        /* \"#utility.yul\":14239:14240   */\n      0x04\n        /* \"#utility.yul\":14232:14247   */\n      mstore\n        /* \"#utility.yul\":14266:14270   */\n      0x24\n        /* \"#utility.yul\":14263:14264   */\n      0x00\n        /* \"#utility.yul\":14256:14271   */\n      revert\n        /* \"#utility.yul\":14283:14424   */\n    tag_330:\n        /* \"#utility.yul\":14332:14336   */\n      0x00\n        /* \"#utility.yul\":14355:14358   */\n      dup2\n        /* \"#utility.yul\":14347:14358   */\n      swap1\n      pop\n        /* \"#utility.yul\":14378:14381   */\n      dup2\n        /* \"#utility.yul\":14375:14376   */\n      0x00\n        /* \"#utility.yul\":14368:14382   */\n      mstore\n        /* \"#utility.yul\":14412:14416   */\n      0x20\n        /* \"#utility.yul\":14409:14410   */\n      0x00\n        /* \"#utility.yul\":14399:14417   */\n      keccak256\n        /* \"#utility.yul\":14391:14417   */\n      swap1\n      pop\n        /* \"#utility.yul\":14283:14424   */\n      swap2\n      swap1\n      pop\n      jump\t// out\n        /* \"#utility.yul\":14430:14523   */\n    tag_331:\n        /* \"#utility.yul\":14467:14473   */\n      0x00\n        /* \"#utility.yul\":14514:14516   */\n      0x20\n        /* \"#utility.yul\":14509:14511   */\n      0x1f\n        /* \"#utility.yul\":14502:14507   */\n      dup4\n        /* \"#utility.yul\":14498:14512   */\n      add\n        /* \"#utility.yul\":14494:14517   */\n      div\n        /* \"#utility.yul\":14484:14517   */\n      swap1\n      pop\n        /* \"#utility.yul\":14430:14523   */\n      swap2\n      swap1\n      pop\n      jump\t// out\n        /* \"#utility.yul\":14529:14636   */\n    tag_332:\n        /* \"#utility.yul\":14573:14581   */\n      0x00\n        /* \"#utility.yul\":14623:14628   */\n      dup3\n        /* \"#utility.yul\":14617:14621   */\n      dup3\n        /* \"#utility.yul\":14613:14629   */\n      shl\n        /* \"#utility.yul\":14592:14629   */\n      swap1\n      pop\n        /* \"#utility.yul\":14529:14636   */\n      swap3\n      swap2\n      pop\n      pop\n      jump\t// out\n        /* \"#utility.yul\":14642:15035   */\n    tag_333:\n        /* \"#utility.yul\":14711:14717   */\n      0x00\n        /* \"#utility.yul\":14761:14762   */\n      0x08\n        /* \"#utility.yul\":14749:14759   */\n      dup4\n        /* \"#utility.yul\":14745:14763   */\n      mul\n        /* \"#utility.yul\":14784:14881   */\n      tag_511\n        /* \"#utility.yul\":14814:14880   */\n      0xffffffffffffffffffffffffffffffffffffffffffffffffffffffffffffffff\n        /* \"#utility.yul\":14803:14812   */\n      dup3\n        /* \"#utility.yul\":14784:14881   */\n      tag_332\n      jump\t// in\n    tag_511:\n        /* \"#utility.yul\":14902:14941   */\n      tag_512\n        /* \"#utility.yul\":14932:14940   */\n      dup7\n        /* \"#utility.yul\":14921:14930   */\n      dup4\n        /* \"#utility.yul\":14902:14941   */\n      tag_332\n      jump\t// in\n    tag_512:\n        /* \"#utility.yul\":14890:14941   */\n      swap6\n      pop\n        /* \"#utility.yul\":14974:14978   */\n      dup1\n        /* \"#utility.yul\":14970:14979   */\n      not\n        /* \"#utility.yul\":14963:14968   */\n      dup5\n        /* \"#utility.yul\":14959:14980   */\n      and\n        /* \"#utility.yul\":14950:14980   */\n      swap4\n      pop\n        /* \"#utility.yul\":15023:15027   */\n      dup1\n        /* \"#utility.yul\":15013:15021   */\n      dup7\n        /* \"#utility.yul\":15009:15028   */\n      and\n        /* \"#utility.yul\":15002:15007   */\n      dup5\n        /* \"#utility.yul\":14999:15029   */\n      or\n        /* \"#utility.yul\":14989:15029   */\n      swap3\n      pop\n        /* \"#utility.yul\":14718:15035   */\n      pop\n      pop\n        /* \"#utility.yul\":14642:15035   */\n      swap4\n      swap3\n      pop\n      pop\n      pop\n      jump\t// out\n        /* \"#utility.yul\":15041:15101   */\n    tag_334:\n        /* \"#utility.yul\":15069:15072   */\n      0x00\n        /* \"#utility.yul\":15090:15095   */\n      dup2\n        /* \"#utility.yul\":15083:15095   */\n      swap1\n      pop\n        /* \"#utility.yul\":15041:15101   */\n      swap2\n      swap1\n      pop\n      jump\t// out\n        /* \"#utility.yul\":15107:15249   */\n    tag_335:\n        /* \"#utility.yul\":15157:15166   */\n      0x00\n        /* \"#utility.yul\":15190:15243   */\n      tag_515\n        /* \"#utility.yul\":15208:15242   */\n      tag_516\n        /* \"#utility.yul\":15217:15241   */\n      tag_517\n        /* \"#utility.yul\":15235:15240   */\n      dup5\n        /* \"#utility.yul\":15217:15241   */\n      tag_302\n      jump\t// in\n    tag_517:\n        /* \"#utility.yul\":15208:15242   */\n      tag_334\n      jump\t// in\n    tag_516:\n        /* \"#utility.yul\":15190:15243   */\n      tag_302\n      jump\t// in\n    tag_515:\n        /* \"#utility.yul\":15177:15243   */\n      swap1\n      pop\n        /* \"#utility.yul\":15107:15249   */\n      swap2\n      swap1\n      pop\n      jump\t// out\n        /* \"#utility.yul\":15255:15330   */\n    tag_336:\n        /* \"#utility.yul\":15298:15301   */\n      0x00\n        /* \"#utility.yul\":15319:15324   */\n      dup2\n        /* \"#utility.yul\":15312:15324   */\n      swap1\n      pop\n        /* \"#utility.yul\":15255:15330   */\n      swap2\n      swap1\n      pop\n      jump\t// out\n        /* \"#utility.yul\":15336:15605   */\n    tag_337:\n        /* \"#utility.yul\":15446:15485   */\n      tag_520\n        /* \"#utility.yul\":15477:15484   */\n      dup4\n        /* \"#utility.yul\":15446:15485   */\n      tag_335\n      jump\t// in\n    tag_520:\n        /* \"#utility.yul\":15507:15598   */\n      tag_521\n        /* \"#utility.yul\":15556:15597   */\n      tag_522\n        /* \"#utility.yul\":15580:15596   */\n      dup3\n        /* \"#utility.yul\":15556:15597   */\n      tag_336\n      jump\t// in\n    tag_522:\n        /* \"#utility.yul\":15548:15554   */\n      dup5\n        /* \"#utility.yul\":15541:15545   */\n      dup5\n        /* \"#utility.yul\":15535:15546   */\n      sload\n        /* \"#utility.yul\":15507:15598   */\n      tag_333\n      jump\t// in\n    tag_521:\n        /* \"#utility.yul\":15501:15505   */\n      dup3\n        /* \"#utility.yul\":15494:15599   */\n      sstore\n        /* \"#utility.yul\":15412:15605   */\n      pop\n        /* \"#utility.yul\":15336:15605   */\n      pop\n      pop\n      pop\n      jump\t// out\n        /* \"#utility.yul\":15611:15684   */\n    tag_338:\n        /* \"#utility.yul\":15656:15659   */\n      0x00\n        /* \"#utility.yul\":15611:15684   */\n      swap1\n      jump\t// out\n        /* \"#utility.yul\":15690:15879   */\n    tag_339:\n        /* \"#utility.yul\":15767:15799   */\n      tag_525\n      tag_338\n      jump\t// in\n    tag_525:\n        /* \"#utility.yul\":15808:15873   */\n      tag_526\n        /* \"#utility.yul\":15866:15872   */\n      dup2\n        /* \"#utility.yul\":15858:15864   */\n      dup5\n        /* \"#utility.yul\":15852:15856   */\n      dup5\n        /* \"#utility.yul\":15808:15873   */\n      tag_337\n      jump\t// in\n    tag_526:\n        /* \"#utility.yul\":15743:15879   */\n      pop\n        /* \"#utility.yul\":15690:15879   */\n      pop\n      pop\n      jump\t// out\n        /* \"#utility.yul\":15885:16071   */\n    tag_340:\n        /* \"#utility.yul\":15945:16065   */\n    tag_528:\n        /* \"#utility.yul\":15962:15965   */\n      dup2\n        /* \"#utility.yul\":15955:15960   */\n      dup2\n        /* \"#utility.yul\":15952:15966   */\n      lt\n        /* \"#utility.yul\":15945:16065   */\n      iszero\n      tag_530\n      jumpi\n        /* \"#utility.yul\":16016:16055   */\n      tag_531\n        /* \"#utility.yul\":16053:16054   */\n      0x00\n        /* \"#utility.yul\":16046:16051   */\n      dup3\n        /* \"#utility.yul\":16016:16055   */\n      tag_339\n      jump\t// in\n    tag_531:\n        /* \"#utility.yul\":15989:15990   */\n      0x01\n        /* \"#utility.yul\":15982:15987   */\n      dup2\n        /* \"#utility.yul\":15978:15991   */\n      add\n        /* \"#utility.yul\":15969:15991   */\n      swap1\n      pop\n        /* \"#utility.yul\":15945:16065   */\n      jump(tag_528)\n    tag_530:\n        /* \"#utility.yul\":15885:16071   */\n      pop\n      pop\n      jump\t// out\n        /* \"#utility.yul\":16077:16620   */\n    tag_341:\n        /* \"#utility.yul\":16178:16180   */\n      0x1f\n        /* \"#utility.yul\":16173:16176   */\n      dup3\n        /* \"#utility.yul\":16170:16181   */\n      gt\n        /* \"#utility.yul\":16167:16613   */\n      iszero\n      tag_533\n      jumpi\n        /* \"#utility.yul\":16212:16250   */\n      tag_534\n        /* \"#utility.yul\":16244:16249   */\n      dup2\n        /* \"#utility.yul\":16212:16250   */\n      tag_330\n      jump\t// in\n    tag_534:\n        /* \"#utility.yul\":16296:16325   */\n      tag_535\n        /* \"#utility.yul\":16314:16324   */\n      dup5\n        /* \"#utility.yul\":16296:16325   */\n      tag_331\n      jump\t// in\n    tag_535:\n        /* \"#utility.yul\":16286:16294   */\n      dup2\n        /* \"#utility.yul\":16282:16326   */\n      add\n        /* \"#utility.yul\":16479:16481   */\n      0x20\n        /* \"#utility.yul\":16467:16477   */\n      dup6\n        /* \"#utility.yul\":16464:16482   */\n      lt\n        /* \"#utility.yul\":16461:16510   */\n      iszero\n      tag_536\n      jumpi\n        /* \"#utility.yul\":16500:16508   */\n      dup2\n        /* \"#utility.yul\":16485:16508   */\n      swap1\n      pop\n        /* \"#utility.yul\":16461:16510   */\n    tag_536:\n        /* \"#utility.yul\":16523:16603   */\n      tag_537\n        /* \"#utility.yul\":16579:16601   */\n      tag_538\n        /* \"#utility.yul\":16597:16600   */\n      dup6\n        /* \"#utility.yul\":16579:16601   */\n      tag_331\n      jump\t// in\n    tag_538:\n        /* \"#utility.yul\":16569:16577   */\n      dup4\n        /* \"#utility.yul\":16565:16602   */\n      add\n        /* \"#utility.yul\":16552:16563   */\n      dup3\n        /* \"#utility.yul\":16523:16603   */\n      tag_340\n      jump\t// in\n    tag_537:\n        /* \"#utility.yul\":16182:16613   */\n      pop\n      pop\n        /* \"#utility.yul\":16167:16613   */\n    tag_533:\n        /* \"#utility.yul\":16077:16620   */\n      pop\n      pop\n      pop\n      jump\t// out\n        /* \"#utility.yul\":16626:16743   */\n    tag_342:\n        /* \"#utility.yul\":16680:16688   */\n      0x00\n        /* \"#utility.yul\":16730:16735   */\n      dup3\n        /* \"#utility.yul\":16724:16728   */\n      dup3\n        /* \"#utility.yul\":16720:16736   */\n      shr\n        /* \"#utility.yul\":16699:16736   */\n      swap1\n      pop\n        /* \"#utility.yul\":16626:16743   */\n      swap3\n      swap2\n      pop\n      pop\n      jump\t// out\n        /* \"#utility.yul\":16749:16918   */\n    tag_343:\n        /* \"#utility.yul\":16793:16799   */\n      0x00\n        /* \"#utility.yul\":16826:16877   */\n      tag_541\n        /* \"#utility.yul\":16874:16875   */\n      0x00\n        /* \"#utility.yul\":16870:16876   */\n      not\n        /* \"#utility.yul\":16862:16867   */\n      dup5\n        /* \"#utility.yul\":16859:16860   */\n      0x08\n        /* \"#utility.yul\":16855:16868   */\n      mul\n        /* \"#utility.yul\":16826:16877   */\n      tag_342\n      jump\t// in\n    tag_541:\n        /* \"#utility.yul\":16822:16878   */\n      not\n        /* \"#utility.yul\":16907:16911   */\n      dup1\n        /* \"#utility.yul\":16901:16905   */\n      dup4\n        /* \"#utility.yul\":16897:16912   */\n      and\n        /* \"#utility.yul\":16887:16912   */\n      swap2\n      pop\n        /* \"#utility.yul\":16800:16918   */\n      pop\n        /* \"#utility.yul\":16749:16918   */\n      swap3\n      swap2\n      pop\n      pop\n      jump\t// out\n        /* \"#utility.yul\":16923:17218   */\n    tag_344:\n        /* \"#utility.yul\":16999:17003   */\n      0x00\n        /* \"#utility.yul\":17145:17174   */\n      tag_543\n        /* \"#utility.yul\":17170:17173   */\n      dup4\n        /* \"#utility.yul\":17164:17168   */\n      dup4\n        /* \"#utility.yul\":17145:17174   */\n      tag_343\n      jump\t// in\n    tag_543:\n        /* \"#utility.yul\":17137:17174   */\n      swap2\n      pop\n        /* \"#utility.yul\":17207:17210   */\n      dup3\n        /* \"#utility.yul\":17204:17205   */\n      0x02\n        /* \"#utility.yul\":17200:17211   */\n      mul\n        /* \"#utility.yul\":17194:17198   */\n      dup3\n        /* \"#utility.yul\":17191:17212   */\n      or\n        /* \"#utility.yul\":17183:17212   */\n      swap1\n      pop\n        /* \"#utility.yul\":16923:17218   */\n      swap3\n      swap2\n      pop\n      pop\n      jump\t// out\n        /* \"#utility.yul\":17223:18618   */\n    tag_179:\n        /* \"#utility.yul\":17340:17377   */\n      tag_545\n        /* \"#utility.yul\":17373:17376   */\n      dup3\n        /* \"#utility.yul\":17340:17377   */\n      tag_290\n      jump\t// in\n    tag_545:\n        /* \"#utility.yul\":17442:17460   */\n      0xffffffffffffffff\n        /* \"#utility.yul\":17434:17440   */\n      dup2\n        /* \"#utility.yul\":17431:17461   */\n      gt\n        /* \"#utility.yul\":17428:17484   */\n      iszero\n      tag_546\n      jumpi\n        /* \"#utility.yul\":17464:17482   */\n      tag_547\n      tag_329\n      jump\t// in\n    tag_547:\n        /* \"#utility.yul\":17428:17484   */\n    tag_546:\n        /* \"#utility.yul\":17508:17546   */\n      tag_548\n        /* \"#utility.yul\":17540:17544   */\n      dup3\n        /* \"#utility.yul\":17534:17545   */\n      sload\n        /* \"#utility.yul\":17508:17546   */\n      tag_110\n      jump\t// in\n    tag_548:\n        /* \"#utility.yul\":17593:17660   */\n      tag_549\n        /* \"#utility.yul\":17653:17659   */\n      dup3\n        /* \"#utility.yul\":17645:17651   */\n      dup3\n        /* \"#utility.yul\":17639:17643   */\n      dup6\n        /* \"#utility.yul\":17593:17660   */\n      tag_341\n      jump\t// in\n    tag_549:\n        /* \"#utility.yul\":17687:17688   */\n      0x00\n        /* \"#utility.yul\":17711:17715   */\n      0x20\n        /* \"#utility.yul\":17698:17715   */\n      swap1\n      pop\n        /* \"#utility.yul\":17743:17745   */\n      0x1f\n        /* \"#utility.yul\":17735:17741   */\n      dup4\n        /* \"#utility.yul\":17732:17746   */\n      gt\n        /* \"#utility.yul\":17760:17761   */\n      0x01\n        /* \"#utility.yul\":17755:18373   */\n      dup2\n      eq\n      tag_551\n      jumpi\n        /* \"#utility.yul\":18417:18418   */\n      0x00\n        /* \"#utility.yul\":18434:18440   */\n      dup5\n        /* \"#utility.yul\":18431:18508   */\n      iszero\n      tag_552\n      jumpi\n        /* \"#utility.yul\":18483:18492   */\n      dup3\n        /* \"#utility.yul\":18478:18481   */\n      dup8\n        /* \"#utility.yul\":18474:18493   */\n      add\n        /* \"#utility.yul\":18468:18494   */\n      mload\n        /* \"#utility.yul\":18459:18494   */\n      swap1\n      pop\n        /* \"#utility.yul\":18431:18508   */\n    tag_552:\n        /* \"#utility.yul\":18534:18601   */\n      tag_553\n        /* \"#utility.yul\":18594:18600   */\n      dup6\n        /* \"#utility.yul\":18587:18592   */\n      dup3\n        /* \"#utility.yul\":18534:18601   */\n      tag_344\n      jump\t// in\n    tag_553:\n        /* \"#utility.yul\":18528:18532   */\n      dup7\n        /* \"#utility.yul\":18521:18602   */\n      sstore\n        /* \"#utility.yul\":18390:18612   */\n      pop\n        /* \"#utility.yul\":17725:18612   */\n      jump(tag_550)\n        /* \"#utility.yul\":17755:18373   */\n    tag_551:\n        /* \"#utility.yul\":17807:17811   */\n      0x1f\n        /* \"#utility.yul\":17803:17812   */\n      not\n        /* \"#utility.yul\":17795:17801   */\n      dup5\n        /* \"#utility.yul\":17791:17813   */\n      and\n        /* \"#utility.yul\":17841:17878   */\n      tag_554\n        /* \"#utility.yul\":17873:17877   */\n      dup7\n        /* \"#utility.yul\":17841:17878   */\n      tag_330\n      jump\t// in\n    tag_554:\n        /* \"#utility.yul\":17900:17901   */\n      0x00\n        /* \"#utility.yul\":17914:18122   */\n    tag_555:\n        /* \"#utility.yul\":17928:17935   */\n      dup3\n        /* \"#utility.yul\":17925:17926   */\n      dup2\n        /* \"#utility.yul\":17922:17936   */\n      lt\n        /* \"#utility.yul\":17914:18122   */\n      iszero\n      tag_557\n      jumpi\n        /* \"#utility.yul\":18007:18016   */\n      dup5\n        /* \"#utility.yul\":18002:18005   */\n      dup10\n        /* \"#utility.yul\":17998:18017   */\n      add\n        /* \"#utility.yul\":17992:18018   */\n      mload\n        /* \"#utility.yul\":17984:17990   */\n      dup3\n        /* \"#utility.yul\":17977:18019   */\n      sstore\n        /* \"#utility.yul\":18058:18059   */\n      0x01\n        /* \"#utility.yul\":18050:18056   */\n      dup3\n        /* \"#utility.yul\":18046:18060   */\n      add\n        /* \"#utility.yul\":18036:18060   */\n      swap2\n      pop\n        /* \"#utility.yul\":18105:18107   */\n      0x20\n        /* \"#utility.yul\":18094:18103   */\n      dup6\n        /* \"#utility.yul\":18090:18108   */\n      add\n        /* \"#utility.yul\":18077:18108   */\n      swap5\n      pop\n        /* \"#utility.yul\":17951:17955   */\n      0x20\n        /* \"#utility.yul\":17948:17949   */\n      dup2\n        /* \"#utility.yul\":17944:17956   */\n      add\n        /* \"#utility.yul\":17939:17956   */\n      swap1\n      pop\n        /* \"#utility.yul\":17914:18122   */\n      jump(tag_555)\n    tag_557:\n        /* \"#utility.yul\":18150:18156   */\n      dup7\n        /* \"#utility.yul\":18141:18148   */\n      dup4\n        /* \"#utility.yul\":18138:18157   */\n      lt\n        /* \"#utility.yul\":18135:18314   */\n      iszero\n      tag_558\n      jumpi\n        /* \"#utility.yul\":18208:18217   */\n      dup5\n        /* \"#utility.yul\":18203:18206   */\n      dup10\n        /* \"#utility.yul\":18199:18218   */\n      add\n        /* \"#utility.yul\":18193:18219   */\n      mload\n        /* \"#utility.yul\":18251:18299   */\n      tag_559\n        /* \"#utility.yul\":18293:18297   */\n      0x1f\n        /* \"#utility.yul\":18285:18291   */\n      dup10\n        /* \"#utility.yul\":18281:18298   */\n      and\n        /* \"#utility.yul\":18270:18279   */\n      dup3\n        /* \"#utility.yul\":18251:18299   */\n      tag_343\n      jump\t// in\n    tag_559:\n        /* \"#utility.yul\":18243:18249   */\n      dup4\n        /* \"#utility.yul\":18236:18300   */\n      sstore\n        /* \"#utility.yul\":18158:18314   */\n      pop\n        /* \"#utility.yul\":18135:18314   */\n    tag_558:\n        /* \"#utility.yul\":18360:18361   */\n      0x01\n        /* \"#utility.yul\":18356:18357   */\n      0x02\n        /* \"#utility.yul\":18348:18354   */\n      dup9\n        /* \"#utility.yul\":18344:18358   */\n      mul\n        /* \"#utility.yul\":18340:18362   */\n      add\n        /* \"#utility.yul\":18334:18338   */\n      dup9\n        /* \"#utility.yul\":18327:18363   */\n      sstore\n        /* \"#utility.yul\":17762:18373   */\n      pop\n      pop\n      pop\n        /* \"#utility.yul\":17725:18612   */\n    tag_550:\n      pop\n        /* \"#utility.yul\":17315:18618   */\n      pop\n      pop\n      pop\n        /* \"#utility.yul\":17223:18618   */\n      pop\n      pop\n      jump\t// out\n        /* \"#utility.yul\":18624:18847   */\n    tag_345:\n        /* \"#utility.yul\":18764:18798   */\n      0x536f7272792c206e6f7420656e6f7567682062616c616e636520696e2077616c\n        /* \"#utility.yul\":18760:18761   */\n      0x00\n        /* \"#utility.yul\":18752:18758   */\n      dup3\n        /* \"#utility.yul\":18748:18762   */\n      add\n        /* \"#utility.yul\":18741:18799   */\n      mstore\n        /* \"#utility.yul\":18833:18839   */\n      0x6c65742e00000000000000000000000000000000000000000000000000000000\n        /* \"#utility.yul\":18828:18830   */\n      0x20\n        /* \"#utility.yul\":18820:18826   */\n      dup3\n        /* \"#utility.yul\":18816:18831   */\n      add\n        /* \"#utility.yul\":18809:18840   */\n      mstore\n        /* \"#utility.yul\":18624:18847   */\n      pop\n      jump\t// out\n        /* \"#utility.yul\":18853:19219   */\n    tag_346:\n        /* \"#utility.yul\":18995:18998   */\n      0x00\n        /* \"#utility.yul\":19016:19083   */\n      tag_562\n        /* \"#utility.yul\":19080:19082   */\n      0x24\n        /* \"#utility.yul\":19075:19078   */\n      dup4\n        /* \"#utility.yul\":19016:19083   */\n      tag_291\n      jump\t// in\n    tag_562:\n        /* \"#utility.yul\":19009:19083   */\n      swap2\n      pop\n        /* \"#utility.yul\":19092:19185   */\n      tag_563\n        /* \"#utility.yul\":19181:19184   */\n      dup3\n        /* \"#utility.yul\":19092:19185   */\n      tag_345\n      jump\t// in\n    tag_563:\n        /* \"#utility.yul\":19210:19212   */\n      0x40\n        /* \"#utility.yul\":19205:19208   */\n      dup3\n        /* \"#utility.yul\":19201:19213   */\n      add\n        /* \"#utility.yul\":19194:19213   */\n      swap1\n      pop\n        /* \"#utility.yul\":18853:19219   */\n      swap2\n      swap1\n      pop\n      jump\t// out\n        /* \"#utility.yul\":19225:19644   */\n    tag_210:\n        /* \"#utility.yul\":19391:19395   */\n      0x00\n        /* \"#utility.yul\":19429:19431   */\n      0x20\n        /* \"#utility.yul\":19418:19427   */\n      dup3\n        /* \"#utility.yul\":19414:19432   */\n      add\n        /* \"#utility.yul\":19406:19432   */\n      swap1\n      pop\n        /* \"#utility.yul\":19478:19487   */\n      dup2\n        /* \"#utility.yul\":19472:19476   */\n      dup2\n        /* \"#utility.yul\":19468:19488   */\n      sub\n        /* \"#utility.yul\":19464:19465   */\n      0x00\n        /* \"#utility.yul\":19453:19462   */\n      dup4\n        /* \"#utility.yul\":19449:19466   */\n      add\n        /* \"#utility.yul\":19442:19489   */\n      mstore\n        /* \"#utility.yul\":19506:19637   */\n      tag_565\n        /* \"#utility.yul\":19632:19636   */\n      dup2\n        /* \"#utility.yul\":19506:19637   */\n      tag_346\n      jump\t// in\n    tag_565:\n        /* \"#utility.yul\":19498:19637   */\n      swap1\n      pop\n        /* \"#utility.yul\":19225:19644   */\n      swap2\n      swap1\n      pop\n      jump\t// out\n        /* \"#utility.yul\":19650:19872   */\n    tag_347:\n        /* \"#utility.yul\":19790:19824   */\n      0x4e6f2070757263686173657320666f756e6420666f7220746869732061646472\n        /* \"#utility.yul\":19786:19787   */\n      0x00\n        /* \"#utility.yul\":19778:19784   */\n      dup3\n        /* \"#utility.yul\":19774:19788   */\n      add\n        /* \"#utility.yul\":19767:19825   */\n      mstore\n        /* \"#utility.yul\":19859:19864   */\n      0x6573730000000000000000000000000000000000000000000000000000000000\n        /* \"#utility.yul\":19854:19856   */\n      0x20\n        /* \"#utility.yul\":19846:19852   */\n      dup3\n        /* \"#utility.yul\":19842:19857   */\n      add\n        /* \"#utility.yul\":19835:19865   */\n      mstore\n        /* \"#utility.yul\":19650:19872   */\n      pop\n      jump\t// out\n        /* \"#utility.yul\":19878:20244   */\n    tag_348:\n        /* \"#utility.yul\":20020:20023   */\n      0x00\n        /* \"#utility.yul\":20041:20108   */\n      tag_568\n        /* \"#utility.yul\":20105:20107   */\n      0x23\n        /* \"#utility.yul\":20100:20103   */\n      dup4\n        /* \"#utility.yul\":20041:20108   */\n      tag_291\n      jump\t// in\n    tag_568:\n        /* \"#utility.yul\":20034:20108   */\n      swap2\n      pop\n        /* \"#utility.yul\":20117:20210   */\n      tag_569\n        /* \"#utility.yul\":20206:20209   */\n      dup3\n        /* \"#utility.yul\":20117:20210   */\n      tag_347\n      jump\t// in\n    tag_569:\n        /* \"#utility.yul\":20235:20237   */\n      0x40\n        /* \"#utility.yul\":20230:20233   */\n      dup3\n        /* \"#utility.yul\":20226:20238   */\n      add\n        /* \"#utility.yul\":20219:20238   */\n      swap1\n      pop\n        /* \"#utility.yul\":19878:20244   */\n      swap2\n      swap1\n      pop\n      jump\t// out\n        /* \"#utility.yul\":20250:20669   */\n    tag_216:\n        /* \"#utility.yul\":20416:20420   */\n      0x00\n        /* \"#utility.yul\":20454:20456   */\n      0x20\n        /* \"#utility.yul\":20443:20452   */\n      dup3\n        /* \"#utility.yul\":20439:20457   */\n      add\n        /* \"#utility.yul\":20431:20457   */\n      swap1\n      pop\n        /* \"#utility.yul\":20503:20512   */\n      dup2\n        /* \"#utility.yul\":20497:20501   */\n      dup2\n        /* \"#utility.yul\":20493:20513   */\n      sub\n        /* \"#utility.yul\":20489:20490   */\n      0x00\n        /* \"#utility.yul\":20478:20487   */\n      dup4\n        /* \"#utility.yul\":20474:20491   */\n      add\n        /* \"#utility.yul\":20467:20514   */\n      mstore\n        /* \"#utility.yul\":20531:20662   */\n      tag_571\n        /* \"#utility.yul\":20657:20661   */\n      dup2\n        /* \"#utility.yul\":20531:20662   */\n      tag_348\n      jump\t// in\n    tag_571:\n        /* \"#utility.yul\":20523:20662   */\n      swap1\n      pop\n        /* \"#utility.yul\":20250:20669   */\n      swap2\n      swap1\n      pop\n      jump\t// out\n        /* \"#utility.yul\":20675:20856   */\n    tag_349:\n        /* \"#utility.yul\":20815:20848   */\n      0x536f72727921206f6e6c79206f776e65722063616e206d696e74205245582100\n        /* \"#utility.yul\":20811:20812   */\n      0x00\n        /* \"#utility.yul\":20803:20809   */\n      dup3\n        /* \"#utility.yul\":20799:20813   */\n      add\n        /* \"#utility.yul\":20792:20849   */\n      mstore\n        /* \"#utility.yul\":20675:20856   */\n      pop\n      jump\t// out\n        /* \"#utility.yul\":20862:21228   */\n    tag_350:\n        /* \"#utility.yul\":21004:21007   */\n      0x00\n        /* \"#utility.yul\":21025:21092   */\n      tag_574\n        /* \"#utility.yul\":21089:21091   */\n      0x1f\n        /* \"#utility.yul\":21084:21087   */\n      dup4\n        /* \"#utility.yul\":21025:21092   */\n      tag_291\n      jump\t// in\n    tag_574:\n        /* \"#utility.yul\":21018:21092   */\n      swap2\n      pop\n        /* \"#utility.yul\":21101:21194   */\n      tag_575\n        /* \"#utility.yul\":21190:21193   */\n      dup3\n        /* \"#utility.yul\":21101:21194   */\n      tag_349\n      jump\t// in\n    tag_575:\n        /* \"#utility.yul\":21219:21221   */\n      0x20\n        /* \"#utility.yul\":21214:21217   */\n      dup3\n        /* \"#utility.yul\":21210:21222   */\n      add\n        /* \"#utility.yul\":21203:21222   */\n      swap1\n      pop\n        /* \"#utility.yul\":20862:21228   */\n      swap2\n      swap1\n      pop\n      jump\t// out\n        /* \"#utility.yul\":21234:21653   */\n    tag_229:\n        /* \"#utility.yul\":21400:21404   */\n      0x00\n        /* \"#utility.yul\":21438:21440   */\n      0x20\n        /* \"#utility.yul\":21427:21436   */\n      dup3\n        /* \"#utility.yul\":21423:21441   */\n      add\n        /* \"#utility.yul\":21415:21441   */\n      swap1\n      pop\n        /* \"#utility.yul\":21487:21496   */\n      dup2\n        /* \"#utility.yul\":21481:21485   */\n      dup2\n        /* \"#utility.yul\":21477:21497   */\n      sub\n        /* \"#utility.yul\":21473:21474   */\n      0x00\n        /* \"#utility.yul\":21462:21471   */\n      dup4\n        /* \"#utility.yul\":21458:21475   */\n      add\n        /* \"#utility.yul\":21451:21498   */\n      mstore\n        /* \"#utility.yul\":21515:21646   */\n      tag_577\n        /* \"#utility.yul\":21641:21645   */\n      dup2\n        /* \"#utility.yul\":21515:21646   */\n      tag_350\n      jump\t// in\n    tag_577:\n        /* \"#utility.yul\":21507:21646   */\n      swap1\n      pop\n        /* \"#utility.yul\":21234:21653   */\n      swap2\n      swap1\n      pop\n      jump\t// out\n        /* \"#utility.yul\":21659:21835   */\n    tag_351:\n        /* \"#utility.yul\":21799:21827   */\n      0x54686973206164647265737320646f65736e2774206578697374000000000000\n        /* \"#utility.yul\":21795:21796   */\n      0x00\n        /* \"#utility.yul\":21787:21793   */\n      dup3\n        /* \"#utility.yul\":21783:21797   */\n      add\n        /* \"#utility.yul\":21776:21828   */\n      mstore\n        /* \"#utility.yul\":21659:21835   */\n      pop\n      jump\t// out\n        /* \"#utility.yul\":21841:22207   */\n    tag_352:\n        /* \"#utility.yul\":21983:21986   */\n      0x00\n        /* \"#utility.yul\":22004:22071   */\n      tag_580\n        /* \"#utility.yul\":22068:22070   */\n      0x1a\n        /* \"#utility.yul\":22063:22066   */\n      dup4\n        /* \"#utility.yul\":22004:22071   */\n      tag_291\n      jump\t// in\n    tag_580:\n        /* \"#utility.yul\":21997:22071   */\n      swap2\n      pop\n        /* \"#utility.yul\":22080:22173   */\n      tag_581\n        /* \"#utility.yul\":22169:22172   */\n      dup3\n        /* \"#utility.yul\":22080:22173   */\n      tag_351\n      jump\t// in\n    tag_581:\n        /* \"#utility.yul\":22198:22200   */\n      0x20\n        /* \"#utility.yul\":22193:22196   */\n      dup3\n        /* \"#utility.yul\":22189:22201   */\n      add\n        /* \"#utility.yul\":22182:22201   */\n      swap1\n      pop\n        /* \"#utility.yul\":21841:22207   */\n      swap2\n      swap1\n      pop\n      jump\t// out\n        /* \"#utility.yul\":22213:22632   */\n    tag_233:\n        /* \"#utility.yul\":22379:22383   */\n      0x00\n        /* \"#utility.yul\":22417:22419   */\n      0x20\n        /* \"#utility.yul\":22406:22415   */\n      dup3\n        /* \"#utility.yul\":22402:22420   */\n      add\n        /* \"#utility.yul\":22394:22420   */\n      swap1\n      pop\n        /* \"#utility.yul\":22466:22475   */\n      dup2\n        /* \"#utility.yul\":22460:22464   */\n      dup2\n        /* \"#utility.yul\":22456:22476   */\n      sub\n        /* \"#utility.yul\":22452:22453   */\n      0x00\n        /* \"#utility.yul\":22441:22450   */\n      dup4\n        /* \"#utility.yul\":22437:22454   */\n      add\n        /* \"#utility.yul\":22430:22477   */\n      mstore\n        /* \"#utility.yul\":22494:22625   */\n      tag_583\n        /* \"#utility.yul\":22620:22624   */\n      dup2\n        /* \"#utility.yul\":22494:22625   */\n      tag_352\n      jump\t// in\n    tag_583:\n        /* \"#utility.yul\":22486:22625   */\n      swap1\n      pop\n        /* \"#utility.yul\":22213:22632   */\n      swap2\n      swap1\n      pop\n      jump\t// out\n        /* \"#utility.yul\":22638:22862   */\n    tag_353:\n        /* \"#utility.yul\":22778:22812   */\n      0x596f752063616e2774206d696e74206e65676174697665206e756d626572206f\n        /* \"#utility.yul\":22774:22775   */\n      0x00\n        /* \"#utility.yul\":22766:22772   */\n      dup3\n        /* \"#utility.yul\":22762:22776   */\n      add\n        /* \"#utility.yul\":22755:22813   */\n      mstore\n        /* \"#utility.yul\":22847:22854   */\n      0x6620524558000000000000000000000000000000000000000000000000000000\n        /* \"#utility.yul\":22842:22844   */\n      0x20\n        /* \"#utility.yul\":22834:22840   */\n      dup3\n        /* \"#utility.yul\":22830:22845   */\n      add\n        /* \"#utility.yul\":22823:22855   */\n      mstore\n        /* \"#utility.yul\":22638:22862   */\n      pop\n      jump\t// out\n        /* \"#utility.yul\":22868:23234   */\n    tag_354:\n        /* \"#utility.yul\":23010:23013   */\n      0x00\n        /* \"#utility.yul\":23031:23098   */\n      tag_586\n        /* \"#utility.yul\":23095:23097   */\n      0x25\n        /* \"#utility.yul\":23090:23093   */\n      dup4\n        /* \"#utility.yul\":23031:23098   */\n      tag_291\n      jump\t// in\n    tag_586:\n        /* \"#utility.yul\":23024:23098   */\n      swap2\n      pop\n        /* \"#utility.yul\":23107:23200   */\n      tag_587\n        /* \"#utility.yul\":23196:23199   */\n      dup3\n        /* \"#utility.yul\":23107:23200   */\n      tag_353\n      jump\t// in\n    tag_587:\n        /* \"#utility.yul\":23225:23227   */\n      0x40\n        /* \"#utility.yul\":23220:23223   */\n      dup3\n        /* \"#utility.yul\":23216:23228   */\n      add\n        /* \"#utility.yul\":23209:23228   */\n      swap1\n      pop\n        /* \"#utility.yul\":22868:23234   */\n      swap2\n      swap1\n      pop\n      jump\t// out\n        /* \"#utility.yul\":23240:23659   */\n    tag_236:\n        /* \"#utility.yul\":23406:23410   */\n      0x00\n        /* \"#utility.yul\":23444:23446   */\n      0x20\n        /* \"#utility.yul\":23433:23442   */\n      dup3\n        /* \"#utility.yul\":23429:23447   */\n      add\n        /* \"#utility.yul\":23421:23447   */\n      swap1\n      pop\n        /* \"#utility.yul\":23493:23502   */\n      dup2\n        /* \"#utility.yul\":23487:23491   */\n      dup2\n        /* \"#utility.yul\":23483:23503   */\n      sub\n        /* \"#utility.yul\":23479:23480   */\n      0x00\n        /* \"#utility.yul\":23468:23477   */\n      dup4\n        /* \"#utility.yul\":23464:23481   */\n      add\n        /* \"#utility.yul\":23457:23504   */\n      mstore\n        /* \"#utility.yul\":23521:23652   */\n      tag_589\n        /* \"#utility.yul\":23647:23651   */\n      dup2\n        /* \"#utility.yul\":23521:23652   */\n      tag_354\n      jump\t// in\n    tag_589:\n        /* \"#utility.yul\":23513:23652   */\n      swap1\n      pop\n        /* \"#utility.yul\":23240:23659   */\n      swap2\n      swap1\n      pop\n      jump\t// out\n        /* \"#utility.yul\":23665:23888   */\n    tag_355:\n        /* \"#utility.yul\":23805:23839   */\n      0x45524332303a20617070726f76652066726f6d20746865207a65726f20616464\n        /* \"#utility.yul\":23801:23802   */\n      0x00\n        /* \"#utility.yul\":23793:23799   */\n      dup3\n        /* \"#utility.yul\":23789:23803   */\n      add\n        /* \"#utility.yul\":23782:23840   */\n      mstore\n        /* \"#utility.yul\":23874:23880   */\n      0x7265737300000000000000000000000000000000000000000000000000000000\n        /* \"#utility.yul\":23869:23871   */\n      0x20\n        /* \"#utility.yul\":23861:23867   */\n      dup3\n        /* \"#utility.yul\":23857:23872   */\n      add\n        /* \"#utility.yul\":23850:23881   */\n      mstore\n        /* \"#utility.yul\":23665:23888   */\n      pop\n      jump\t// out\n        /* \"#utility.yul\":23894:24260   */\n    tag_356:\n        /* \"#utility.yul\":24036:24039   */\n      0x00\n        /* \"#utility.yul\":24057:24124   */\n      tag_592\n        /* \"#utility.yul\":24121:24123   */\n      0x24\n        /* \"#utility.yul\":24116:24119   */\n      dup4\n        /* \"#utility.yul\":24057:24124   */\n      tag_291\n      jump\t// in\n    tag_592:\n        /* \"#utility.yul\":24050:24124   */\n      swap2\n      pop\n        /* \"#utility.yul\":24133:24226   */\n      tag_593\n        /* \"#utility.yul\":24222:24225   */\n      dup3\n        /* \"#utility.yul\":24133:24226   */\n      tag_355\n      jump\t// in\n    tag_593:\n        /* \"#utility.yul\":24251:24253   */\n      0x40\n        /* \"#utility.yul\":24246:24249   */\n      dup3\n        /* \"#utility.yul\":24242:24254   */\n      add\n        /* \"#utility.yul\":24235:24254   */\n      swap1\n      pop\n        /* \"#utility.yul\":23894:24260   */\n      swap2\n      swap1\n      pop\n      jump\t// out\n        /* \"#utility.yul\":24266:24685   */\n    tag_243:\n        /* \"#utility.yul\":24432:24436   */\n      0x00\n        /* \"#utility.yul\":24470:24472   */\n      0x20\n        /* \"#utility.yul\":24459:24468   */\n      dup3\n        /* \"#utility.yul\":24455:24473   */\n      add\n        /* \"#utility.yul\":24447:24473   */\n      swap1\n      pop\n        /* \"#utility.yul\":24519:24528   */\n      dup2\n        /* \"#utility.yul\":24513:24517   */\n      dup2\n        /* \"#utility.yul\":24509:24529   */\n      sub\n        /* \"#utility.yul\":24505:24506   */\n      0x00\n        /* \"#utility.yul\":24494:24503   */\n      dup4\n        /* \"#utility.yul\":24490:24507   */\n      add\n        /* \"#utility.yul\":24483:24530   */\n      mstore\n        /* \"#utility.yul\":24547:24678   */\n      tag_595\n        /* \"#utility.yul\":24673:24677   */\n      dup2\n        /* \"#utility.yul\":24547:24678   */\n      tag_356\n      jump\t// in\n    tag_595:\n        /* \"#utility.yul\":24539:24678   */\n      swap1\n      pop\n        /* \"#utility.yul\":24266:24685   */\n      swap2\n      swap1\n      pop\n      jump\t// out\n        /* \"#utility.yul\":24691:24912   */\n    tag_357:\n        /* \"#utility.yul\":24831:24865   */\n      0x45524332303a20617070726f766520746f20746865207a65726f206164647265\n        /* \"#utility.yul\":24827:24828   */\n      0x00\n        /* \"#utility.yul\":24819:24825   */\n      dup3\n        /* \"#utility.yul\":24815:24829   */\n      add\n        /* \"#utility.yul\":24808:24866   */\n      mstore\n        /* \"#utility.yul\":24900:24904   */\n      0x7373000000000000000000000000000000000000000000000000000000000000\n        /* \"#utility.yul\":24895:24897   */\n      0x20\n        /* \"#utility.yul\":24887:24893   */\n      dup3\n        /* \"#utility.yul\":24883:24898   */\n      add\n        /* \"#utility.yul\":24876:24905   */\n      mstore\n        /* \"#utility.yul\":24691:24912   */\n      pop\n      jump\t// out\n        /* \"#utility.yul\":24918:25284   */\n    tag_358:\n        /* \"#utility.yul\":25060:25063   */\n      0x00\n        /* \"#utility.yul\":25081:25148   */\n      tag_598\n        /* \"#utility.yul\":25145:25147   */\n      0x22\n        /* \"#utility.yul\":25140:25143   */\n      dup4\n        /* \"#utility.yul\":25081:25148   */\n      tag_291\n      jump\t// in\n    tag_598:\n        /* \"#utility.yul\":25074:25148   */\n      swap2\n      pop\n        /* \"#utility.yul\":25157:25250   */\n      tag_599\n        /* \"#utility.yul\":25246:25249   */\n      dup3\n        /* \"#utility.yul\":25157:25250   */\n      tag_357\n      jump\t// in\n    tag_599:\n        /* \"#utility.yul\":25275:25277   */\n      0x40\n        /* \"#utility.yul\":25270:25273   */\n      dup3\n        /* \"#utility.yul\":25266:25278   */\n      add\n        /* \"#utility.yul\":25259:25278   */\n      swap1\n      pop\n        /* \"#utility.yul\":24918:25284   */\n      swap2\n      swap1\n      pop\n      jump\t// out\n        /* \"#utility.yul\":25290:25709   */\n    tag_246:\n        /* \"#utility.yul\":25456:25460   */\n      0x00\n        /* \"#utility.yul\":25494:25496   */\n      0x20\n        /* \"#utility.yul\":25483:25492   */\n      dup3\n        /* \"#utility.yul\":25479:25497   */\n      add\n        /* \"#utility.yul\":25471:25497   */\n      swap1\n      pop\n        /* \"#utility.yul\":25543:25552   */\n      dup2\n        /* \"#utility.yul\":25537:25541   */\n      dup2\n        /* \"#utility.yul\":25533:25553   */\n      sub\n        /* \"#utility.yul\":25529:25530   */\n      0x00\n        /* \"#utility.yul\":25518:25527   */\n      dup4\n        /* \"#utility.yul\":25514:25531   */\n      add\n        /* \"#utility.yul\":25507:25554   */\n      mstore\n        /* \"#utility.yul\":25571:25702   */\n      tag_601\n        /* \"#utility.yul\":25697:25701   */\n      dup2\n        /* \"#utility.yul\":25571:25702   */\n      tag_358\n      jump\t// in\n    tag_601:\n        /* \"#utility.yul\":25563:25702   */\n      swap1\n      pop\n        /* \"#utility.yul\":25290:25709   */\n      swap2\n      swap1\n      pop\n      jump\t// out\n        /* \"#utility.yul\":25715:25894   */\n    tag_359:\n        /* \"#utility.yul\":25855:25886   */\n      0x45524332303a20696e73756666696369656e7420616c6c6f77616e6365000000\n        /* \"#utility.yul\":25851:25852   */\n      0x00\n        /* \"#utility.yul\":25843:25849   */\n      dup3\n        /* \"#utility.yul\":25839:25853   */\n      add\n        /* \"#utility.yul\":25832:25887   */\n      mstore\n        /* \"#utility.yul\":25715:25894   */\n      pop\n      jump\t// out\n        /* \"#utility.yul\":25900:26266   */\n    tag_360:\n        /* \"#utility.yul\":26042:26045   */\n      0x00\n        /* \"#utility.yul\":26063:26130   */\n      tag_604\n        /* \"#utility.yul\":26127:26129   */\n      0x1d\n        /* \"#utility.yul\":26122:26125   */\n      dup4\n        /* \"#utility.yul\":26063:26130   */\n      tag_291\n      jump\t// in\n    tag_604:\n        /* \"#utility.yul\":26056:26130   */\n      swap2\n      pop\n        /* \"#utility.yul\":26139:26232   */\n      tag_605\n        /* \"#utility.yul\":26228:26231   */\n      dup3\n        /* \"#utility.yul\":26139:26232   */\n      tag_359\n      jump\t// in\n    tag_605:\n        /* \"#utility.yul\":26257:26259   */\n      0x20\n        /* \"#utility.yul\":26252:26255   */\n      dup3\n        /* \"#utility.yul\":26248:26260   */\n      add\n        /* \"#utility.yul\":26241:26260   */\n      swap1\n      pop\n        /* \"#utility.yul\":25900:26266   */\n      swap2\n      swap1\n      pop\n      jump\t// out\n        /* \"#utility.yul\":26272:26691   */\n    tag_253:\n        /* \"#utility.yul\":26438:26442   */\n      0x00\n        /* \"#utility.yul\":26476:26478   */\n      0x20\n        /* \"#utility.yul\":26465:26474   */\n      dup3\n        /* \"#utility.yul\":26461:26479   */\n      add\n        /* \"#utility.yul\":26453:26479   */\n      swap1\n      pop\n        /* \"#utility.yul\":26525:26534   */\n      dup2\n        /* \"#utility.yul\":26519:26523   */\n      dup2\n        /* \"#utility.yul\":26515:26535   */\n      sub\n        /* \"#utility.yul\":26511:26512   */\n      0x00\n        /* \"#utility.yul\":26500:26509   */\n      dup4\n        /* \"#utility.yul\":26496:26513   */\n      add\n        /* \"#utility.yul\":26489:26536   */\n      mstore\n        /* \"#utility.yul\":26553:26684   */\n      tag_607\n        /* \"#utility.yul\":26679:26683   */\n      dup2\n        /* \"#utility.yul\":26553:26684   */\n      tag_360\n      jump\t// in\n    tag_607:\n        /* \"#utility.yul\":26545:26684   */\n      swap1\n      pop\n        /* \"#utility.yul\":26272:26691   */\n      swap2\n      swap1\n      pop\n      jump\t// out\n        /* \"#utility.yul\":26697:26921   */\n    tag_361:\n        /* \"#utility.yul\":26837:26871   */\n      0x45524332303a207472616e736665722066726f6d20746865207a65726f206164\n        /* \"#utility.yul\":26833:26834   */\n      0x00\n        /* \"#utility.yul\":26825:26831   */\n      dup3\n        /* \"#utility.yul\":26821:26835   */\n      add\n        /* \"#utility.yul\":26814:26872   */\n      mstore\n        /* \"#utility.yul\":26906:26913   */\n      0x6472657373000000000000000000000000000000000000000000000000000000\n        /* \"#utility.yul\":26901:26903   */\n      0x20\n        /* \"#utility.yul\":26893:26899   */\n      dup3\n        /* \"#utility.yul\":26889:26904   */\n      add\n        /* \"#utility.yul\":26882:26914   */\n      mstore\n        /* \"#utility.yul\":26697:26921   */\n      pop\n      jump\t// out\n        /* \"#utility.yul\":26927:27293   */\n    tag_362:\n        /* \"#utility.yul\":27069:27072   */\n      0x00\n        /* \"#utility.yul\":27090:27157   */\n      tag_610\n        /* \"#utility.yul\":27154:27156   */\n      0x25\n        /* \"#utility.yul\":27149:27152   */\n      dup4\n        /* \"#utility.yul\":27090:27157   */\n      tag_291\n      jump\t// in\n    tag_610:\n        /* \"#utility.yul\":27083:27157   */\n      swap2\n      pop\n        /* \"#utility.yul\":27166:27259   */\n      tag_611\n        /* \"#utility.yul\":27255:27258   */\n      dup3\n        /* \"#utility.yul\":27166:27259   */\n      tag_361\n      jump\t// in\n    tag_611:\n        /* \"#utility.yul\":27284:27286   */\n      0x40\n        /* \"#utility.yul\":27279:27282   */\n      dup3\n        /* \"#utility.yul\":27275:27287   */\n      add\n        /* \"#utility.yul\":27268:27287   */\n      swap1\n      pop\n        /* \"#utility.yul\":26927:27293   */\n      swap2\n      swap1\n      pop\n      jump\t// out\n        /* \"#utility.yul\":27299:27718   */\n    tag_258:\n        /* \"#utility.yul\":27465:27469   */\n      0x00\n        /* \"#utility.yul\":27503:27505   */\n      0x20\n        /* \"#utility.yul\":27492:27501   */\n      dup3\n        /* \"#utility.yul\":27488:27506   */\n      add\n        /* \"#utility.yul\":27480:27506   */\n      swap1\n      pop\n        /* \"#utility.yul\":27552:27561   */\n      dup2\n        /* \"#utility.yul\":27546:27550   */\n      dup2\n        /* \"#utility.yul\":27542:27562   */\n      sub\n        /* \"#utility.yul\":27538:27539   */\n      0x00\n        /* \"#utility.yul\":27527:27536   */\n      dup4\n        /* \"#utility.yul\":27523:27540   */\n      add\n        /* \"#utility.yul\":27516:27563   */\n      mstore\n        /* \"#utility.yul\":27580:27711   */\n      tag_613\n        /* \"#utility.yul\":27706:27710   */\n      dup2\n        /* \"#utility.yul\":27580:27711   */\n      tag_362\n      jump\t// in\n    tag_613:\n        /* \"#utility.yul\":27572:27711   */\n      swap1\n      pop\n        /* \"#utility.yul\":27299:27718   */\n      swap2\n      swap1\n      pop\n      jump\t// out\n        /* \"#utility.yul\":27724:27946   */\n    tag_363:\n        /* \"#utility.yul\":27864:27898   */\n      0x45524332303a207472616e7366657220746f20746865207a65726f2061646472\n        /* \"#utility.yul\":27860:27861   */\n      0x00\n        /* \"#utility.yul\":27852:27858   */\n      dup3\n        /* \"#utility.yul\":27848:27862   */\n      add\n        /* \"#utility.yul\":27841:27899   */\n      mstore\n        /* \"#utility.yul\":27933:27938   */\n      0x6573730000000000000000000000000000000000000000000000000000000000\n        /* \"#utility.yul\":27928:27930   */\n      0x20\n        /* \"#utility.yul\":27920:27926   */\n      dup3\n        /* \"#utility.yul\":27916:27931   */\n      add\n        /* \"#utility.yul\":27909:27939   */\n      mstore\n        /* \"#utility.yul\":27724:27946   */\n      pop\n      jump\t// out\n        /* \"#utility.yul\":27952:28318   */\n    tag_364:\n        /* \"#utility.yul\":28094:28097   */\n      0x00\n        /* \"#utility.yul\":28115:28182   */\n      tag_616\n        /* \"#utility.yul\":28179:28181   */\n      0x23\n        /* \"#utility.yul\":28174:28177   */\n      dup4\n        /* \"#utility.yul\":28115:28182   */\n      tag_291\n      jump\t// in\n    tag_616:\n        /* \"#utility.yul\":28108:28182   */\n      swap2\n      pop\n        /* \"#utility.yul\":28191:28284   */\n      tag_617\n        /* \"#utility.yul\":28280:28283   */\n      dup3\n        /* \"#utility.yul\":28191:28284   */\n      tag_363\n      jump\t// in\n    tag_617:\n        /* \"#utility.yul\":28309:28311   */\n      0x40\n        /* \"#utility.yul\":28304:28307   */\n      dup3\n        /* \"#utility.yul\":28300:28312   */\n      add\n        /* \"#utility.yul\":28293:28312   */\n      swap1\n      pop\n        /* \"#utility.yul\":27952:28318   */\n      swap2\n      swap1\n      pop\n      jump\t// out\n        /* \"#utility.yul\":28324:28743   */\n    tag_261:\n        /* \"#utility.yul\":28490:28494   */\n      0x00\n        /* \"#utility.yul\":28528:28530   */\n      0x20\n        /* \"#utility.yul\":28517:28526   */\n      dup3\n        /* \"#utility.yul\":28513:28531   */\n      add\n        /* \"#utility.yul\":28505:28531   */\n      swap1\n      pop\n        /* \"#utility.yul\":28577:28586   */\n      dup2\n        /* \"#utility.yul\":28571:28575   */\n      dup2\n        /* \"#utility.yul\":28567:28587   */\n      sub\n        /* \"#utility.yul\":28563:28564   */\n      0x00\n        /* \"#utility.yul\":28552:28561   */\n      dup4\n        /* \"#utility.yul\":28548:28565   */\n      add\n        /* \"#utility.yul\":28541:28588   */\n      mstore\n        /* \"#utility.yul\":28605:28736   */\n      tag_619\n        /* \"#utility.yul\":28731:28735   */\n      dup2\n        /* \"#utility.yul\":28605:28736   */\n      tag_364\n      jump\t// in\n    tag_619:\n        /* \"#utility.yul\":28597:28736   */\n      swap1\n      pop\n        /* \"#utility.yul\":28324:28743   */\n      swap2\n      swap1\n      pop\n      jump\t// out\n        /* \"#utility.yul\":28749:28974   */\n    tag_365:\n        /* \"#utility.yul\":28889:28923   */\n      0x45524332303a207472616e7366657220616d6f756e7420657863656564732062\n        /* \"#utility.yul\":28885:28886   */\n      0x00\n        /* \"#utility.yul\":28877:28883   */\n      dup3\n        /* \"#utility.yul\":28873:28887   */\n      add\n        /* \"#utility.yul\":28866:28924   */\n      mstore\n        /* \"#utility.yul\":28958:28966   */\n      0x616c616e63650000000000000000000000000000000000000000000000000000\n        /* \"#utility.yul\":28953:28955   */\n      0x20\n        /* \"#utility.yul\":28945:28951   */\n      dup3\n        /* \"#utility.yul\":28941:28956   */\n      add\n        /* \"#utility.yul\":28934:28967   */\n      mstore\n        /* \"#utility.yul\":28749:28974   */\n      pop\n      jump\t// out\n        /* \"#utility.yul\":28980:29346   */\n    tag_366:\n        /* \"#utility.yul\":29122:29125   */\n      0x00\n        /* \"#utility.yul\":29143:29210   */\n      tag_622\n        /* \"#utility.yul\":29207:29209   */\n      0x26\n        /* \"#utility.yul\":29202:29205   */\n      dup4\n        /* \"#utility.yul\":29143:29210   */\n      tag_291\n      jump\t// in\n    tag_622:\n        /* \"#utility.yul\":29136:29210   */\n      swap2\n      pop\n        /* \"#utility.yul\":29219:29312   */\n      tag_623\n        /* \"#utility.yul\":29308:29311   */\n      dup3\n        /* \"#utility.yul\":29219:29312   */\n      tag_365\n      jump\t// in\n    tag_623:\n        /* \"#utility.yul\":29337:29339   */\n      0x40\n        /* \"#utility.yul\":29332:29335   */\n      dup3\n        /* \"#utility.yul\":29328:29340   */\n      add\n        /* \"#utility.yul\":29321:29340   */\n      swap1\n      pop\n        /* \"#utility.yul\":28980:29346   */\n      swap2\n      swap1\n      pop\n      jump\t// out\n        /* \"#utility.yul\":29352:29771   */\n    tag_266:\n        /* \"#utility.yul\":29518:29522   */\n      0x00\n        /* \"#utility.yul\":29556:29558   */\n      0x20\n        /* \"#utility.yul\":29545:29554   */\n      dup3\n        /* \"#utility.yul\":29541:29559   */\n      add\n        /* \"#utility.yul\":29533:29559   */\n      swap1\n      pop\n        /* \"#utility.yul\":29605:29614   */\n      dup2\n        /* \"#utility.yul\":29599:29603   */\n      dup2\n        /* \"#utility.yul\":29595:29615   */\n      sub\n        /* \"#utility.yul\":29591:29592   */\n      0x00\n        /* \"#utility.yul\":29580:29589   */\n      dup4\n        /* \"#utility.yul\":29576:29593   */\n      add\n        /* \"#utility.yul\":29569:29616   */\n      mstore\n        /* \"#utility.yul\":29633:29764   */\n      tag_625\n        /* \"#utility.yul\":29759:29763   */\n      dup2\n        /* \"#utility.yul\":29633:29764   */\n      tag_366\n      jump\t// in\n    tag_625:\n        /* \"#utility.yul\":29625:29764   */\n      swap1\n      pop\n        /* \"#utility.yul\":29352:29771   */\n      swap2\n      swap1\n      pop\n      jump\t// out\n        /* \"#utility.yul\":29777:29997   */\n    tag_367:\n        /* \"#utility.yul\":29917:29951   */\n      0x45524332303a206275726e2066726f6d20746865207a65726f20616464726573\n        /* \"#utility.yul\":29913:29914   */\n      0x00\n        /* \"#utility.yul\":29905:29911   */\n      dup3\n        /* \"#utility.yul\":29901:29915   */\n      add\n        /* \"#utility.yul\":29894:29952   */\n      mstore\n        /* \"#utility.yul\":29986:29989   */\n      0x7300000000000000000000000000000000000000000000000000000000000000\n        /* \"#utility.yul\":29981:29983   */\n      0x20\n        /* \"#utility.yul\":29973:29979   */\n      dup3\n        /* \"#utility.yul\":29969:29984   */\n      add\n        /* \"#utility.yul\":29962:29990   */\n      mstore\n        /* \"#utility.yul\":29777:29997   */\n      pop\n      jump\t// out\n        /* \"#utility.yul\":30003:30369   */\n    tag_368:\n        /* \"#utility.yul\":30145:30148   */\n      0x00\n        /* \"#utility.yul\":30166:30233   */\n      tag_628\n        /* \"#utility.yul\":30230:30232   */\n      0x21\n        /* \"#utility.yul\":30225:30228   */\n      dup4\n        /* \"#utility.yul\":30166:30233   */\n      tag_291\n      jump\t// in\n    tag_628:\n        /* \"#utility.yul\":30159:30233   */\n      swap2\n      pop\n        /* \"#utility.yul\":30242:30335   */\n      tag_629\n        /* \"#utility.yul\":30331:30334   */\n      dup3\n        /* \"#utility.yul\":30242:30335   */\n      tag_367\n      jump\t// in\n    tag_629:\n        /* \"#utility.yul\":30360:30362   */\n      0x40\n        /* \"#utility.yul\":30355:30358   */\n      dup3\n        /* \"#utility.yul\":30351:30363   */\n      add\n        /* \"#utility.yul\":30344:30363   */\n      swap1\n      pop\n        /* \"#utility.yul\":30003:30369   */\n      swap2\n      swap1\n      pop\n      jump\t// out\n        /* \"#utility.yul\":30375:30794   */\n    tag_273:\n        /* \"#utility.yul\":30541:30545   */\n      0x00\n        /* \"#utility.yul\":30579:30581   */\n      0x20\n        /* \"#utility.yul\":30568:30577   */\n      dup3\n        /* \"#utility.yul\":30564:30582   */\n      add\n        /* \"#utility.yul\":30556:30582   */\n      swap1\n      pop\n        /* \"#utility.yul\":30628:30637   */\n      dup2\n        /* \"#utility.yul\":30622:30626   */\n      dup2\n        /* \"#utility.yul\":30618:30638   */\n      sub\n        /* \"#utility.yul\":30614:30615   */\n      0x00\n        /* \"#utility.yul\":30603:30612   */\n      dup4\n        /* \"#utility.yul\":30599:30616   */\n      add\n        /* \"#utility.yul\":30592:30639   */\n      mstore\n        /* \"#utility.yul\":30656:30787   */\n      tag_631\n        /* \"#utility.yul\":30782:30786   */\n      dup2\n        /* \"#utility.yul\":30656:30787   */\n      tag_368\n      jump\t// in\n    tag_631:\n        /* \"#utility.yul\":30648:30787   */\n      swap1\n      pop\n        /* \"#utility.yul\":30375:30794   */\n      swap2\n      swap1\n      pop\n      jump\t// out\n        /* \"#utility.yul\":30800:31021   */\n    tag_369:\n        /* \"#utility.yul\":30940:30974   */\n      0x45524332303a206275726e20616d6f756e7420657863656564732062616c616e\n        /* \"#utility.yul\":30936:30937   */\n      0x00\n        /* \"#utility.yul\":30928:30934   */\n      dup3\n        /* \"#utility.yul\":30924:30938   */\n      add\n        /* \"#utility.yul\":30917:30975   */\n      mstore\n        /* \"#utility.yul\":31009:31013   */\n      0x6365000000000000000000000000000000000000000000000000000000000000\n        /* \"#utility.yul\":31004:31006   */\n      0x20\n        /* \"#utility.yul\":30996:31002   */\n      dup3\n        /* \"#utility.yul\":30992:31007   */\n      add\n        /* \"#utility.yul\":30985:31014   */\n      mstore\n        /* \"#utility.yul\":30800:31021   */\n      pop\n      jump\t// out\n        /* \"#utility.yul\":31027:31393   */\n    tag_370:\n        /* \"#utility.yul\":31169:31172   */\n      0x00\n        /* \"#utility.yul\":31190:31257   */\n      tag_634\n        /* \"#utility.yul\":31254:31256   */\n      0x22\n        /* \"#utility.yul\":31249:31252   */\n      dup4\n        /* \"#utility.yul\":31190:31257   */\n      tag_291\n      jump\t// in\n    tag_634:\n        /* \"#utility.yul\":31183:31257   */\n      swap2\n      pop\n        /* \"#utility.yul\":31266:31359   */\n      tag_635\n        /* \"#utility.yul\":31355:31358   */\n      dup3\n        /* \"#utility.yul\":31266:31359   */\n      tag_369\n      jump\t// in\n    tag_635:\n        /* \"#utility.yul\":31384:31386   */\n      0x40\n        /* \"#utility.yul\":31379:31382   */\n      dup3\n        /* \"#utility.yul\":31375:31387   */\n      add\n        /* \"#utility.yul\":31368:31387   */\n      swap1\n      pop\n        /* \"#utility.yul\":31027:31393   */\n      swap2\n      swap1\n      pop\n      jump\t// out\n        /* \"#utility.yul\":31399:31818   */\n    tag_277:\n        /* \"#utility.yul\":31565:31569   */\n      0x00\n        /* \"#utility.yul\":31603:31605   */\n      0x20\n        /* \"#utility.yul\":31592:31601   */\n      dup3\n        /* \"#utility.yul\":31588:31606   */\n      add\n        /* \"#utility.yul\":31580:31606   */\n      swap1\n      pop\n        /* \"#utility.yul\":31652:31661   */\n      dup2\n        /* \"#utility.yul\":31646:31650   */\n      dup2\n        /* \"#utility.yul\":31642:31662   */\n      sub\n        /* \"#utility.yul\":31638:31639   */\n      0x00\n        /* \"#utility.yul\":31627:31636   */\n      dup4\n        /* \"#utility.yul\":31623:31640   */\n      add\n        /* \"#utility.yul\":31616:31663   */\n      mstore\n        /* \"#utility.yul\":31680:31811   */\n      tag_637\n        /* \"#utility.yul\":31806:31810   */\n      dup2\n        /* \"#utility.yul\":31680:31811   */\n      tag_370\n      jump\t// in\n    tag_637:\n        /* \"#utility.yul\":31672:31811   */\n      swap1\n      pop\n        /* \"#utility.yul\":31399:31818   */\n      swap2\n      swap1\n      pop\n      jump\t// out\n        /* \"#utility.yul\":31824:32005   */\n    tag_371:\n        /* \"#utility.yul\":31964:31997   */\n      0x45524332303a206d696e7420746f20746865207a65726f206164647265737300\n        /* \"#utility.yul\":31960:31961   */\n      0x00\n        /* \"#utility.yul\":31952:31958   */\n      dup3\n        /* \"#utility.yul\":31948:31962   */\n      add\n        /* \"#utility.yul\":31941:31998   */\n      mstore\n        /* \"#utility.yul\":31824:32005   */\n      pop\n      jump\t// out\n        /* \"#utility.yul\":32011:32377   */\n    tag_372:\n        /* \"#utility.yul\":32153:32156   */\n      0x00\n        /* \"#utility.yul\":32174:32241   */\n      tag_640\n        /* \"#utility.yul\":32238:32240   */\n      0x1f\n        /* \"#utility.yul\":32233:32236   */\n      dup4\n        /* \"#utility.yul\":32174:32241   */\n      tag_291\n      jump\t// in\n    tag_640:\n        /* \"#utility.yul\":32167:32241   */\n      swap2\n      pop\n        /* \"#utility.yul\":32250:32343   */\n      tag_641\n        /* \"#utility.yul\":32339:32342   */\n      dup3\n        /* \"#utility.yul\":32250:32343   */\n      tag_371\n      jump\t// in\n    tag_641:\n        /* \"#utility.yul\":32368:32370   */\n      0x20\n        /* \"#utility.yul\":32363:32366   */\n      dup3\n        /* \"#utility.yul\":32359:32371   */\n      add\n        /* \"#utility.yul\":32352:32371   */\n      swap1\n      pop\n        /* \"#utility.yul\":32011:32377   */\n      swap2\n      swap1\n      pop\n      jump\t// out\n        /* \"#utility.yul\":32383:32802   */\n    tag_283:\n        /* \"#utility.yul\":32549:32553   */\n      0x00\n        /* \"#utility.yul\":32587:32589   */\n      0x20\n        /* \"#utility.yul\":32576:32585   */\n      dup3\n        /* \"#utility.yul\":32572:32590   */\n      add\n        /* \"#utility.yul\":32564:32590   */\n      swap1\n      pop\n        /* \"#utility.yul\":32636:32645   */\n      dup2\n        /* \"#utility.yul\":32630:32634   */\n      dup2\n        /* \"#utility.yul\":32626:32646   */\n      sub\n        /* \"#utility.yul\":32622:32623   */\n      0x00\n        /* \"#utility.yul\":32611:32620   */\n      dup4\n        /* \"#utility.yul\":32607:32624   */\n      add\n        /* \"#utility.yul\":32600:32647   */\n      mstore\n        /* \"#utility.yul\":32664:32795   */\n      tag_643\n        /* \"#utility.yul\":32790:32794   */\n      dup2\n        /* \"#utility.yul\":32664:32795   */\n      tag_372\n      jump\t// in\n    tag_643:\n        /* \"#utility.yul\":32656:32795   */\n      swap1\n      pop\n        /* \"#utility.yul\":32383:32802   */\n      swap2\n      swap1\n      pop\n      jump\t// out\n    stop\n    data_845b13d2263216d4c380190c0d4a7bdc9881d187d76b6728d5b9033af4f34067 312e2042697279616e69205b313530205245585d20322e2054616e646f6f726920436869636b656e205b323530205245585d20332e2042757474657220436869636b656e205b323030205245585d20342e204e6f6f646c6573205b313130205245585d\n\n    auxdata: 0xa26469706673582212201b431b14515fe879323082c9470811137a04b087843a907481f98e6e3743103c64736f6c63430008120033\n}\n",
				"bytecode": {
					"linkReferences": {},
					"object": "60806040526040518060400160405280600581526020017f444547454e000000000000000000000000000000000000000000000000000000815250600590816200004a919062000638565b506040518060400160405280600381526020017f52455800000000000000000000000000000000000000000000000000000000008152506006908162000091919062000638565b503480156200009f57600080fd5b5060058054620000af9062000427565b80601f0160208091040260200160405190810160405280929190818152602001828054620000dd9062000427565b80156200012e5780601f1062000102576101008083540402835291602001916200012e565b820191906000526020600020905b8154815290600101906020018083116200011057829003601f168201915b505050505060068054620001429062000427565b80601f0160208091040260200160405190810160405280929190818152602001828054620001709062000427565b8015620001c15780601f106200019557610100808354040283529160200191620001c1565b820191906000526020600020905b815481529060010190602001808311620001a357829003601f168201915b50505050508160039081620001d7919062000638565b508060049081620001e9919062000638565b50505062000200336127106200024760201b60201c565b33600860006101000a81548173ffffffffffffffffffffffffffffffffffffffff021916908373ffffffffffffffffffffffffffffffffffffffff1602179055506200083a565b600073ffffffffffffffffffffffffffffffffffffffff168273ffffffffffffffffffffffffffffffffffffffff1603620002b9576040517f08c379a0000000000000000000000000000000000000000000000000000000008152600401620002b09062000780565b60405180910390fd5b620002cd60008383620003b460201b60201c565b8060026000828254620002e19190620007d1565b92505081905550806000808473ffffffffffffffffffffffffffffffffffffffff1673ffffffffffffffffffffffffffffffffffffffff168152602001908152602001600020600082825401925050819055508173ffffffffffffffffffffffffffffffffffffffff16600073ffffffffffffffffffffffffffffffffffffffff167fddf252ad1be2c89b69c2b068fc378daa952ba7f163c4a11628f55a4df523b3ef836040516200039491906200081d565b60405180910390a3620003b060008383620003b960201b60201c565b5050565b505050565b505050565b600081519050919050565b7f4e487b7100000000000000000000000000000000000000000000000000000000600052604160045260246000fd5b7f4e487b7100000000000000000000000000000000000000000000000000000000600052602260045260246000fd5b600060028204905060018216806200044057607f821691505b602082108103620004565762000455620003f8565b5b50919050565b60008190508160005260206000209050919050565b60006020601f8301049050919050565b600082821b905092915050565b600060088302620004c07fffffffffffffffffffffffffffffffffffffffffffffffffffffffffffffffff8262000481565b620004cc868362000481565b95508019841693508086168417925050509392505050565b6000819050919050565b6000819050919050565b600062000519620005136200050d84620004e4565b620004ee565b620004e4565b9050919050565b6000819050919050565b6200053583620004f8565b6200054d620005448262000520565b8484546200048e565b825550505050565b600090565b6200056462000555565b620005718184846200052a565b505050565b5b8181101562000599576200058d6000826200055a565b60018101905062000577565b5050565b601f821115620005e857620005b2816200045c565b620005bd8462000471565b81016020851015620005cd578190505b620005e5620005dc8562000471565b83018262000576565b50505b505050565b600082821c905092915050565b60006200060d60001984600802620005ed565b1980831691505092915050565b6000620006288383620005fa565b9150826002028217905092915050565b6200064382620003be565b67ffffffffffffffff8111156200065f576200065e620003c9565b5b6200066b825462000427565b620006788282856200059d565b600060209050601f831160018114620006b057600084156200069b578287015190505b620006a785826200061a565b86555062000717565b601f198416620006c0866200045c565b60005b82811015620006ea57848901518255600182019150602085019450602081019050620006c3565b868310156200070a578489015162000706601f891682620005fa565b8355505b6001600288020188555050505b505050505050565b600082825260208201905092915050565b7f45524332303a206d696e7420746f20746865207a65726f206164647265737300600082015250565b600062000768601f836200071f565b9150620007758262000730565b602082019050919050565b600060208201905081810360008301526200079b8162000759565b9050919050565b7f4e487b7100000000000000000000000000000000000000000000000000000000600052601160045260246000fd5b6000620007de82620004e4565b9150620007eb83620004e4565b9250828201905080821115620008065762000805620007a2565b5b92915050565b6200081781620004e4565b82525050565b60006020820190506200083460008301846200080c565b92915050565b612a84806200084a6000396000f3fe608060405234801561001057600080fd5b50600436106101375760003560e01c80637b61c320116100b8578063a9059cbb1161007c578063a9059cbb14610354578063bec3fa1714610384578063dd62ed3e146103a0578063e0229239146103d0578063e271c9e6146103ef578063f0dda65c1461040d57610137565b80637b61c320146102ae5780638da5cb5b146102cc57806395d89b41146102ea578063a457c2d714610308578063a6e158f81461033857610137565b806339509351116100ff57806339509351146101f65780634f731087146102265780636c02a931146102445780636d1b229d1461026257806370a082311461027e57610137565b806306fdde031461013c578063095ea7b31461015a57806318160ddd1461018a57806323b872dd146101a8578063313ce567146101d8575b600080fd5b610144610429565b604051610151919061195c565b60405180910390f35b610174600480360381019061016f9190611a17565b6104bb565b6040516101819190611a72565b60405180910390f35b6101926104de565b60405161019f9190611a9c565b60405180910390f35b6101c260048036038101906101bd9190611ab7565b6104e8565b6040516101cf9190611a72565b60405180910390f35b6101e0610517565b6040516101ed9190611b26565b60405180910390f35b610210600480360381019061020b9190611a17565b610520565b60405161021d9190611a72565b60405180910390f35b61022e610557565b60405161023b9190611a9c565b60405180910390f35b61024c610567565b604051610259919061195c565b60405180910390f35b61027c60048036038101906102779190611b41565b6105f5565b005b61029860048036038101906102939190611b6e565b61064d565b6040516102a59190611a9c565b60405180910390f35b6102b6610695565b6040516102c3919061195c565b60405180910390f35b6102d4610723565b6040516102e19190611baa565b60405180910390f35b6102f2610749565b6040516102ff919061195c565b60405180910390f35b610322600480360381019061031d9190611a17565b6107db565b60405161032f9190611a72565b60405180910390f35b610352600480360381019061034d9190611b41565b610852565b005b61036e60048036038101906103699190611a17565b610caf565b60405161037b9190611a72565b60405180910390f35b61039e60048036038101906103999190611a17565b610cd2565b005b6103ba60048036038101906103b59190611bc5565b610d2c565b6040516103c79190611a9c565b60405180910390f35b6103d8610db3565b6040516103e6929190611d11565b60405180910390f35b6103f7610f5c565b604051610404919061195c565b60405180910390f35b61042760048036038101906104229190611a17565b610f7c565b005b60606003805461043890611d70565b80601f016020809104026020016040519081016040528092919081815260200182805461046490611d70565b80156104b15780601f10610486576101008083540402835291602001916104b1565b820191906000526020600020905b81548152906001019060200180831161049457829003601f168201915b5050505050905090565b6000806104c66110cc565b90506104d38185856110d4565b600191505092915050565b6000600254905090565b6000806104f36110cc565b905061050085828561129d565b61050b858585611329565b60019150509392505050565b60006012905090565b60008061052b6110cc565b905061054c81858561053d8589610d2c565b6105479190611dd0565b6110d4565b600191505092915050565b60006105623361064d565b905090565b6005805461057490611d70565b80601f01602080910402602001604051908101604052809291908181526020018280546105a090611d70565b80156105ed5780601f106105c2576101008083540402835291602001916105ed565b820191906000526020600020905b8154815290600101906020018083116105d057829003601f168201915b505050505081565b806105ff3361064d565b1015610640576040517f08c379a000000000000000000000000000000000000000000000000000000000815260040161063790611e50565b60405180910390fd5b61064a338261159f565b50565b60008060008373ffffffffffffffffffffffffffffffffffffffff1673ffffffffffffffffffffffffffffffffffffffff168152602001908152602001600020549050919050565b600680546106a290611d70565b80601f01602080910402602001604051908101604052809291908181526020018280546106ce90611d70565b801561071b5780601f106106f05761010080835404028352916020019161071b565b820191906000526020600020905b8154815290600101906020018083116106fe57829003601f168201915b505050505081565b600860009054906101000a900473ffffffffffffffffffffffffffffffffffffffff1681565b60606004805461075890611d70565b80601f016020809104026020016040519081016040528092919081815260200182805461078490611d70565b80156107d15780601f106107a6576101008083540402835291602001916107d1565b820191906000526020600020905b8154815290600101906020018083116107b457829003601f168201915b5050505050905090565b6000806107e66110cc565b905060006107f48286610d2c565b905083811015610839576040517f08c379a000000000000000000000000000000000000000000000000000000000815260040161083090611ee2565b60405180910390fd5b61084682868684036110d4565b60019250505092915050565b6004811115610896576040517f08c379a000000000000000000000000000000000000000000000000000000000815260040161088d90611f4e565b60405180910390fd5b6001810361099e5760966108a93361064d565b10156108ea576040517f08c379a00000000000000000000000000000000000000000000000000000000081526004016108e190611fba565b60405180910390fd5b6108f533609661159f565b600760003373ffffffffffffffffffffffffffffffffffffffff1673ffffffffffffffffffffffffffffffffffffffff16815260200190815260200160002080600181540180825580915050600190039060005260206000200160006040518060400160405280600781526020017f42697279616e69000000000000000000000000000000000000000000000000008152509091909150908161099891906121b5565b50610cac565b60028103610aa65760fa6109b13361064d565b10156109f2576040517f08c379a00000000000000000000000000000000000000000000000000000000081526004016109e990611fba565b60405180910390fd5b6109fd3360fa61159f565b600760003373ffffffffffffffffffffffffffffffffffffffff1673ffffffffffffffffffffffffffffffffffffffff16815260200190815260200160002080600181540180825580915050600190039060005260206000200160006040518060400160405280601081526020017f54616e646f6f726920436869636b656e0000000000000000000000000000000081525090919091509081610aa091906121b5565b50610cab565b60038103610bae5760c8610ab93361064d565b1015610afa576040517f08c379a0000000000000000000000000000000000000000000000000000000008152600401610af190611fba565b60405180910390fd5b610b053360c861159f565b600760003373ffffffffffffffffffffffffffffffffffffffff1673ffffffffffffffffffffffffffffffffffffffff16815260200190815260200160002080600181540180825580915050600190039060005260206000200160006040518060400160405280600e81526020017f42757474657220436869636b656e00000000000000000000000000000000000081525090919091509081610ba891906121b5565b50610caa565b606e610bb93361064d565b1015610bfa576040517f08c379a0000000000000000000000000000000000000000000000000000000008152600401610bf190611fba565b60405180910390fd5b610c0533606e61159f565b600760003373ffffffffffffffffffffffffffffffffffffffff1673ffffffffffffffffffffffffffffffffffffffff16815260200190815260200160002080600181540180825580915050600190039060005260206000200160006040518060400160405280600781526020017f4e6f6f646c65730000000000000000000000000000000000000000000000000081525090919091509081610ca891906121b5565b505b5b5b50565b600080610cba6110cc565b9050610cc7818585611329565b600191505092915050565b80610cdc3361064d565b1015610d1d576040517f08c379a0000000000000000000000000000000000000000000000000000000008152600401610d14906122f9565b60405180910390fd5b610d278282610caf565b505050565b6000600160008473ffffffffffffffffffffffffffffffffffffffff1673ffffffffffffffffffffffffffffffffffffffff16815260200190815260200160002060008373ffffffffffffffffffffffffffffffffffffffff1673ffffffffffffffffffffffffffffffffffffffff16815260200190815260200160002054905092915050565b6060600080600760003373ffffffffffffffffffffffffffffffffffffffff1673ffffffffffffffffffffffffffffffffffffffff16815260200190815260200160002080549050905060008111610e40576040517f08c379a0000000000000000000000000000000000000000000000000000000008152600401610e379061238b565b60405180910390fd5b600760003373ffffffffffffffffffffffffffffffffffffffff1673ffffffffffffffffffffffffffffffffffffffff1681526020019081526020016000208181805480602002602001604051908101604052809291908181526020016000905b82821015610f4d578382906000526020600020018054610ec090611d70565b80601f0160208091040260200160405190810160405280929190818152602001828054610eec90611d70565b8015610f395780601f10610f0e57610100808354040283529160200191610f39565b820191906000526020600020905b815481529060010190602001808311610f1c57829003601f168201915b505050505081526020019060010190610ea1565b50505050915092509250509091565b60606040518060a00160405280606381526020016129ec60639139905090565b600860009054906101000a900473ffffffffffffffffffffffffffffffffffffffff1673ffffffffffffffffffffffffffffffffffffffff163373ffffffffffffffffffffffffffffffffffffffff161461100c576040517f08c379a0000000000000000000000000000000000000000000000000000000008152600401611003906123f7565b60405180910390fd5b600073ffffffffffffffffffffffffffffffffffffffff168273ffffffffffffffffffffffffffffffffffffffff160361107b576040517f08c379a000000000000000000000000000000000000000000000000000000000815260040161107290612463565b60405180910390fd5b600081116110be576040517f08c379a00000000000000000000000000000000000000000000000000000000081526004016110b5906124f5565b60405180910390fd5b6110c8828261176c565b5050565b600033905090565b600073ffffffffffffffffffffffffffffffffffffffff168373ffffffffffffffffffffffffffffffffffffffff1603611143576040517f08c379a000000000000000000000000000000000000000000000000000000000815260040161113a90612587565b60405180910390fd5b600073ffffffffffffffffffffffffffffffffffffffff168273ffffffffffffffffffffffffffffffffffffffff16036111b2576040517f08c379a00000000000000000000000000000000000000000000000000000000081526004016111a990612619565b60405180910390fd5b80600160008573ffffffffffffffffffffffffffffffffffffffff1673ffffffffffffffffffffffffffffffffffffffff16815260200190815260200160002060008473ffffffffffffffffffffffffffffffffffffffff1673ffffffffffffffffffffffffffffffffffffffff168152602001908152602001600020819055508173ffffffffffffffffffffffffffffffffffffffff168373ffffffffffffffffffffffffffffffffffffffff167f8c5be1e5ebec7d5bd14f71427d1e84f3dd0314c0f7b2291e5b200ac8c7c3b925836040516112909190611a9c565b60405180910390a3505050565b60006112a98484610d2c565b90507fffffffffffffffffffffffffffffffffffffffffffffffffffffffffffffffff81146113235781811015611315576040517f08c379a000000000000000000000000000000000000000000000000000000000815260040161130c90612685565b60405180910390fd5b61132284848484036110d4565b5b50505050565b600073ffffffffffffffffffffffffffffffffffffffff168373ffffffffffffffffffffffffffffffffffffffff1603611398576040517f08c379a000000000000000000000000000000000000000000000000000000000815260040161138f90612717565b60405180910390fd5b600073ffffffffffffffffffffffffffffffffffffffff168273ffffffffffffffffffffffffffffffffffffffff1603611407576040517f08c379a00000000000000000000000000000000000000000000000000000000081526004016113fe906127a9565b60405180910390fd5b6114128383836118c2565b60008060008573ffffffffffffffffffffffffffffffffffffffff1673ffffffffffffffffffffffffffffffffffffffff16815260200190815260200160002054905081811015611498576040517f08c379a000000000000000000000000000000000000000000000000000000000815260040161148f9061283b565b60405180910390fd5b8181036000808673ffffffffffffffffffffffffffffffffffffffff1673ffffffffffffffffffffffffffffffffffffffff16815260200190815260200160002081905550816000808573ffffffffffffffffffffffffffffffffffffffff1673ffffffffffffffffffffffffffffffffffffffff168152602001908152602001600020600082825401925050819055508273ffffffffffffffffffffffffffffffffffffffff168473ffffffffffffffffffffffffffffffffffffffff167fddf252ad1be2c89b69c2b068fc378daa952ba7f163c4a11628f55a4df523b3ef846040516115869190611a9c565b60405180910390a36115998484846118c7565b50505050565b600073ffffffffffffffffffffffffffffffffffffffff168273ffffffffffffffffffffffffffffffffffffffff160361160e576040517f08c379a0000000000000000000000000000000000000000000000000000000008152600401611605906128cd565b60405180910390fd5b61161a826000836118c2565b60008060008473ffffffffffffffffffffffffffffffffffffffff1673ffffffffffffffffffffffffffffffffffffffff168152602001908152602001600020549050818110156116a0576040517f08c379a00000000000000000000000000000000000000000000000000000000081526004016116979061295f565b60405180910390fd5b8181036000808573ffffffffffffffffffffffffffffffffffffffff1673ffffffffffffffffffffffffffffffffffffffff1681526020019081526020016000208190555081600260008282540392505081905550600073ffffffffffffffffffffffffffffffffffffffff168373ffffffffffffffffffffffffffffffffffffffff167fddf252ad1be2c89b69c2b068fc378daa952ba7f163c4a11628f55a4df523b3ef846040516117539190611a9c565b60405180910390a3611767836000846118c7565b505050565b600073ffffffffffffffffffffffffffffffffffffffff168273ffffffffffffffffffffffffffffffffffffffff16036117db576040517f08c379a00000000000000000000000000000000000000000000000000000000081526004016117d2906129cb565b60405180910390fd5b6117e7600083836118c2565b80600260008282546117f99190611dd0565b92505081905550806000808473ffffffffffffffffffffffffffffffffffffffff1673ffffffffffffffffffffffffffffffffffffffff168152602001908152602001600020600082825401925050819055508173ffffffffffffffffffffffffffffffffffffffff16600073ffffffffffffffffffffffffffffffffffffffff167fddf252ad1be2c89b69c2b068fc378daa952ba7f163c4a11628f55a4df523b3ef836040516118aa9190611a9c565b60405180910390a36118be600083836118c7565b5050565b505050565b505050565b600081519050919050565b600082825260208201905092915050565b60005b838110156119065780820151818401526020810190506118eb565b60008484015250505050565b6000601f19601f8301169050919050565b600061192e826118cc565b61193881856118d7565b93506119488185602086016118e8565b61195181611912565b840191505092915050565b600060208201905081810360008301526119768184611923565b905092915050565b600080fd5b600073ffffffffffffffffffffffffffffffffffffffff82169050919050565b60006119ae82611983565b9050919050565b6119be816119a3565b81146119c957600080fd5b50565b6000813590506119db816119b5565b92915050565b6000819050919050565b6119f4816119e1565b81146119ff57600080fd5b50565b600081359050611a11816119eb565b92915050565b60008060408385031215611a2e57611a2d61197e565b5b6000611a3c858286016119cc565b9250506020611a4d85828601611a02565b9150509250929050565b60008115159050919050565b611a6c81611a57565b82525050565b6000602082019050611a876000830184611a63565b92915050565b611a96816119e1565b82525050565b6000602082019050611ab16000830184611a8d565b92915050565b600080600060608486031215611ad057611acf61197e565b5b6000611ade868287016119cc565b9350506020611aef868287016119cc565b9250506040611b0086828701611a02565b9150509250925092565b600060ff82169050919050565b611b2081611b0a565b82525050565b6000602082019050611b3b6000830184611b17565b92915050565b600060208284031215611b5757611b5661197e565b5b6000611b6584828501611a02565b91505092915050565b600060208284031215611b8457611b8361197e565b5b6000611b92848285016119cc565b91505092915050565b611ba4816119a3565b82525050565b6000602082019050611bbf6000830184611b9b565b92915050565b60008060408385031215611bdc57611bdb61197e565b5b6000611bea858286016119cc565b9250506020611bfb858286016119cc565b9150509250929050565b600081519050919050565b600082825260208201905092915050565b6000819050602082019050919050565b600082825260208201905092915050565b6000611c4d826118cc565b611c578185611c31565b9350611c678185602086016118e8565b611c7081611912565b840191505092915050565b6000611c878383611c42565b905092915050565b6000602082019050919050565b6000611ca782611c05565b611cb18185611c10565b935083602082028501611cc385611c21565b8060005b85811015611cff5784840389528151611ce08582611c7b565b9450611ceb83611c8f565b925060208a01995050600181019050611cc7565b50829750879550505050505092915050565b60006040820190508181036000830152611d2b8185611c9c565b9050611d3a6020830184611a8d565b9392505050565b7f4e487b7100000000000000000000000000000000000000000000000000000000600052602260045260246000fd5b60006002820490506001821680611d8857607f821691505b602082108103611d9b57611d9a611d41565b5b50919050565b7f4e487b7100000000000000000000000000000000000000000000000000000000600052601160045260246000fd5b6000611ddb826119e1565b9150611de6836119e1565b9250828201905080821115611dfe57611dfd611da1565b5b92915050565b7f596f7520646f6e2774206861766520656e6f7567682052455821000000000000600082015250565b6000611e3a601a836118d7565b9150611e4582611e04565b602082019050919050565b60006020820190508181036000830152611e6981611e2d565b9050919050565b7f45524332303a2064656372656173656420616c6c6f77616e63652062656c6f7760008201527f207a65726f000000000000000000000000000000000000000000000000000000602082015250565b6000611ecc6025836118d7565b9150611ed782611e70565b604082019050919050565b60006020820190508181036000830152611efb81611ebf565b9050919050565b7f57726f6e67206f7074696f6e2073656c65637465642100000000000000000000600082015250565b6000611f386016836118d7565b9150611f4382611f02565b602082019050919050565b60006020820190508181036000830152611f6781611f2b565b9050919050565b7f4f6f70732120496e73756666696369656e742052455800000000000000000000600082015250565b6000611fa46016836118d7565b9150611faf82611f6e565b602082019050919050565b60006020820190508181036000830152611fd381611f97565b9050919050565b7f4e487b7100000000000000000000000000000000000000000000000000000000600052604160045260246000fd5b60008190508160005260206000209050919050565b60006020601f8301049050919050565b600082821b905092915050565b60006008830261206b7fffffffffffffffffffffffffffffffffffffffffffffffffffffffffffffffff8261202e565b612075868361202e565b95508019841693508086168417925050509392505050565b6000819050919050565b60006120b26120ad6120a8846119e1565b61208d565b6119e1565b9050919050565b6000819050919050565b6120cc83612097565b6120e06120d8826120b9565b84845461203b565b825550505050565b600090565b6120f56120e8565b6121008184846120c3565b505050565b5b81811015612124576121196000826120ed565b600181019050612106565b5050565b601f8211156121695761213a81612009565b6121438461201e565b81016020851015612152578190505b61216661215e8561201e565b830182612105565b50505b505050565b600082821c905092915050565b600061218c6000198460080261216e565b1980831691505092915050565b60006121a5838361217b565b9150826002028217905092915050565b6121be826118cc565b67ffffffffffffffff8111156121d7576121d6611fda565b5b6121e18254611d70565b6121ec828285612128565b600060209050601f83116001811461221f576000841561220d578287015190505b6122178582612199565b86555061227f565b601f19841661222d86612009565b60005b8281101561225557848901518255600182019150602085019450602081019050612230565b86831015612272578489015161226e601f89168261217b565b8355505b6001600288020188555050505b505050505050565b7f536f7272792c206e6f7420656e6f7567682062616c616e636520696e2077616c60008201527f6c65742e00000000000000000000000000000000000000000000000000000000602082015250565b60006122e36024836118d7565b91506122ee82612287565b604082019050919050565b60006020820190508181036000830152612312816122d6565b9050919050565b7f4e6f2070757263686173657320666f756e6420666f722074686973206164647260008201527f6573730000000000000000000000000000000000000000000000000000000000602082015250565b60006123756023836118d7565b915061238082612319565b604082019050919050565b600060208201905081810360008301526123a481612368565b9050919050565b7f536f72727921206f6e6c79206f776e65722063616e206d696e74205245582100600082015250565b60006123e1601f836118d7565b91506123ec826123ab565b602082019050919050565b60006020820190508181036000830152612410816123d4565b9050919050565b7f54686973206164647265737320646f65736e2774206578697374000000000000600082015250565b600061244d601a836118d7565b915061245882612417565b602082019050919050565b6000602082019050818103600083015261247c81612440565b9050919050565b7f596f752063616e2774206d696e74206e65676174697665206e756d626572206f60008201527f6620524558000000000000000000000000000000000000000000000000000000602082015250565b60006124df6025836118d7565b91506124ea82612483565b604082019050919050565b6000602082019050818103600083015261250e816124d2565b9050919050565b7f45524332303a20617070726f76652066726f6d20746865207a65726f2061646460008201527f7265737300000000000000000000000000000000000000000000000000000000602082015250565b60006125716024836118d7565b915061257c82612515565b604082019050919050565b600060208201905081810360008301526125a081612564565b9050919050565b7f45524332303a20617070726f766520746f20746865207a65726f20616464726560008201527f7373000000000000000000000000000000000000000000000000000000000000602082015250565b60006126036022836118d7565b915061260e826125a7565b604082019050919050565b60006020820190508181036000830152612632816125f6565b9050919050565b7f45524332303a20696e73756666696369656e7420616c6c6f77616e6365000000600082015250565b600061266f601d836118d7565b915061267a82612639565b602082019050919050565b6000602082019050818103600083015261269e81612662565b9050919050565b7f45524332303a207472616e736665722066726f6d20746865207a65726f20616460008201527f6472657373000000000000000000000000000000000000000000000000000000602082015250565b60006127016025836118d7565b915061270c826126a5565b604082019050919050565b60006020820190508181036000830152612730816126f4565b9050919050565b7f45524332303a207472616e7366657220746f20746865207a65726f206164647260008201527f6573730000000000000000000000000000000000000000000000000000000000602082015250565b60006127936023836118d7565b915061279e82612737565b604082019050919050565b600060208201905081810360008301526127c281612786565b9050919050565b7f45524332303a207472616e7366657220616d6f756e742065786365656473206260008201527f616c616e63650000000000000000000000000000000000000000000000000000602082015250565b60006128256026836118d7565b9150612830826127c9565b604082019050919050565b6000602082019050818103600083015261285481612818565b9050919050565b7f45524332303a206275726e2066726f6d20746865207a65726f2061646472657360008201527f7300000000000000000000000000000000000000000000000000000000000000602082015250565b60006128b76021836118d7565b91506128c28261285b565b604082019050919050565b600060208201905081810360008301526128e6816128aa565b9050919050565b7f45524332303a206275726e20616d6f756e7420657863656564732062616c616e60008201527f6365000000000000000000000000000000000000000000000000000000000000602082015250565b60006129496022836118d7565b9150612954826128ed565b604082019050919050565b600060208201905081810360008301526129788161293c565b9050919050565b7f45524332303a206d696e7420746f20746865207a65726f206164647265737300600082015250565b60006129b5601f836118d7565b91506129c08261297f565b602082019050919050565b600060208201905081810360008301526129e4816129a8565b905091905056fe312e2042697279616e69205b313530205245585d20322e2054616e646f6f726920436869636b656e205b323530205245585d20332e2042757474657220436869636b656e205b323030205245585d20342e204e6f6f646c6573205b313130205245585da26469706673582212201b431b14515fe879323082c9470811137a04b087843a907481f98e6e3743103c64736f6c63430008120033",
					"opcodes": "PUSH1 0x80 PUSH1 0x40 MSTORE PUSH1 0x40 MLOAD DUP1 PUSH1 0x40 ADD PUSH1 0x40 MSTORE DUP1 PUSH1 0x5 DUP2 MSTORE PUSH1 0x20 ADD PUSH32 0x444547454E000000000000000000000000000000000000000000000000000000 DUP2 MSTORE POP PUSH1 0x5 SWAP1 DUP2 PUSH3 0x4A SWAP2 SWAP1 PUSH3 0x638 JUMP JUMPDEST POP PUSH1 0x40 MLOAD DUP1 PUSH1 0x40 ADD PUSH1 0x40 MSTORE DUP1 PUSH1 0x3 DUP2 MSTORE PUSH1 0x20 ADD PUSH32 0x5245580000000000000000000000000000000000000000000000000000000000 DUP2 MSTORE POP PUSH1 0x6 SWAP1 DUP2 PUSH3 0x91 SWAP2 SWAP1 PUSH3 0x638 JUMP JUMPDEST POP CALLVALUE DUP1 ISZERO PUSH3 0x9F JUMPI PUSH1 0x0 DUP1 REVERT JUMPDEST POP PUSH1 0x5 DUP1 SLOAD PUSH3 0xAF SWAP1 PUSH3 0x427 JUMP JUMPDEST DUP1 PUSH1 0x1F ADD PUSH1 0x20 DUP1 SWAP2 DIV MUL PUSH1 0x20 ADD PUSH1 0x40 MLOAD SWAP1 DUP2 ADD PUSH1 0x40 MSTORE DUP1 SWAP3 SWAP2 SWAP1 DUP2 DUP2 MSTORE PUSH1 0x20 ADD DUP3 DUP1 SLOAD PUSH3 0xDD SWAP1 PUSH3 0x427 JUMP JUMPDEST DUP1 ISZERO PUSH3 0x12E JUMPI DUP1 PUSH1 0x1F LT PUSH3 0x102 JUMPI PUSH2 0x100 DUP1 DUP4 SLOAD DIV MUL DUP4 MSTORE SWAP2 PUSH1 0x20 ADD SWAP2 PUSH3 0x12E JUMP JUMPDEST DUP3 ADD SWAP2 SWAP1 PUSH1 0x0 MSTORE PUSH1 0x20 PUSH1 0x0 KECCAK256 SWAP1 JUMPDEST DUP2 SLOAD DUP2 MSTORE SWAP1 PUSH1 0x1 ADD SWAP1 PUSH1 0x20 ADD DUP1 DUP4 GT PUSH3 0x110 JUMPI DUP3 SWAP1 SUB PUSH1 0x1F AND DUP3 ADD SWAP2 JUMPDEST POP POP POP POP POP PUSH1 0x6 DUP1 SLOAD PUSH3 0x142 SWAP1 PUSH3 0x427 JUMP JUMPDEST DUP1 PUSH1 0x1F ADD PUSH1 0x20 DUP1 SWAP2 DIV MUL PUSH1 0x20 ADD PUSH1 0x40 MLOAD SWAP1 DUP2 ADD PUSH1 0x40 MSTORE DUP1 SWAP3 SWAP2 SWAP1 DUP2 DUP2 MSTORE PUSH1 0x20 ADD DUP3 DUP1 SLOAD PUSH3 0x170 SWAP1 PUSH3 0x427 JUMP JUMPDEST DUP1 ISZERO PUSH3 0x1C1 JUMPI DUP1 PUSH1 0x1F LT PUSH3 0x195 JUMPI PUSH2 0x100 DUP1 DUP4 SLOAD DIV MUL DUP4 MSTORE SWAP2 PUSH1 0x20 ADD SWAP2 PUSH3 0x1C1 JUMP JUMPDEST DUP3 ADD SWAP2 SWAP1 PUSH1 0x0 MSTORE PUSH1 0x20 PUSH1 0x0 KECCAK256 SWAP1 JUMPDEST DUP2 SLOAD DUP2 MSTORE SWAP1 PUSH1 0x1 ADD SWAP1 PUSH1 0x20 ADD DUP1 DUP4 GT PUSH3 0x1A3 JUMPI DUP3 SWAP1 SUB PUSH1 0x1F AND DUP3 ADD SWAP2 JUMPDEST POP POP POP POP POP DUP2 PUSH1 0x3 SWAP1 DUP2 PUSH3 0x1D7 SWAP2 SWAP1 PUSH3 0x638 JUMP JUMPDEST POP DUP1 PUSH1 0x4 SWAP1 DUP2 PUSH3 0x1E9 SWAP2 SWAP1 PUSH3 0x638 JUMP JUMPDEST POP POP POP PUSH3 0x200 CALLER PUSH2 0x2710 PUSH3 0x247 PUSH1 0x20 SHL PUSH1 0x20 SHR JUMP JUMPDEST CALLER PUSH1 0x8 PUSH1 0x0 PUSH2 0x100 EXP DUP2 SLOAD DUP2 PUSH20 0xFFFFFFFFFFFFFFFFFFFFFFFFFFFFFFFFFFFFFFFF MUL NOT AND SWAP1 DUP4 PUSH20 0xFFFFFFFFFFFFFFFFFFFFFFFFFFFFFFFFFFFFFFFF AND MUL OR SWAP1 SSTORE POP PUSH3 0x83A JUMP JUMPDEST PUSH1 0x0 PUSH20 0xFFFFFFFFFFFFFFFFFFFFFFFFFFFFFFFFFFFFFFFF AND DUP3 PUSH20 0xFFFFFFFFFFFFFFFFFFFFFFFFFFFFFFFFFFFFFFFF AND SUB PUSH3 0x2B9 JUMPI PUSH1 0x40 MLOAD PUSH32 0x8C379A000000000000000000000000000000000000000000000000000000000 DUP2 MSTORE PUSH1 0x4 ADD PUSH3 0x2B0 SWAP1 PUSH3 0x780 JUMP JUMPDEST PUSH1 0x40 MLOAD DUP1 SWAP2 SUB SWAP1 REVERT JUMPDEST PUSH3 0x2CD PUSH1 0x0 DUP4 DUP4 PUSH3 0x3B4 PUSH1 0x20 SHL PUSH1 0x20 SHR JUMP JUMPDEST DUP1 PUSH1 0x2 PUSH1 0x0 DUP3 DUP3 SLOAD PUSH3 0x2E1 SWAP2 SWAP1 PUSH3 0x7D1 JUMP JUMPDEST SWAP3 POP POP DUP2 SWAP1 SSTORE POP DUP1 PUSH1 0x0 DUP1 DUP5 PUSH20 0xFFFFFFFFFFFFFFFFFFFFFFFFFFFFFFFFFFFFFFFF AND PUSH20 0xFFFFFFFFFFFFFFFFFFFFFFFFFFFFFFFFFFFFFFFF AND DUP2 MSTORE PUSH1 0x20 ADD SWAP1 DUP2 MSTORE PUSH1 0x20 ADD PUSH1 0x0 KECCAK256 PUSH1 0x0 DUP3 DUP3 SLOAD ADD SWAP3 POP POP DUP2 SWAP1 SSTORE POP DUP2 PUSH20 0xFFFFFFFFFFFFFFFFFFFFFFFFFFFFFFFFFFFFFFFF AND PUSH1 0x0 PUSH20 0xFFFFFFFFFFFFFFFFFFFFFFFFFFFFFFFFFFFFFFFF AND PUSH32 0xDDF252AD1BE2C89B69C2B068FC378DAA952BA7F163C4A11628F55A4DF523B3EF DUP4 PUSH1 0x40 MLOAD PUSH3 0x394 SWAP2 SWAP1 PUSH3 0x81D JUMP JUMPDEST PUSH1 0x40 MLOAD DUP1 SWAP2 SUB SWAP1 LOG3 PUSH3 0x3B0 PUSH1 0x0 DUP4 DUP4 PUSH3 0x3B9 PUSH1 0x20 SHL PUSH1 0x20 SHR JUMP JUMPDEST POP POP JUMP JUMPDEST POP POP POP JUMP JUMPDEST POP POP POP JUMP JUMPDEST PUSH1 0x0 DUP2 MLOAD SWAP1 POP SWAP2 SWAP1 POP JUMP JUMPDEST PUSH32 0x4E487B7100000000000000000000000000000000000000000000000000000000 PUSH1 0x0 MSTORE PUSH1 0x41 PUSH1 0x4 MSTORE PUSH1 0x24 PUSH1 0x0 REVERT JUMPDEST PUSH32 0x4E487B7100000000000000000000000000000000000000000000000000000000 PUSH1 0x0 MSTORE PUSH1 0x22 PUSH1 0x4 MSTORE PUSH1 0x24 PUSH1 0x0 REVERT JUMPDEST PUSH1 0x0 PUSH1 0x2 DUP3 DIV SWAP1 POP PUSH1 0x1 DUP3 AND DUP1 PUSH3 0x440 JUMPI PUSH1 0x7F DUP3 AND SWAP2 POP JUMPDEST PUSH1 0x20 DUP3 LT DUP2 SUB PUSH3 0x456 JUMPI PUSH3 0x455 PUSH3 0x3F8 JUMP JUMPDEST JUMPDEST POP SWAP2 SWAP1 POP JUMP JUMPDEST PUSH1 0x0 DUP2 SWAP1 POP DUP2 PUSH1 0x0 MSTORE PUSH1 0x20 PUSH1 0x0 KECCAK256 SWAP1 POP SWAP2 SWAP1 POP JUMP JUMPDEST PUSH1 0x0 PUSH1 0x20 PUSH1 0x1F DUP4 ADD DIV SWAP1 POP SWAP2 SWAP1 POP JUMP JUMPDEST PUSH1 0x0 DUP3 DUP3 SHL SWAP1 POP SWAP3 SWAP2 POP POP JUMP JUMPDEST PUSH1 0x0 PUSH1 0x8 DUP4 MUL PUSH3 0x4C0 PUSH32 0xFFFFFFFFFFFFFFFFFFFFFFFFFFFFFFFFFFFFFFFFFFFFFFFFFFFFFFFFFFFFFFFF DUP3 PUSH3 0x481 JUMP JUMPDEST PUSH3 0x4CC DUP7 DUP4 PUSH3 0x481 JUMP JUMPDEST SWAP6 POP DUP1 NOT DUP5 AND SWAP4 POP DUP1 DUP7 AND DUP5 OR SWAP3 POP POP POP SWAP4 SWAP3 POP POP POP JUMP JUMPDEST PUSH1 0x0 DUP2 SWAP1 POP SWAP2 SWAP1 POP JUMP JUMPDEST PUSH1 0x0 DUP2 SWAP1 POP SWAP2 SWAP1 POP JUMP JUMPDEST PUSH1 0x0 PUSH3 0x519 PUSH3 0x513 PUSH3 0x50D DUP5 PUSH3 0x4E4 JUMP JUMPDEST PUSH3 0x4EE JUMP JUMPDEST PUSH3 0x4E4 JUMP JUMPDEST SWAP1 POP SWAP2 SWAP1 POP JUMP JUMPDEST PUSH1 0x0 DUP2 SWAP1 POP SWAP2 SWAP1 POP JUMP JUMPDEST PUSH3 0x535 DUP4 PUSH3 0x4F8 JUMP JUMPDEST PUSH3 0x54D PUSH3 0x544 DUP3 PUSH3 0x520 JUMP JUMPDEST DUP5 DUP5 SLOAD PUSH3 0x48E JUMP JUMPDEST DUP3 SSTORE POP POP POP POP JUMP JUMPDEST PUSH1 0x0 SWAP1 JUMP JUMPDEST PUSH3 0x564 PUSH3 0x555 JUMP JUMPDEST PUSH3 0x571 DUP2 DUP5 DUP5 PUSH3 0x52A JUMP JUMPDEST POP POP POP JUMP JUMPDEST JUMPDEST DUP2 DUP2 LT ISZERO PUSH3 0x599 JUMPI PUSH3 0x58D PUSH1 0x0 DUP3 PUSH3 0x55A JUMP JUMPDEST PUSH1 0x1 DUP2 ADD SWAP1 POP PUSH3 0x577 JUMP JUMPDEST POP POP JUMP JUMPDEST PUSH1 0x1F DUP3 GT ISZERO PUSH3 0x5E8 JUMPI PUSH3 0x5B2 DUP2 PUSH3 0x45C JUMP JUMPDEST PUSH3 0x5BD DUP5 PUSH3 0x471 JUMP JUMPDEST DUP2 ADD PUSH1 0x20 DUP6 LT ISZERO PUSH3 0x5CD JUMPI DUP2 SWAP1 POP JUMPDEST PUSH3 0x5E5 PUSH3 0x5DC DUP6 PUSH3 0x471 JUMP JUMPDEST DUP4 ADD DUP3 PUSH3 0x576 JUMP JUMPDEST POP POP JUMPDEST POP POP POP JUMP JUMPDEST PUSH1 0x0 DUP3 DUP3 SHR SWAP1 POP SWAP3 SWAP2 POP POP JUMP JUMPDEST PUSH1 0x0 PUSH3 0x60D PUSH1 0x0 NOT DUP5 PUSH1 0x8 MUL PUSH3 0x5ED JUMP JUMPDEST NOT DUP1 DUP4 AND SWAP2 POP POP SWAP3 SWAP2 POP POP JUMP JUMPDEST PUSH1 0x0 PUSH3 0x628 DUP4 DUP4 PUSH3 0x5FA JUMP JUMPDEST SWAP2 POP DUP3 PUSH1 0x2 MUL DUP3 OR SWAP1 POP SWAP3 SWAP2 POP POP JUMP JUMPDEST PUSH3 0x643 DUP3 PUSH3 0x3BE JUMP JUMPDEST PUSH8 0xFFFFFFFFFFFFFFFF DUP2 GT ISZERO PUSH3 0x65F JUMPI PUSH3 0x65E PUSH3 0x3C9 JUMP JUMPDEST JUMPDEST PUSH3 0x66B DUP3 SLOAD PUSH3 0x427 JUMP JUMPDEST PUSH3 0x678 DUP3 DUP3 DUP6 PUSH3 0x59D JUMP JUMPDEST PUSH1 0x0 PUSH1 0x20 SWAP1 POP PUSH1 0x1F DUP4 GT PUSH1 0x1 DUP2 EQ PUSH3 0x6B0 JUMPI PUSH1 0x0 DUP5 ISZERO PUSH3 0x69B JUMPI DUP3 DUP8 ADD MLOAD SWAP1 POP JUMPDEST PUSH3 0x6A7 DUP6 DUP3 PUSH3 0x61A JUMP JUMPDEST DUP7 SSTORE POP PUSH3 0x717 JUMP JUMPDEST PUSH1 0x1F NOT DUP5 AND PUSH3 0x6C0 DUP7 PUSH3 0x45C JUMP JUMPDEST PUSH1 0x0 JUMPDEST DUP3 DUP2 LT ISZERO PUSH3 0x6EA JUMPI DUP5 DUP10 ADD MLOAD DUP3 SSTORE PUSH1 0x1 DUP3 ADD SWAP2 POP PUSH1 0x20 DUP6 ADD SWAP5 POP PUSH1 0x20 DUP2 ADD SWAP1 POP PUSH3 0x6C3 JUMP JUMPDEST DUP7 DUP4 LT ISZERO PUSH3 0x70A JUMPI DUP5 DUP10 ADD MLOAD PUSH3 0x706 PUSH1 0x1F DUP10 AND DUP3 PUSH3 0x5FA JUMP JUMPDEST DUP4 SSTORE POP JUMPDEST PUSH1 0x1 PUSH1 0x2 DUP9 MUL ADD DUP9 SSTORE POP POP POP JUMPDEST POP POP POP POP POP POP JUMP JUMPDEST PUSH1 0x0 DUP3 DUP3 MSTORE PUSH1 0x20 DUP3 ADD SWAP1 POP SWAP3 SWAP2 POP POP JUMP JUMPDEST PUSH32 0x45524332303A206D696E7420746F20746865207A65726F206164647265737300 PUSH1 0x0 DUP3 ADD MSTORE POP JUMP JUMPDEST PUSH1 0x0 PUSH3 0x768 PUSH1 0x1F DUP4 PUSH3 0x71F JUMP JUMPDEST SWAP2 POP PUSH3 0x775 DUP3 PUSH3 0x730 JUMP JUMPDEST PUSH1 0x20 DUP3 ADD SWAP1 POP SWAP2 SWAP1 POP JUMP JUMPDEST PUSH1 0x0 PUSH1 0x20 DUP3 ADD SWAP1 POP DUP2 DUP2 SUB PUSH1 0x0 DUP4 ADD MSTORE PUSH3 0x79B DUP2 PUSH3 0x759 JUMP JUMPDEST SWAP1 POP SWAP2 SWAP1 POP JUMP JUMPDEST PUSH32 0x4E487B7100000000000000000000000000000000000000000000000000000000 PUSH1 0x0 MSTORE PUSH1 0x11 PUSH1 0x4 MSTORE PUSH1 0x24 PUSH1 0x0 REVERT JUMPDEST PUSH1 0x0 PUSH3 0x7DE DUP3 PUSH3 0x4E4 JUMP JUMPDEST SWAP2 POP PUSH3 0x7EB DUP4 PUSH3 0x4E4 JUMP JUMPDEST SWAP3 POP DUP3 DUP3 ADD SWAP1 POP DUP1 DUP3 GT ISZERO PUSH3 0x806 JUMPI PUSH3 0x805 PUSH3 0x7A2 JUMP JUMPDEST JUMPDEST SWAP3 SWAP2 POP POP JUMP JUMPDEST PUSH3 0x817 DUP2 PUSH3 0x4E4 JUMP JUMPDEST DUP3 MSTORE POP POP JUMP JUMPDEST PUSH1 0x0 PUSH1 0x20 DUP3 ADD SWAP1 POP PUSH3 0x834 PUSH1 0x0 DUP4 ADD DUP5 PUSH3 0x80C JUMP JUMPDEST SWAP3 SWAP2 POP POP JUMP JUMPDEST PUSH2 0x2A84 DUP1 PUSH3 0x84A PUSH1 0x0 CODECOPY PUSH1 0x0 RETURN INVALID PUSH1 0x80 PUSH1 0x40 MSTORE CALLVALUE DUP1 ISZERO PUSH2 0x10 JUMPI PUSH1 0x0 DUP1 REVERT JUMPDEST POP PUSH1 0x4 CALLDATASIZE LT PUSH2 0x137 JUMPI PUSH1 0x0 CALLDATALOAD PUSH1 0xE0 SHR DUP1 PUSH4 0x7B61C320 GT PUSH2 0xB8 JUMPI DUP1 PUSH4 0xA9059CBB GT PUSH2 0x7C JUMPI DUP1 PUSH4 0xA9059CBB EQ PUSH2 0x354 JUMPI DUP1 PUSH4 0xBEC3FA17 EQ PUSH2 0x384 JUMPI DUP1 PUSH4 0xDD62ED3E EQ PUSH2 0x3A0 JUMPI DUP1 PUSH4 0xE0229239 EQ PUSH2 0x3D0 JUMPI DUP1 PUSH4 0xE271C9E6 EQ PUSH2 0x3EF JUMPI DUP1 PUSH4 0xF0DDA65C EQ PUSH2 0x40D JUMPI PUSH2 0x137 JUMP JUMPDEST DUP1 PUSH4 0x7B61C320 EQ PUSH2 0x2AE JUMPI DUP1 PUSH4 0x8DA5CB5B EQ PUSH2 0x2CC JUMPI DUP1 PUSH4 0x95D89B41 EQ PUSH2 0x2EA JUMPI DUP1 PUSH4 0xA457C2D7 EQ PUSH2 0x308 JUMPI DUP1 PUSH4 0xA6E158F8 EQ PUSH2 0x338 JUMPI PUSH2 0x137 JUMP JUMPDEST DUP1 PUSH4 0x39509351 GT PUSH2 0xFF JUMPI DUP1 PUSH4 0x39509351 EQ PUSH2 0x1F6 JUMPI DUP1 PUSH4 0x4F731087 EQ PUSH2 0x226 JUMPI DUP1 PUSH4 0x6C02A931 EQ PUSH2 0x244 JUMPI DUP1 PUSH4 0x6D1B229D EQ PUSH2 0x262 JUMPI DUP1 PUSH4 0x70A08231 EQ PUSH2 0x27E JUMPI PUSH2 0x137 JUMP JUMPDEST DUP1 PUSH4 0x6FDDE03 EQ PUSH2 0x13C JUMPI DUP1 PUSH4 0x95EA7B3 EQ PUSH2 0x15A JUMPI DUP1 PUSH4 0x18160DDD EQ PUSH2 0x18A JUMPI DUP1 PUSH4 0x23B872DD EQ PUSH2 0x1A8 JUMPI DUP1 PUSH4 0x313CE567 EQ PUSH2 0x1D8 JUMPI JUMPDEST PUSH1 0x0 DUP1 REVERT JUMPDEST PUSH2 0x144 PUSH2 0x429 JUMP JUMPDEST PUSH1 0x40 MLOAD PUSH2 0x151 SWAP2 SWAP1 PUSH2 0x195C JUMP JUMPDEST PUSH1 0x40 MLOAD DUP1 SWAP2 SUB SWAP1 RETURN JUMPDEST PUSH2 0x174 PUSH1 0x4 DUP1 CALLDATASIZE SUB DUP2 ADD SWAP1 PUSH2 0x16F SWAP2 SWAP1 PUSH2 0x1A17 JUMP JUMPDEST PUSH2 0x4BB JUMP JUMPDEST PUSH1 0x40 MLOAD PUSH2 0x181 SWAP2 SWAP1 PUSH2 0x1A72 JUMP JUMPDEST PUSH1 0x40 MLOAD DUP1 SWAP2 SUB SWAP1 RETURN JUMPDEST PUSH2 0x192 PUSH2 0x4DE JUMP JUMPDEST PUSH1 0x40 MLOAD PUSH2 0x19F SWAP2 SWAP1 PUSH2 0x1A9C JUMP JUMPDEST PUSH1 0x40 MLOAD DUP1 SWAP2 SUB SWAP1 RETURN JUMPDEST PUSH2 0x1C2 PUSH1 0x4 DUP1 CALLDATASIZE SUB DUP2 ADD SWAP1 PUSH2 0x1BD SWAP2 SWAP1 PUSH2 0x1AB7 JUMP JUMPDEST PUSH2 0x4E8 JUMP JUMPDEST PUSH1 0x40 MLOAD PUSH2 0x1CF SWAP2 SWAP1 PUSH2 0x1A72 JUMP JUMPDEST PUSH1 0x40 MLOAD DUP1 SWAP2 SUB SWAP1 RETURN JUMPDEST PUSH2 0x1E0 PUSH2 0x517 JUMP JUMPDEST PUSH1 0x40 MLOAD PUSH2 0x1ED SWAP2 SWAP1 PUSH2 0x1B26 JUMP JUMPDEST PUSH1 0x40 MLOAD DUP1 SWAP2 SUB SWAP1 RETURN JUMPDEST PUSH2 0x210 PUSH1 0x4 DUP1 CALLDATASIZE SUB DUP2 ADD SWAP1 PUSH2 0x20B SWAP2 SWAP1 PUSH2 0x1A17 JUMP JUMPDEST PUSH2 0x520 JUMP JUMPDEST PUSH1 0x40 MLOAD PUSH2 0x21D SWAP2 SWAP1 PUSH2 0x1A72 JUMP JUMPDEST PUSH1 0x40 MLOAD DUP1 SWAP2 SUB SWAP1 RETURN JUMPDEST PUSH2 0x22E PUSH2 0x557 JUMP JUMPDEST PUSH1 0x40 MLOAD PUSH2 0x23B SWAP2 SWAP1 PUSH2 0x1A9C JUMP JUMPDEST PUSH1 0x40 MLOAD DUP1 SWAP2 SUB SWAP1 RETURN JUMPDEST PUSH2 0x24C PUSH2 0x567 JUMP JUMPDEST PUSH1 0x40 MLOAD PUSH2 0x259 SWAP2 SWAP1 PUSH2 0x195C JUMP JUMPDEST PUSH1 0x40 MLOAD DUP1 SWAP2 SUB SWAP1 RETURN JUMPDEST PUSH2 0x27C PUSH1 0x4 DUP1 CALLDATASIZE SUB DUP2 ADD SWAP1 PUSH2 0x277 SWAP2 SWAP1 PUSH2 0x1B41 JUMP JUMPDEST PUSH2 0x5F5 JUMP JUMPDEST STOP JUMPDEST PUSH2 0x298 PUSH1 0x4 DUP1 CALLDATASIZE SUB DUP2 ADD SWAP1 PUSH2 0x293 SWAP2 SWAP1 PUSH2 0x1B6E JUMP JUMPDEST PUSH2 0x64D JUMP JUMPDEST PUSH1 0x40 MLOAD PUSH2 0x2A5 SWAP2 SWAP1 PUSH2 0x1A9C JUMP JUMPDEST PUSH1 0x40 MLOAD DUP1 SWAP2 SUB SWAP1 RETURN JUMPDEST PUSH2 0x2B6 PUSH2 0x695 JUMP JUMPDEST PUSH1 0x40 MLOAD PUSH2 0x2C3 SWAP2 SWAP1 PUSH2 0x195C JUMP JUMPDEST PUSH1 0x40 MLOAD DUP1 SWAP2 SUB SWAP1 RETURN JUMPDEST PUSH2 0x2D4 PUSH2 0x723 JUMP JUMPDEST PUSH1 0x40 MLOAD PUSH2 0x2E1 SWAP2 SWAP1 PUSH2 0x1BAA JUMP JUMPDEST PUSH1 0x40 MLOAD DUP1 SWAP2 SUB SWAP1 RETURN JUMPDEST PUSH2 0x2F2 PUSH2 0x749 JUMP JUMPDEST PUSH1 0x40 MLOAD PUSH2 0x2FF SWAP2 SWAP1 PUSH2 0x195C JUMP JUMPDEST PUSH1 0x40 MLOAD DUP1 SWAP2 SUB SWAP1 RETURN JUMPDEST PUSH2 0x322 PUSH1 0x4 DUP1 CALLDATASIZE SUB DUP2 ADD SWAP1 PUSH2 0x31D SWAP2 SWAP1 PUSH2 0x1A17 JUMP JUMPDEST PUSH2 0x7DB JUMP JUMPDEST PUSH1 0x40 MLOAD PUSH2 0x32F SWAP2 SWAP1 PUSH2 0x1A72 JUMP JUMPDEST PUSH1 0x40 MLOAD DUP1 SWAP2 SUB SWAP1 RETURN JUMPDEST PUSH2 0x352 PUSH1 0x4 DUP1 CALLDATASIZE SUB DUP2 ADD SWAP1 PUSH2 0x34D SWAP2 SWAP1 PUSH2 0x1B41 JUMP JUMPDEST PUSH2 0x852 JUMP JUMPDEST STOP JUMPDEST PUSH2 0x36E PUSH1 0x4 DUP1 CALLDATASIZE SUB DUP2 ADD SWAP1 PUSH2 0x369 SWAP2 SWAP1 PUSH2 0x1A17 JUMP JUMPDEST PUSH2 0xCAF JUMP JUMPDEST PUSH1 0x40 MLOAD PUSH2 0x37B SWAP2 SWAP1 PUSH2 0x1A72 JUMP JUMPDEST PUSH1 0x40 MLOAD DUP1 SWAP2 SUB SWAP1 RETURN JUMPDEST PUSH2 0x39E PUSH1 0x4 DUP1 CALLDATASIZE SUB DUP2 ADD SWAP1 PUSH2 0x399 SWAP2 SWAP1 PUSH2 0x1A17 JUMP JUMPDEST PUSH2 0xCD2 JUMP JUMPDEST STOP JUMPDEST PUSH2 0x3BA PUSH1 0x4 DUP1 CALLDATASIZE SUB DUP2 ADD SWAP1 PUSH2 0x3B5 SWAP2 SWAP1 PUSH2 0x1BC5 JUMP JUMPDEST PUSH2 0xD2C JUMP JUMPDEST PUSH1 0x40 MLOAD PUSH2 0x3C7 SWAP2 SWAP1 PUSH2 0x1A9C JUMP JUMPDEST PUSH1 0x40 MLOAD DUP1 SWAP2 SUB SWAP1 RETURN JUMPDEST PUSH2 0x3D8 PUSH2 0xDB3 JUMP JUMPDEST PUSH1 0x40 MLOAD PUSH2 0x3E6 SWAP3 SWAP2 SWAP1 PUSH2 0x1D11 JUMP JUMPDEST PUSH1 0x40 MLOAD DUP1 SWAP2 SUB SWAP1 RETURN JUMPDEST PUSH2 0x3F7 PUSH2 0xF5C JUMP JUMPDEST PUSH1 0x40 MLOAD PUSH2 0x404 SWAP2 SWAP1 PUSH2 0x195C JUMP JUMPDEST PUSH1 0x40 MLOAD DUP1 SWAP2 SUB SWAP1 RETURN JUMPDEST PUSH2 0x427 PUSH1 0x4 DUP1 CALLDATASIZE SUB DUP2 ADD SWAP1 PUSH2 0x422 SWAP2 SWAP1 PUSH2 0x1A17 JUMP JUMPDEST PUSH2 0xF7C JUMP JUMPDEST STOP JUMPDEST PUSH1 0x60 PUSH1 0x3 DUP1 SLOAD PUSH2 0x438 SWAP1 PUSH2 0x1D70 JUMP JUMPDEST DUP1 PUSH1 0x1F ADD PUSH1 0x20 DUP1 SWAP2 DIV MUL PUSH1 0x20 ADD PUSH1 0x40 MLOAD SWAP1 DUP2 ADD PUSH1 0x40 MSTORE DUP1 SWAP3 SWAP2 SWAP1 DUP2 DUP2 MSTORE PUSH1 0x20 ADD DUP3 DUP1 SLOAD PUSH2 0x464 SWAP1 PUSH2 0x1D70 JUMP JUMPDEST DUP1 ISZERO PUSH2 0x4B1 JUMPI DUP1 PUSH1 0x1F LT PUSH2 0x486 JUMPI PUSH2 0x100 DUP1 DUP4 SLOAD DIV MUL DUP4 MSTORE SWAP2 PUSH1 0x20 ADD SWAP2 PUSH2 0x4B1 JUMP JUMPDEST DUP3 ADD SWAP2 SWAP1 PUSH1 0x0 MSTORE PUSH1 0x20 PUSH1 0x0 KECCAK256 SWAP1 JUMPDEST DUP2 SLOAD DUP2 MSTORE SWAP1 PUSH1 0x1 ADD SWAP1 PUSH1 0x20 ADD DUP1 DUP4 GT PUSH2 0x494 JUMPI DUP3 SWAP1 SUB PUSH1 0x1F AND DUP3 ADD SWAP2 JUMPDEST POP POP POP POP POP SWAP1 POP SWAP1 JUMP JUMPDEST PUSH1 0x0 DUP1 PUSH2 0x4C6 PUSH2 0x10CC JUMP JUMPDEST SWAP1 POP PUSH2 0x4D3 DUP2 DUP6 DUP6 PUSH2 0x10D4 JUMP JUMPDEST PUSH1 0x1 SWAP2 POP POP SWAP3 SWAP2 POP POP JUMP JUMPDEST PUSH1 0x0 PUSH1 0x2 SLOAD SWAP1 POP SWAP1 JUMP JUMPDEST PUSH1 0x0 DUP1 PUSH2 0x4F3 PUSH2 0x10CC JUMP JUMPDEST SWAP1 POP PUSH2 0x500 DUP6 DUP3 DUP6 PUSH2 0x129D JUMP JUMPDEST PUSH2 0x50B DUP6 DUP6 DUP6 PUSH2 0x1329 JUMP JUMPDEST PUSH1 0x1 SWAP2 POP POP SWAP4 SWAP3 POP POP POP JUMP JUMPDEST PUSH1 0x0 PUSH1 0x12 SWAP1 POP SWAP1 JUMP JUMPDEST PUSH1 0x0 DUP1 PUSH2 0x52B PUSH2 0x10CC JUMP JUMPDEST SWAP1 POP PUSH2 0x54C DUP2 DUP6 DUP6 PUSH2 0x53D DUP6 DUP10 PUSH2 0xD2C JUMP JUMPDEST PUSH2 0x547 SWAP2 SWAP1 PUSH2 0x1DD0 JUMP JUMPDEST PUSH2 0x10D4 JUMP JUMPDEST PUSH1 0x1 SWAP2 POP POP SWAP3 SWAP2 POP POP JUMP JUMPDEST PUSH1 0x0 PUSH2 0x562 CALLER PUSH2 0x64D JUMP JUMPDEST SWAP1 POP SWAP1 JUMP JUMPDEST PUSH1 0x5 DUP1 SLOAD PUSH2 0x574 SWAP1 PUSH2 0x1D70 JUMP JUMPDEST DUP1 PUSH1 0x1F ADD PUSH1 0x20 DUP1 SWAP2 DIV MUL PUSH1 0x20 ADD PUSH1 0x40 MLOAD SWAP1 DUP2 ADD PUSH1 0x40 MSTORE DUP1 SWAP3 SWAP2 SWAP1 DUP2 DUP2 MSTORE PUSH1 0x20 ADD DUP3 DUP1 SLOAD PUSH2 0x5A0 SWAP1 PUSH2 0x1D70 JUMP JUMPDEST DUP1 ISZERO PUSH2 0x5ED JUMPI DUP1 PUSH1 0x1F LT PUSH2 0x5C2 JUMPI PUSH2 0x100 DUP1 DUP4 SLOAD DIV MUL DUP4 MSTORE SWAP2 PUSH1 0x20 ADD SWAP2 PUSH2 0x5ED JUMP JUMPDEST DUP3 ADD SWAP2 SWAP1 PUSH1 0x0 MSTORE PUSH1 0x20 PUSH1 0x0 KECCAK256 SWAP1 JUMPDEST DUP2 SLOAD DUP2 MSTORE SWAP1 PUSH1 0x1 ADD SWAP1 PUSH1 0x20 ADD DUP1 DUP4 GT PUSH2 0x5D0 JUMPI DUP3 SWAP1 SUB PUSH1 0x1F AND DUP3 ADD SWAP2 JUMPDEST POP POP POP POP POP DUP2 JUMP JUMPDEST DUP1 PUSH2 0x5FF CALLER PUSH2 0x64D JUMP JUMPDEST LT ISZERO PUSH2 0x640 JUMPI PUSH1 0x40 MLOAD PUSH32 0x8C379A000000000000000000000000000000000000000000000000000000000 DUP2 MSTORE PUSH1 0x4 ADD PUSH2 0x637 SWAP1 PUSH2 0x1E50 JUMP JUMPDEST PUSH1 0x40 MLOAD DUP1 SWAP2 SUB SWAP1 REVERT JUMPDEST PUSH2 0x64A CALLER DUP3 PUSH2 0x159F JUMP JUMPDEST POP JUMP JUMPDEST PUSH1 0x0 DUP1 PUSH1 0x0 DUP4 PUSH20 0xFFFFFFFFFFFFFFFFFFFFFFFFFFFFFFFFFFFFFFFF AND PUSH20 0xFFFFFFFFFFFFFFFFFFFFFFFFFFFFFFFFFFFFFFFF AND DUP2 MSTORE PUSH1 0x20 ADD SWAP1 DUP2 MSTORE PUSH1 0x20 ADD PUSH1 0x0 KECCAK256 SLOAD SWAP1 POP SWAP2 SWAP1 POP JUMP JUMPDEST PUSH1 0x6 DUP1 SLOAD PUSH2 0x6A2 SWAP1 PUSH2 0x1D70 JUMP JUMPDEST DUP1 PUSH1 0x1F ADD PUSH1 0x20 DUP1 SWAP2 DIV MUL PUSH1 0x20 ADD PUSH1 0x40 MLOAD SWAP1 DUP2 ADD PUSH1 0x40 MSTORE DUP1 SWAP3 SWAP2 SWAP1 DUP2 DUP2 MSTORE PUSH1 0x20 ADD DUP3 DUP1 SLOAD PUSH2 0x6CE SWAP1 PUSH2 0x1D70 JUMP JUMPDEST DUP1 ISZERO PUSH2 0x71B JUMPI DUP1 PUSH1 0x1F LT PUSH2 0x6F0 JUMPI PUSH2 0x100 DUP1 DUP4 SLOAD DIV MUL DUP4 MSTORE SWAP2 PUSH1 0x20 ADD SWAP2 PUSH2 0x71B JUMP JUMPDEST DUP3 ADD SWAP2 SWAP1 PUSH1 0x0 MSTORE PUSH1 0x20 PUSH1 0x0 KECCAK256 SWAP1 JUMPDEST DUP2 SLOAD DUP2 MSTORE SWAP1 PUSH1 0x1 ADD SWAP1 PUSH1 0x20 ADD DUP1 DUP4 GT PUSH2 0x6FE JUMPI DUP3 SWAP1 SUB PUSH1 0x1F AND DUP3 ADD SWAP2 JUMPDEST POP POP POP POP POP DUP2 JUMP JUMPDEST PUSH1 0x8 PUSH1 0x0 SWAP1 SLOAD SWAP1 PUSH2 0x100 EXP SWAP1 DIV PUSH20 0xFFFFFFFFFFFFFFFFFFFFFFFFFFFFFFFFFFFFFFFF AND DUP2 JUMP JUMPDEST PUSH1 0x60 PUSH1 0x4 DUP1 SLOAD PUSH2 0x758 SWAP1 PUSH2 0x1D70 JUMP JUMPDEST DUP1 PUSH1 0x1F ADD PUSH1 0x20 DUP1 SWAP2 DIV MUL PUSH1 0x20 ADD PUSH1 0x40 MLOAD SWAP1 DUP2 ADD PUSH1 0x40 MSTORE DUP1 SWAP3 SWAP2 SWAP1 DUP2 DUP2 MSTORE PUSH1 0x20 ADD DUP3 DUP1 SLOAD PUSH2 0x784 SWAP1 PUSH2 0x1D70 JUMP JUMPDEST DUP1 ISZERO PUSH2 0x7D1 JUMPI DUP1 PUSH1 0x1F LT PUSH2 0x7A6 JUMPI PUSH2 0x100 DUP1 DUP4 SLOAD DIV MUL DUP4 MSTORE SWAP2 PUSH1 0x20 ADD SWAP2 PUSH2 0x7D1 JUMP JUMPDEST DUP3 ADD SWAP2 SWAP1 PUSH1 0x0 MSTORE PUSH1 0x20 PUSH1 0x0 KECCAK256 SWAP1 JUMPDEST DUP2 SLOAD DUP2 MSTORE SWAP1 PUSH1 0x1 ADD SWAP1 PUSH1 0x20 ADD DUP1 DUP4 GT PUSH2 0x7B4 JUMPI DUP3 SWAP1 SUB PUSH1 0x1F AND DUP3 ADD SWAP2 JUMPDEST POP POP POP POP POP SWAP1 POP SWAP1 JUMP JUMPDEST PUSH1 0x0 DUP1 PUSH2 0x7E6 PUSH2 0x10CC JUMP JUMPDEST SWAP1 POP PUSH1 0x0 PUSH2 0x7F4 DUP3 DUP7 PUSH2 0xD2C JUMP JUMPDEST SWAP1 POP DUP4 DUP2 LT ISZERO PUSH2 0x839 JUMPI PUSH1 0x40 MLOAD PUSH32 0x8C379A000000000000000000000000000000000000000000000000000000000 DUP2 MSTORE PUSH1 0x4 ADD PUSH2 0x830 SWAP1 PUSH2 0x1EE2 JUMP JUMPDEST PUSH1 0x40 MLOAD DUP1 SWAP2 SUB SWAP1 REVERT JUMPDEST PUSH2 0x846 DUP3 DUP7 DUP7 DUP5 SUB PUSH2 0x10D4 JUMP JUMPDEST PUSH1 0x1 SWAP3 POP POP POP SWAP3 SWAP2 POP POP JUMP JUMPDEST PUSH1 0x4 DUP2 GT ISZERO PUSH2 0x896 JUMPI PUSH1 0x40 MLOAD PUSH32 0x8C379A000000000000000000000000000000000000000000000000000000000 DUP2 MSTORE PUSH1 0x4 ADD PUSH2 0x88D SWAP1 PUSH2 0x1F4E JUMP JUMPDEST PUSH1 0x40 MLOAD DUP1 SWAP2 SUB SWAP1 REVERT JUMPDEST PUSH1 0x1 DUP2 SUB PUSH2 0x99E JUMPI PUSH1 0x96 PUSH2 0x8A9 CALLER PUSH2 0x64D JUMP JUMPDEST LT ISZERO PUSH2 0x8EA JUMPI PUSH1 0x40 MLOAD PUSH32 0x8C379A000000000000000000000000000000000000000000000000000000000 DUP2 MSTORE PUSH1 0x4 ADD PUSH2 0x8E1 SWAP1 PUSH2 0x1FBA JUMP JUMPDEST PUSH1 0x40 MLOAD DUP1 SWAP2 SUB SWAP1 REVERT JUMPDEST PUSH2 0x8F5 CALLER PUSH1 0x96 PUSH2 0x159F JUMP JUMPDEST PUSH1 0x7 PUSH1 0x0 CALLER PUSH20 0xFFFFFFFFFFFFFFFFFFFFFFFFFFFFFFFFFFFFFFFF AND PUSH20 0xFFFFFFFFFFFFFFFFFFFFFFFFFFFFFFFFFFFFFFFF AND DUP2 MSTORE PUSH1 0x20 ADD SWAP1 DUP2 MSTORE PUSH1 0x20 ADD PUSH1 0x0 KECCAK256 DUP1 PUSH1 0x1 DUP2 SLOAD ADD DUP1 DUP3 SSTORE DUP1 SWAP2 POP POP PUSH1 0x1 SWAP1 SUB SWAP1 PUSH1 0x0 MSTORE PUSH1 0x20 PUSH1 0x0 KECCAK256 ADD PUSH1 0x0 PUSH1 0x40 MLOAD DUP1 PUSH1 0x40 ADD PUSH1 0x40 MSTORE DUP1 PUSH1 0x7 DUP2 MSTORE PUSH1 0x20 ADD PUSH32 0x42697279616E6900000000000000000000000000000000000000000000000000 DUP2 MSTORE POP SWAP1 SWAP2 SWAP1 SWAP2 POP SWAP1 DUP2 PUSH2 0x998 SWAP2 SWAP1 PUSH2 0x21B5 JUMP JUMPDEST POP PUSH2 0xCAC JUMP JUMPDEST PUSH1 0x2 DUP2 SUB PUSH2 0xAA6 JUMPI PUSH1 0xFA PUSH2 0x9B1 CALLER PUSH2 0x64D JUMP JUMPDEST LT ISZERO PUSH2 0x9F2 JUMPI PUSH1 0x40 MLOAD PUSH32 0x8C379A000000000000000000000000000000000000000000000000000000000 DUP2 MSTORE PUSH1 0x4 ADD PUSH2 0x9E9 SWAP1 PUSH2 0x1FBA JUMP JUMPDEST PUSH1 0x40 MLOAD DUP1 SWAP2 SUB SWAP1 REVERT JUMPDEST PUSH2 0x9FD CALLER PUSH1 0xFA PUSH2 0x159F JUMP JUMPDEST PUSH1 0x7 PUSH1 0x0 CALLER PUSH20 0xFFFFFFFFFFFFFFFFFFFFFFFFFFFFFFFFFFFFFFFF AND PUSH20 0xFFFFFFFFFFFFFFFFFFFFFFFFFFFFFFFFFFFFFFFF AND DUP2 MSTORE PUSH1 0x20 ADD SWAP1 DUP2 MSTORE PUSH1 0x20 ADD PUSH1 0x0 KECCAK256 DUP1 PUSH1 0x1 DUP2 SLOAD ADD DUP1 DUP3 SSTORE DUP1 SWAP2 POP POP PUSH1 0x1 SWAP1 SUB SWAP1 PUSH1 0x0 MSTORE PUSH1 0x20 PUSH1 0x0 KECCAK256 ADD PUSH1 0x0 PUSH1 0x40 MLOAD DUP1 PUSH1 0x40 ADD PUSH1 0x40 MSTORE DUP1 PUSH1 0x10 DUP2 MSTORE PUSH1 0x20 ADD PUSH32 0x54616E646F6F726920436869636B656E00000000000000000000000000000000 DUP2 MSTORE POP SWAP1 SWAP2 SWAP1 SWAP2 POP SWAP1 DUP2 PUSH2 0xAA0 SWAP2 SWAP1 PUSH2 0x21B5 JUMP JUMPDEST POP PUSH2 0xCAB JUMP JUMPDEST PUSH1 0x3 DUP2 SUB PUSH2 0xBAE JUMPI PUSH1 0xC8 PUSH2 0xAB9 CALLER PUSH2 0x64D JUMP JUMPDEST LT ISZERO PUSH2 0xAFA JUMPI PUSH1 0x40 MLOAD PUSH32 0x8C379A000000000000000000000000000000000000000000000000000000000 DUP2 MSTORE PUSH1 0x4 ADD PUSH2 0xAF1 SWAP1 PUSH2 0x1FBA JUMP JUMPDEST PUSH1 0x40 MLOAD DUP1 SWAP2 SUB SWAP1 REVERT JUMPDEST PUSH2 0xB05 CALLER PUSH1 0xC8 PUSH2 0x159F JUMP JUMPDEST PUSH1 0x7 PUSH1 0x0 CALLER PUSH20 0xFFFFFFFFFFFFFFFFFFFFFFFFFFFFFFFFFFFFFFFF AND PUSH20 0xFFFFFFFFFFFFFFFFFFFFFFFFFFFFFFFFFFFFFFFF AND DUP2 MSTORE PUSH1 0x20 ADD SWAP1 DUP2 MSTORE PUSH1 0x20 ADD PUSH1 0x0 KECCAK256 DUP1 PUSH1 0x1 DUP2 SLOAD ADD DUP1 DUP3 SSTORE DUP1 SWAP2 POP POP PUSH1 0x1 SWAP1 SUB SWAP1 PUSH1 0x0 MSTORE PUSH1 0x20 PUSH1 0x0 KECCAK256 ADD PUSH1 0x0 PUSH1 0x40 MLOAD DUP1 PUSH1 0x40 ADD PUSH1 0x40 MSTORE DUP1 PUSH1 0xE DUP2 MSTORE PUSH1 0x20 ADD PUSH32 0x42757474657220436869636B656E000000000000000000000000000000000000 DUP2 MSTORE POP SWAP1 SWAP2 SWAP1 SWAP2 POP SWAP1 DUP2 PUSH2 0xBA8 SWAP2 SWAP1 PUSH2 0x21B5 JUMP JUMPDEST POP PUSH2 0xCAA JUMP JUMPDEST PUSH1 0x6E PUSH2 0xBB9 CALLER PUSH2 0x64D JUMP JUMPDEST LT ISZERO PUSH2 0xBFA JUMPI PUSH1 0x40 MLOAD PUSH32 0x8C379A000000000000000000000000000000000000000000000000000000000 DUP2 MSTORE PUSH1 0x4 ADD PUSH2 0xBF1 SWAP1 PUSH2 0x1FBA JUMP JUMPDEST PUSH1 0x40 MLOAD DUP1 SWAP2 SUB SWAP1 REVERT JUMPDEST PUSH2 0xC05 CALLER PUSH1 0x6E PUSH2 0x159F JUMP JUMPDEST PUSH1 0x7 PUSH1 0x0 CALLER PUSH20 0xFFFFFFFFFFFFFFFFFFFFFFFFFFFFFFFFFFFFFFFF AND PUSH20 0xFFFFFFFFFFFFFFFFFFFFFFFFFFFFFFFFFFFFFFFF AND DUP2 MSTORE PUSH1 0x20 ADD SWAP1 DUP2 MSTORE PUSH1 0x20 ADD PUSH1 0x0 KECCAK256 DUP1 PUSH1 0x1 DUP2 SLOAD ADD DUP1 DUP3 SSTORE DUP1 SWAP2 POP POP PUSH1 0x1 SWAP1 SUB SWAP1 PUSH1 0x0 MSTORE PUSH1 0x20 PUSH1 0x0 KECCAK256 ADD PUSH1 0x0 PUSH1 0x40 MLOAD DUP1 PUSH1 0x40 ADD PUSH1 0x40 MSTORE DUP1 PUSH1 0x7 DUP2 MSTORE PUSH1 0x20 ADD PUSH32 0x4E6F6F646C657300000000000000000000000000000000000000000000000000 DUP2 MSTORE POP SWAP1 SWAP2 SWAP1 SWAP2 POP SWAP1 DUP2 PUSH2 0xCA8 SWAP2 SWAP1 PUSH2 0x21B5 JUMP JUMPDEST POP JUMPDEST JUMPDEST JUMPDEST POP JUMP JUMPDEST PUSH1 0x0 DUP1 PUSH2 0xCBA PUSH2 0x10CC JUMP JUMPDEST SWAP1 POP PUSH2 0xCC7 DUP2 DUP6 DUP6 PUSH2 0x1329 JUMP JUMPDEST PUSH1 0x1 SWAP2 POP POP SWAP3 SWAP2 POP POP JUMP JUMPDEST DUP1 PUSH2 0xCDC CALLER PUSH2 0x64D JUMP JUMPDEST LT ISZERO PUSH2 0xD1D JUMPI PUSH1 0x40 MLOAD PUSH32 0x8C379A000000000000000000000000000000000000000000000000000000000 DUP2 MSTORE PUSH1 0x4 ADD PUSH2 0xD14 SWAP1 PUSH2 0x22F9 JUMP JUMPDEST PUSH1 0x40 MLOAD DUP1 SWAP2 SUB SWAP1 REVERT JUMPDEST PUSH2 0xD27 DUP3 DUP3 PUSH2 0xCAF JUMP JUMPDEST POP POP POP JUMP JUMPDEST PUSH1 0x0 PUSH1 0x1 PUSH1 0x0 DUP5 PUSH20 0xFFFFFFFFFFFFFFFFFFFFFFFFFFFFFFFFFFFFFFFF AND PUSH20 0xFFFFFFFFFFFFFFFFFFFFFFFFFFFFFFFFFFFFFFFF AND DUP2 MSTORE PUSH1 0x20 ADD SWAP1 DUP2 MSTORE PUSH1 0x20 ADD PUSH1 0x0 KECCAK256 PUSH1 0x0 DUP4 PUSH20 0xFFFFFFFFFFFFFFFFFFFFFFFFFFFFFFFFFFFFFFFF AND PUSH20 0xFFFFFFFFFFFFFFFFFFFFFFFFFFFFFFFFFFFFFFFF AND DUP2 MSTORE PUSH1 0x20 ADD SWAP1 DUP2 MSTORE PUSH1 0x20 ADD PUSH1 0x0 KECCAK256 SLOAD SWAP1 POP SWAP3 SWAP2 POP POP JUMP JUMPDEST PUSH1 0x60 PUSH1 0x0 DUP1 PUSH1 0x7 PUSH1 0x0 CALLER PUSH20 0xFFFFFFFFFFFFFFFFFFFFFFFFFFFFFFFFFFFFFFFF AND PUSH20 0xFFFFFFFFFFFFFFFFFFFFFFFFFFFFFFFFFFFFFFFF AND DUP2 MSTORE PUSH1 0x20 ADD SWAP1 DUP2 MSTORE PUSH1 0x20 ADD PUSH1 0x0 KECCAK256 DUP1 SLOAD SWAP1 POP SWAP1 POP PUSH1 0x0 DUP2 GT PUSH2 0xE40 JUMPI PUSH1 0x40 MLOAD PUSH32 0x8C379A000000000000000000000000000000000000000000000000000000000 DUP2 MSTORE PUSH1 0x4 ADD PUSH2 0xE37 SWAP1 PUSH2 0x238B JUMP JUMPDEST PUSH1 0x40 MLOAD DUP1 SWAP2 SUB SWAP1 REVERT JUMPDEST PUSH1 0x7 PUSH1 0x0 CALLER PUSH20 0xFFFFFFFFFFFFFFFFFFFFFFFFFFFFFFFFFFFFFFFF AND PUSH20 0xFFFFFFFFFFFFFFFFFFFFFFFFFFFFFFFFFFFFFFFF AND DUP2 MSTORE PUSH1 0x20 ADD SWAP1 DUP2 MSTORE PUSH1 0x20 ADD PUSH1 0x0 KECCAK256 DUP2 DUP2 DUP1 SLOAD DUP1 PUSH1 0x20 MUL PUSH1 0x20 ADD PUSH1 0x40 MLOAD SWAP1 DUP2 ADD PUSH1 0x40 MSTORE DUP1 SWAP3 SWAP2 SWAP1 DUP2 DUP2 MSTORE PUSH1 0x20 ADD PUSH1 0x0 SWAP1 JUMPDEST DUP3 DUP3 LT ISZERO PUSH2 0xF4D JUMPI DUP4 DUP3 SWAP1 PUSH1 0x0 MSTORE PUSH1 0x20 PUSH1 0x0 KECCAK256 ADD DUP1 SLOAD PUSH2 0xEC0 SWAP1 PUSH2 0x1D70 JUMP JUMPDEST DUP1 PUSH1 0x1F ADD PUSH1 0x20 DUP1 SWAP2 DIV MUL PUSH1 0x20 ADD PUSH1 0x40 MLOAD SWAP1 DUP2 ADD PUSH1 0x40 MSTORE DUP1 SWAP3 SWAP2 SWAP1 DUP2 DUP2 MSTORE PUSH1 0x20 ADD DUP3 DUP1 SLOAD PUSH2 0xEEC SWAP1 PUSH2 0x1D70 JUMP JUMPDEST DUP1 ISZERO PUSH2 0xF39 JUMPI DUP1 PUSH1 0x1F LT PUSH2 0xF0E JUMPI PUSH2 0x100 DUP1 DUP4 SLOAD DIV MUL DUP4 MSTORE SWAP2 PUSH1 0x20 ADD SWAP2 PUSH2 0xF39 JUMP JUMPDEST DUP3 ADD SWAP2 SWAP1 PUSH1 0x0 MSTORE PUSH1 0x20 PUSH1 0x0 KECCAK256 SWAP1 JUMPDEST DUP2 SLOAD DUP2 MSTORE SWAP1 PUSH1 0x1 ADD SWAP1 PUSH1 0x20 ADD DUP1 DUP4 GT PUSH2 0xF1C JUMPI DUP3 SWAP1 SUB PUSH1 0x1F AND DUP3 ADD SWAP2 JUMPDEST POP POP POP POP POP DUP2 MSTORE PUSH1 0x20 ADD SWAP1 PUSH1 0x1 ADD SWAP1 PUSH2 0xEA1 JUMP JUMPDEST POP POP POP POP SWAP2 POP SWAP3 POP SWAP3 POP POP SWAP1 SWAP2 JUMP JUMPDEST PUSH1 0x60 PUSH1 0x40 MLOAD DUP1 PUSH1 0xA0 ADD PUSH1 0x40 MSTORE DUP1 PUSH1 0x63 DUP2 MSTORE PUSH1 0x20 ADD PUSH2 0x29EC PUSH1 0x63 SWAP2 CODECOPY SWAP1 POP SWAP1 JUMP JUMPDEST PUSH1 0x8 PUSH1 0x0 SWAP1 SLOAD SWAP1 PUSH2 0x100 EXP SWAP1 DIV PUSH20 0xFFFFFFFFFFFFFFFFFFFFFFFFFFFFFFFFFFFFFFFF AND PUSH20 0xFFFFFFFFFFFFFFFFFFFFFFFFFFFFFFFFFFFFFFFF AND CALLER PUSH20 0xFFFFFFFFFFFFFFFFFFFFFFFFFFFFFFFFFFFFFFFF AND EQ PUSH2 0x100C JUMPI PUSH1 0x40 MLOAD PUSH32 0x8C379A000000000000000000000000000000000000000000000000000000000 DUP2 MSTORE PUSH1 0x4 ADD PUSH2 0x1003 SWAP1 PUSH2 0x23F7 JUMP JUMPDEST PUSH1 0x40 MLOAD DUP1 SWAP2 SUB SWAP1 REVERT JUMPDEST PUSH1 0x0 PUSH20 0xFFFFFFFFFFFFFFFFFFFFFFFFFFFFFFFFFFFFFFFF AND DUP3 PUSH20 0xFFFFFFFFFFFFFFFFFFFFFFFFFFFFFFFFFFFFFFFF AND SUB PUSH2 0x107B JUMPI PUSH1 0x40 MLOAD PUSH32 0x8C379A000000000000000000000000000000000000000000000000000000000 DUP2 MSTORE PUSH1 0x4 ADD PUSH2 0x1072 SWAP1 PUSH2 0x2463 JUMP JUMPDEST PUSH1 0x40 MLOAD DUP1 SWAP2 SUB SWAP1 REVERT JUMPDEST PUSH1 0x0 DUP2 GT PUSH2 0x10BE JUMPI PUSH1 0x40 MLOAD PUSH32 0x8C379A000000000000000000000000000000000000000000000000000000000 DUP2 MSTORE PUSH1 0x4 ADD PUSH2 0x10B5 SWAP1 PUSH2 0x24F5 JUMP JUMPDEST PUSH1 0x40 MLOAD DUP1 SWAP2 SUB SWAP1 REVERT JUMPDEST PUSH2 0x10C8 DUP3 DUP3 PUSH2 0x176C JUMP JUMPDEST POP POP JUMP JUMPDEST PUSH1 0x0 CALLER SWAP1 POP SWAP1 JUMP JUMPDEST PUSH1 0x0 PUSH20 0xFFFFFFFFFFFFFFFFFFFFFFFFFFFFFFFFFFFFFFFF AND DUP4 PUSH20 0xFFFFFFFFFFFFFFFFFFFFFFFFFFFFFFFFFFFFFFFF AND SUB PUSH2 0x1143 JUMPI PUSH1 0x40 MLOAD PUSH32 0x8C379A000000000000000000000000000000000000000000000000000000000 DUP2 MSTORE PUSH1 0x4 ADD PUSH2 0x113A SWAP1 PUSH2 0x2587 JUMP JUMPDEST PUSH1 0x40 MLOAD DUP1 SWAP2 SUB SWAP1 REVERT JUMPDEST PUSH1 0x0 PUSH20 0xFFFFFFFFFFFFFFFFFFFFFFFFFFFFFFFFFFFFFFFF AND DUP3 PUSH20 0xFFFFFFFFFFFFFFFFFFFFFFFFFFFFFFFFFFFFFFFF AND SUB PUSH2 0x11B2 JUMPI PUSH1 0x40 MLOAD PUSH32 0x8C379A000000000000000000000000000000000000000000000000000000000 DUP2 MSTORE PUSH1 0x4 ADD PUSH2 0x11A9 SWAP1 PUSH2 0x2619 JUMP JUMPDEST PUSH1 0x40 MLOAD DUP1 SWAP2 SUB SWAP1 REVERT JUMPDEST DUP1 PUSH1 0x1 PUSH1 0x0 DUP6 PUSH20 0xFFFFFFFFFFFFFFFFFFFFFFFFFFFFFFFFFFFFFFFF AND PUSH20 0xFFFFFFFFFFFFFFFFFFFFFFFFFFFFFFFFFFFFFFFF AND DUP2 MSTORE PUSH1 0x20 ADD SWAP1 DUP2 MSTORE PUSH1 0x20 ADD PUSH1 0x0 KECCAK256 PUSH1 0x0 DUP5 PUSH20 0xFFFFFFFFFFFFFFFFFFFFFFFFFFFFFFFFFFFFFFFF AND PUSH20 0xFFFFFFFFFFFFFFFFFFFFFFFFFFFFFFFFFFFFFFFF AND DUP2 MSTORE PUSH1 0x20 ADD SWAP1 DUP2 MSTORE PUSH1 0x20 ADD PUSH1 0x0 KECCAK256 DUP2 SWAP1 SSTORE POP DUP2 PUSH20 0xFFFFFFFFFFFFFFFFFFFFFFFFFFFFFFFFFFFFFFFF AND DUP4 PUSH20 0xFFFFFFFFFFFFFFFFFFFFFFFFFFFFFFFFFFFFFFFF AND PUSH32 0x8C5BE1E5EBEC7D5BD14F71427D1E84F3DD0314C0F7B2291E5B200AC8C7C3B925 DUP4 PUSH1 0x40 MLOAD PUSH2 0x1290 SWAP2 SWAP1 PUSH2 0x1A9C JUMP JUMPDEST PUSH1 0x40 MLOAD DUP1 SWAP2 SUB SWAP1 LOG3 POP POP POP JUMP JUMPDEST PUSH1 0x0 PUSH2 0x12A9 DUP5 DUP5 PUSH2 0xD2C JUMP JUMPDEST SWAP1 POP PUSH32 0xFFFFFFFFFFFFFFFFFFFFFFFFFFFFFFFFFFFFFFFFFFFFFFFFFFFFFFFFFFFFFFFF DUP2 EQ PUSH2 0x1323 JUMPI DUP2 DUP2 LT ISZERO PUSH2 0x1315 JUMPI PUSH1 0x40 MLOAD PUSH32 0x8C379A000000000000000000000000000000000000000000000000000000000 DUP2 MSTORE PUSH1 0x4 ADD PUSH2 0x130C SWAP1 PUSH2 0x2685 JUMP JUMPDEST PUSH1 0x40 MLOAD DUP1 SWAP2 SUB SWAP1 REVERT JUMPDEST PUSH2 0x1322 DUP5 DUP5 DUP5 DUP5 SUB PUSH2 0x10D4 JUMP JUMPDEST JUMPDEST POP POP POP POP JUMP JUMPDEST PUSH1 0x0 PUSH20 0xFFFFFFFFFFFFFFFFFFFFFFFFFFFFFFFFFFFFFFFF AND DUP4 PUSH20 0xFFFFFFFFFFFFFFFFFFFFFFFFFFFFFFFFFFFFFFFF AND SUB PUSH2 0x1398 JUMPI PUSH1 0x40 MLOAD PUSH32 0x8C379A000000000000000000000000000000000000000000000000000000000 DUP2 MSTORE PUSH1 0x4 ADD PUSH2 0x138F SWAP1 PUSH2 0x2717 JUMP JUMPDEST PUSH1 0x40 MLOAD DUP1 SWAP2 SUB SWAP1 REVERT JUMPDEST PUSH1 0x0 PUSH20 0xFFFFFFFFFFFFFFFFFFFFFFFFFFFFFFFFFFFFFFFF AND DUP3 PUSH20 0xFFFFFFFFFFFFFFFFFFFFFFFFFFFFFFFFFFFFFFFF AND SUB PUSH2 0x1407 JUMPI PUSH1 0x40 MLOAD PUSH32 0x8C379A000000000000000000000000000000000000000000000000000000000 DUP2 MSTORE PUSH1 0x4 ADD PUSH2 0x13FE SWAP1 PUSH2 0x27A9 JUMP JUMPDEST PUSH1 0x40 MLOAD DUP1 SWAP2 SUB SWAP1 REVERT JUMPDEST PUSH2 0x1412 DUP4 DUP4 DUP4 PUSH2 0x18C2 JUMP JUMPDEST PUSH1 0x0 DUP1 PUSH1 0x0 DUP6 PUSH20 0xFFFFFFFFFFFFFFFFFFFFFFFFFFFFFFFFFFFFFFFF AND PUSH20 0xFFFFFFFFFFFFFFFFFFFFFFFFFFFFFFFFFFFFFFFF AND DUP2 MSTORE PUSH1 0x20 ADD SWAP1 DUP2 MSTORE PUSH1 0x20 ADD PUSH1 0x0 KECCAK256 SLOAD SWAP1 POP DUP2 DUP2 LT ISZERO PUSH2 0x1498 JUMPI PUSH1 0x40 MLOAD PUSH32 0x8C379A000000000000000000000000000000000000000000000000000000000 DUP2 MSTORE PUSH1 0x4 ADD PUSH2 0x148F SWAP1 PUSH2 0x283B JUMP JUMPDEST PUSH1 0x40 MLOAD DUP1 SWAP2 SUB SWAP1 REVERT JUMPDEST DUP2 DUP2 SUB PUSH1 0x0 DUP1 DUP7 PUSH20 0xFFFFFFFFFFFFFFFFFFFFFFFFFFFFFFFFFFFFFFFF AND PUSH20 0xFFFFFFFFFFFFFFFFFFFFFFFFFFFFFFFFFFFFFFFF AND DUP2 MSTORE PUSH1 0x20 ADD SWAP1 DUP2 MSTORE PUSH1 0x20 ADD PUSH1 0x0 KECCAK256 DUP2 SWAP1 SSTORE POP DUP2 PUSH1 0x0 DUP1 DUP6 PUSH20 0xFFFFFFFFFFFFFFFFFFFFFFFFFFFFFFFFFFFFFFFF AND PUSH20 0xFFFFFFFFFFFFFFFFFFFFFFFFFFFFFFFFFFFFFFFF AND DUP2 MSTORE PUSH1 0x20 ADD SWAP1 DUP2 MSTORE PUSH1 0x20 ADD PUSH1 0x0 KECCAK256 PUSH1 0x0 DUP3 DUP3 SLOAD ADD SWAP3 POP POP DUP2 SWAP1 SSTORE POP DUP3 PUSH20 0xFFFFFFFFFFFFFFFFFFFFFFFFFFFFFFFFFFFFFFFF AND DUP5 PUSH20 0xFFFFFFFFFFFFFFFFFFFFFFFFFFFFFFFFFFFFFFFF AND PUSH32 0xDDF252AD1BE2C89B69C2B068FC378DAA952BA7F163C4A11628F55A4DF523B3EF DUP5 PUSH1 0x40 MLOAD PUSH2 0x1586 SWAP2 SWAP1 PUSH2 0x1A9C JUMP JUMPDEST PUSH1 0x40 MLOAD DUP1 SWAP2 SUB SWAP1 LOG3 PUSH2 0x1599 DUP5 DUP5 DUP5 PUSH2 0x18C7 JUMP JUMPDEST POP POP POP POP JUMP JUMPDEST PUSH1 0x0 PUSH20 0xFFFFFFFFFFFFFFFFFFFFFFFFFFFFFFFFFFFFFFFF AND DUP3 PUSH20 0xFFFFFFFFFFFFFFFFFFFFFFFFFFFFFFFFFFFFFFFF AND SUB PUSH2 0x160E JUMPI PUSH1 0x40 MLOAD PUSH32 0x8C379A000000000000000000000000000000000000000000000000000000000 DUP2 MSTORE PUSH1 0x4 ADD PUSH2 0x1605 SWAP1 PUSH2 0x28CD JUMP JUMPDEST PUSH1 0x40 MLOAD DUP1 SWAP2 SUB SWAP1 REVERT JUMPDEST PUSH2 0x161A DUP3 PUSH1 0x0 DUP4 PUSH2 0x18C2 JUMP JUMPDEST PUSH1 0x0 DUP1 PUSH1 0x0 DUP5 PUSH20 0xFFFFFFFFFFFFFFFFFFFFFFFFFFFFFFFFFFFFFFFF AND PUSH20 0xFFFFFFFFFFFFFFFFFFFFFFFFFFFFFFFFFFFFFFFF AND DUP2 MSTORE PUSH1 0x20 ADD SWAP1 DUP2 MSTORE PUSH1 0x20 ADD PUSH1 0x0 KECCAK256 SLOAD SWAP1 POP DUP2 DUP2 LT ISZERO PUSH2 0x16A0 JUMPI PUSH1 0x40 MLOAD PUSH32 0x8C379A000000000000000000000000000000000000000000000000000000000 DUP2 MSTORE PUSH1 0x4 ADD PUSH2 0x1697 SWAP1 PUSH2 0x295F JUMP JUMPDEST PUSH1 0x40 MLOAD DUP1 SWAP2 SUB SWAP1 REVERT JUMPDEST DUP2 DUP2 SUB PUSH1 0x0 DUP1 DUP6 PUSH20 0xFFFFFFFFFFFFFFFFFFFFFFFFFFFFFFFFFFFFFFFF AND PUSH20 0xFFFFFFFFFFFFFFFFFFFFFFFFFFFFFFFFFFFFFFFF AND DUP2 MSTORE PUSH1 0x20 ADD SWAP1 DUP2 MSTORE PUSH1 0x20 ADD PUSH1 0x0 KECCAK256 DUP2 SWAP1 SSTORE POP DUP2 PUSH1 0x2 PUSH1 0x0 DUP3 DUP3 SLOAD SUB SWAP3 POP POP DUP2 SWAP1 SSTORE POP PUSH1 0x0 PUSH20 0xFFFFFFFFFFFFFFFFFFFFFFFFFFFFFFFFFFFFFFFF AND DUP4 PUSH20 0xFFFFFFFFFFFFFFFFFFFFFFFFFFFFFFFFFFFFFFFF AND PUSH32 0xDDF252AD1BE2C89B69C2B068FC378DAA952BA7F163C4A11628F55A4DF523B3EF DUP5 PUSH1 0x40 MLOAD PUSH2 0x1753 SWAP2 SWAP1 PUSH2 0x1A9C JUMP JUMPDEST PUSH1 0x40 MLOAD DUP1 SWAP2 SUB SWAP1 LOG3 PUSH2 0x1767 DUP4 PUSH1 0x0 DUP5 PUSH2 0x18C7 JUMP JUMPDEST POP POP POP JUMP JUMPDEST PUSH1 0x0 PUSH20 0xFFFFFFFFFFFFFFFFFFFFFFFFFFFFFFFFFFFFFFFF AND DUP3 PUSH20 0xFFFFFFFFFFFFFFFFFFFFFFFFFFFFFFFFFFFFFFFF AND SUB PUSH2 0x17DB JUMPI PUSH1 0x40 MLOAD PUSH32 0x8C379A000000000000000000000000000000000000000000000000000000000 DUP2 MSTORE PUSH1 0x4 ADD PUSH2 0x17D2 SWAP1 PUSH2 0x29CB JUMP JUMPDEST PUSH1 0x40 MLOAD DUP1 SWAP2 SUB SWAP1 REVERT JUMPDEST PUSH2 0x17E7 PUSH1 0x0 DUP4 DUP4 PUSH2 0x18C2 JUMP JUMPDEST DUP1 PUSH1 0x2 PUSH1 0x0 DUP3 DUP3 SLOAD PUSH2 0x17F9 SWAP2 SWAP1 PUSH2 0x1DD0 JUMP JUMPDEST SWAP3 POP POP DUP2 SWAP1 SSTORE POP DUP1 PUSH1 0x0 DUP1 DUP5 PUSH20 0xFFFFFFFFFFFFFFFFFFFFFFFFFFFFFFFFFFFFFFFF AND PUSH20 0xFFFFFFFFFFFFFFFFFFFFFFFFFFFFFFFFFFFFFFFF AND DUP2 MSTORE PUSH1 0x20 ADD SWAP1 DUP2 MSTORE PUSH1 0x20 ADD PUSH1 0x0 KECCAK256 PUSH1 0x0 DUP3 DUP3 SLOAD ADD SWAP3 POP POP DUP2 SWAP1 SSTORE POP DUP2 PUSH20 0xFFFFFFFFFFFFFFFFFFFFFFFFFFFFFFFFFFFFFFFF AND PUSH1 0x0 PUSH20 0xFFFFFFFFFFFFFFFFFFFFFFFFFFFFFFFFFFFFFFFF AND PUSH32 0xDDF252AD1BE2C89B69C2B068FC378DAA952BA7F163C4A11628F55A4DF523B3EF DUP4 PUSH1 0x40 MLOAD PUSH2 0x18AA SWAP2 SWAP1 PUSH2 0x1A9C JUMP JUMPDEST PUSH1 0x40 MLOAD DUP1 SWAP2 SUB SWAP1 LOG3 PUSH2 0x18BE PUSH1 0x0 DUP4 DUP4 PUSH2 0x18C7 JUMP JUMPDEST POP POP JUMP JUMPDEST POP POP POP JUMP JUMPDEST POP POP POP JUMP JUMPDEST PUSH1 0x0 DUP2 MLOAD SWAP1 POP SWAP2 SWAP1 POP JUMP JUMPDEST PUSH1 0x0 DUP3 DUP3 MSTORE PUSH1 0x20 DUP3 ADD SWAP1 POP SWAP3 SWAP2 POP POP JUMP JUMPDEST PUSH1 0x0 JUMPDEST DUP4 DUP2 LT ISZERO PUSH2 0x1906 JUMPI DUP1 DUP3 ADD MLOAD DUP2 DUP5 ADD MSTORE PUSH1 0x20 DUP2 ADD SWAP1 POP PUSH2 0x18EB JUMP JUMPDEST PUSH1 0x0 DUP5 DUP5 ADD MSTORE POP POP POP POP JUMP JUMPDEST PUSH1 0x0 PUSH1 0x1F NOT PUSH1 0x1F DUP4 ADD AND SWAP1 POP SWAP2 SWAP1 POP JUMP JUMPDEST PUSH1 0x0 PUSH2 0x192E DUP3 PUSH2 0x18CC JUMP JUMPDEST PUSH2 0x1938 DUP2 DUP6 PUSH2 0x18D7 JUMP JUMPDEST SWAP4 POP PUSH2 0x1948 DUP2 DUP6 PUSH1 0x20 DUP7 ADD PUSH2 0x18E8 JUMP JUMPDEST PUSH2 0x1951 DUP2 PUSH2 0x1912 JUMP JUMPDEST DUP5 ADD SWAP2 POP POP SWAP3 SWAP2 POP POP JUMP JUMPDEST PUSH1 0x0 PUSH1 0x20 DUP3 ADD SWAP1 POP DUP2 DUP2 SUB PUSH1 0x0 DUP4 ADD MSTORE PUSH2 0x1976 DUP2 DUP5 PUSH2 0x1923 JUMP JUMPDEST SWAP1 POP SWAP3 SWAP2 POP POP JUMP JUMPDEST PUSH1 0x0 DUP1 REVERT JUMPDEST PUSH1 0x0 PUSH20 0xFFFFFFFFFFFFFFFFFFFFFFFFFFFFFFFFFFFFFFFF DUP3 AND SWAP1 POP SWAP2 SWAP1 POP JUMP JUMPDEST PUSH1 0x0 PUSH2 0x19AE DUP3 PUSH2 0x1983 JUMP JUMPDEST SWAP1 POP SWAP2 SWAP1 POP JUMP JUMPDEST PUSH2 0x19BE DUP2 PUSH2 0x19A3 JUMP JUMPDEST DUP2 EQ PUSH2 0x19C9 JUMPI PUSH1 0x0 DUP1 REVERT JUMPDEST POP JUMP JUMPDEST PUSH1 0x0 DUP2 CALLDATALOAD SWAP1 POP PUSH2 0x19DB DUP2 PUSH2 0x19B5 JUMP JUMPDEST SWAP3 SWAP2 POP POP JUMP JUMPDEST PUSH1 0x0 DUP2 SWAP1 POP SWAP2 SWAP1 POP JUMP JUMPDEST PUSH2 0x19F4 DUP2 PUSH2 0x19E1 JUMP JUMPDEST DUP2 EQ PUSH2 0x19FF JUMPI PUSH1 0x0 DUP1 REVERT JUMPDEST POP JUMP JUMPDEST PUSH1 0x0 DUP2 CALLDATALOAD SWAP1 POP PUSH2 0x1A11 DUP2 PUSH2 0x19EB JUMP JUMPDEST SWAP3 SWAP2 POP POP JUMP JUMPDEST PUSH1 0x0 DUP1 PUSH1 0x40 DUP4 DUP6 SUB SLT ISZERO PUSH2 0x1A2E JUMPI PUSH2 0x1A2D PUSH2 0x197E JUMP JUMPDEST JUMPDEST PUSH1 0x0 PUSH2 0x1A3C DUP6 DUP3 DUP7 ADD PUSH2 0x19CC JUMP JUMPDEST SWAP3 POP POP PUSH1 0x20 PUSH2 0x1A4D DUP6 DUP3 DUP7 ADD PUSH2 0x1A02 JUMP JUMPDEST SWAP2 POP POP SWAP3 POP SWAP3 SWAP1 POP JUMP JUMPDEST PUSH1 0x0 DUP2 ISZERO ISZERO SWAP1 POP SWAP2 SWAP1 POP JUMP JUMPDEST PUSH2 0x1A6C DUP2 PUSH2 0x1A57 JUMP JUMPDEST DUP3 MSTORE POP POP JUMP JUMPDEST PUSH1 0x0 PUSH1 0x20 DUP3 ADD SWAP1 POP PUSH2 0x1A87 PUSH1 0x0 DUP4 ADD DUP5 PUSH2 0x1A63 JUMP JUMPDEST SWAP3 SWAP2 POP POP JUMP JUMPDEST PUSH2 0x1A96 DUP2 PUSH2 0x19E1 JUMP JUMPDEST DUP3 MSTORE POP POP JUMP JUMPDEST PUSH1 0x0 PUSH1 0x20 DUP3 ADD SWAP1 POP PUSH2 0x1AB1 PUSH1 0x0 DUP4 ADD DUP5 PUSH2 0x1A8D JUMP JUMPDEST SWAP3 SWAP2 POP POP JUMP JUMPDEST PUSH1 0x0 DUP1 PUSH1 0x0 PUSH1 0x60 DUP5 DUP7 SUB SLT ISZERO PUSH2 0x1AD0 JUMPI PUSH2 0x1ACF PUSH2 0x197E JUMP JUMPDEST JUMPDEST PUSH1 0x0 PUSH2 0x1ADE DUP7 DUP3 DUP8 ADD PUSH2 0x19CC JUMP JUMPDEST SWAP4 POP POP PUSH1 0x20 PUSH2 0x1AEF DUP7 DUP3 DUP8 ADD PUSH2 0x19CC JUMP JUMPDEST SWAP3 POP POP PUSH1 0x40 PUSH2 0x1B00 DUP7 DUP3 DUP8 ADD PUSH2 0x1A02 JUMP JUMPDEST SWAP2 POP POP SWAP3 POP SWAP3 POP SWAP3 JUMP JUMPDEST PUSH1 0x0 PUSH1 0xFF DUP3 AND SWAP1 POP SWAP2 SWAP1 POP JUMP JUMPDEST PUSH2 0x1B20 DUP2 PUSH2 0x1B0A JUMP JUMPDEST DUP3 MSTORE POP POP JUMP JUMPDEST PUSH1 0x0 PUSH1 0x20 DUP3 ADD SWAP1 POP PUSH2 0x1B3B PUSH1 0x0 DUP4 ADD DUP5 PUSH2 0x1B17 JUMP JUMPDEST SWAP3 SWAP2 POP POP JUMP JUMPDEST PUSH1 0x0 PUSH1 0x20 DUP3 DUP5 SUB SLT ISZERO PUSH2 0x1B57 JUMPI PUSH2 0x1B56 PUSH2 0x197E JUMP JUMPDEST JUMPDEST PUSH1 0x0 PUSH2 0x1B65 DUP5 DUP3 DUP6 ADD PUSH2 0x1A02 JUMP JUMPDEST SWAP2 POP POP SWAP3 SWAP2 POP POP JUMP JUMPDEST PUSH1 0x0 PUSH1 0x20 DUP3 DUP5 SUB SLT ISZERO PUSH2 0x1B84 JUMPI PUSH2 0x1B83 PUSH2 0x197E JUMP JUMPDEST JUMPDEST PUSH1 0x0 PUSH2 0x1B92 DUP5 DUP3 DUP6 ADD PUSH2 0x19CC JUMP JUMPDEST SWAP2 POP POP SWAP3 SWAP2 POP POP JUMP JUMPDEST PUSH2 0x1BA4 DUP2 PUSH2 0x19A3 JUMP JUMPDEST DUP3 MSTORE POP POP JUMP JUMPDEST PUSH1 0x0 PUSH1 0x20 DUP3 ADD SWAP1 POP PUSH2 0x1BBF PUSH1 0x0 DUP4 ADD DUP5 PUSH2 0x1B9B JUMP JUMPDEST SWAP3 SWAP2 POP POP JUMP JUMPDEST PUSH1 0x0 DUP1 PUSH1 0x40 DUP4 DUP6 SUB SLT ISZERO PUSH2 0x1BDC JUMPI PUSH2 0x1BDB PUSH2 0x197E JUMP JUMPDEST JUMPDEST PUSH1 0x0 PUSH2 0x1BEA DUP6 DUP3 DUP7 ADD PUSH2 0x19CC JUMP JUMPDEST SWAP3 POP POP PUSH1 0x20 PUSH2 0x1BFB DUP6 DUP3 DUP7 ADD PUSH2 0x19CC JUMP JUMPDEST SWAP2 POP POP SWAP3 POP SWAP3 SWAP1 POP JUMP JUMPDEST PUSH1 0x0 DUP2 MLOAD SWAP1 POP SWAP2 SWAP1 POP JUMP JUMPDEST PUSH1 0x0 DUP3 DUP3 MSTORE PUSH1 0x20 DUP3 ADD SWAP1 POP SWAP3 SWAP2 POP POP JUMP JUMPDEST PUSH1 0x0 DUP2 SWAP1 POP PUSH1 0x20 DUP3 ADD SWAP1 POP SWAP2 SWAP1 POP JUMP JUMPDEST PUSH1 0x0 DUP3 DUP3 MSTORE PUSH1 0x20 DUP3 ADD SWAP1 POP SWAP3 SWAP2 POP POP JUMP JUMPDEST PUSH1 0x0 PUSH2 0x1C4D DUP3 PUSH2 0x18CC JUMP JUMPDEST PUSH2 0x1C57 DUP2 DUP6 PUSH2 0x1C31 JUMP JUMPDEST SWAP4 POP PUSH2 0x1C67 DUP2 DUP6 PUSH1 0x20 DUP7 ADD PUSH2 0x18E8 JUMP JUMPDEST PUSH2 0x1C70 DUP2 PUSH2 0x1912 JUMP JUMPDEST DUP5 ADD SWAP2 POP POP SWAP3 SWAP2 POP POP JUMP JUMPDEST PUSH1 0x0 PUSH2 0x1C87 DUP4 DUP4 PUSH2 0x1C42 JUMP JUMPDEST SWAP1 POP SWAP3 SWAP2 POP POP JUMP JUMPDEST PUSH1 0x0 PUSH1 0x20 DUP3 ADD SWAP1 POP SWAP2 SWAP1 POP JUMP JUMPDEST PUSH1 0x0 PUSH2 0x1CA7 DUP3 PUSH2 0x1C05 JUMP JUMPDEST PUSH2 0x1CB1 DUP2 DUP6 PUSH2 0x1C10 JUMP JUMPDEST SWAP4 POP DUP4 PUSH1 0x20 DUP3 MUL DUP6 ADD PUSH2 0x1CC3 DUP6 PUSH2 0x1C21 JUMP JUMPDEST DUP1 PUSH1 0x0 JUMPDEST DUP6 DUP2 LT ISZERO PUSH2 0x1CFF JUMPI DUP5 DUP5 SUB DUP10 MSTORE DUP2 MLOAD PUSH2 0x1CE0 DUP6 DUP3 PUSH2 0x1C7B JUMP JUMPDEST SWAP5 POP PUSH2 0x1CEB DUP4 PUSH2 0x1C8F JUMP JUMPDEST SWAP3 POP PUSH1 0x20 DUP11 ADD SWAP10 POP POP PUSH1 0x1 DUP2 ADD SWAP1 POP PUSH2 0x1CC7 JUMP JUMPDEST POP DUP3 SWAP8 POP DUP8 SWAP6 POP POP POP POP POP POP SWAP3 SWAP2 POP POP JUMP JUMPDEST PUSH1 0x0 PUSH1 0x40 DUP3 ADD SWAP1 POP DUP2 DUP2 SUB PUSH1 0x0 DUP4 ADD MSTORE PUSH2 0x1D2B DUP2 DUP6 PUSH2 0x1C9C JUMP JUMPDEST SWAP1 POP PUSH2 0x1D3A PUSH1 0x20 DUP4 ADD DUP5 PUSH2 0x1A8D JUMP JUMPDEST SWAP4 SWAP3 POP POP POP JUMP JUMPDEST PUSH32 0x4E487B7100000000000000000000000000000000000000000000000000000000 PUSH1 0x0 MSTORE PUSH1 0x22 PUSH1 0x4 MSTORE PUSH1 0x24 PUSH1 0x0 REVERT JUMPDEST PUSH1 0x0 PUSH1 0x2 DUP3 DIV SWAP1 POP PUSH1 0x1 DUP3 AND DUP1 PUSH2 0x1D88 JUMPI PUSH1 0x7F DUP3 AND SWAP2 POP JUMPDEST PUSH1 0x20 DUP3 LT DUP2 SUB PUSH2 0x1D9B JUMPI PUSH2 0x1D9A PUSH2 0x1D41 JUMP JUMPDEST JUMPDEST POP SWAP2 SWAP1 POP JUMP JUMPDEST PUSH32 0x4E487B7100000000000000000000000000000000000000000000000000000000 PUSH1 0x0 MSTORE PUSH1 0x11 PUSH1 0x4 MSTORE PUSH1 0x24 PUSH1 0x0 REVERT JUMPDEST PUSH1 0x0 PUSH2 0x1DDB DUP3 PUSH2 0x19E1 JUMP JUMPDEST SWAP2 POP PUSH2 0x1DE6 DUP4 PUSH2 0x19E1 JUMP JUMPDEST SWAP3 POP DUP3 DUP3 ADD SWAP1 POP DUP1 DUP3 GT ISZERO PUSH2 0x1DFE JUMPI PUSH2 0x1DFD PUSH2 0x1DA1 JUMP JUMPDEST JUMPDEST SWAP3 SWAP2 POP POP JUMP JUMPDEST PUSH32 0x596F7520646F6E2774206861766520656E6F7567682052455821000000000000 PUSH1 0x0 DUP3 ADD MSTORE POP JUMP JUMPDEST PUSH1 0x0 PUSH2 0x1E3A PUSH1 0x1A DUP4 PUSH2 0x18D7 JUMP JUMPDEST SWAP2 POP PUSH2 0x1E45 DUP3 PUSH2 0x1E04 JUMP JUMPDEST PUSH1 0x20 DUP3 ADD SWAP1 POP SWAP2 SWAP1 POP JUMP JUMPDEST PUSH1 0x0 PUSH1 0x20 DUP3 ADD SWAP1 POP DUP2 DUP2 SUB PUSH1 0x0 DUP4 ADD MSTORE PUSH2 0x1E69 DUP2 PUSH2 0x1E2D JUMP JUMPDEST SWAP1 POP SWAP2 SWAP1 POP JUMP JUMPDEST PUSH32 0x45524332303A2064656372656173656420616C6C6F77616E63652062656C6F77 PUSH1 0x0 DUP3 ADD MSTORE PUSH32 0x207A65726F000000000000000000000000000000000000000000000000000000 PUSH1 0x20 DUP3 ADD MSTORE POP JUMP JUMPDEST PUSH1 0x0 PUSH2 0x1ECC PUSH1 0x25 DUP4 PUSH2 0x18D7 JUMP JUMPDEST SWAP2 POP PUSH2 0x1ED7 DUP3 PUSH2 0x1E70 JUMP JUMPDEST PUSH1 0x40 DUP3 ADD SWAP1 POP SWAP2 SWAP1 POP JUMP JUMPDEST PUSH1 0x0 PUSH1 0x20 DUP3 ADD SWAP1 POP DUP2 DUP2 SUB PUSH1 0x0 DUP4 ADD MSTORE PUSH2 0x1EFB DUP2 PUSH2 0x1EBF JUMP JUMPDEST SWAP1 POP SWAP2 SWAP1 POP JUMP JUMPDEST PUSH32 0x57726F6E67206F7074696F6E2073656C65637465642100000000000000000000 PUSH1 0x0 DUP3 ADD MSTORE POP JUMP JUMPDEST PUSH1 0x0 PUSH2 0x1F38 PUSH1 0x16 DUP4 PUSH2 0x18D7 JUMP JUMPDEST SWAP2 POP PUSH2 0x1F43 DUP3 PUSH2 0x1F02 JUMP JUMPDEST PUSH1 0x20 DUP3 ADD SWAP1 POP SWAP2 SWAP1 POP JUMP JUMPDEST PUSH1 0x0 PUSH1 0x20 DUP3 ADD SWAP1 POP DUP2 DUP2 SUB PUSH1 0x0 DUP4 ADD MSTORE PUSH2 0x1F67 DUP2 PUSH2 0x1F2B JUMP JUMPDEST SWAP1 POP SWAP2 SWAP1 POP JUMP JUMPDEST PUSH32 0x4F6F70732120496E73756666696369656E742052455800000000000000000000 PUSH1 0x0 DUP3 ADD MSTORE POP JUMP JUMPDEST PUSH1 0x0 PUSH2 0x1FA4 PUSH1 0x16 DUP4 PUSH2 0x18D7 JUMP JUMPDEST SWAP2 POP PUSH2 0x1FAF DUP3 PUSH2 0x1F6E JUMP JUMPDEST PUSH1 0x20 DUP3 ADD SWAP1 POP SWAP2 SWAP1 POP JUMP JUMPDEST PUSH1 0x0 PUSH1 0x20 DUP3 ADD SWAP1 POP DUP2 DUP2 SUB PUSH1 0x0 DUP4 ADD MSTORE PUSH2 0x1FD3 DUP2 PUSH2 0x1F97 JUMP JUMPDEST SWAP1 POP SWAP2 SWAP1 POP JUMP JUMPDEST PUSH32 0x4E487B7100000000000000000000000000000000000000000000000000000000 PUSH1 0x0 MSTORE PUSH1 0x41 PUSH1 0x4 MSTORE PUSH1 0x24 PUSH1 0x0 REVERT JUMPDEST PUSH1 0x0 DUP2 SWAP1 POP DUP2 PUSH1 0x0 MSTORE PUSH1 0x20 PUSH1 0x0 KECCAK256 SWAP1 POP SWAP2 SWAP1 POP JUMP JUMPDEST PUSH1 0x0 PUSH1 0x20 PUSH1 0x1F DUP4 ADD DIV SWAP1 POP SWAP2 SWAP1 POP JUMP JUMPDEST PUSH1 0x0 DUP3 DUP3 SHL SWAP1 POP SWAP3 SWAP2 POP POP JUMP JUMPDEST PUSH1 0x0 PUSH1 0x8 DUP4 MUL PUSH2 0x206B PUSH32 0xFFFFFFFFFFFFFFFFFFFFFFFFFFFFFFFFFFFFFFFFFFFFFFFFFFFFFFFFFFFFFFFF DUP3 PUSH2 0x202E JUMP JUMPDEST PUSH2 0x2075 DUP7 DUP4 PUSH2 0x202E JUMP JUMPDEST SWAP6 POP DUP1 NOT DUP5 AND SWAP4 POP DUP1 DUP7 AND DUP5 OR SWAP3 POP POP POP SWAP4 SWAP3 POP POP POP JUMP JUMPDEST PUSH1 0x0 DUP2 SWAP1 POP SWAP2 SWAP1 POP JUMP JUMPDEST PUSH1 0x0 PUSH2 0x20B2 PUSH2 0x20AD PUSH2 0x20A8 DUP5 PUSH2 0x19E1 JUMP JUMPDEST PUSH2 0x208D JUMP JUMPDEST PUSH2 0x19E1 JUMP JUMPDEST SWAP1 POP SWAP2 SWAP1 POP JUMP JUMPDEST PUSH1 0x0 DUP2 SWAP1 POP SWAP2 SWAP1 POP JUMP JUMPDEST PUSH2 0x20CC DUP4 PUSH2 0x2097 JUMP JUMPDEST PUSH2 0x20E0 PUSH2 0x20D8 DUP3 PUSH2 0x20B9 JUMP JUMPDEST DUP5 DUP5 SLOAD PUSH2 0x203B JUMP JUMPDEST DUP3 SSTORE POP POP POP POP JUMP JUMPDEST PUSH1 0x0 SWAP1 JUMP JUMPDEST PUSH2 0x20F5 PUSH2 0x20E8 JUMP JUMPDEST PUSH2 0x2100 DUP2 DUP5 DUP5 PUSH2 0x20C3 JUMP JUMPDEST POP POP POP JUMP JUMPDEST JUMPDEST DUP2 DUP2 LT ISZERO PUSH2 0x2124 JUMPI PUSH2 0x2119 PUSH1 0x0 DUP3 PUSH2 0x20ED JUMP JUMPDEST PUSH1 0x1 DUP2 ADD SWAP1 POP PUSH2 0x2106 JUMP JUMPDEST POP POP JUMP JUMPDEST PUSH1 0x1F DUP3 GT ISZERO PUSH2 0x2169 JUMPI PUSH2 0x213A DUP2 PUSH2 0x2009 JUMP JUMPDEST PUSH2 0x2143 DUP5 PUSH2 0x201E JUMP JUMPDEST DUP2 ADD PUSH1 0x20 DUP6 LT ISZERO PUSH2 0x2152 JUMPI DUP2 SWAP1 POP JUMPDEST PUSH2 0x2166 PUSH2 0x215E DUP6 PUSH2 0x201E JUMP JUMPDEST DUP4 ADD DUP3 PUSH2 0x2105 JUMP JUMPDEST POP POP JUMPDEST POP POP POP JUMP JUMPDEST PUSH1 0x0 DUP3 DUP3 SHR SWAP1 POP SWAP3 SWAP2 POP POP JUMP JUMPDEST PUSH1 0x0 PUSH2 0x218C PUSH1 0x0 NOT DUP5 PUSH1 0x8 MUL PUSH2 0x216E JUMP JUMPDEST NOT DUP1 DUP4 AND SWAP2 POP POP SWAP3 SWAP2 POP POP JUMP JUMPDEST PUSH1 0x0 PUSH2 0x21A5 DUP4 DUP4 PUSH2 0x217B JUMP JUMPDEST SWAP2 POP DUP3 PUSH1 0x2 MUL DUP3 OR SWAP1 POP SWAP3 SWAP2 POP POP JUMP JUMPDEST PUSH2 0x21BE DUP3 PUSH2 0x18CC JUMP JUMPDEST PUSH8 0xFFFFFFFFFFFFFFFF DUP2 GT ISZERO PUSH2 0x21D7 JUMPI PUSH2 0x21D6 PUSH2 0x1FDA JUMP JUMPDEST JUMPDEST PUSH2 0x21E1 DUP3 SLOAD PUSH2 0x1D70 JUMP JUMPDEST PUSH2 0x21EC DUP3 DUP3 DUP6 PUSH2 0x2128 JUMP JUMPDEST PUSH1 0x0 PUSH1 0x20 SWAP1 POP PUSH1 0x1F DUP4 GT PUSH1 0x1 DUP2 EQ PUSH2 0x221F JUMPI PUSH1 0x0 DUP5 ISZERO PUSH2 0x220D JUMPI DUP3 DUP8 ADD MLOAD SWAP1 POP JUMPDEST PUSH2 0x2217 DUP6 DUP3 PUSH2 0x2199 JUMP JUMPDEST DUP7 SSTORE POP PUSH2 0x227F JUMP JUMPDEST PUSH1 0x1F NOT DUP5 AND PUSH2 0x222D DUP7 PUSH2 0x2009 JUMP JUMPDEST PUSH1 0x0 JUMPDEST DUP3 DUP2 LT ISZERO PUSH2 0x2255 JUMPI DUP5 DUP10 ADD MLOAD DUP3 SSTORE PUSH1 0x1 DUP3 ADD SWAP2 POP PUSH1 0x20 DUP6 ADD SWAP5 POP PUSH1 0x20 DUP2 ADD SWAP1 POP PUSH2 0x2230 JUMP JUMPDEST DUP7 DUP4 LT ISZERO PUSH2 0x2272 JUMPI DUP5 DUP10 ADD MLOAD PUSH2 0x226E PUSH1 0x1F DUP10 AND DUP3 PUSH2 0x217B JUMP JUMPDEST DUP4 SSTORE POP JUMPDEST PUSH1 0x1 PUSH1 0x2 DUP9 MUL ADD DUP9 SSTORE POP POP POP JUMPDEST POP POP POP POP POP POP JUMP JUMPDEST PUSH32 0x536F7272792C206E6F7420656E6F7567682062616C616E636520696E2077616C PUSH1 0x0 DUP3 ADD MSTORE PUSH32 0x6C65742E00000000000000000000000000000000000000000000000000000000 PUSH1 0x20 DUP3 ADD MSTORE POP JUMP JUMPDEST PUSH1 0x0 PUSH2 0x22E3 PUSH1 0x24 DUP4 PUSH2 0x18D7 JUMP JUMPDEST SWAP2 POP PUSH2 0x22EE DUP3 PUSH2 0x2287 JUMP JUMPDEST PUSH1 0x40 DUP3 ADD SWAP1 POP SWAP2 SWAP1 POP JUMP JUMPDEST PUSH1 0x0 PUSH1 0x20 DUP3 ADD SWAP1 POP DUP2 DUP2 SUB PUSH1 0x0 DUP4 ADD MSTORE PUSH2 0x2312 DUP2 PUSH2 0x22D6 JUMP JUMPDEST SWAP1 POP SWAP2 SWAP1 POP JUMP JUMPDEST PUSH32 0x4E6F2070757263686173657320666F756E6420666F7220746869732061646472 PUSH1 0x0 DUP3 ADD MSTORE PUSH32 0x6573730000000000000000000000000000000000000000000000000000000000 PUSH1 0x20 DUP3 ADD MSTORE POP JUMP JUMPDEST PUSH1 0x0 PUSH2 0x2375 PUSH1 0x23 DUP4 PUSH2 0x18D7 JUMP JUMPDEST SWAP2 POP PUSH2 0x2380 DUP3 PUSH2 0x2319 JUMP JUMPDEST PUSH1 0x40 DUP3 ADD SWAP1 POP SWAP2 SWAP1 POP JUMP JUMPDEST PUSH1 0x0 PUSH1 0x20 DUP3 ADD SWAP1 POP DUP2 DUP2 SUB PUSH1 0x0 DUP4 ADD MSTORE PUSH2 0x23A4 DUP2 PUSH2 0x2368 JUMP JUMPDEST SWAP1 POP SWAP2 SWAP1 POP JUMP JUMPDEST PUSH32 0x536F72727921206F6E6C79206F776E65722063616E206D696E74205245582100 PUSH1 0x0 DUP3 ADD MSTORE POP JUMP JUMPDEST PUSH1 0x0 PUSH2 0x23E1 PUSH1 0x1F DUP4 PUSH2 0x18D7 JUMP JUMPDEST SWAP2 POP PUSH2 0x23EC DUP3 PUSH2 0x23AB JUMP JUMPDEST PUSH1 0x20 DUP3 ADD SWAP1 POP SWAP2 SWAP1 POP JUMP JUMPDEST PUSH1 0x0 PUSH1 0x20 DUP3 ADD SWAP1 POP DUP2 DUP2 SUB PUSH1 0x0 DUP4 ADD MSTORE PUSH2 0x2410 DUP2 PUSH2 0x23D4 JUMP JUMPDEST SWAP1 POP SWAP2 SWAP1 POP JUMP JUMPDEST PUSH32 0x54686973206164647265737320646F65736E2774206578697374000000000000 PUSH1 0x0 DUP3 ADD MSTORE POP JUMP JUMPDEST PUSH1 0x0 PUSH2 0x244D PUSH1 0x1A DUP4 PUSH2 0x18D7 JUMP JUMPDEST SWAP2 POP PUSH2 0x2458 DUP3 PUSH2 0x2417 JUMP JUMPDEST PUSH1 0x20 DUP3 ADD SWAP1 POP SWAP2 SWAP1 POP JUMP JUMPDEST PUSH1 0x0 PUSH1 0x20 DUP3 ADD SWAP1 POP DUP2 DUP2 SUB PUSH1 0x0 DUP4 ADD MSTORE PUSH2 0x247C DUP2 PUSH2 0x2440 JUMP JUMPDEST SWAP1 POP SWAP2 SWAP1 POP JUMP JUMPDEST PUSH32 0x596F752063616E2774206D696E74206E65676174697665206E756D626572206F PUSH1 0x0 DUP3 ADD MSTORE PUSH32 0x6620524558000000000000000000000000000000000000000000000000000000 PUSH1 0x20 DUP3 ADD MSTORE POP JUMP JUMPDEST PUSH1 0x0 PUSH2 0x24DF PUSH1 0x25 DUP4 PUSH2 0x18D7 JUMP JUMPDEST SWAP2 POP PUSH2 0x24EA DUP3 PUSH2 0x2483 JUMP JUMPDEST PUSH1 0x40 DUP3 ADD SWAP1 POP SWAP2 SWAP1 POP JUMP JUMPDEST PUSH1 0x0 PUSH1 0x20 DUP3 ADD SWAP1 POP DUP2 DUP2 SUB PUSH1 0x0 DUP4 ADD MSTORE PUSH2 0x250E DUP2 PUSH2 0x24D2 JUMP JUMPDEST SWAP1 POP SWAP2 SWAP1 POP JUMP JUMPDEST PUSH32 0x45524332303A20617070726F76652066726F6D20746865207A65726F20616464 PUSH1 0x0 DUP3 ADD MSTORE PUSH32 0x7265737300000000000000000000000000000000000000000000000000000000 PUSH1 0x20 DUP3 ADD MSTORE POP JUMP JUMPDEST PUSH1 0x0 PUSH2 0x2571 PUSH1 0x24 DUP4 PUSH2 0x18D7 JUMP JUMPDEST SWAP2 POP PUSH2 0x257C DUP3 PUSH2 0x2515 JUMP JUMPDEST PUSH1 0x40 DUP3 ADD SWAP1 POP SWAP2 SWAP1 POP JUMP JUMPDEST PUSH1 0x0 PUSH1 0x20 DUP3 ADD SWAP1 POP DUP2 DUP2 SUB PUSH1 0x0 DUP4 ADD MSTORE PUSH2 0x25A0 DUP2 PUSH2 0x2564 JUMP JUMPDEST SWAP1 POP SWAP2 SWAP1 POP JUMP JUMPDEST PUSH32 0x45524332303A20617070726F766520746F20746865207A65726F206164647265 PUSH1 0x0 DUP3 ADD MSTORE PUSH32 0x7373000000000000000000000000000000000000000000000000000000000000 PUSH1 0x20 DUP3 ADD MSTORE POP JUMP JUMPDEST PUSH1 0x0 PUSH2 0x2603 PUSH1 0x22 DUP4 PUSH2 0x18D7 JUMP JUMPDEST SWAP2 POP PUSH2 0x260E DUP3 PUSH2 0x25A7 JUMP JUMPDEST PUSH1 0x40 DUP3 ADD SWAP1 POP SWAP2 SWAP1 POP JUMP JUMPDEST PUSH1 0x0 PUSH1 0x20 DUP3 ADD SWAP1 POP DUP2 DUP2 SUB PUSH1 0x0 DUP4 ADD MSTORE PUSH2 0x2632 DUP2 PUSH2 0x25F6 JUMP JUMPDEST SWAP1 POP SWAP2 SWAP1 POP JUMP JUMPDEST PUSH32 0x45524332303A20696E73756666696369656E7420616C6C6F77616E6365000000 PUSH1 0x0 DUP3 ADD MSTORE POP JUMP JUMPDEST PUSH1 0x0 PUSH2 0x266F PUSH1 0x1D DUP4 PUSH2 0x18D7 JUMP JUMPDEST SWAP2 POP PUSH2 0x267A DUP3 PUSH2 0x2639 JUMP JUMPDEST PUSH1 0x20 DUP3 ADD SWAP1 POP SWAP2 SWAP1 POP JUMP JUMPDEST PUSH1 0x0 PUSH1 0x20 DUP3 ADD SWAP1 POP DUP2 DUP2 SUB PUSH1 0x0 DUP4 ADD MSTORE PUSH2 0x269E DUP2 PUSH2 0x2662 JUMP JUMPDEST SWAP1 POP SWAP2 SWAP1 POP JUMP JUMPDEST PUSH32 0x45524332303A207472616E736665722066726F6D20746865207A65726F206164 PUSH1 0x0 DUP3 ADD MSTORE PUSH32 0x6472657373000000000000000000000000000000000000000000000000000000 PUSH1 0x20 DUP3 ADD MSTORE POP JUMP JUMPDEST PUSH1 0x0 PUSH2 0x2701 PUSH1 0x25 DUP4 PUSH2 0x18D7 JUMP JUMPDEST SWAP2 POP PUSH2 0x270C DUP3 PUSH2 0x26A5 JUMP JUMPDEST PUSH1 0x40 DUP3 ADD SWAP1 POP SWAP2 SWAP1 POP JUMP JUMPDEST PUSH1 0x0 PUSH1 0x20 DUP3 ADD SWAP1 POP DUP2 DUP2 SUB PUSH1 0x0 DUP4 ADD MSTORE PUSH2 0x2730 DUP2 PUSH2 0x26F4 JUMP JUMPDEST SWAP1 POP SWAP2 SWAP1 POP JUMP JUMPDEST PUSH32 0x45524332303A207472616E7366657220746F20746865207A65726F2061646472 PUSH1 0x0 DUP3 ADD MSTORE PUSH32 0x6573730000000000000000000000000000000000000000000000000000000000 PUSH1 0x20 DUP3 ADD MSTORE POP JUMP JUMPDEST PUSH1 0x0 PUSH2 0x2793 PUSH1 0x23 DUP4 PUSH2 0x18D7 JUMP JUMPDEST SWAP2 POP PUSH2 0x279E DUP3 PUSH2 0x2737 JUMP JUMPDEST PUSH1 0x40 DUP3 ADD SWAP1 POP SWAP2 SWAP1 POP JUMP JUMPDEST PUSH1 0x0 PUSH1 0x20 DUP3 ADD SWAP1 POP DUP2 DUP2 SUB PUSH1 0x0 DUP4 ADD MSTORE PUSH2 0x27C2 DUP2 PUSH2 0x2786 JUMP JUMPDEST SWAP1 POP SWAP2 SWAP1 POP JUMP JUMPDEST PUSH32 0x45524332303A207472616E7366657220616D6F756E7420657863656564732062 PUSH1 0x0 DUP3 ADD MSTORE PUSH32 0x616C616E63650000000000000000000000000000000000000000000000000000 PUSH1 0x20 DUP3 ADD MSTORE POP JUMP JUMPDEST PUSH1 0x0 PUSH2 0x2825 PUSH1 0x26 DUP4 PUSH2 0x18D7 JUMP JUMPDEST SWAP2 POP PUSH2 0x2830 DUP3 PUSH2 0x27C9 JUMP JUMPDEST PUSH1 0x40 DUP3 ADD SWAP1 POP SWAP2 SWAP1 POP JUMP JUMPDEST PUSH1 0x0 PUSH1 0x20 DUP3 ADD SWAP1 POP DUP2 DUP2 SUB PUSH1 0x0 DUP4 ADD MSTORE PUSH2 0x2854 DUP2 PUSH2 0x2818 JUMP JUMPDEST SWAP1 POP SWAP2 SWAP1 POP JUMP JUMPDEST PUSH32 0x45524332303A206275726E2066726F6D20746865207A65726F20616464726573 PUSH1 0x0 DUP3 ADD MSTORE PUSH32 0x7300000000000000000000000000000000000000000000000000000000000000 PUSH1 0x20 DUP3 ADD MSTORE POP JUMP JUMPDEST PUSH1 0x0 PUSH2 0x28B7 PUSH1 0x21 DUP4 PUSH2 0x18D7 JUMP JUMPDEST SWAP2 POP PUSH2 0x28C2 DUP3 PUSH2 0x285B JUMP JUMPDEST PUSH1 0x40 DUP3 ADD SWAP1 POP SWAP2 SWAP1 POP JUMP JUMPDEST PUSH1 0x0 PUSH1 0x20 DUP3 ADD SWAP1 POP DUP2 DUP2 SUB PUSH1 0x0 DUP4 ADD MSTORE PUSH2 0x28E6 DUP2 PUSH2 0x28AA JUMP JUMPDEST SWAP1 POP SWAP2 SWAP1 POP JUMP JUMPDEST PUSH32 0x45524332303A206275726E20616D6F756E7420657863656564732062616C616E PUSH1 0x0 DUP3 ADD MSTORE PUSH32 0x6365000000000000000000000000000000000000000000000000000000000000 PUSH1 0x20 DUP3 ADD MSTORE POP JUMP JUMPDEST PUSH1 0x0 PUSH2 0x2949 PUSH1 0x22 DUP4 PUSH2 0x18D7 JUMP JUMPDEST SWAP2 POP PUSH2 0x2954 DUP3 PUSH2 0x28ED JUMP JUMPDEST PUSH1 0x40 DUP3 ADD SWAP1 POP SWAP2 SWAP1 POP JUMP JUMPDEST PUSH1 0x0 PUSH1 0x20 DUP3 ADD SWAP1 POP DUP2 DUP2 SUB PUSH1 0x0 DUP4 ADD MSTORE PUSH2 0x2978 DUP2 PUSH2 0x293C JUMP JUMPDEST SWAP1 POP SWAP2 SWAP1 POP JUMP JUMPDEST PUSH32 0x45524332303A206D696E7420746F20746865207A65726F206164647265737300 PUSH1 0x0 DUP3 ADD MSTORE POP JUMP JUMPDEST PUSH1 0x0 PUSH2 0x29B5 PUSH1 0x1F DUP4 PUSH2 0x18D7 JUMP JUMPDEST SWAP2 POP PUSH2 0x29C0 DUP3 PUSH2 0x297F JUMP JUMPDEST PUSH1 0x20 DUP3 ADD SWAP1 POP SWAP2 SWAP1 POP JUMP JUMPDEST PUSH1 0x0 PUSH1 0x20 DUP3 ADD SWAP1 POP DUP2 DUP2 SUB PUSH1 0x0 DUP4 ADD MSTORE PUSH2 0x29E4 DUP2 PUSH2 0x29A8 JUMP JUMPDEST SWAP1 POP SWAP2 SWAP1 POP JUMP INVALID BALANCE 0x2E KECCAK256 TIMESTAMP PUSH10 0x7279616E69205B313530 KECCAK256 MSTORE GASLIMIT PC 0x5D KECCAK256 ORIGIN 0x2E KECCAK256 SLOAD PUSH2 0x6E64 PUSH16 0x6F726920436869636B656E205B323530 KECCAK256 MSTORE GASLIMIT PC 0x5D KECCAK256 CALLER 0x2E KECCAK256 TIMESTAMP PUSH22 0x7474657220436869636B656E205B323030205245585D KECCAK256 CALLVALUE 0x2E KECCAK256 0x4E PUSH16 0x6F646C6573205B313130205245585DA2 PUSH5 0x6970667358 0x22 SLT KECCAK256 SHL NUMBER SHL EQ MLOAD 0x5F 0xE8 PUSH26 0x323082C9470811137A04B087843A907481F98E6E3743103C6473 PUSH16 0x6C634300081200330000000000000000 "
				},
				"gasEstimates": {
					"creation": {
						"codeDepositCost": "2176800",
						"executionCost": "infinite",
						"totalCost": "infinite"
					},
					"external": {
						"allowance(address,address)": "infinite",
						"approve(address,uint256)": "infinite",
						"balanceOf(address)": "2952",
						"burnTokens(uint256)": "infinite",
						"checkTokenBalance()": "2614",
						"decimals()": "455",
						"decreaseAllowance(address,uint256)": "infinite",
						"foodPurchases()": "infinite",
						"foodShop()": "infinite",
						"increaseAllowance(address,uint256)": "infinite",
						"mintTokens(address,uint256)": "infinite",
						"name()": "infinite",
						"owner()": "2559",
						"redeemTokens(uint256)": "infinite",
						"symbol()": "infinite",
						"tokenName()": "infinite",
						"tokenSymbol()": "infinite",
						"totalSupply()": "2505",
						"transfer(address,uint256)": "infinite",
						"transferFrom(address,address,uint256)": "infinite",
						"transferTokens(address,uint256)": "infinite"
					}
				},
				"methodIdentifiers": {
					"allowance(address,address)": "dd62ed3e",
					"approve(address,uint256)": "095ea7b3",
					"balanceOf(address)": "70a08231",
					"burnTokens(uint256)": "6d1b229d",
					"checkTokenBalance()": "4f731087",
					"decimals()": "313ce567",
					"decreaseAllowance(address,uint256)": "a457c2d7",
					"foodPurchases()": "e0229239",
					"foodShop()": "e271c9e6",
					"increaseAllowance(address,uint256)": "39509351",
					"mintTokens(address,uint256)": "f0dda65c",
					"name()": "06fdde03",
					"owner()": "8da5cb5b",
					"redeemTokens(uint256)": "a6e158f8",
					"symbol()": "95d89b41",
					"tokenName()": "6c02a931",
					"tokenSymbol()": "7b61c320",
					"totalSupply()": "18160ddd",
					"transfer(address,uint256)": "a9059cbb",
					"transferFrom(address,address,uint256)": "23b872dd",
					"transferTokens(address,uint256)": "bec3fa17"
				}
			},
			"storageLayout": {
				"storage": [
					{
						"astId": 15,
						"contract": "contracts/DegenToken.sol:DegenToken",
						"label": "_balances",
						"offset": 0,
						"slot": "0",
						"type": "t_mapping(t_address,t_uint256)"
					},
					{
						"astId": 21,
						"contract": "contracts/DegenToken.sol:DegenToken",
						"label": "_allowances",
						"offset": 0,
						"slot": "1",
						"type": "t_mapping(t_address,t_mapping(t_address,t_uint256))"
					},
					{
						"astId": 23,
						"contract": "contracts/DegenToken.sol:DegenToken",
						"label": "_totalSupply",
						"offset": 0,
						"slot": "2",
						"type": "t_uint256"
					},
					{
						"astId": 25,
						"contract": "contracts/DegenToken.sol:DegenToken",
						"label": "_name",
						"offset": 0,
						"slot": "3",
						"type": "t_string_storage"
					},
					{
						"astId": 27,
						"contract": "contracts/DegenToken.sol:DegenToken",
						"label": "_symbol",
						"offset": 0,
						"slot": "4",
						"type": "t_string_storage"
					},
					{
						"astId": 719,
						"contract": "contracts/DegenToken.sol:DegenToken",
						"label": "tokenName",
						"offset": 0,
						"slot": "5",
						"type": "t_string_storage"
					},
					{
						"astId": 722,
						"contract": "contracts/DegenToken.sol:DegenToken",
						"label": "tokenSymbol",
						"offset": 0,
						"slot": "6",
						"type": "t_string_storage"
					},
					{
						"astId": 727,
						"contract": "contracts/DegenToken.sol:DegenToken",
						"label": "purchases",
						"offset": 0,
						"slot": "7",
						"type": "t_mapping(t_address,t_array(t_string_storage)dyn_storage)"
					},
					{
						"astId": 729,
						"contract": "contracts/DegenToken.sol:DegenToken",
						"label": "owner",
						"offset": 0,
						"slot": "8",
						"type": "t_address"
					}
				],
				"types": {
					"t_address": {
						"encoding": "inplace",
						"label": "address",
						"numberOfBytes": "20"
					},
					"t_array(t_string_storage)dyn_storage": {
						"base": "t_string_storage",
						"encoding": "dynamic_array",
						"label": "string[]",
						"numberOfBytes": "32"
					},
					"t_mapping(t_address,t_array(t_string_storage)dyn_storage)": {
						"encoding": "mapping",
						"key": "t_address",
						"label": "mapping(address => string[])",
						"numberOfBytes": "32",
						"value": "t_array(t_string_storage)dyn_storage"
					},
					"t_mapping(t_address,t_mapping(t_address,t_uint256))": {
						"encoding": "mapping",
						"key": "t_address",
						"label": "mapping(address => mapping(address => uint256))",
						"numberOfBytes": "32",
						"value": "t_mapping(t_address,t_uint256)"
					},
					"t_mapping(t_address,t_uint256)": {
						"encoding": "mapping",
						"key": "t_address",
						"label": "mapping(address => uint256)",
						"numberOfBytes": "32",
						"value": "t_uint256"
					},
					"t_string_storage": {
						"encoding": "bytes",
						"label": "string",
						"numberOfBytes": "32"
					},
					"t_uint256": {
						"encoding": "inplace",
						"label": "uint256",
						"numberOfBytes": "32"
					}
				}
			},
			"userdoc": {
				"kind": "user",
				"methods": {},
				"version": 1
			}
		}
	}
}